{
  "_format": "hh-sol-artifact-1",
  "contractName": "Program",
  "sourceName": "contracts/Program.sol",
  "abi": [
    {
      "inputs": [],
      "stateMutability": "nonpayable",
      "type": "constructor"
    },
    {
      "anonymous": false,
      "inputs": [
        {
          "indexed": true,
          "internalType": "address",
          "name": "account",
          "type": "address"
        },
        {
          "indexed": true,
          "internalType": "address",
          "name": "operator",
          "type": "address"
        },
        {
          "indexed": false,
          "internalType": "bool",
          "name": "approved",
          "type": "bool"
        }
      ],
      "name": "ApprovalForAll",
      "type": "event"
    },
    {
      "anonymous": false,
      "inputs": [
        {
          "indexed": true,
          "internalType": "address",
          "name": "previousOwner",
          "type": "address"
        },
        {
          "indexed": true,
          "internalType": "address",
          "name": "newOwner",
          "type": "address"
        }
      ],
      "name": "OwnershipTransferred",
      "type": "event"
    },
    {
      "anonymous": false,
      "inputs": [
        {
          "indexed": true,
          "internalType": "address",
          "name": "operator",
          "type": "address"
        },
        {
          "indexed": true,
          "internalType": "address",
          "name": "from",
          "type": "address"
        },
        {
          "indexed": true,
          "internalType": "address",
          "name": "to",
          "type": "address"
        },
        {
          "indexed": false,
          "internalType": "uint256[]",
          "name": "ids",
          "type": "uint256[]"
        },
        {
          "indexed": false,
          "internalType": "uint256[]",
          "name": "values",
          "type": "uint256[]"
        }
      ],
      "name": "TransferBatch",
      "type": "event"
    },
    {
      "anonymous": false,
      "inputs": [
        {
          "indexed": true,
          "internalType": "address",
          "name": "operator",
          "type": "address"
        },
        {
          "indexed": true,
          "internalType": "address",
          "name": "from",
          "type": "address"
        },
        {
          "indexed": true,
          "internalType": "address",
          "name": "to",
          "type": "address"
        },
        {
          "indexed": false,
          "internalType": "uint256",
          "name": "id",
          "type": "uint256"
        },
        {
          "indexed": false,
          "internalType": "uint256",
          "name": "value",
          "type": "uint256"
        }
      ],
      "name": "TransferSingle",
      "type": "event"
    },
    {
      "anonymous": false,
      "inputs": [
        {
          "indexed": false,
          "internalType": "string",
          "name": "value",
          "type": "string"
        },
        {
          "indexed": true,
          "internalType": "uint256",
          "name": "id",
          "type": "uint256"
        }
      ],
      "name": "URI",
      "type": "event"
    },
    {
      "inputs": [
        {
          "internalType": "string",
          "name": "",
          "type": "string"
        }
      ],
      "name": "abilityInitNumberMap",
      "outputs": [
        {
          "internalType": "uint256",
          "name": "",
          "type": "uint256"
        }
      ],
      "stateMutability": "view",
      "type": "function"
    },
    {
      "inputs": [
        {
          "internalType": "address",
          "name": "account",
          "type": "address"
        },
        {
          "internalType": "uint256",
          "name": "id",
          "type": "uint256"
        }
      ],
      "name": "balanceOf",
      "outputs": [
        {
          "internalType": "uint256",
          "name": "",
          "type": "uint256"
        }
      ],
      "stateMutability": "view",
      "type": "function"
    },
    {
      "inputs": [
        {
          "internalType": "address[]",
          "name": "accounts",
          "type": "address[]"
        },
        {
          "internalType": "uint256[]",
          "name": "ids",
          "type": "uint256[]"
        }
      ],
      "name": "balanceOfBatch",
      "outputs": [
        {
          "internalType": "uint256[]",
          "name": "",
          "type": "uint256[]"
        }
      ],
      "stateMutability": "view",
      "type": "function"
    },
    {
      "inputs": [],
      "name": "devContract",
      "outputs": [
        {
          "internalType": "address",
          "name": "",
          "type": "address"
        }
      ],
      "stateMutability": "view",
      "type": "function"
    },
    {
      "inputs": [
        {
          "internalType": "uint256",
          "name": "id",
          "type": "uint256"
        }
      ],
      "name": "exists",
      "outputs": [
        {
          "internalType": "bool",
          "name": "",
          "type": "bool"
        }
      ],
      "stateMutability": "view",
      "type": "function"
    },
    {
      "inputs": [
        {
          "internalType": "uint256",
          "name": "_programId",
          "type": "uint256"
        }
      ],
      "name": "getAbility",
      "outputs": [
        {
          "internalType": "string",
          "name": "",
          "type": "string"
        }
      ],
      "stateMutability": "view",
      "type": "function"
    },
    {
      "inputs": [
        {
          "internalType": "address",
          "name": "account",
          "type": "address"
        },
        {
          "internalType": "address",
          "name": "operator",
          "type": "address"
        }
      ],
      "name": "isApprovedForAll",
      "outputs": [
        {
          "internalType": "bool",
          "name": "",
          "type": "bool"
        }
      ],
      "stateMutability": "view",
      "type": "function"
    },
    {
      "inputs": [
        {
          "internalType": "uint256",
          "name": "_tokenId",
          "type": "uint256"
        },
        {
          "internalType": "uint256",
          "name": "_amount",
          "type": "uint256"
        }
      ],
      "name": "mintProgram",
      "outputs": [],
      "stateMutability": "nonpayable",
      "type": "function"
    },
    {
      "inputs": [],
      "name": "owner",
      "outputs": [
        {
          "internalType": "address",
          "name": "",
          "type": "address"
        }
      ],
      "stateMutability": "view",
      "type": "function"
    },
    {
      "inputs": [
        {
          "internalType": "uint256",
          "name": "",
          "type": "uint256"
        }
      ],
      "name": "programInfoMap",
      "outputs": [
        {
          "internalType": "uint256",
          "name": "tokenId",
          "type": "uint256"
        },
        {
          "internalType": "string",
          "name": "ability",
          "type": "string"
        },
        {
          "internalType": "address",
          "name": "dev",
          "type": "address"
        },
        {
          "internalType": "uint256",
          "name": "mainVersion",
          "type": "uint256"
        },
        {
          "internalType": "uint256",
          "name": "subVersion",
          "type": "uint256"
        },
        {
          "internalType": "uint256",
          "name": "uploadTime",
          "type": "uint256"
        },
        {
          "internalType": "bytes32",
          "name": "hashValue",
          "type": "bytes32"
        },
        {
          "internalType": "string",
          "name": "desc",
          "type": "string"
        },
        {
          "internalType": "string",
          "name": "repositUrl",
          "type": "string"
        },
        {
          "internalType": "bool",
          "name": "bPublic",
          "type": "bool"
        }
      ],
      "stateMutability": "view",
      "type": "function"
    },
    {
      "inputs": [
        {
          "internalType": "address",
          "name": "_dev",
          "type": "address"
        },
        {
          "internalType": "string",
          "name": "_ability",
          "type": "string"
        },
        {
          "internalType": "uint256",
          "name": "_mainVersion",
          "type": "uint256"
        },
        {
          "internalType": "uint256",
          "name": "_subVersion",
          "type": "uint256"
        },
        {
          "internalType": "bytes32",
          "name": "_hashValue",
          "type": "bytes32"
        },
        {
          "internalType": "string",
          "name": "_desc",
          "type": "string"
        },
        {
          "internalType": "string",
          "name": "_repositUrl",
          "type": "string"
        }
      ],
      "name": "registerProgram",
      "outputs": [
        {
          "internalType": "uint256",
          "name": "",
          "type": "uint256"
        }
      ],
      "stateMutability": "nonpayable",
      "type": "function"
    },
    {
      "inputs": [],
      "name": "renounceOwnership",
      "outputs": [],
      "stateMutability": "nonpayable",
      "type": "function"
    },
    {
      "inputs": [
        {
          "internalType": "address",
          "name": "from",
          "type": "address"
        },
        {
          "internalType": "address",
          "name": "to",
          "type": "address"
        },
        {
          "internalType": "uint256[]",
          "name": "ids",
          "type": "uint256[]"
        },
        {
          "internalType": "uint256[]",
          "name": "amounts",
          "type": "uint256[]"
        },
        {
          "internalType": "bytes",
          "name": "data",
          "type": "bytes"
        }
      ],
      "name": "safeBatchTransferFrom",
      "outputs": [],
      "stateMutability": "nonpayable",
      "type": "function"
    },
    {
      "inputs": [
        {
          "internalType": "address",
          "name": "from",
          "type": "address"
        },
        {
          "internalType": "address",
          "name": "to",
          "type": "address"
        },
        {
          "internalType": "uint256",
          "name": "id",
          "type": "uint256"
        },
        {
          "internalType": "uint256",
          "name": "amount",
          "type": "uint256"
        },
        {
          "internalType": "bytes",
          "name": "data",
          "type": "bytes"
        }
      ],
      "name": "safeTransferFrom",
      "outputs": [],
      "stateMutability": "nonpayable",
      "type": "function"
    },
    {
      "inputs": [
        {
          "internalType": "string",
          "name": "abilityName",
          "type": "string"
        },
        {
          "internalType": "uint256",
          "name": "_initNumber",
          "type": "uint256"
        }
      ],
      "name": "setAbilityInitNumber",
      "outputs": [],
      "stateMutability": "nonpayable",
      "type": "function"
    },
    {
      "inputs": [
        {
          "internalType": "address",
          "name": "operator",
          "type": "address"
        },
        {
          "internalType": "bool",
          "name": "approved",
          "type": "bool"
        }
      ],
      "name": "setApprovalForAll",
      "outputs": [],
      "stateMutability": "nonpayable",
      "type": "function"
    },
    {
      "inputs": [
        {
          "internalType": "address",
          "name": "_devContract",
          "type": "address"
        }
      ],
      "name": "setDevContractAddr",
      "outputs": [],
      "stateMutability": "nonpayable",
      "type": "function"
    },
    {
      "inputs": [
        {
          "internalType": "uint256",
          "name": "_tokenId",
          "type": "uint256"
        }
      ],
      "name": "setPublic",
      "outputs": [],
      "stateMutability": "nonpayable",
      "type": "function"
    },
    {
      "inputs": [
        {
          "internalType": "string",
          "name": "abilityName",
          "type": "string"
        },
        {
          "internalType": "bool",
          "name": "_bSupported",
          "type": "bool"
        }
      ],
      "name": "setSupportAbility",
      "outputs": [],
      "stateMutability": "nonpayable",
      "type": "function"
    },
    {
      "inputs": [
        {
          "internalType": "string",
          "name": "",
          "type": "string"
        }
      ],
      "name": "supportedAbilityMap",
      "outputs": [
        {
          "internalType": "bool",
          "name": "",
          "type": "bool"
        }
      ],
      "stateMutability": "view",
      "type": "function"
    },
    {
      "inputs": [
        {
          "internalType": "bytes4",
          "name": "interfaceId",
          "type": "bytes4"
        }
      ],
      "name": "supportsInterface",
      "outputs": [
        {
          "internalType": "bool",
          "name": "",
          "type": "bool"
        }
      ],
      "stateMutability": "view",
      "type": "function"
    },
    {
      "inputs": [],
      "name": "tokenId",
      "outputs": [
        {
          "internalType": "uint256",
          "name": "",
          "type": "uint256"
        }
      ],
      "stateMutability": "view",
      "type": "function"
    },
    {
      "inputs": [
        {
          "internalType": "uint256",
          "name": "_tokenId",
          "type": "uint256"
        }
      ],
      "name": "tokenURI",
      "outputs": [
        {
          "internalType": "string",
          "name": "",
          "type": "string"
        }
      ],
      "stateMutability": "view",
      "type": "function"
    },
    {
      "inputs": [
        {
          "internalType": "uint256",
          "name": "id",
          "type": "uint256"
        }
      ],
      "name": "totalSupply",
      "outputs": [
        {
          "internalType": "uint256",
          "name": "",
          "type": "uint256"
        }
      ],
      "stateMutability": "view",
      "type": "function"
    },
    {
      "inputs": [
        {
          "internalType": "address",
          "name": "newOwner",
          "type": "address"
        }
      ],
      "name": "transferOwnership",
      "outputs": [],
      "stateMutability": "nonpayable",
      "type": "function"
    },
    {
      "inputs": [
        {
          "internalType": "uint256",
          "name": "",
          "type": "uint256"
        }
      ],
      "name": "uri",
      "outputs": [
        {
          "internalType": "string",
          "name": "",
          "type": "string"
        }
      ],
      "stateMutability": "view",
      "type": "function"
    }
  ],
  "bytecode": "0x60806040523480156200001157600080fd5b506040805160208101909152600081526200002c816200003e565b50620000383362000057565b6200018c565b805162000053906002906020840190620000a9565b5050565b600480546001600160a01b038381166001600160a01b0319831681179093556040519116919082907f8be0079c531659141344cd1fd0a4f28419497f9722a3daafe3b4186f6b6457e090600090a35050565b828054620000b7906200014f565b90600052602060002090601f016020900481019282620000db576000855562000126565b82601f10620000f657805160ff191683800117855562000126565b8280016001018555821562000126579182015b828111156200012657825182559160200191906001019062000109565b506200013492915062000138565b5090565b5b8082111562000134576000815560010162000139565b600181811c908216806200016457607f821691505b602082108114156200018657634e487b7160e01b600052602260045260246000fd5b50919050565b61362d806200019c6000396000f3fe608060405234801561001057600080fd5b506004361061018d5760003560e01c80637af4461e116100de578063c87b56dd11610097578063e5889fa211610071578063e5889fa2146103d9578063e985e9c5146103ec578063f242432a14610428578063f2fde38b1461043b57600080fd5b8063c87b56dd146103a0578063cbc5d917146103b3578063d5523f77146103c657600080fd5b80637af4461e146102f55780638da5cb5b14610308578063a22cb46514610319578063b0d879881461032c578063bd85b03914610357578063c2e37b9b1461037757600080fd5b80632f4fa7f31161014b5780634e1273f4116101255780634e1273f4146102985780634f558e79146102b8578063522e0bcf146102da578063715018a6146102ed57600080fd5b80632f4fa7f31461024457806331845f7d146102725780633201039a1461028557600080fd5b8062fdd58e1461019257806301ffc9a7146101b85780630e89341c146101db5780630fd6240e146101fb57806317d70f7c146102265780632eb2c2d61461022f575b600080fd5b6101a56101a036600461255a565b61044e565b6040519081526020015b60405180910390f35b6101cb6101c636600461259a565b6104e5565b60405190151581526020016101af565b6101ee6101e93660046125b7565b610537565b6040516101af919061262c565b60055461020e906001600160a01b031681565b6040516001600160a01b0390911681526020016101af565b6101a560065481565b61024261023d366004612788565b6105cb565b005b6101cb610252366004612831565b805160208183018101805160088252928201919093012091525460ff1681565b6102426102803660046125b7565b610662565b610242610293366004612865565b6106ae565b6102ab6102a63660046128a9565b6106fd565b6040516101af91906129ae565b6101cb6102c63660046125b7565b600090815260036020526040902054151590565b6102426102e83660046129c1565b610826565b610242610872565b6102426103033660046129ec565b6108a8565b6004546001600160a01b031661020e565b610242610327366004612a39565b610907565b6101a561033a366004612831565b805160208183018101805160098252928201919093012091525481565b6101a56103653660046125b7565b60009081526003602052604090205490565b61038a6103853660046125b7565b610916565b6040516101af9a99989796959493929190612a63565b6101ee6103ae3660046125b7565b610b11565b6102426103c1366004612ae7565b611053565b6101ee6103d43660046125b7565b611331565b6101a56103e7366004612b09565b611351565b6101cb6103fa366004612bbe565b6001600160a01b03918216600090815260016020908152604080832093909416825291909152205460ff1690565b610242610436366004612be8565b611634565b6102426104493660046129c1565b6116bb565b60006001600160a01b0383166104bf5760405162461bcd60e51b815260206004820152602b60248201527f455243313135353a2062616c616e636520717565727920666f7220746865207a60448201526a65726f206164647265737360a81b60648201526084015b60405180910390fd5b506000908152602081815260408083206001600160a01b03949094168352929052205490565b60006001600160e01b03198216636cdb3d1360e11b148061051657506001600160e01b031982166303a24d0760e21b145b8061053157506301ffc9a760e01b6001600160e01b03198316145b92915050565b60606002805461054690612c4c565b80601f016020809104026020016040519081016040528092919081815260200182805461057290612c4c565b80156105bf5780601f10610594576101008083540402835291602001916105bf565b820191906000526020600020905b8154815290600101906020018083116105a257829003601f168201915b50505050509050919050565b6001600160a01b0385163314806105e757506105e785336103fa565b61064e5760405162461bcd60e51b815260206004820152603260248201527f455243313135353a207472616e736665722063616c6c6572206973206e6f74206044820152711bdddb995c881b9bdc88185c1c1c9bdd995960721b60648201526084016104b6565b61065b8585858585611756565b5050505050565b6004546001600160a01b0316331461068c5760405162461bcd60e51b81526004016104b690612c87565b506006546000908152600760205260409020600901805460ff19166001179055565b6004546001600160a01b031633146106d85760405162461bcd60e51b81526004016104b690612c87565b806009836040516106e99190612cbc565b908152604051908190036020019020555050565b606081518351146107625760405162461bcd60e51b815260206004820152602960248201527f455243313135353a206163636f756e747320616e6420696473206c656e677468604482015268040dad2e6dac2e8c6d60bb1b60648201526084016104b6565b600083516001600160401b0381111561077d5761077d61263f565b6040519080825280602002602001820160405280156107a6578160200160208202803683370190505b50905060005b845181101561081e576107f18582815181106107ca576107ca612cd8565b60200260200101518583815181106107e4576107e4612cd8565b602002602001015161044e565b82828151811061080357610803612cd8565b602090810291909101015261081781612d04565b90506107ac565b509392505050565b6004546001600160a01b031633146108505760405162461bcd60e51b81526004016104b690612c87565b600580546001600160a01b0319166001600160a01b0392909216919091179055565b6004546001600160a01b0316331461089c5760405162461bcd60e51b81526004016104b690612c87565b6108a66000611941565b565b6004546001600160a01b031633146108d25760405162461bcd60e51b81526004016104b690612c87565b806008836040516108e39190612cbc565b908152604051908190036020019020805491151560ff199092169190911790555050565b610912338383611993565b5050565b6007602052600090815260409020805460018201805491929161093890612c4c565b80601f016020809104026020016040519081016040528092919081815260200182805461096490612c4c565b80156109b15780601f10610986576101008083540402835291602001916109b1565b820191906000526020600020905b81548152906001019060200180831161099457829003601f168201915b5050505050908060020160009054906101000a90046001600160a01b0316908060030154908060040154908060050154908060060154908060070180546109f790612c4c565b80601f0160208091040260200160405190810160405280929190818152602001828054610a2390612c4c565b8015610a705780601f10610a4557610100808354040283529160200191610a70565b820191906000526020600020905b815481529060010190602001808311610a5357829003601f168201915b505050505090806008018054610a8590612c4c565b80601f0160208091040260200160405190810160405280929190818152602001828054610ab190612c4c565b8015610afe5780601f10610ad357610100808354040283529160200191610afe565b820191906000526020600020905b815481529060010190602001808311610ae157829003601f168201915b5050506009909301549192505060ff168a565b600081815260076020908152604080832081516101408101909252805482526001810180546060959484019190610b4790612c4c565b80601f0160208091040260200160405190810160405280929190818152602001828054610b7390612c4c565b8015610bc05780601f10610b9557610100808354040283529160200191610bc0565b820191906000526020600020905b815481529060010190602001808311610ba357829003601f168201915b505050918352505060028201546001600160a01b03166020820152600382015460408201526004820154606082015260058201546080820152600682015460a082015260078201805460c090920191610c1890612c4c565b80601f0160208091040260200160405190810160405280929190818152602001828054610c4490612c4c565b8015610c915780601f10610c6657610100808354040283529160200191610c91565b820191906000526020600020905b815481529060010190602001808311610c7457829003601f168201915b50505050508152602001600882018054610caa90612c4c565b80601f0160208091040260200160405190810160405280929190818152602001828054610cd690612c4c565b8015610d235780601f10610cf857610100808354040283529160200191610d23565b820191906000526020600020905b815481529060010190602001808311610d0657829003601f168201915b50505091835250506009919091015460ff1615156020909101529050610d4761247d565b60405180610120016040528060fd815260200161349360fd91398152602082810151604051610d769201612d1f565b60408051601f1981840301815291905281600160200201819052506040518060600160405280602881526020016135d06028913981600260200201526040820151610dc9906001600160a01b0316611a74565b604051602001610dd99190612d4f565b60408051808303601f190181529181526060808401929092528051918201905260288082526133f16020830139608082015260a0820151610e1990611ad0565b604051602001610e299190612d72565b60408051808303601f1901815291815260a08301919091528051606081019091526028808252613442602083013960c08201526060820151610e6a90611ad0565b610e778360800151611ad0565b604051602001610e88929190612da4565b60408051808303601f1901815291815260e0830191909152805160608101909152602980825261346a602083013961010080830191909152820151604051610ed39190602001612df4565b60408051808303601f190181529181526101208301919091528051606081019091526029808252613419602083013961014082015260e0820151604051610f1d9190602001612e17565b60408051601f1981840301815291815261016083019190915280518082018252600d81526c1e17ba32bc3a1f1e17b9bb339f60991b602080830191909152610180840191909152825181840151848401516060860151608087015160a088015160c089015160e08a01519851600099610f9899909101612e4b565b60408051808303601f1901815290829052610100840151610120850151610140860151610160870151610180880151949650610fd995879590602001612ef0565b60405160208183030381529060405290506000611026610ff887611ad0565b61100184611bcd565b604051602001611012929190612f6f565b604051602081830303815290604052611bcd565b905080604051602001611039919061309e565b60408051601f198184030181529190529695505050505050565b6000600760006006548152602001908152602001600020604051806101400160405290816000820154815260200160018201805461109090612c4c565b80601f01602080910402602001604051908101604052809291908181526020018280546110bc90612c4c565b80156111095780601f106110de57610100808354040283529160200191611109565b820191906000526020600020905b8154815290600101906020018083116110ec57829003601f168201915b505050918352505060028201546001600160a01b03166020820152600382015460408201526004820154606082015260058201546080820152600682015460a082015260078201805460c09092019161116190612c4c565b80601f016020809104026020016040519081016040528092919081815260200182805461118d90612c4c565b80156111da5780601f106111af576101008083540402835291602001916111da565b820191906000526020600020905b8154815290600101906020018083116111bd57829003601f168201915b505050505081526020016008820180546111f390612c4c565b80601f016020809104026020016040519081016040528092919081815260200182805461121f90612c4c565b801561126c5780601f106112415761010080835404028352916020019161126c565b820191906000526020600020905b81548152906001019060200180831161124f57829003601f168201915b50505091835250506009919091015460ff16151560209091015261012081015190915080156112b0575080604001516001600160a01b0316336001600160a01b0316145b6113115760405162461bcd60e51b815260206004820152602c60248201527f50726f6772616d3a206f6e6c792064657620636f756c64206d696e742070756260448201526b3634b190383937b3b930b69760a11b60648201526084016104b6565b61132c33848460405180602001604052806000815250611d32565b505050565b600081815260076020526040902060010180546060919061054690612c4c565b6005546000906001600160a01b031633146113c95760405162461bcd60e51b815260206004820152603260248201527f50726f6772616d3a206f6e6c792064657620636f6e74726163742063616e206360448201527130b636103a3434b99031b7b73a3930b1ba1760711b60648201526084016104b6565b6008876040516113d99190612cbc565b9081526040519081900360200190205460ff166114385760405162461bcd60e51b815260206004820152601e60248201527f50726f6772616d3a206162696c697479204e4f5420737570706f72746564000060448201526064016104b6565b60328351106114af5760405162461bcd60e51b815260206004820152603960248201527f50726f6772616d3a20746865206c656e677468206f6620646573632073686f7560448201527f6c64206265206c657373207468616e2035302062797465732e0000000000000060648201526084016104b6565b600680549060006114bf83612d04565b9091555050604080516101408101825260065480825260208083018b81526001600160a01b038d1684860152606084018b9052608084018a90524260a085015260c0840189905260e084018890526101008401879052600061012085018190529283526007825293909120825181559251805192939261154592600185019201906124a5565b5060408201516002820180546001600160a01b0319166001600160a01b03909216919091179055606082015160038201556080820151600482015560a0820151600582015560c0820151600682015560e082015180516115af9160078401916020909101906124a5565b5061010082015180516115cc9160088401916020909101906124a5565b5061012091909101516009918201805460ff1916911515919091179055600654604051611625928b9291611601908c90612cbc565b90815260200160405180910390205460405180602001604052806000815250611d32565b50600654979650505050505050565b6001600160a01b038516331480611650575061165085336103fa565b6116ae5760405162461bcd60e51b815260206004820152602960248201527f455243313135353a2063616c6c6572206973206e6f74206f776e6572206e6f7260448201526808185c1c1c9bdd995960ba1b60648201526084016104b6565b61065b8585858585611e42565b6004546001600160a01b031633146116e55760405162461bcd60e51b81526004016104b690612c87565b6001600160a01b03811661174a5760405162461bcd60e51b815260206004820152602660248201527f4f776e61626c653a206e6577206f776e657220697320746865207a65726f206160448201526564647265737360d01b60648201526084016104b6565b61175381611941565b50565b81518351146117b85760405162461bcd60e51b815260206004820152602860248201527f455243313135353a2069647320616e6420616d6f756e7473206c656e677468206044820152670dad2e6dac2e8c6d60c31b60648201526084016104b6565b6001600160a01b0384166117de5760405162461bcd60e51b81526004016104b6906130e3565b336117ed818787878787611f5f565b60005b84518110156118d357600085828151811061180d5761180d612cd8565b60200260200101519050600085838151811061182b5761182b612cd8565b602090810291909101810151600084815280835260408082206001600160a01b038e16835290935291909120549091508181101561187b5760405162461bcd60e51b81526004016104b690613128565b6000838152602081815260408083206001600160a01b038e8116855292528083208585039055908b168252812080548492906118b8908490613172565b92505081905550505050806118cc90612d04565b90506117f0565b50846001600160a01b0316866001600160a01b0316826001600160a01b03167f4a39dc06d4c0dbc64b70af90fd698a233a518aa5d07e595d983b8c0526c8f7fb878760405161192392919061318a565b60405180910390a4611939818787878787611f6d565b505050505050565b600480546001600160a01b038381166001600160a01b0319831681179093556040519116919082907f8be0079c531659141344cd1fd0a4f28419497f9722a3daafe3b4186f6b6457e090600090a35050565b816001600160a01b0316836001600160a01b03161415611a075760405162461bcd60e51b815260206004820152602960248201527f455243313135353a2073657474696e6720617070726f76616c20737461747573604482015268103337b91039b2b63360b91b60648201526084016104b6565b6001600160a01b03838116600081815260016020908152604080832094871680845294825291829020805460ff191686151590811790915591519182527f17307eab39ab6107e8899845ad3d59bd9653f200f220920489ca2b5937696c31910160405180910390a3505050565b606081611a9b5750506040805180820190915260048152630307830360e41b602082015290565b8160005b8115611abe5780611aaf81612d04565b915050600882901c9150611a9f565b611ac884826120c9565b949350505050565b606081611af45750506040805180820190915260018152600360fc1b602082015290565b8160005b8115611b1e5780611b0881612d04565b9150611b179050600a836131ce565b9150611af8565b6000816001600160401b03811115611b3857611b3861263f565b6040519080825280601f01601f191660200182016040528015611b62576020820181803683370190505b5090505b8415611ac857611b776001836131e2565b9150611b84600a866131f9565b611b8f906030613172565b60f81b818381518110611ba457611ba4612cd8565b60200101906001600160f81b031916908160001a905350611bc6600a866131ce565b9450611b66565b805160609080611bed575050604080516020810190915260008152919050565b60006003611bfc836002613172565b611c0691906131ce565b611c1190600461320d565b90506000611c20826020613172565b6001600160401b03811115611c3757611c3761263f565b6040519080825280601f01601f191660200182016040528015611c61576020820181803683370190505b5090506000604051806060016040528060408152602001613590604091399050600181016020830160005b86811015611ced576003818a01810151603f601282901c8116860151600c83901c8216870151600684901c831688015192909316870151600891821b60ff94851601821b92841692909201901b91160160e01b835260049092019101611c8c565b506003860660018114611d075760028114611d1857611d24565b613d3d60f01b600119830152611d24565b603d60f81b6000198301525b505050918152949350505050565b6001600160a01b038416611d925760405162461bcd60e51b815260206004820152602160248201527f455243313135353a206d696e7420746f20746865207a65726f206164647265736044820152607360f81b60648201526084016104b6565b33611db281600087611da38861226b565b611dac8861226b565b87611f5f565b6000848152602081815260408083206001600160a01b038916845290915281208054859290611de2908490613172565b909155505060408051858152602081018590526001600160a01b0380881692600092918516917fc3d58168c5ae7397731d063d5bbf3d657854427343f4c083240f7aacaa2d0f62910160405180910390a461065b816000878787876122b6565b6001600160a01b038416611e685760405162461bcd60e51b81526004016104b6906130e3565b33611e78818787611da38861226b565b6000848152602081815260408083206001600160a01b038a16845290915290205483811015611eb95760405162461bcd60e51b81526004016104b690613128565b6000858152602081815260408083206001600160a01b038b8116855292528083208785039055908816825281208054869290611ef6908490613172565b909155505060408051868152602081018690526001600160a01b03808916928a821692918616917fc3d58168c5ae7397731d063d5bbf3d657854427343f4c083240f7aacaa2d0f62910160405180910390a4611f568288888888886122b6565b50505050505050565b611939868686868686612371565b6001600160a01b0384163b156119395760405163bc197c8160e01b81526001600160a01b0385169063bc197c8190611fb1908990899088908890889060040161322c565b6020604051808303816000875af1925050508015611fec575060408051601f3d908101601f19168201909252611fe99181019061328a565b60015b61209957611ff86132a7565b806308c379a01415612032575061200d6132c3565b806120185750612034565b8060405162461bcd60e51b81526004016104b6919061262c565b505b60405162461bcd60e51b815260206004820152603460248201527f455243313135353a207472616e7366657220746f206e6f6e20455243313135356044820152732932b1b2b4bb32b91034b6b83632b6b2b73a32b960611b60648201526084016104b6565b6001600160e01b0319811663bc197c8160e01b14611f565760405162461bcd60e51b81526004016104b69061334c565b606060006120d883600261320d565b6120e3906002613172565b6001600160401b038111156120fa576120fa61263f565b6040519080825280601f01601f191660200182016040528015612124576020820181803683370190505b509050600360fc1b8160008151811061213f5761213f612cd8565b60200101906001600160f81b031916908160001a905350600f60fb1b8160018151811061216e5761216e612cd8565b60200101906001600160f81b031916908160001a905350600061219284600261320d565b61219d906001613172565b90505b6001811115612215576f181899199a1a9b1b9c1cb0b131b232b360811b85600f16601081106121d1576121d1612cd8565b1a60f81b8282815181106121e7576121e7612cd8565b60200101906001600160f81b031916908160001a90535060049490941c9361220e81613394565b90506121a0565b5083156122645760405162461bcd60e51b815260206004820181905260248201527f537472696e67733a20686578206c656e67746820696e73756666696369656e7460448201526064016104b6565b9392505050565b604080516001808252818301909252606091600091906020808301908036833701905050905082816000815181106122a5576122a5612cd8565b602090810291909101015292915050565b6001600160a01b0384163b156119395760405163f23a6e6160e01b81526001600160a01b0385169063f23a6e61906122fa90899089908890889088906004016133ab565b6020604051808303816000875af1925050508015612335575060408051601f3d908101601f191682019092526123329181019061328a565b60015b61234157611ff86132a7565b6001600160e01b0319811663f23a6e6160e01b14611f565760405162461bcd60e51b81526004016104b69061334c565b6001600160a01b0385166123f85760005b83518110156123f65782818151811061239d5761239d612cd8565b6020026020010151600360008684815181106123bb576123bb612cd8565b6020026020010151815260200190815260200160002060008282546123e09190613172565b909155506123ef905081612d04565b9050612382565b505b6001600160a01b0384166119395760005b8351811015611f565782818151811061242457612424612cd8565b60200260200101516003600086848151811061244257612442612cd8565b60200260200101518152602001908152602001600020600082825461246791906131e2565b90915550612476905081612d04565b9050612409565b604051806101a00160405280600d905b606081526020019060019003908161248d5790505090565b8280546124b190612c4c565b90600052602060002090601f0160209004810192826124d35760008555612519565b82601f106124ec57805160ff1916838001178555612519565b82800160010185558215612519579182015b828111156125195782518255916020019190600101906124fe565b50612525929150612529565b5090565b5b80821115612525576000815560010161252a565b80356001600160a01b038116811461255557600080fd5b919050565b6000806040838503121561256d57600080fd5b6125768361253e565b946020939093013593505050565b6001600160e01b03198116811461175357600080fd5b6000602082840312156125ac57600080fd5b813561226481612584565b6000602082840312156125c957600080fd5b5035919050565b60005b838110156125eb5781810151838201526020016125d3565b838111156125fa576000848401525b50505050565b600081518084526126188160208601602086016125d0565b601f01601f19169290920160200192915050565b6020815260006122646020830184612600565b634e487b7160e01b600052604160045260246000fd5b601f8201601f191681016001600160401b038111828210171561267a5761267a61263f565b6040525050565b60006001600160401b0382111561269a5761269a61263f565b5060051b60200190565b600082601f8301126126b557600080fd5b813560206126c282612681565b6040516126cf8282612655565b83815260059390931b85018201928281019150868411156126ef57600080fd5b8286015b8481101561270a57803583529183019183016126f3565b509695505050505050565b600082601f83011261272657600080fd5b81356001600160401b0381111561273f5761273f61263f565b604051612756601f8301601f191660200182612655565b81815284602083860101111561276b57600080fd5b816020850160208301376000918101602001919091529392505050565b600080600080600060a086880312156127a057600080fd5b6127a98661253e565b94506127b76020870161253e565b935060408601356001600160401b03808211156127d357600080fd5b6127df89838a016126a4565b945060608801359150808211156127f557600080fd5b61280189838a016126a4565b9350608088013591508082111561281757600080fd5b5061282488828901612715565b9150509295509295909350565b60006020828403121561284357600080fd5b81356001600160401b0381111561285957600080fd5b611ac884828501612715565b6000806040838503121561287857600080fd5b82356001600160401b0381111561288e57600080fd5b61289a85828601612715565b95602094909401359450505050565b600080604083850312156128bc57600080fd5b82356001600160401b03808211156128d357600080fd5b818501915085601f8301126128e757600080fd5b813560206128f482612681565b6040516129018282612655565b83815260059390931b850182019282810191508984111561292157600080fd5b948201945b83861015612946576129378661253e565b82529482019490820190612926565b9650508601359250508082111561295c57600080fd5b50612969858286016126a4565b9150509250929050565b600081518084526020808501945080840160005b838110156129a357815187529582019590820190600101612987565b509495945050505050565b6020815260006122646020830184612973565b6000602082840312156129d357600080fd5b6122648261253e565b8035801515811461255557600080fd5b600080604083850312156129ff57600080fd5b82356001600160401b03811115612a1557600080fd5b612a2185828601612715565b925050612a30602084016129dc565b90509250929050565b60008060408385031215612a4c57600080fd5b612a558361253e565b9150612a30602084016129dc565b60006101408c8352806020840152612a7d8184018d612600565b905060018060a01b038b1660408401528960608401528860808401528760a08401528660c084015282810360e0840152612ab78187612600565b9050828103610100840152612acc8186612600565b9150508215156101208301529b9a5050505050505050505050565b60008060408385031215612afa57600080fd5b50508035926020909101359150565b600080600080600080600060e0888a031215612b2457600080fd5b612b2d8861253e565b965060208801356001600160401b0380821115612b4957600080fd5b612b558b838c01612715565b975060408a0135965060608a0135955060808a0135945060a08a0135915080821115612b8057600080fd5b612b8c8b838c01612715565b935060c08a0135915080821115612ba257600080fd5b50612baf8a828b01612715565b91505092959891949750929550565b60008060408385031215612bd157600080fd5b612bda8361253e565b9150612a306020840161253e565b600080600080600060a08688031215612c0057600080fd5b612c098661253e565b9450612c176020870161253e565b9350604086013592506060860135915060808601356001600160401b03811115612c4057600080fd5b61282488828901612715565b600181811c90821680612c6057607f821691505b60208210811415612c8157634e487b7160e01b600052602260045260246000fd5b50919050565b6020808252818101527f4f776e61626c653a2063616c6c6572206973206e6f7420746865206f776e6572604082015260600190565b60008251612cce8184602087016125d0565b9190910192915050565b634e487b7160e01b600052603260045260246000fd5b634e487b7160e01b600052601160045260246000fd5b6000600019821415612d1857612d18612cee565b5060010190565b6720b134b634ba3c9d60c11b815260008251612d428160088501602087016125d0565b9190910160080192915050565b672232bb20b232391d60c11b815260008251612d428160088501602087016125d0565b692a34b6b2b9ba30b6b81d60b11b815260008251612d9781600a8501602087016125d0565b91909101600a0192915050565b672b32b939b4b7b71d60c11b815260008351612dc78160088501602088016125d0565b601d60f91b6008918401918201528351612de88160098401602088016125d0565b01600901949350505050565b672932b837b9b4ba1d60c11b815260008251612d428160088501602087016125d0565b6b2232b9b1b934b83a34b7b71d60a11b815260008251612e3e81600c8501602087016125d0565b91909101600c0192915050565b600089516020612e5e8285838f016125d0565b8a5191840191612e718184848f016125d0565b8a51920191612e838184848e016125d0565b8951920191612e958184848d016125d0565b8851920191612ea78184848c016125d0565b8751920191612eb98184848b016125d0565b8651920191612ecb8184848a016125d0565b8551920191612edd81848489016125d0565b919091019b9a5050505050505050505050565b600087516020612f038285838d016125d0565b885191840191612f168184848d016125d0565b8851920191612f288184848c016125d0565b8751920191612f3a8184848b016125d0565b8651920191612f4c8184848a016125d0565b8551920191612f5e81848489016125d0565b919091019998505050505050505050565b727b226e616d65223a202250726f6772616d202360681b81528251600090612f9e8160138501602088016125d0565b7f222c20226465736372697074696f6e223a202250726f6772616d7320617265206013918401918201527f646576656c6f70656420627920646576656c6f7065727320616e642063616e2060338201527f626520617474616368656420746f20726f626f7473206173206f6e65206f662060538201527f746865206361706162696c697469657320746865792063616e20686176652e2e60738201527f222c2022696d616765223a2022646174613a696d6167652f7376672b786d6c3b60938201526618985cd94d8d0b60ca1b60b382015283516130838160ba8401602088016125d0565b61227d60f01b60ba929091019182015260bc01949350505050565b7f646174613a6170706c69636174696f6e2f6a736f6e3b6261736536342c0000008152600082516130d681601d8501602087016125d0565b91909101601d0192915050565b60208082526025908201527f455243313135353a207472616e7366657220746f20746865207a65726f206164604082015264647265737360d81b606082015260800190565b6020808252602a908201527f455243313135353a20696e73756666696369656e742062616c616e636520666f60408201526939103a3930b739b332b960b11b606082015260800190565b6000821982111561318557613185612cee565b500190565b60408152600061319d6040830185612973565b82810360208401526131af8185612973565b95945050505050565b634e487b7160e01b600052601260045260246000fd5b6000826131dd576131dd6131b8565b500490565b6000828210156131f4576131f4612cee565b500390565b600082613208576132086131b8565b500690565b600081600019048311821515161561322757613227612cee565b500290565b6001600160a01b0386811682528516602082015260a06040820181905260009061325890830186612973565b828103606084015261326a8186612973565b9050828103608084015261327e8185612600565b98975050505050505050565b60006020828403121561329c57600080fd5b815161226481612584565b600060033d11156132c05760046000803e5060005160e01c5b90565b600060443d10156132d15790565b6040516003193d81016004833e81513d6001600160401b03816024840111818411171561330057505050505090565b82850191508151818111156133185750505050505090565b843d87010160208285010111156133325750505050505090565b61334160208286010187612655565b509095945050505050565b60208082526028908201527f455243313135353a204552433131353552656365697665722072656a656374656040820152676420746f6b656e7360c01b606082015260800190565b6000816133a3576133a3612cee565b506000190190565b6001600160a01b03868116825285166020820152604081018490526060810183905260a0608082018190526000906133e590830184612600565b97965050505050505056fe3c2f746578743e3c7465787420783d2231302220793d2236302220636c6173733d2262617365223e3c2f746578743e3c7465787420783d2231302220793d223132302220636c6173733d2262617365223e3c2f746578743e3c7465787420783d2231302220793d2238302220636c6173733d2262617365223e3c2f746578743e3c7465787420783d2231302220793d223130302220636c6173733d2262617365223e3c73766720786d6c6e733d22687474703a2f2f7777772e77332e6f72672f323030302f73766722207072657365727665417370656374526174696f3d22784d696e594d696e206d656574222076696577426f783d223020302033353020333530223e3c7374796c653e2e62617365207b2066696c6c3a2077686974653b20666f6e742d66616d696c793a2073657269663b20666f6e742d73697a653a20313470783b207d3c2f7374796c653e3c726563742077696474683d223130302522206865696768743d2231303025222066696c6c3d22626c61636b22202f3e3c7465787420783d2231302220793d2232302220636c6173733d2262617365223e4142434445464748494a4b4c4d4e4f505152535455565758595a6162636465666768696a6b6c6d6e6f707172737475767778797a303132333435363738392b2f3c2f746578743e3c7465787420783d2231302220793d2234302220636c6173733d2262617365223ea2646970667358221220b183e7df580bd87246faef7f9c2a773e7c5049fbc0efd5e1d9fa301a171256bb64736f6c634300080a0033",
  "linkReferences": {},
  "deployedLinkReferences": {}
}