{
  "_format": "hh-sol-artifact-1",
  "contractName": "Program",
  "sourceName": "contracts/Program.sol",
  "abi": [
    {
      "inputs": [],
      "stateMutability": "nonpayable",
      "type": "constructor"
    },
    {
      "anonymous": false,
      "inputs": [
        {
          "indexed": true,
          "internalType": "address",
          "name": "account",
          "type": "address"
        },
        {
          "indexed": true,
          "internalType": "address",
          "name": "operator",
          "type": "address"
        },
        {
          "indexed": false,
          "internalType": "bool",
          "name": "approved",
          "type": "bool"
        }
      ],
      "name": "ApprovalForAll",
      "type": "event"
    },
    {
      "anonymous": false,
      "inputs": [
        {
          "indexed": true,
          "internalType": "address",
          "name": "previousOwner",
          "type": "address"
        },
        {
          "indexed": true,
          "internalType": "address",
          "name": "newOwner",
          "type": "address"
        }
      ],
      "name": "OwnershipTransferred",
      "type": "event"
    },
    {
      "anonymous": false,
      "inputs": [
        {
          "indexed": true,
          "internalType": "address",
          "name": "operator",
          "type": "address"
        },
        {
          "indexed": true,
          "internalType": "address",
          "name": "from",
          "type": "address"
        },
        {
          "indexed": true,
          "internalType": "address",
          "name": "to",
          "type": "address"
        },
        {
          "indexed": false,
          "internalType": "uint256[]",
          "name": "ids",
          "type": "uint256[]"
        },
        {
          "indexed": false,
          "internalType": "uint256[]",
          "name": "values",
          "type": "uint256[]"
        }
      ],
      "name": "TransferBatch",
      "type": "event"
    },
    {
      "anonymous": false,
      "inputs": [
        {
          "indexed": true,
          "internalType": "address",
          "name": "operator",
          "type": "address"
        },
        {
          "indexed": true,
          "internalType": "address",
          "name": "from",
          "type": "address"
        },
        {
          "indexed": true,
          "internalType": "address",
          "name": "to",
          "type": "address"
        },
        {
          "indexed": false,
          "internalType": "uint256",
          "name": "id",
          "type": "uint256"
        },
        {
          "indexed": false,
          "internalType": "uint256",
          "name": "value",
          "type": "uint256"
        }
      ],
      "name": "TransferSingle",
      "type": "event"
    },
    {
      "anonymous": false,
      "inputs": [
        {
          "indexed": false,
          "internalType": "string",
          "name": "value",
          "type": "string"
        },
        {
          "indexed": true,
          "internalType": "uint256",
          "name": "id",
          "type": "uint256"
        }
      ],
      "name": "URI",
      "type": "event"
    },
    {
      "inputs": [
        {
          "internalType": "string",
          "name": "",
          "type": "string"
        }
      ],
      "name": "abilityInitNumberMap",
      "outputs": [
        {
          "internalType": "uint256",
          "name": "",
          "type": "uint256"
        }
      ],
      "stateMutability": "view",
      "type": "function"
    },
    {
      "inputs": [
        {
          "internalType": "address",
          "name": "account",
          "type": "address"
        },
        {
          "internalType": "uint256",
          "name": "id",
          "type": "uint256"
        }
      ],
      "name": "balanceOf",
      "outputs": [
        {
          "internalType": "uint256",
          "name": "",
          "type": "uint256"
        }
      ],
      "stateMutability": "view",
      "type": "function"
    },
    {
      "inputs": [
        {
          "internalType": "address[]",
          "name": "accounts",
          "type": "address[]"
        },
        {
          "internalType": "uint256[]",
          "name": "ids",
          "type": "uint256[]"
        }
      ],
      "name": "balanceOfBatch",
      "outputs": [
        {
          "internalType": "uint256[]",
          "name": "",
          "type": "uint256[]"
        }
      ],
      "stateMutability": "view",
      "type": "function"
    },
    {
      "inputs": [],
      "name": "devContract",
      "outputs": [
        {
          "internalType": "address",
          "name": "",
          "type": "address"
        }
      ],
      "stateMutability": "view",
      "type": "function"
    },
    {
      "inputs": [
        {
          "internalType": "uint256",
          "name": "id",
          "type": "uint256"
        }
      ],
      "name": "exists",
      "outputs": [
        {
          "internalType": "bool",
          "name": "",
          "type": "bool"
        }
      ],
      "stateMutability": "view",
      "type": "function"
    },
    {
      "inputs": [
        {
          "internalType": "uint256",
          "name": "_programId",
          "type": "uint256"
        }
      ],
      "name": "getAbility",
      "outputs": [
        {
          "internalType": "string",
          "name": "",
          "type": "string"
        }
      ],
      "stateMutability": "view",
      "type": "function"
    },
    {
      "inputs": [
        {
          "internalType": "address",
          "name": "_userAddr",
          "type": "address"
        },
        {
          "internalType": "uint256",
          "name": "_fromIndex",
          "type": "uint256"
        },
        {
          "internalType": "uint256",
          "name": "_toIndex",
          "type": "uint256"
        }
      ],
      "name": "getUserTokenIds",
      "outputs": [
        {
          "internalType": "uint256[]",
          "name": "tokenIds",
          "type": "uint256[]"
        }
      ],
      "stateMutability": "view",
      "type": "function"
    },
    {
      "inputs": [
        {
          "internalType": "address",
          "name": "_userAddr",
          "type": "address"
        }
      ],
      "name": "getUsetTokenNumber",
      "outputs": [
        {
          "internalType": "uint256",
          "name": "",
          "type": "uint256"
        }
      ],
      "stateMutability": "view",
      "type": "function"
    },
    {
      "inputs": [
        {
          "internalType": "address",
          "name": "account",
          "type": "address"
        },
        {
          "internalType": "address",
          "name": "operator",
          "type": "address"
        }
      ],
      "name": "isApprovedForAll",
      "outputs": [
        {
          "internalType": "bool",
          "name": "",
          "type": "bool"
        }
      ],
      "stateMutability": "view",
      "type": "function"
    },
    {
      "inputs": [
        {
          "internalType": "uint256",
          "name": "_tokenId",
          "type": "uint256"
        },
        {
          "internalType": "uint256",
          "name": "_amount",
          "type": "uint256"
        }
      ],
      "name": "mintProgram",
      "outputs": [],
      "stateMutability": "nonpayable",
      "type": "function"
    },
    {
      "inputs": [],
      "name": "owner",
      "outputs": [
        {
          "internalType": "address",
          "name": "",
          "type": "address"
        }
      ],
      "stateMutability": "view",
      "type": "function"
    },
    {
      "inputs": [
        {
          "internalType": "uint256",
          "name": "",
          "type": "uint256"
        }
      ],
      "name": "programInfoMap",
      "outputs": [
        {
          "internalType": "uint256",
          "name": "tokenId",
          "type": "uint256"
        },
        {
          "internalType": "string",
          "name": "ability",
          "type": "string"
        },
        {
          "internalType": "address",
          "name": "dev",
          "type": "address"
        },
        {
          "internalType": "uint256",
          "name": "mainVersion",
          "type": "uint256"
        },
        {
          "internalType": "uint256",
          "name": "subVersion",
          "type": "uint256"
        },
        {
          "internalType": "uint256",
          "name": "uploadTime",
          "type": "uint256"
        },
        {
          "internalType": "bytes32",
          "name": "hashValue",
          "type": "bytes32"
        },
        {
          "internalType": "string",
          "name": "desc",
          "type": "string"
        },
        {
          "internalType": "string",
          "name": "repositUrl",
          "type": "string"
        },
        {
          "internalType": "bool",
          "name": "bPublic",
          "type": "bool"
        }
      ],
      "stateMutability": "view",
      "type": "function"
    },
    {
      "inputs": [
        {
          "internalType": "address",
          "name": "_dev",
          "type": "address"
        },
        {
          "internalType": "string",
          "name": "_ability",
          "type": "string"
        },
        {
          "internalType": "uint256",
          "name": "_mainVersion",
          "type": "uint256"
        },
        {
          "internalType": "uint256",
          "name": "_subVersion",
          "type": "uint256"
        },
        {
          "internalType": "bytes32",
          "name": "_hashValue",
          "type": "bytes32"
        },
        {
          "internalType": "string",
          "name": "_desc",
          "type": "string"
        },
        {
          "internalType": "string",
          "name": "_repositUrl",
          "type": "string"
        }
      ],
      "name": "registerProgram",
      "outputs": [
        {
          "internalType": "uint256",
          "name": "",
          "type": "uint256"
        }
      ],
      "stateMutability": "nonpayable",
      "type": "function"
    },
    {
      "inputs": [],
      "name": "renounceOwnership",
      "outputs": [],
      "stateMutability": "nonpayable",
      "type": "function"
    },
    {
      "inputs": [
        {
          "internalType": "address",
          "name": "from",
          "type": "address"
        },
        {
          "internalType": "address",
          "name": "to",
          "type": "address"
        },
        {
          "internalType": "uint256[]",
          "name": "ids",
          "type": "uint256[]"
        },
        {
          "internalType": "uint256[]",
          "name": "amounts",
          "type": "uint256[]"
        },
        {
          "internalType": "bytes",
          "name": "data",
          "type": "bytes"
        }
      ],
      "name": "safeBatchTransferFrom",
      "outputs": [],
      "stateMutability": "nonpayable",
      "type": "function"
    },
    {
      "inputs": [
        {
          "internalType": "address",
          "name": "from",
          "type": "address"
        },
        {
          "internalType": "address",
          "name": "to",
          "type": "address"
        },
        {
          "internalType": "uint256",
          "name": "id",
          "type": "uint256"
        },
        {
          "internalType": "uint256",
          "name": "amount",
          "type": "uint256"
        },
        {
          "internalType": "bytes",
          "name": "data",
          "type": "bytes"
        }
      ],
      "name": "safeTransferFrom",
      "outputs": [],
      "stateMutability": "nonpayable",
      "type": "function"
    },
    {
      "inputs": [
        {
          "internalType": "string",
          "name": "abilityName",
          "type": "string"
        },
        {
          "internalType": "uint256",
          "name": "_initNumber",
          "type": "uint256"
        }
      ],
      "name": "setAbilityInitNumber",
      "outputs": [],
      "stateMutability": "nonpayable",
      "type": "function"
    },
    {
      "inputs": [
        {
          "internalType": "address",
          "name": "operator",
          "type": "address"
        },
        {
          "internalType": "bool",
          "name": "approved",
          "type": "bool"
        }
      ],
      "name": "setApprovalForAll",
      "outputs": [],
      "stateMutability": "nonpayable",
      "type": "function"
    },
    {
      "inputs": [
        {
          "internalType": "address",
          "name": "_devContract",
          "type": "address"
        }
      ],
      "name": "setDevContractAddr",
      "outputs": [],
      "stateMutability": "nonpayable",
      "type": "function"
    },
    {
      "inputs": [
        {
          "internalType": "uint256",
          "name": "_tokenId",
          "type": "uint256"
        }
      ],
      "name": "setPublic",
      "outputs": [],
      "stateMutability": "nonpayable",
      "type": "function"
    },
    {
      "inputs": [
        {
          "internalType": "string",
          "name": "abilityName",
          "type": "string"
        },
        {
          "internalType": "bool",
          "name": "_bSupported",
          "type": "bool"
        }
      ],
      "name": "setSupportAbility",
      "outputs": [],
      "stateMutability": "nonpayable",
      "type": "function"
    },
    {
      "inputs": [
        {
          "internalType": "string",
          "name": "",
          "type": "string"
        }
      ],
      "name": "supportedAbilityMap",
      "outputs": [
        {
          "internalType": "bool",
          "name": "",
          "type": "bool"
        }
      ],
      "stateMutability": "view",
      "type": "function"
    },
    {
      "inputs": [
        {
          "internalType": "bytes4",
          "name": "interfaceId",
          "type": "bytes4"
        }
      ],
      "name": "supportsInterface",
      "outputs": [
        {
          "internalType": "bool",
          "name": "",
          "type": "bool"
        }
      ],
      "stateMutability": "view",
      "type": "function"
    },
    {
      "inputs": [],
      "name": "tokenId",
      "outputs": [
        {
          "internalType": "uint256",
          "name": "",
          "type": "uint256"
        }
      ],
      "stateMutability": "view",
      "type": "function"
    },
    {
      "inputs": [
        {
          "internalType": "uint256",
          "name": "_tokenId",
          "type": "uint256"
        }
      ],
      "name": "tokenURI",
      "outputs": [
        {
          "internalType": "string",
          "name": "",
          "type": "string"
        }
      ],
      "stateMutability": "view",
      "type": "function"
    },
    {
      "inputs": [
        {
          "internalType": "uint256",
          "name": "id",
          "type": "uint256"
        }
      ],
      "name": "totalSupply",
      "outputs": [
        {
          "internalType": "uint256",
          "name": "",
          "type": "uint256"
        }
      ],
      "stateMutability": "view",
      "type": "function"
    },
    {
      "inputs": [
        {
          "internalType": "address",
          "name": "newOwner",
          "type": "address"
        }
      ],
      "name": "transferOwnership",
      "outputs": [],
      "stateMutability": "nonpayable",
      "type": "function"
    },
    {
      "inputs": [
        {
          "internalType": "uint256",
          "name": "",
          "type": "uint256"
        }
      ],
      "name": "uri",
      "outputs": [
        {
          "internalType": "string",
          "name": "",
          "type": "string"
        }
      ],
      "stateMutability": "view",
      "type": "function"
    }
  ],
  "bytecode": "0x60806040523480156200001157600080fd5b506040805160208101909152600081526200002c816200003e565b50620000383362000057565b6200018c565b805162000053906002906020840190620000a9565b5050565b600480546001600160a01b038381166001600160a01b0319831681179093556040519116919082907f8be0079c531659141344cd1fd0a4f28419497f9722a3daafe3b4186f6b6457e090600090a35050565b828054620000b7906200014f565b90600052602060002090601f016020900481019282620000db576000855562000126565b82601f10620000f657805160ff191683800117855562000126565b8280016001018555821562000126579182015b828111156200012657825182559160200191906001019062000109565b506200013492915062000138565b5090565b5b8082111562000134576000815560010162000139565b600181811c908216806200016457607f821691505b602082108114156200018657634e487b7160e01b600052602260045260246000fd5b50919050565b613ca3806200019c6000396000f3fe608060405234801561001057600080fd5b50600436106101c35760003560e01c8063715018a6116100f9578063c87b56dd11610097578063e5889fa211610071578063e5889fa214610435578063e985e9c514610448578063f242432a14610484578063f2fde38b1461049757600080fd5b8063c87b56dd146103fc578063cbc5d9171461040f578063d5523f771461042257600080fd5b8063a22cb465116100d3578063a22cb46514610375578063b0d8798814610388578063bd85b039146103b3578063c2e37b9b146103d357600080fd5b8063715018a6146103495780637af4461e146103515780638da5cb5b1461036457600080fd5b80632f4fa7f3116101665780634e1273f4116101405780634e1273f4146102e15780634f558e7914610301578063522e0bcf1461032357806368c787dc1461033657600080fd5b80632f4fa7f31461028d57806331845f7d146102bb5780633201039a146102ce57600080fd5b80630fd6240e116101a25780630fd6240e1461023157806317d70f7c1461025c5780631e5c95f5146102655780632eb2c2d61461027857600080fd5b8062fdd58e146101c857806301ffc9a7146101ee5780630e89341c14610211575b600080fd5b6101db6101d6366004612b8b565b6104aa565b6040519081526020015b60405180910390f35b6102016101fc366004612bcb565b610544565b60405190151581526020016101e5565b61022461021f366004612be8565b610594565b6040516101e59190612c59565b600554610244906001600160a01b031681565b6040516001600160a01b0390911681526020016101e5565b6101db60065481565b6101db610273366004612c6c565b610628565b61028b610286366004612dd0565b610649565b005b61020161029b366004612e79565b805160208183018101805160088252928201919093012091525460ff1681565b61028b6102c9366004612be8565b6106e0565b61028b6102dc366004612ead565b61072c565b6102f46102ef366004612ef1565b61077b565b6040516101e59190612ff6565b61020161030f366004612be8565b600090815260036020526040902054151590565b61028b610331366004612c6c565b6108a4565b6102f4610344366004613009565b6108f0565b61028b610a35565b61028b61035f36600461304c565b610a6b565b6004546001600160a01b0316610244565b61028b610383366004613099565b610aca565b6101db610396366004612e79565b805160208183018101805160098252928201919093012091525481565b6101db6103c1366004612be8565b60009081526003602052604090205490565b6103e66103e1366004612be8565b610ad9565b6040516101e59a999897969594939291906130c3565b61022461040a366004612be8565b610cd4565b61028b61041d366004613147565b611216565b610224610430366004612be8565b61154d565b6101db610443366004613169565b61156d565b61020161045636600461321e565b6001600160a01b03918216600090815260016020908152604080832093909416825291909152205460ff1690565b61028b610492366004613248565b6118ca565b61028b6104a5366004612c6c565b611951565b60006001600160a01b03831661051b5760405162461bcd60e51b815260206004820152602b60248201527f455243313135353a2062616c616e636520717565727920666f7220746865207a60448201526a65726f206164647265737360a81b60648201526084015b60405180910390fd5b506000818152602081815260408083206001600160a01b03861684529091529020545b92915050565b60006001600160e01b03198216636cdb3d1360e11b148061057557506001600160e01b031982166303a24d0760e21b145b8061053e57506301ffc9a760e01b6001600160e01b031983161461053e565b6060600280546105a3906132ac565b80601f01602080910402602001604051908101604052809291908181526020018280546105cf906132ac565b801561061c5780601f106105f15761010080835404028352916020019161061c565b820191906000526020600020905b8154815290600101906020018083116105ff57829003601f168201915b50505050509050919050565b6001600160a01b0381166000908152600a6020526040812061053e906119ec565b6001600160a01b03851633148061066557506106658533610456565b6106cc5760405162461bcd60e51b815260206004820152603260248201527f455243313135353a207472616e736665722063616c6c6572206973206e6f74206044820152711bdddb995c881b9bdc88185c1c1c9bdd995960721b6064820152608401610512565b6106d985858585856119f6565b5050505050565b6004546001600160a01b0316331461070a5760405162461bcd60e51b8152600401610512906132e7565b506006546000908152600760205260409020600901805460ff19166001179055565b6004546001600160a01b031633146107565760405162461bcd60e51b8152600401610512906132e7565b80600983604051610767919061331c565b908152604051908190036020019020555050565b606081518351146107e05760405162461bcd60e51b815260206004820152602960248201527f455243313135353a206163636f756e747320616e6420696473206c656e677468604482015268040dad2e6dac2e8c6d60bb1b6064820152608401610512565b600083516001600160401b038111156107fb576107fb612c87565b604051908082528060200260200182016040528015610824578160200160208202803683370190505b50905060005b845181101561089c5761086f85828151811061084857610848613338565b602002602001015185838151811061086257610862613338565b60200260200101516104aa565b82828151811061088157610881613338565b602090810291909101015261089581613364565b905061082a565b509392505050565b6004546001600160a01b031633146108ce5760405162461bcd60e51b8152600401610512906132e7565b600580546001600160a01b0319166001600160a01b0392909216919091179055565b6001600160a01b0383166000908152600a6020526040812060609190610915906119ec565b905080831115610923578092505b8284106109725760405162461bcd60e51b815260206004820152601c60248201527f50726f6772616d3a20696e646578206f7574206f662072616e676521000000006044820152606401610512565b61097c848461337f565b6001600160401b0381111561099357610993612c87565b6040519080825280602002602001820160405280156109bc578160200160208202803683370190505b5091506000845b84811015610a2b576001600160a01b0387166000908152600a602052604081206109ed9083611be1565b90508085846109fb81613364565b955081518110610a0d57610a0d613338565b60209081029190910101525080610a2381613364565b9150506109c3565b5050509392505050565b6004546001600160a01b03163314610a5f5760405162461bcd60e51b8152600401610512906132e7565b610a696000611bf4565b565b6004546001600160a01b03163314610a955760405162461bcd60e51b8152600401610512906132e7565b80600883604051610aa6919061331c565b908152604051908190036020019020805491151560ff199092169190911790555050565b610ad5338383611c46565b5050565b60076020526000908152604090208054600182018054919291610afb906132ac565b80601f0160208091040260200160405190810160405280929190818152602001828054610b27906132ac565b8015610b745780601f10610b4957610100808354040283529160200191610b74565b820191906000526020600020905b815481529060010190602001808311610b5757829003601f168201915b5050505050908060020160009054906101000a90046001600160a01b031690806003015490806004015490806005015490806006015490806007018054610bba906132ac565b80601f0160208091040260200160405190810160405280929190818152602001828054610be6906132ac565b8015610c335780601f10610c0857610100808354040283529160200191610c33565b820191906000526020600020905b815481529060010190602001808311610c1657829003601f168201915b505050505090806008018054610c48906132ac565b80601f0160208091040260200160405190810160405280929190818152602001828054610c74906132ac565b8015610cc15780601f10610c9657610100808354040283529160200191610cc1565b820191906000526020600020905b815481529060010190602001808311610ca457829003601f168201915b5050506009909301549192505060ff168a565b600081815260076020908152604080832081516101408101909252805482526001810180546060959484019190610d0a906132ac565b80601f0160208091040260200160405190810160405280929190818152602001828054610d36906132ac565b8015610d835780601f10610d5857610100808354040283529160200191610d83565b820191906000526020600020905b815481529060010190602001808311610d6657829003601f168201915b505050918352505060028201546001600160a01b03166020820152600382015460408201526004820154606082015260058201546080820152600682015460a082015260078201805460c090920191610ddb906132ac565b80601f0160208091040260200160405190810160405280929190818152602001828054610e07906132ac565b8015610e545780601f10610e2957610100808354040283529160200191610e54565b820191906000526020600020905b815481529060010190602001808311610e3757829003601f168201915b50505050508152602001600882018054610e6d906132ac565b80601f0160208091040260200160405190810160405280929190818152602001828054610e99906132ac565b8015610ee65780601f10610ebb57610100808354040283529160200191610ee6565b820191906000526020600020905b815481529060010190602001808311610ec957829003601f168201915b50505091835250506009919091015460ff1615156020909101529050610f0a612aae565b60405180610120016040528060fd8152602001613b0960fd91398152602082810151604051610f399201613396565b60408051601f198184030181529190528160016020020181905250604051806060016040528060288152602001613c466028913981600260200201526040820151610f8c906001600160a01b0316611d27565b604051602001610f9c91906133c6565b60408051808303601f19018152918152606080840192909252805191820190526028808252613a676020830139608082015260a0820151610fdc90611d83565b604051602001610fec91906133e9565b60408051808303601f1901815291815260a08301919091528051606081019091526028808252613ab8602083013960c0820152606082015161102d90611d83565b61103a8360800151611d83565b60405160200161104b92919061341b565b60408051808303601f1901815291815260e08301919091528051606081019091526029808252613ae0602083013961010080830191909152820151604051611096919060200161346b565b60408051808303601f190181529181526101208301919091528051606081019091526029808252613a8f602083013961014082015260e08201516040516110e0919060200161348e565b60408051601f1981840301815291815261016083019190915280518082018252600d81526c1e17ba32bc3a1f1e17b9bb339f60991b602080830191909152610180840191909152825181840151848401516060860151608087015160a088015160c089015160e08a0151985160009961115b999091016134c2565b60408051808303601f190181529082905261010084015161012085015161014086015161016087015161018088015194965061119c95879590602001613567565b604051602081830303815290604052905060006111e96111bb87611d83565b6111c484611e80565b6040516020016111d59291906135e6565b604051602081830303815290604052611e80565b9050806040516020016111fc9190613715565b60408051601f198184030181529190529695505050505050565b60006007600060065481526020019081526020016000206040518061014001604052908160008201548152602001600182018054611253906132ac565b80601f016020809104026020016040519081016040528092919081815260200182805461127f906132ac565b80156112cc5780601f106112a1576101008083540402835291602001916112cc565b820191906000526020600020905b8154815290600101906020018083116112af57829003601f168201915b505050918352505060028201546001600160a01b03166020820152600382015460408201526004820154606082015260058201546080820152600682015460a082015260078201805460c090920191611324906132ac565b80601f0160208091040260200160405190810160405280929190818152602001828054611350906132ac565b801561139d5780601f106113725761010080835404028352916020019161139d565b820191906000526020600020905b81548152906001019060200180831161138057829003601f168201915b505050505081526020016008820180546113b6906132ac565b80601f01602080910402602001604051908101604052809291908181526020018280546113e2906132ac565b801561142f5780601f106114045761010080835404028352916020019161142f565b820191906000526020600020905b81548152906001019060200180831161141257829003601f168201915b50505091835250506009919091015460ff1615156020909101526101208101519091508015611473575080604001516001600160a01b0316336001600160a01b0316145b801561147f5750600082115b6114f15760405162461bcd60e51b815260206004820152603c60248201527f50726f6772616d3a206f6e6c792064657620636f756c64206d696e742070756260448201527f6c69632070726f6772616d2077697468203e2030206e756d6265722e000000006064820152608401610512565b61150c33848460405180602001604052806000815250611fe5565b600654336000908152600a60205260409020611527916120f5565b61154857600654336000908152600a602052604090206115469161210d565b505b505050565b60008181526007602052604090206001018054606091906105a3906132ac565b6005546000906001600160a01b031633146115e55760405162461bcd60e51b815260206004820152603260248201527f50726f6772616d3a206f6e6c792064657620636f6e74726163742063616e206360448201527130b636103a3434b99031b7b73a3930b1ba1760711b6064820152608401610512565b6008876040516115f5919061331c565b9081526040519081900360200190205460ff166116545760405162461bcd60e51b815260206004820152601e60248201527f50726f6772616d3a206162696c697479204e4f5420737570706f7274656400006044820152606401610512565b60328351106116cb5760405162461bcd60e51b815260206004820152603960248201527f50726f6772616d3a20746865206c656e677468206f6620646573632073686f7560448201527f6c64206265206c657373207468616e2035302062797465732e000000000000006064820152608401610512565b600680549060006116db83613364565b9091555050604080516101408101825260065480825260208083018b81526001600160a01b038d1684860152606084018b9052608084018a90524260a085015260c0840189905260e08401889052610100840187905260006101208501819052928352600782529390912082518155925180519293926117619260018501920190612ad6565b5060408201516002820180546001600160a01b0319166001600160a01b03909216919091179055606082015160038201556080820151600482015560a0820151600582015560c0820151600682015560e082015180516117cb916007840191602090910190612ad6565b5061010082015180516117e8916008840191602090910190612ad6565b5061012091909101516009918201805460ff1916911515919091179055600654604051611841928b929161181d908c9061331c565b90815260200160405180910390205460405180602001604052806000815250611fe5565b6000600988604051611853919061331c565b90815260200160405180910390205411801561189057506006546001600160a01b0389166000908152600a6020526040902061188e916120f5565b155b156118bb576006546001600160a01b0389166000908152600a602052604090206118b99161210d565b505b50600654979650505050505050565b6001600160a01b0385163314806118e657506118e68533610456565b6119445760405162461bcd60e51b815260206004820152602960248201527f455243313135353a2063616c6c6572206973206e6f74206f776e6572206e6f7260448201526808185c1c1c9bdd995960ba1b6064820152608401610512565b6106d98585858585612119565b6004546001600160a01b0316331461197b5760405162461bcd60e51b8152600401610512906132e7565b6001600160a01b0381166119e05760405162461bcd60e51b815260206004820152602660248201527f4f776e61626c653a206e6577206f776e657220697320746865207a65726f206160448201526564647265737360d01b6064820152608401610512565b6119e981611bf4565b50565b600061053e825490565b8151835114611a585760405162461bcd60e51b815260206004820152602860248201527f455243313135353a2069647320616e6420616d6f756e7473206c656e677468206044820152670dad2e6dac2e8c6d60c31b6064820152608401610512565b6001600160a01b038416611a7e5760405162461bcd60e51b81526004016105129061375a565b33611a8d818787878787612236565b60005b8451811015611b73576000858281518110611aad57611aad613338565b602002602001015190506000858381518110611acb57611acb613338565b602090810291909101810151600084815280835260408082206001600160a01b038e168352909352919091205490915081811015611b1b5760405162461bcd60e51b81526004016105129061379f565b6000838152602081815260408083206001600160a01b038e8116855292528083208585039055908b16825281208054849290611b589084906137e9565b9250508190555050505080611b6c90613364565b9050611a90565b50846001600160a01b0316866001600160a01b0316826001600160a01b03167f4a39dc06d4c0dbc64b70af90fd698a233a518aa5d07e595d983b8c0526c8f7fb8787604051611bc3929190613801565b60405180910390a4611bd9818787878787612432565b505050505050565b6000611bed838361258e565b9392505050565b600480546001600160a01b038381166001600160a01b0319831681179093556040519116919082907f8be0079c531659141344cd1fd0a4f28419497f9722a3daafe3b4186f6b6457e090600090a35050565b816001600160a01b0316836001600160a01b03161415611cba5760405162461bcd60e51b815260206004820152602960248201527f455243313135353a2073657474696e6720617070726f76616c20737461747573604482015268103337b91039b2b63360b91b6064820152608401610512565b6001600160a01b03838116600081815260016020908152604080832094871680845294825291829020805460ff191686151590811790915591519182527f17307eab39ab6107e8899845ad3d59bd9653f200f220920489ca2b5937696c31910160405180910390a3505050565b606081611d4e5750506040805180820190915260048152630307830360e41b602082015290565b8160005b8115611d715780611d6281613364565b915050600882901c9150611d52565b611d7b84826125b8565b949350505050565b606081611da75750506040805180820190915260018152600360fc1b602082015290565b8160005b8115611dd15780611dbb81613364565b9150611dca9050600a83613845565b9150611dab565b6000816001600160401b03811115611deb57611deb612c87565b6040519080825280601f01601f191660200182016040528015611e15576020820181803683370190505b5090505b8415611d7b57611e2a60018361337f565b9150611e37600a86613859565b611e429060306137e9565b60f81b818381518110611e5757611e57613338565b60200101906001600160f81b031916908160001a905350611e79600a86613845565b9450611e19565b805160609080611ea0575050604080516020810190915260008152919050565b60006003611eaf8360026137e9565b611eb99190613845565b611ec490600461386d565b90506000611ed38260206137e9565b6001600160401b03811115611eea57611eea612c87565b6040519080825280601f01601f191660200182016040528015611f14576020820181803683370190505b5090506000604051806060016040528060408152602001613c06604091399050600181016020830160005b86811015611fa0576003818a01810151603f601282901c8116860151600c83901c8216870151600684901c831688015192909316870151600891821b60ff94851601821b92841692909201901b91160160e01b835260049092019101611f3f565b506003860660018114611fba5760028114611fcb57611fd7565b613d3d60f01b600119830152611fd7565b603d60f81b6000198301525b505050918152949350505050565b6001600160a01b0384166120455760405162461bcd60e51b815260206004820152602160248201527f455243313135353a206d696e7420746f20746865207a65726f206164647265736044820152607360f81b6064820152608401610512565b336120658160008761205688612753565b61205f88612753565b87612236565b6000848152602081815260408083206001600160a01b0389168452909152812080548592906120959084906137e9565b909155505060408051858152602081018590526001600160a01b0380881692600092918516917fc3d58168c5ae7397731d063d5bbf3d657854427343f4c083240f7aacaa2d0f62910160405180910390a46106d98160008787878761279e565b60008181526001830160205260408120541515611bed565b6000611bed8383612859565b6001600160a01b03841661213f5760405162461bcd60e51b81526004016105129061375a565b3361214f81878761205688612753565b6000848152602081815260408083206001600160a01b038a168452909152902054838110156121905760405162461bcd60e51b81526004016105129061379f565b6000858152602081815260408083206001600160a01b038b81168552925280832087850390559088168252812080548692906121cd9084906137e9565b909155505060408051868152602081018690526001600160a01b03808916928a821692918616917fc3d58168c5ae7397731d063d5bbf3d657854427343f4c083240f7aacaa2d0f62910160405180910390a461222d82888888888861279e565b50505050505050565b6122448686868686866128a8565b60005b835181101561222d576007600085838151811061226657612266613338565b60209081029190910181015182528101919091526040016000206009015460ff166122e75760405162461bcd60e51b815260206004820152602b60248201527f50726f6772616d3a2063616e204e4f54207472616e73666572204e465420696660448201526a204e4f54207075626c696360a81b6064820152608401610512565b6122fd8685838151811061086257610862613338565b6123535761235184828151811061231657612316613338565b6020026020010151600a6000896001600160a01b03166001600160a01b031681526020019081526020016000206129b490919063ffffffff16565b505b600083828151811061236757612367613338565b60200260200101511180156123c957506123c784828151811061238c5761238c613338565b6020026020010151600a6000886001600160a01b03166001600160a01b031681526020019081526020016000206120f590919063ffffffff16565b155b156124205761241e8482815181106123e3576123e3613338565b6020026020010151600a6000886001600160a01b03166001600160a01b0316815260200190815260200160002061210d90919063ffffffff16565b505b8061242a81613364565b915050612247565b6001600160a01b0384163b15611bd95760405163bc197c8160e01b81526001600160a01b0385169063bc197c8190612476908990899088908890889060040161388c565b6020604051808303816000875af19250505080156124b1575060408051601f3d908101601f191682019092526124ae918101906138ea565b60015b61255e576124bd613907565b806308c379a014156124f757506124d2613923565b806124dd57506124f9565b8060405162461bcd60e51b81526004016105129190612c59565b505b60405162461bcd60e51b815260206004820152603460248201527f455243313135353a207472616e7366657220746f206e6f6e20455243313135356044820152732932b1b2b4bb32b91034b6b83632b6b2b73a32b960611b6064820152608401610512565b6001600160e01b0319811663bc197c8160e01b1461222d5760405162461bcd60e51b8152600401610512906139ac565b60008260000182815481106125a5576125a5613338565b9060005260206000200154905092915050565b606060006125c783600261386d565b6125d29060026137e9565b6001600160401b038111156125e9576125e9612c87565b6040519080825280601f01601f191660200182016040528015612613576020820181803683370190505b509050600360fc1b8160008151811061262e5761262e613338565b60200101906001600160f81b031916908160001a905350600f60fb1b8160018151811061265d5761265d613338565b60200101906001600160f81b031916908160001a905350600061268184600261386d565b61268c9060016137e9565b90505b6001811115612704576f181899199a1a9b1b9c1cb0b131b232b360811b85600f16601081106126c0576126c0613338565b1a60f81b8282815181106126d6576126d6613338565b60200101906001600160f81b031916908160001a90535060049490941c936126fd816139f4565b905061268f565b508315611bed5760405162461bcd60e51b815260206004820181905260248201527f537472696e67733a20686578206c656e67746820696e73756666696369656e746044820152606401610512565b6040805160018082528183019092526060916000919060208083019080368337019050509050828160008151811061278d5761278d613338565b602090810291909101015292915050565b6001600160a01b0384163b15611bd95760405163f23a6e6160e01b81526001600160a01b0385169063f23a6e61906127e29089908990889088908890600401613a0b565b6020604051808303816000875af192505050801561281d575060408051601f3d908101601f1916820190925261281a918101906138ea565b60015b612829576124bd613907565b6001600160e01b0319811663f23a6e6160e01b1461222d5760405162461bcd60e51b8152600401610512906139ac565b60008181526001830160205260408120546128a05750815460018181018455600084815260208082209093018490558454848252828601909352604090209190915561053e565b50600061053e565b6001600160a01b03851661292f5760005b835181101561292d578281815181106128d4576128d4613338565b6020026020010151600360008684815181106128f2576128f2613338565b60200260200101518152602001908152602001600020600082825461291791906137e9565b90915550612926905081613364565b90506128b9565b505b6001600160a01b038416611bd95760005b835181101561222d5782818151811061295b5761295b613338565b60200260200101516003600086848151811061297957612979613338565b60200260200101518152602001908152602001600020600082825461299e919061337f565b909155506129ad905081613364565b9050612940565b6000611bed838360008181526001830160205260408120548015612aa45760006129df60018361337f565b85549091506000906129f39060019061337f565b9050818114612a58576000866000018281548110612a1357612a13613338565b9060005260206000200154905080876000018481548110612a3657612a36613338565b6000918252602080832090910192909255918252600188019052604090208390555b8554869080612a6957612a69613a50565b60019003818190600052602060002001600090559055856001016000868152602001908152602001600020600090556001935050505061053e565b600091505061053e565b604051806101a00160405280600d905b6060815260200190600190039081612abe5790505090565b828054612ae2906132ac565b90600052602060002090601f016020900481019282612b045760008555612b4a565b82601f10612b1d57805160ff1916838001178555612b4a565b82800160010185558215612b4a579182015b82811115612b4a578251825591602001919060010190612b2f565b50612b56929150612b5a565b5090565b5b80821115612b565760008155600101612b5b565b80356001600160a01b0381168114612b8657600080fd5b919050565b60008060408385031215612b9e57600080fd5b612ba783612b6f565b946020939093013593505050565b6001600160e01b0319811681146119e957600080fd5b600060208284031215612bdd57600080fd5b8135611bed81612bb5565b600060208284031215612bfa57600080fd5b5035919050565b60005b83811015612c1c578181015183820152602001612c04565b838111156115465750506000910152565b60008151808452612c45816020860160208601612c01565b601f01601f19169290920160200192915050565b602081526000611bed6020830184612c2d565b600060208284031215612c7e57600080fd5b611bed82612b6f565b634e487b7160e01b600052604160045260246000fd5b601f8201601f191681016001600160401b0381118282101715612cc257612cc2612c87565b6040525050565b60006001600160401b03821115612ce257612ce2612c87565b5060051b60200190565b600082601f830112612cfd57600080fd5b81356020612d0a82612cc9565b604051612d178282612c9d565b83815260059390931b8501820192828101915086841115612d3757600080fd5b8286015b84811015612d525780358352918301918301612d3b565b509695505050505050565b600082601f830112612d6e57600080fd5b81356001600160401b03811115612d8757612d87612c87565b604051612d9e601f8301601f191660200182612c9d565b818152846020838601011115612db357600080fd5b816020850160208301376000918101602001919091529392505050565b600080600080600060a08688031215612de857600080fd5b612df186612b6f565b9450612dff60208701612b6f565b935060408601356001600160401b0380821115612e1b57600080fd5b612e2789838a01612cec565b94506060880135915080821115612e3d57600080fd5b612e4989838a01612cec565b93506080880135915080821115612e5f57600080fd5b50612e6c88828901612d5d565b9150509295509295909350565b600060208284031215612e8b57600080fd5b81356001600160401b03811115612ea157600080fd5b611d7b84828501612d5d565b60008060408385031215612ec057600080fd5b82356001600160401b03811115612ed657600080fd5b612ee285828601612d5d565b95602094909401359450505050565b60008060408385031215612f0457600080fd5b82356001600160401b0380821115612f1b57600080fd5b818501915085601f830112612f2f57600080fd5b81356020612f3c82612cc9565b604051612f498282612c9d565b83815260059390931b8501820192828101915089841115612f6957600080fd5b948201945b83861015612f8e57612f7f86612b6f565b82529482019490820190612f6e565b96505086013592505080821115612fa457600080fd5b50612fb185828601612cec565b9150509250929050565b600081518084526020808501945080840160005b83811015612feb57815187529582019590820190600101612fcf565b509495945050505050565b602081526000611bed6020830184612fbb565b60008060006060848603121561301e57600080fd5b61302784612b6f565b95602085013595506040909401359392505050565b80358015158114612b8657600080fd5b6000806040838503121561305f57600080fd5b82356001600160401b0381111561307557600080fd5b61308185828601612d5d565b9250506130906020840161303c565b90509250929050565b600080604083850312156130ac57600080fd5b6130b583612b6f565b91506130906020840161303c565b60006101408c83528060208401526130dd8184018d612c2d565b905060018060a01b038b1660408401528960608401528860808401528760a08401528660c084015282810360e08401526131178187612c2d565b905082810361010084015261312c8186612c2d565b9150508215156101208301529b9a5050505050505050505050565b6000806040838503121561315a57600080fd5b50508035926020909101359150565b600080600080600080600060e0888a03121561318457600080fd5b61318d88612b6f565b965060208801356001600160401b03808211156131a957600080fd5b6131b58b838c01612d5d565b975060408a0135965060608a0135955060808a0135945060a08a01359150808211156131e057600080fd5b6131ec8b838c01612d5d565b935060c08a013591508082111561320257600080fd5b5061320f8a828b01612d5d565b91505092959891949750929550565b6000806040838503121561323157600080fd5b61323a83612b6f565b915061309060208401612b6f565b600080600080600060a0868803121561326057600080fd5b61326986612b6f565b945061327760208701612b6f565b9350604086013592506060860135915060808601356001600160401b038111156132a057600080fd5b612e6c88828901612d5d565b600181811c908216806132c057607f821691505b602082108114156132e157634e487b7160e01b600052602260045260246000fd5b50919050565b6020808252818101527f4f776e61626c653a2063616c6c6572206973206e6f7420746865206f776e6572604082015260600190565b6000825161332e818460208701612c01565b9190910192915050565b634e487b7160e01b600052603260045260246000fd5b634e487b7160e01b600052601160045260246000fd5b60006000198214156133785761337861334e565b5060010190565b6000828210156133915761339161334e565b500390565b6720b134b634ba3c9d60c11b8152600082516133b9816008850160208701612c01565b9190910160080192915050565b672232bb20b232391d60c11b8152600082516133b9816008850160208701612c01565b692a34b6b2b9ba30b6b81d60b11b81526000825161340e81600a850160208701612c01565b91909101600a0192915050565b672b32b939b4b7b71d60c11b81526000835161343e816008850160208801612c01565b601d60f91b600891840191820152835161345f816009840160208801612c01565b01600901949350505050565b672932b837b9b4ba1d60c11b8152600082516133b9816008850160208701612c01565b6b2232b9b1b934b83a34b7b71d60a11b8152600082516134b581600c850160208701612c01565b91909101600c0192915050565b6000895160206134d58285838f01612c01565b8a51918401916134e88184848f01612c01565b8a519201916134fa8184848e01612c01565b895192019161350c8184848d01612c01565b885192019161351e8184848c01612c01565b87519201916135308184848b01612c01565b86519201916135428184848a01612c01565b85519201916135548184848901612c01565b919091019b9a5050505050505050505050565b60008751602061357a8285838d01612c01565b88519184019161358d8184848d01612c01565b885192019161359f8184848c01612c01565b87519201916135b18184848b01612c01565b86519201916135c38184848a01612c01565b85519201916135d58184848901612c01565b919091019998505050505050505050565b727b226e616d65223a202250726f6772616d202360681b81528251600090613615816013850160208801612c01565b7f222c20226465736372697074696f6e223a202250726f6772616d7320617265206013918401918201527f646576656c6f70656420627920646576656c6f7065727320616e642063616e2060338201527f626520617474616368656420746f20726f626f7473206173206f6e65206f662060538201527f746865206361706162696c697469657320746865792063616e20686176652e2e60738201527f222c2022696d616765223a2022646174613a696d6167652f7376672b786d6c3b60938201526618985cd94d8d0b60ca1b60b382015283516136fa8160ba840160208801612c01565b61227d60f01b60ba929091019182015260bc01949350505050565b7f646174613a6170706c69636174696f6e2f6a736f6e3b6261736536342c00000081526000825161374d81601d850160208701612c01565b91909101601d0192915050565b60208082526025908201527f455243313135353a207472616e7366657220746f20746865207a65726f206164604082015264647265737360d81b606082015260800190565b6020808252602a908201527f455243313135353a20696e73756666696369656e742062616c616e636520666f60408201526939103a3930b739b332b960b11b606082015260800190565b600082198211156137fc576137fc61334e565b500190565b6040815260006138146040830185612fbb565b82810360208401526138268185612fbb565b95945050505050565b634e487b7160e01b600052601260045260246000fd5b6000826138545761385461382f565b500490565b6000826138685761386861382f565b500690565b60008160001904831182151516156138875761388761334e565b500290565b6001600160a01b0386811682528516602082015260a0604082018190526000906138b890830186612fbb565b82810360608401526138ca8186612fbb565b905082810360808401526138de8185612c2d565b98975050505050505050565b6000602082840312156138fc57600080fd5b8151611bed81612bb5565b600060033d11156139205760046000803e5060005160e01c5b90565b600060443d10156139315790565b6040516003193d81016004833e81513d6001600160401b03816024840111818411171561396057505050505090565b82850191508151818111156139785750505050505090565b843d87010160208285010111156139925750505050505090565b6139a160208286010187612c9d565b509095945050505050565b60208082526028908201527f455243313135353a204552433131353552656365697665722072656a656374656040820152676420746f6b656e7360c01b606082015260800190565b600081613a0357613a0361334e565b506000190190565b6001600160a01b03868116825285166020820152604081018490526060810183905260a060808201819052600090613a4590830184612c2d565b979650505050505050565b634e487b7160e01b600052603160045260246000fdfe3c2f746578743e3c7465787420783d2231302220793d2236302220636c6173733d2262617365223e3c2f746578743e3c7465787420783d2231302220793d223132302220636c6173733d2262617365223e3c2f746578743e3c7465787420783d2231302220793d2238302220636c6173733d2262617365223e3c2f746578743e3c7465787420783d2231302220793d223130302220636c6173733d2262617365223e3c73766720786d6c6e733d22687474703a2f2f7777772e77332e6f72672f323030302f73766722207072657365727665417370656374526174696f3d22784d696e594d696e206d656574222076696577426f783d223020302033353020333530223e3c7374796c653e2e62617365207b2066696c6c3a2077686974653b20666f6e742d66616d696c793a2073657269663b20666f6e742d73697a653a20313470783b207d3c2f7374796c653e3c726563742077696474683d223130302522206865696768743d2231303025222066696c6c3d22626c61636b22202f3e3c7465787420783d2231302220793d2232302220636c6173733d2262617365223e4142434445464748494a4b4c4d4e4f505152535455565758595a6162636465666768696a6b6c6d6e6f707172737475767778797a303132333435363738392b2f3c2f746578743e3c7465787420783d2231302220793d2234302220636c6173733d2262617365223ea26469706673582212202b2e957951dd315d148b28bb479941891b04ee8b01964ba59a146eaa260a4e6c64736f6c634300080a0033",
  "linkReferences": {},
  "deployedLinkReferences": {}
}