{
  "_format": "hh-sol-artifact-1",
  "contractName": "Program",
  "sourceName": "contracts/Program.sol",
  "abi": [
    {
      "inputs": [],
      "stateMutability": "nonpayable",
      "type": "constructor"
    },
    {
      "anonymous": false,
      "inputs": [
        {
          "indexed": true,
          "internalType": "address",
          "name": "account",
          "type": "address"
        },
        {
          "indexed": true,
          "internalType": "address",
          "name": "operator",
          "type": "address"
        },
        {
          "indexed": false,
          "internalType": "bool",
          "name": "approved",
          "type": "bool"
        }
      ],
      "name": "ApprovalForAll",
      "type": "event"
    },
    {
      "anonymous": false,
      "inputs": [
        {
          "indexed": true,
          "internalType": "address",
          "name": "previousOwner",
          "type": "address"
        },
        {
          "indexed": true,
          "internalType": "address",
          "name": "newOwner",
          "type": "address"
        }
      ],
      "name": "OwnershipTransferred",
      "type": "event"
    },
    {
      "anonymous": false,
      "inputs": [
        {
          "indexed": true,
          "internalType": "address",
          "name": "operator",
          "type": "address"
        },
        {
          "indexed": true,
          "internalType": "address",
          "name": "from",
          "type": "address"
        },
        {
          "indexed": true,
          "internalType": "address",
          "name": "to",
          "type": "address"
        },
        {
          "indexed": false,
          "internalType": "uint256[]",
          "name": "ids",
          "type": "uint256[]"
        },
        {
          "indexed": false,
          "internalType": "uint256[]",
          "name": "values",
          "type": "uint256[]"
        }
      ],
      "name": "TransferBatch",
      "type": "event"
    },
    {
      "anonymous": false,
      "inputs": [
        {
          "indexed": true,
          "internalType": "address",
          "name": "operator",
          "type": "address"
        },
        {
          "indexed": true,
          "internalType": "address",
          "name": "from",
          "type": "address"
        },
        {
          "indexed": true,
          "internalType": "address",
          "name": "to",
          "type": "address"
        },
        {
          "indexed": false,
          "internalType": "uint256",
          "name": "id",
          "type": "uint256"
        },
        {
          "indexed": false,
          "internalType": "uint256",
          "name": "value",
          "type": "uint256"
        }
      ],
      "name": "TransferSingle",
      "type": "event"
    },
    {
      "anonymous": false,
      "inputs": [
        {
          "indexed": false,
          "internalType": "string",
          "name": "value",
          "type": "string"
        },
        {
          "indexed": true,
          "internalType": "uint256",
          "name": "id",
          "type": "uint256"
        }
      ],
      "name": "URI",
      "type": "event"
    },
    {
      "inputs": [
        {
          "internalType": "string",
          "name": "",
          "type": "string"
        }
      ],
      "name": "abilityInitNumberMap",
      "outputs": [
        {
          "internalType": "uint256",
          "name": "",
          "type": "uint256"
        }
      ],
      "stateMutability": "view",
      "type": "function"
    },
    {
      "inputs": [
        {
          "internalType": "address",
          "name": "account",
          "type": "address"
        },
        {
          "internalType": "uint256",
          "name": "id",
          "type": "uint256"
        }
      ],
      "name": "balanceOf",
      "outputs": [
        {
          "internalType": "uint256",
          "name": "",
          "type": "uint256"
        }
      ],
      "stateMutability": "view",
      "type": "function"
    },
    {
      "inputs": [
        {
          "internalType": "address[]",
          "name": "accounts",
          "type": "address[]"
        },
        {
          "internalType": "uint256[]",
          "name": "ids",
          "type": "uint256[]"
        }
      ],
      "name": "balanceOfBatch",
      "outputs": [
        {
          "internalType": "uint256[]",
          "name": "",
          "type": "uint256[]"
        }
      ],
      "stateMutability": "view",
      "type": "function"
    },
    {
      "inputs": [],
      "name": "devContract",
      "outputs": [
        {
          "internalType": "address",
          "name": "",
          "type": "address"
        }
      ],
      "stateMutability": "view",
      "type": "function"
    },
    {
      "inputs": [
        {
          "internalType": "uint256",
          "name": "id",
          "type": "uint256"
        }
      ],
      "name": "exists",
      "outputs": [
        {
          "internalType": "bool",
          "name": "",
          "type": "bool"
        }
      ],
      "stateMutability": "view",
      "type": "function"
    },
    {
      "inputs": [
        {
          "internalType": "uint256",
          "name": "_programId",
          "type": "uint256"
        }
      ],
      "name": "getAbility",
      "outputs": [
        {
          "internalType": "string",
          "name": "",
          "type": "string"
        }
      ],
      "stateMutability": "view",
      "type": "function"
    },
    {
      "inputs": [
        {
          "internalType": "address",
          "name": "_userAddr",
          "type": "address"
        },
        {
          "internalType": "uint256",
          "name": "_fromIndex",
          "type": "uint256"
        },
        {
          "internalType": "uint256",
          "name": "_toIndex",
          "type": "uint256"
        }
      ],
      "name": "getUserTokenIds",
      "outputs": [
        {
          "internalType": "uint256[]",
          "name": "tokenIds",
          "type": "uint256[]"
        }
      ],
      "stateMutability": "view",
      "type": "function"
    },
    {
      "inputs": [
        {
          "internalType": "address",
          "name": "_userAddr",
          "type": "address"
        }
      ],
      "name": "getUserTokenNumber",
      "outputs": [
        {
          "internalType": "uint256",
          "name": "",
          "type": "uint256"
        }
      ],
      "stateMutability": "view",
      "type": "function"
    },
    {
      "inputs": [
        {
          "internalType": "address",
          "name": "account",
          "type": "address"
        },
        {
          "internalType": "address",
          "name": "operator",
          "type": "address"
        }
      ],
      "name": "isApprovedForAll",
      "outputs": [
        {
          "internalType": "bool",
          "name": "",
          "type": "bool"
        }
      ],
      "stateMutability": "view",
      "type": "function"
    },
    {
      "inputs": [
        {
          "internalType": "uint256",
          "name": "_tokenId",
          "type": "uint256"
        },
        {
          "internalType": "uint256",
          "name": "_amount",
          "type": "uint256"
        }
      ],
      "name": "mintProgram",
      "outputs": [],
      "stateMutability": "nonpayable",
      "type": "function"
    },
    {
      "inputs": [],
      "name": "owner",
      "outputs": [
        {
          "internalType": "address",
          "name": "",
          "type": "address"
        }
      ],
      "stateMutability": "view",
      "type": "function"
    },
    {
      "inputs": [
        {
          "internalType": "uint256",
          "name": "",
          "type": "uint256"
        }
      ],
      "name": "programInfoMap",
      "outputs": [
        {
          "internalType": "uint256",
          "name": "tokenId",
          "type": "uint256"
        },
        {
          "internalType": "string",
          "name": "ability",
          "type": "string"
        },
        {
          "internalType": "address",
          "name": "dev",
          "type": "address"
        },
        {
          "internalType": "uint256",
          "name": "mainVersion",
          "type": "uint256"
        },
        {
          "internalType": "uint256",
          "name": "subVersion",
          "type": "uint256"
        },
        {
          "internalType": "uint256",
          "name": "uploadTime",
          "type": "uint256"
        },
        {
          "internalType": "string",
          "name": "hashValue",
          "type": "string"
        },
        {
          "internalType": "string",
          "name": "desc",
          "type": "string"
        },
        {
          "internalType": "string",
          "name": "repositUrl",
          "type": "string"
        },
        {
          "internalType": "bool",
          "name": "bPublic",
          "type": "bool"
        }
      ],
      "stateMutability": "view",
      "type": "function"
    },
    {
      "inputs": [
        {
          "internalType": "address",
          "name": "_dev",
          "type": "address"
        },
        {
          "internalType": "string",
          "name": "_ability",
          "type": "string"
        },
        {
          "internalType": "uint256",
          "name": "_mainVersion",
          "type": "uint256"
        },
        {
          "internalType": "uint256",
          "name": "_subVersion",
          "type": "uint256"
        },
        {
          "internalType": "string",
          "name": "_hashValue",
          "type": "string"
        },
        {
          "internalType": "string",
          "name": "_desc",
          "type": "string"
        },
        {
          "internalType": "string",
          "name": "_repositUrl",
          "type": "string"
        }
      ],
      "name": "registerProgram",
      "outputs": [
        {
          "internalType": "uint256",
          "name": "",
          "type": "uint256"
        }
      ],
      "stateMutability": "nonpayable",
      "type": "function"
    },
    {
      "inputs": [],
      "name": "renounceOwnership",
      "outputs": [],
      "stateMutability": "nonpayable",
      "type": "function"
    },
    {
      "inputs": [
        {
          "internalType": "address",
          "name": "from",
          "type": "address"
        },
        {
          "internalType": "address",
          "name": "to",
          "type": "address"
        },
        {
          "internalType": "uint256[]",
          "name": "ids",
          "type": "uint256[]"
        },
        {
          "internalType": "uint256[]",
          "name": "amounts",
          "type": "uint256[]"
        },
        {
          "internalType": "bytes",
          "name": "data",
          "type": "bytes"
        }
      ],
      "name": "safeBatchTransferFrom",
      "outputs": [],
      "stateMutability": "nonpayable",
      "type": "function"
    },
    {
      "inputs": [
        {
          "internalType": "address",
          "name": "from",
          "type": "address"
        },
        {
          "internalType": "address",
          "name": "to",
          "type": "address"
        },
        {
          "internalType": "uint256",
          "name": "id",
          "type": "uint256"
        },
        {
          "internalType": "uint256",
          "name": "amount",
          "type": "uint256"
        },
        {
          "internalType": "bytes",
          "name": "data",
          "type": "bytes"
        }
      ],
      "name": "safeTransferFrom",
      "outputs": [],
      "stateMutability": "nonpayable",
      "type": "function"
    },
    {
      "inputs": [
        {
          "internalType": "string",
          "name": "abilityName",
          "type": "string"
        },
        {
          "internalType": "uint256",
          "name": "_initNumber",
          "type": "uint256"
        }
      ],
      "name": "setAbilityInitNumber",
      "outputs": [],
      "stateMutability": "nonpayable",
      "type": "function"
    },
    {
      "inputs": [
        {
          "internalType": "address",
          "name": "operator",
          "type": "address"
        },
        {
          "internalType": "bool",
          "name": "approved",
          "type": "bool"
        }
      ],
      "name": "setApprovalForAll",
      "outputs": [],
      "stateMutability": "nonpayable",
      "type": "function"
    },
    {
      "inputs": [
        {
          "internalType": "address",
          "name": "_devContract",
          "type": "address"
        }
      ],
      "name": "setDevContractAddr",
      "outputs": [],
      "stateMutability": "nonpayable",
      "type": "function"
    },
    {
      "inputs": [
        {
          "internalType": "uint256",
          "name": "_tokenId",
          "type": "uint256"
        }
      ],
      "name": "setPublic",
      "outputs": [],
      "stateMutability": "nonpayable",
      "type": "function"
    },
    {
      "inputs": [
        {
          "internalType": "string",
          "name": "abilityName",
          "type": "string"
        },
        {
          "internalType": "bool",
          "name": "_bSupported",
          "type": "bool"
        }
      ],
      "name": "setSupportAbility",
      "outputs": [],
      "stateMutability": "nonpayable",
      "type": "function"
    },
    {
      "inputs": [
        {
          "internalType": "string",
          "name": "",
          "type": "string"
        }
      ],
      "name": "supportedAbilityMap",
      "outputs": [
        {
          "internalType": "bool",
          "name": "",
          "type": "bool"
        }
      ],
      "stateMutability": "view",
      "type": "function"
    },
    {
      "inputs": [
        {
          "internalType": "bytes4",
          "name": "interfaceId",
          "type": "bytes4"
        }
      ],
      "name": "supportsInterface",
      "outputs": [
        {
          "internalType": "bool",
          "name": "",
          "type": "bool"
        }
      ],
      "stateMutability": "view",
      "type": "function"
    },
    {
      "inputs": [],
      "name": "tokenId",
      "outputs": [
        {
          "internalType": "uint256",
          "name": "",
          "type": "uint256"
        }
      ],
      "stateMutability": "view",
      "type": "function"
    },
    {
      "inputs": [
        {
          "internalType": "uint256",
          "name": "_tokenId",
          "type": "uint256"
        }
      ],
      "name": "tokenURI",
      "outputs": [
        {
          "internalType": "string",
          "name": "",
          "type": "string"
        }
      ],
      "stateMutability": "view",
      "type": "function"
    },
    {
      "inputs": [
        {
          "internalType": "uint256",
          "name": "id",
          "type": "uint256"
        }
      ],
      "name": "totalSupply",
      "outputs": [
        {
          "internalType": "uint256",
          "name": "",
          "type": "uint256"
        }
      ],
      "stateMutability": "view",
      "type": "function"
    },
    {
      "inputs": [
        {
          "internalType": "address",
          "name": "newOwner",
          "type": "address"
        }
      ],
      "name": "transferOwnership",
      "outputs": [],
      "stateMutability": "nonpayable",
      "type": "function"
    },
    {
      "inputs": [
        {
          "internalType": "uint256",
          "name": "",
          "type": "uint256"
        }
      ],
      "name": "uri",
      "outputs": [
        {
          "internalType": "string",
          "name": "",
          "type": "string"
        }
      ],
      "stateMutability": "view",
      "type": "function"
    }
  ],
  "bytecode": "0x60806040523480156200001157600080fd5b506040805160208101909152600081526200002c816200003e565b50620000383362000057565b6200018c565b805162000053906002906020840190620000a9565b5050565b600480546001600160a01b038381166001600160a01b0319831681179093556040519116919082907f8be0079c531659141344cd1fd0a4f28419497f9722a3daafe3b4186f6b6457e090600090a35050565b828054620000b7906200014f565b90600052602060002090601f016020900481019282620000db576000855562000126565b82601f10620000f657805160ff191683800117855562000126565b8280016001018555821562000126579182015b828111156200012657825182559160200191906001019062000109565b506200013492915062000138565b5090565b5b8082111562000134576000815560010162000139565b600181811c908216806200016457607f821691505b602082108114156200018657634e487b7160e01b600052602260045260246000fd5b50919050565b613e0f806200019c6000396000f3fe608060405234801561001057600080fd5b50600436106101c35760003560e01c806371a16450116100f9578063c2e37b9b11610097578063d5523f7711610071578063d5523f7714610435578063e985e9c514610448578063f242432a14610484578063f2fde38b1461049757600080fd5b8063c2e37b9b146103e6578063c87b56dd1461040f578063cbc5d9171461042257600080fd5b80638da5cb5b116100d35780638da5cb5b14610377578063a22cb46514610388578063b0d879881461039b578063bd85b039146103c657600080fd5b806371a164501461033e5780637af4461e146103515780638436c9301461036457600080fd5b806331845f7d116101665780634f558e79116101405780634f558e79146102ee578063522e0bcf1461031057806368c787dc14610323578063715018a61461033657600080fd5b806331845f7d146102a85780633201039a146102bb5780634e1273f4146102ce57600080fd5b80630fd6240e116101a25780630fd6240e1461023157806317d70f7c1461025c5780632eb2c2d6146102655780632f4fa7f31461027a57600080fd5b8062fdd58e146101c857806301ffc9a7146101ee5780630e89341c14610211575b600080fd5b6101db6101d6366004612cc4565b6104aa565b6040519081526020015b60405180910390f35b6102016101fc366004612d04565b610544565b60405190151581526020016101e5565b61022461021f366004612d21565b610594565b6040516101e59190612d92565b600554610244906001600160a01b031681565b6040516001600160a01b0390911681526020016101e5565b6101db60065481565b610278610273366004612eee565b610628565b005b610201610288366004612f97565b805160208183018101805160088252928201919093012091525460ff1681565b6102786102b6366004612d21565b6106bf565b6102786102c9366004612fcb565b61070b565b6102e16102dc36600461300f565b61075a565b6040516101e59190613114565b6102016102fc366004612d21565b600090815260036020526040902054151590565b61027861031e366004613127565b610883565b6102e1610331366004613142565b6108cf565b610278610a14565b6101db61034c366004613127565b610a4a565b61027861035f366004613185565b610a6b565b6101db6103723660046131d2565b610aca565b6004546001600160a01b0316610244565b6102786103963660046132a2565b610e39565b6101db6103a9366004612f97565b805160208183018101805160098252928201919093012091525481565b6101db6103d4366004612d21565b60009081526003602052604090205490565b6103f96103f4366004612d21565b610e48565b6040516101e59a999897969594939291906132cc565b61022461041d366004612d21565b6110c7565b610278610430366004613362565b611691565b610224610443366004612d21565b611a50565b610201610456366004613384565b6001600160a01b03918216600090815260016020908152604080832093909416825291909152205460ff1690565b6102786104923660046133ae565b611a70565b6102786104a5366004613127565b611af7565b60006001600160a01b03831661051b5760405162461bcd60e51b815260206004820152602b60248201527f455243313135353a2062616c616e636520717565727920666f7220746865207a60448201526a65726f206164647265737360a81b60648201526084015b60405180910390fd5b506000818152602081815260408083206001600160a01b03861684529091529020545b92915050565b60006001600160e01b03198216636cdb3d1360e11b148061057557506001600160e01b031982166303a24d0760e21b145b8061053e57506301ffc9a760e01b6001600160e01b031983161461053e565b6060600280546105a390613412565b80601f01602080910402602001604051908101604052809291908181526020018280546105cf90613412565b801561061c5780601f106105f15761010080835404028352916020019161061c565b820191906000526020600020905b8154815290600101906020018083116105ff57829003601f168201915b50505050509050919050565b6001600160a01b03851633148061064457506106448533610456565b6106ab5760405162461bcd60e51b815260206004820152603260248201527f455243313135353a207472616e736665722063616c6c6572206973206e6f74206044820152711bdddb995c881b9bdc88185c1c1c9bdd995960721b6064820152608401610512565b6106b88585858585611b92565b5050505050565b6004546001600160a01b031633146106e95760405162461bcd60e51b81526004016105129061344d565b506006546000908152600760205260409020600901805460ff19166001179055565b6004546001600160a01b031633146107355760405162461bcd60e51b81526004016105129061344d565b806009836040516107469190613482565b908152604051908190036020019020555050565b606081518351146107bf5760405162461bcd60e51b815260206004820152602960248201527f455243313135353a206163636f756e747320616e6420696473206c656e677468604482015268040dad2e6dac2e8c6d60bb1b6064820152608401610512565b600083516001600160401b038111156107da576107da612da5565b604051908082528060200260200182016040528015610803578160200160208202803683370190505b50905060005b845181101561087b5761084e8582815181106108275761082761349e565b60200260200101518583815181106108415761084161349e565b60200260200101516104aa565b8282815181106108605761086061349e565b6020908102919091010152610874816134ca565b9050610809565b509392505050565b6004546001600160a01b031633146108ad5760405162461bcd60e51b81526004016105129061344d565b600580546001600160a01b0319166001600160a01b0392909216919091179055565b6001600160a01b0383166000908152600a60205260408120606091906108f490611d7d565b905080831115610902578092505b8284106109515760405162461bcd60e51b815260206004820152601c60248201527f50726f6772616d3a20696e646578206f7574206f662072616e676521000000006044820152606401610512565b61095b84846134e5565b6001600160401b0381111561097257610972612da5565b60405190808252806020026020018201604052801561099b578160200160208202803683370190505b5091506000845b84811015610a0a576001600160a01b0387166000908152600a602052604081206109cc9083611d87565b90508085846109da816134ca565b9550815181106109ec576109ec61349e565b60209081029190910101525080610a02816134ca565b9150506109a2565b5050509392505050565b6004546001600160a01b03163314610a3e5760405162461bcd60e51b81526004016105129061344d565b610a486000611d9a565b565b6001600160a01b0381166000908152600a6020526040812061053e90611d7d565b6004546001600160a01b03163314610a955760405162461bcd60e51b81526004016105129061344d565b80600883604051610aa69190613482565b908152604051908190036020019020805491151560ff199092169190911790555050565b6005546000906001600160a01b03163314610b425760405162461bcd60e51b815260206004820152603260248201527f50726f6772616d3a206f6e6c792064657620636f6e74726163742063616e206360448201527130b636103a3434b99031b7b73a3930b1ba1760711b6064820152608401610512565b600887604051610b529190613482565b9081526040519081900360200190205460ff16610bb15760405162461bcd60e51b815260206004820152601e60248201527f50726f6772616d3a206162696c697479204e4f5420737570706f7274656400006044820152606401610512565b6032835110610c285760405162461bcd60e51b815260206004820152603960248201527f50726f6772616d3a20746865206c656e677468206f6620646573632073686f7560448201527f6c64206265206c657373207468616e2035302062797465732e000000000000006064820152608401610512565b60068054906000610c38836134ca565b9091555050604080516101408101825260065480825260208083018b81526001600160a01b038d1684860152606084018b9052608084018a90524260a085015260c0840189905260e0840188905261010084018790526000610120850181905292835260078252939091208251815592518051929392610cbe9260018501920190612be7565b5060408201516002820180546001600160a01b0319166001600160a01b03909216919091179055606082015160038201556080820151600482015560a0820151600582015560c08201518051610d1e916006840191602090910190612be7565b5060e08201518051610d3a916007840191602090910190612be7565b506101008201518051610d57916008840191602090910190612be7565b5061012091909101516009918201805460ff1916911515919091179055600654604051610db0928b9291610d8c908c90613482565b90815260200160405180910390205460405180602001604052806000815250611dec565b6000600988604051610dc29190613482565b908152602001604051809103902054118015610dff57506006546001600160a01b0389166000908152600a60205260409020610dfd91611efc565b155b15610e2a576006546001600160a01b0389166000908152600a60205260409020610e2891611f14565b505b50600654979650505050505050565b610e44338383611f20565b5050565b60076020526000908152604090208054600182018054919291610e6a90613412565b80601f0160208091040260200160405190810160405280929190818152602001828054610e9690613412565b8015610ee35780601f10610eb857610100808354040283529160200191610ee3565b820191906000526020600020905b815481529060010190602001808311610ec657829003601f168201915b505050600284015460038501546004860154600587015460068801805497986001600160a01b03909516979396509194509291610f1f90613412565b80601f0160208091040260200160405190810160405280929190818152602001828054610f4b90613412565b8015610f985780601f10610f6d57610100808354040283529160200191610f98565b820191906000526020600020905b815481529060010190602001808311610f7b57829003601f168201915b505050505090806007018054610fad90613412565b80601f0160208091040260200160405190810160405280929190818152602001828054610fd990613412565b80156110265780601f10610ffb57610100808354040283529160200191611026565b820191906000526020600020905b81548152906001019060200180831161100957829003601f168201915b50505050509080600801805461103b90613412565b80601f016020809104026020016040519081016040528092919081815260200182805461106790613412565b80156110b45780601f10611089576101008083540402835291602001916110b4565b820191906000526020600020905b81548152906001019060200180831161109757829003601f168201915b5050506009909301549192505060ff168a565b6000818152600760209081526040808320815161014081019092528054825260018101805460609594840191906110fd90613412565b80601f016020809104026020016040519081016040528092919081815260200182805461112990613412565b80156111765780601f1061114b57610100808354040283529160200191611176565b820191906000526020600020905b81548152906001019060200180831161115957829003601f168201915b505050918352505060028201546001600160a01b0316602082015260038201546040820152600482015460608201526005820154608082015260068201805460a0909201916111c490613412565b80601f01602080910402602001604051908101604052809291908181526020018280546111f090613412565b801561123d5780601f106112125761010080835404028352916020019161123d565b820191906000526020600020905b81548152906001019060200180831161122057829003601f168201915b5050505050815260200160078201805461125690613412565b80601f016020809104026020016040519081016040528092919081815260200182805461128290613412565b80156112cf5780601f106112a4576101008083540402835291602001916112cf565b820191906000526020600020905b8154815290600101906020018083116112b257829003601f168201915b505050505081526020016008820180546112e890613412565b80601f016020809104026020016040519081016040528092919081815260200182805461131490613412565b80156113615780601f1061133657610100808354040283529160200191611361565b820191906000526020600020905b81548152906001019060200180831161134457829003601f168201915b50505091835250506009919091015460ff1615156020909101529050611385612c6b565b60405180610120016040528060fd8152602001613c7560fd913981526020828101516040516113b492016134fc565b60408051601f198184030181529190528160016020020181905250604051806060016040528060288152602001613db26028913981600260200201526040820151611407906001600160a01b0316612001565b604051602001611417919061352d565b60408051808303601f19018152918152606080840192909252805191820190526028808252613bd36020830139608082015260a08201516114579061205d565b6040516020016114679190613551565b60408051808303601f1901815291815260a08301919091528051606081019091526028808252613c24602083013960c082015260608201516114a89061205d565b6114b5836080015161205d565b6040516020016114c6929190613584565b60408051808303601f1901815291815260e08301919091528051606081019091526029808252613c4c60208301396101008083019190915282015160405161151191906020016135d5565b60408051808303601f190181529181526101208301919091528051606081019091526029808252613bfb602083013961014082015260e082015160405161155b91906020016135f9565b60408051601f1981840301815291815261016083019190915280518082018252600d81526c1e17ba32bc3a1f1e17b9bb339f60991b602080830191909152610180840191909152825181840151848401516060860151608087015160a088015160c089015160e08a015198516000996115d69990910161362e565b60408051808303601f1901815290829052610100840151610120850151610140860151610160870151610180880151949650611617958795906020016136d3565b604051602081830303815290604052905060006116646116368761205d565b61163f8461215a565b604051602001611650929190613752565b60405160208183030381529060405261215a565b9050806040516020016116779190613881565b60408051601f198184030181529190529695505050505050565b600060076000600654815260200190815260200160002060405180610140016040529081600082015481526020016001820180546116ce90613412565b80601f01602080910402602001604051908101604052809291908181526020018280546116fa90613412565b80156117475780601f1061171c57610100808354040283529160200191611747565b820191906000526020600020905b81548152906001019060200180831161172a57829003601f168201915b505050918352505060028201546001600160a01b0316602082015260038201546040820152600482015460608201526005820154608082015260068201805460a09092019161179590613412565b80601f01602080910402602001604051908101604052809291908181526020018280546117c190613412565b801561180e5780601f106117e35761010080835404028352916020019161180e565b820191906000526020600020905b8154815290600101906020018083116117f157829003601f168201915b5050505050815260200160078201805461182790613412565b80601f016020809104026020016040519081016040528092919081815260200182805461185390613412565b80156118a05780601f10611875576101008083540402835291602001916118a0565b820191906000526020600020905b81548152906001019060200180831161188357829003601f168201915b505050505081526020016008820180546118b990613412565b80601f01602080910402602001604051908101604052809291908181526020018280546118e590613412565b80156119325780601f1061190757610100808354040283529160200191611932565b820191906000526020600020905b81548152906001019060200180831161191557829003601f168201915b50505091835250506009919091015460ff1615156020909101526101208101519091508015611976575080604001516001600160a01b0316336001600160a01b0316145b80156119825750600082115b6119f45760405162461bcd60e51b815260206004820152603c60248201527f50726f6772616d3a206f6e6c792064657620636f756c64206d696e742070756260448201527f6c69632070726f6772616d2077697468203e2030206e756d6265722e000000006064820152608401610512565b611a0f33848460405180602001604052806000815250611dec565b600654336000908152600a60205260409020611a2a91611efc565b611a4b57600654336000908152600a60205260409020611a4991611f14565b505b505050565b60008181526007602052604090206001018054606091906105a390613412565b6001600160a01b038516331480611a8c5750611a8c8533610456565b611aea5760405162461bcd60e51b815260206004820152602960248201527f455243313135353a2063616c6c6572206973206e6f74206f776e6572206e6f7260448201526808185c1c1c9bdd995960ba1b6064820152608401610512565b6106b885858585856122bf565b6004546001600160a01b03163314611b215760405162461bcd60e51b81526004016105129061344d565b6001600160a01b038116611b865760405162461bcd60e51b815260206004820152602660248201527f4f776e61626c653a206e6577206f776e657220697320746865207a65726f206160448201526564647265737360d01b6064820152608401610512565b611b8f81611d9a565b50565b8151835114611bf45760405162461bcd60e51b815260206004820152602860248201527f455243313135353a2069647320616e6420616d6f756e7473206c656e677468206044820152670dad2e6dac2e8c6d60c31b6064820152608401610512565b6001600160a01b038416611c1a5760405162461bcd60e51b8152600401610512906138c6565b33611c298187878787876123dc565b60005b8451811015611d0f576000858281518110611c4957611c4961349e565b602002602001015190506000858381518110611c6757611c6761349e565b602090810291909101810151600084815280835260408082206001600160a01b038e168352909352919091205490915081811015611cb75760405162461bcd60e51b81526004016105129061390b565b6000838152602081815260408083206001600160a01b038e8116855292528083208585039055908b16825281208054849290611cf4908490613955565b9250508190555050505080611d08906134ca565b9050611c2c565b50846001600160a01b0316866001600160a01b0316826001600160a01b03167f4a39dc06d4c0dbc64b70af90fd698a233a518aa5d07e595d983b8c0526c8f7fb8787604051611d5f92919061396d565b60405180910390a4611d7581878787878761256b565b505050505050565b600061053e825490565b6000611d9383836126c7565b9392505050565b600480546001600160a01b038381166001600160a01b0319831681179093556040519116919082907f8be0079c531659141344cd1fd0a4f28419497f9722a3daafe3b4186f6b6457e090600090a35050565b6001600160a01b038416611e4c5760405162461bcd60e51b815260206004820152602160248201527f455243313135353a206d696e7420746f20746865207a65726f206164647265736044820152607360f81b6064820152608401610512565b33611e6c81600087611e5d886126f1565b611e66886126f1565b876123dc565b6000848152602081815260408083206001600160a01b038916845290915281208054859290611e9c908490613955565b909155505060408051858152602081018590526001600160a01b0380881692600092918516917fc3d58168c5ae7397731d063d5bbf3d657854427343f4c083240f7aacaa2d0f62910160405180910390a46106b88160008787878761273c565b60008181526001830160205260408120541515611d93565b6000611d9383836127f7565b816001600160a01b0316836001600160a01b03161415611f945760405162461bcd60e51b815260206004820152602960248201527f455243313135353a2073657474696e6720617070726f76616c20737461747573604482015268103337b91039b2b63360b91b6064820152608401610512565b6001600160a01b03838116600081815260016020908152604080832094871680845294825291829020805460ff191686151590811790915591519182527f17307eab39ab6107e8899845ad3d59bd9653f200f220920489ca2b5937696c31910160405180910390a3505050565b6060816120285750506040805180820190915260048152630307830360e41b602082015290565b8160005b811561204b578061203c816134ca565b915050600882901c915061202c565b6120558482612846565b949350505050565b6060816120815750506040805180820190915260018152600360fc1b602082015290565b8160005b81156120ab5780612095816134ca565b91506120a49050600a836139b1565b9150612085565b6000816001600160401b038111156120c5576120c5612da5565b6040519080825280601f01601f1916602001820160405280156120ef576020820181803683370190505b5090505b8415612055576121046001836134e5565b9150612111600a866139c5565b61211c906030613955565b60f81b8183815181106121315761213161349e565b60200101906001600160f81b031916908160001a905350612153600a866139b1565b94506120f3565b80516060908061217a575050604080516020810190915260008152919050565b60006003612189836002613955565b61219391906139b1565b61219e9060046139d9565b905060006121ad826020613955565b6001600160401b038111156121c4576121c4612da5565b6040519080825280601f01601f1916602001820160405280156121ee576020820181803683370190505b5090506000604051806060016040528060408152602001613d72604091399050600181016020830160005b8681101561227a576003818a01810151603f601282901c8116860151600c83901c8216870151600684901c831688015192909316870151600891821b60ff94851601821b92841692909201901b91160160e01b835260049092019101612219565b50600386066001811461229457600281146122a5576122b1565b613d3d60f01b6001198301526122b1565b603d60f81b6000198301525b505050918152949350505050565b6001600160a01b0384166122e55760405162461bcd60e51b8152600401610512906138c6565b336122f5818787611e5d886126f1565b6000848152602081815260408083206001600160a01b038a168452909152902054838110156123365760405162461bcd60e51b81526004016105129061390b565b6000858152602081815260408083206001600160a01b038b8116855292528083208785039055908816825281208054869290612373908490613955565b909155505060408051868152602081018690526001600160a01b03808916928a821692918616917fc3d58168c5ae7397731d063d5bbf3d657854427343f4c083240f7aacaa2d0f62910160405180910390a46123d382888888888861273c565b50505050505050565b6123ea8686868686866129e1565b60005b83518110156123d3576001600160a01b03861615801590612421575061241f868583815181106108415761084161349e565b155b156124785761247684828151811061243b5761243b61349e565b6020026020010151600a6000896001600160a01b03166001600160a01b03168152602001908152602001600020612aed90919063ffffffff16565b505b6001600160a01b038516158015906124a95750600083828151811061249f5761249f61349e565b6020026020010151115b801561250257506125008482815181106124c5576124c561349e565b6020026020010151600a6000886001600160a01b03166001600160a01b03168152602001908152602001600020611efc90919063ffffffff16565b155b156125595761255784828151811061251c5761251c61349e565b6020026020010151600a6000886001600160a01b03166001600160a01b03168152602001908152602001600020611f1490919063ffffffff16565b505b80612563816134ca565b9150506123ed565b6001600160a01b0384163b15611d755760405163bc197c8160e01b81526001600160a01b0385169063bc197c81906125af90899089908890889088906004016139f8565b6020604051808303816000875af19250505080156125ea575060408051601f3d908101601f191682019092526125e791810190613a56565b60015b612697576125f6613a73565b806308c379a01415612630575061260b613a8f565b806126165750612632565b8060405162461bcd60e51b81526004016105129190612d92565b505b60405162461bcd60e51b815260206004820152603460248201527f455243313135353a207472616e7366657220746f206e6f6e20455243313135356044820152732932b1b2b4bb32b91034b6b83632b6b2b73a32b960611b6064820152608401610512565b6001600160e01b0319811663bc197c8160e01b146123d35760405162461bcd60e51b815260040161051290613b18565b60008260000182815481106126de576126de61349e565b9060005260206000200154905092915050565b6040805160018082528183019092526060916000919060208083019080368337019050509050828160008151811061272b5761272b61349e565b602090810291909101015292915050565b6001600160a01b0384163b15611d755760405163f23a6e6160e01b81526001600160a01b0385169063f23a6e61906127809089908990889088908890600401613b60565b6020604051808303816000875af19250505080156127bb575060408051601f3d908101601f191682019092526127b891810190613a56565b60015b6127c7576125f6613a73565b6001600160e01b0319811663f23a6e6160e01b146123d35760405162461bcd60e51b815260040161051290613b18565b600081815260018301602052604081205461283e5750815460018181018455600084815260208082209093018490558454848252828601909352604090209190915561053e565b50600061053e565b606060006128558360026139d9565b612860906002613955565b6001600160401b0381111561287757612877612da5565b6040519080825280601f01601f1916602001820160405280156128a1576020820181803683370190505b509050600360fc1b816000815181106128bc576128bc61349e565b60200101906001600160f81b031916908160001a905350600f60fb1b816001815181106128eb576128eb61349e565b60200101906001600160f81b031916908160001a905350600061290f8460026139d9565b61291a906001613955565b90505b6001811115612992576f181899199a1a9b1b9c1cb0b131b232b360811b85600f166010811061294e5761294e61349e565b1a60f81b8282815181106129645761296461349e565b60200101906001600160f81b031916908160001a90535060049490941c9361298b81613ba5565b905061291d565b508315611d935760405162461bcd60e51b815260206004820181905260248201527f537472696e67733a20686578206c656e67746820696e73756666696369656e746044820152606401610512565b6001600160a01b038516612a685760005b8351811015612a6657828181518110612a0d57612a0d61349e565b602002602001015160036000868481518110612a2b57612a2b61349e565b602002602001015181526020019081526020016000206000828254612a509190613955565b90915550612a5f9050816134ca565b90506129f2565b505b6001600160a01b038416611d755760005b83518110156123d357828181518110612a9457612a9461349e565b602002602001015160036000868481518110612ab257612ab261349e565b602002602001015181526020019081526020016000206000828254612ad791906134e5565b90915550612ae69050816134ca565b9050612a79565b6000611d93838360008181526001830160205260408120548015612bdd576000612b186001836134e5565b8554909150600090612b2c906001906134e5565b9050818114612b91576000866000018281548110612b4c57612b4c61349e565b9060005260206000200154905080876000018481548110612b6f57612b6f61349e565b6000918252602080832090910192909255918252600188019052604090208390555b8554869080612ba257612ba2613bbc565b60019003818190600052602060002001600090559055856001016000868152602001908152602001600020600090556001935050505061053e565b600091505061053e565b828054612bf390613412565b90600052602060002090601f016020900481019282612c155760008555612c5b565b82601f10612c2e57805160ff1916838001178555612c5b565b82800160010185558215612c5b579182015b82811115612c5b578251825591602001919060010190612c40565b50612c67929150612c93565b5090565b604051806101a00160405280600d905b6060815260200190600190039081612c7b5790505090565b5b80821115612c675760008155600101612c94565b80356001600160a01b0381168114612cbf57600080fd5b919050565b60008060408385031215612cd757600080fd5b612ce083612ca8565b946020939093013593505050565b6001600160e01b031981168114611b8f57600080fd5b600060208284031215612d1657600080fd5b8135611d9381612cee565b600060208284031215612d3357600080fd5b5035919050565b60005b83811015612d55578181015183820152602001612d3d565b83811115611a495750506000910152565b60008151808452612d7e816020860160208601612d3a565b601f01601f19169290920160200192915050565b602081526000611d936020830184612d66565b634e487b7160e01b600052604160045260246000fd5b601f8201601f191681016001600160401b0381118282101715612de057612de0612da5565b6040525050565b60006001600160401b03821115612e0057612e00612da5565b5060051b60200190565b600082601f830112612e1b57600080fd5b81356020612e2882612de7565b604051612e358282612dbb565b83815260059390931b8501820192828101915086841115612e5557600080fd5b8286015b84811015612e705780358352918301918301612e59565b509695505050505050565b600082601f830112612e8c57600080fd5b81356001600160401b03811115612ea557612ea5612da5565b604051612ebc601f8301601f191660200182612dbb565b818152846020838601011115612ed157600080fd5b816020850160208301376000918101602001919091529392505050565b600080600080600060a08688031215612f0657600080fd5b612f0f86612ca8565b9450612f1d60208701612ca8565b935060408601356001600160401b0380821115612f3957600080fd5b612f4589838a01612e0a565b94506060880135915080821115612f5b57600080fd5b612f6789838a01612e0a565b93506080880135915080821115612f7d57600080fd5b50612f8a88828901612e7b565b9150509295509295909350565b600060208284031215612fa957600080fd5b81356001600160401b03811115612fbf57600080fd5b61205584828501612e7b565b60008060408385031215612fde57600080fd5b82356001600160401b03811115612ff457600080fd5b61300085828601612e7b565b95602094909401359450505050565b6000806040838503121561302257600080fd5b82356001600160401b038082111561303957600080fd5b818501915085601f83011261304d57600080fd5b8135602061305a82612de7565b6040516130678282612dbb565b83815260059390931b850182019282810191508984111561308757600080fd5b948201945b838610156130ac5761309d86612ca8565b8252948201949082019061308c565b965050860135925050808211156130c257600080fd5b506130cf85828601612e0a565b9150509250929050565b600081518084526020808501945080840160005b83811015613109578151875295820195908201906001016130ed565b509495945050505050565b602081526000611d9360208301846130d9565b60006020828403121561313957600080fd5b611d9382612ca8565b60008060006060848603121561315757600080fd5b61316084612ca8565b95602085013595506040909401359392505050565b80358015158114612cbf57600080fd5b6000806040838503121561319857600080fd5b82356001600160401b038111156131ae57600080fd5b6131ba85828601612e7b565b9250506131c960208401613175565b90509250929050565b600080600080600080600060e0888a0312156131ed57600080fd5b6131f688612ca8565b965060208801356001600160401b038082111561321257600080fd5b61321e8b838c01612e7b565b975060408a0135965060608a0135955060808a013591508082111561324257600080fd5b61324e8b838c01612e7b565b945060a08a013591508082111561326457600080fd5b6132708b838c01612e7b565b935060c08a013591508082111561328657600080fd5b506132938a828b01612e7b565b91505092959891949750929550565b600080604083850312156132b557600080fd5b6132be83612ca8565b91506131c960208401613175565b60006101408c83528060208401526132e68184018d612d66565b6001600160a01b038c166040850152606084018b9052608084018a905260a0840189905283810360c0850152905061331e8188612d66565b905082810360e08401526133328187612d66565b90508281036101008401526133478186612d66565b9150508215156101208301529b9a5050505050505050505050565b6000806040838503121561337557600080fd5b50508035926020909101359150565b6000806040838503121561339757600080fd5b6133a083612ca8565b91506131c960208401612ca8565b600080600080600060a086880312156133c657600080fd5b6133cf86612ca8565b94506133dd60208701612ca8565b9350604086013592506060860135915060808601356001600160401b0381111561340657600080fd5b612f8a88828901612e7b565b600181811c9082168061342657607f821691505b6020821081141561344757634e487b7160e01b600052602260045260246000fd5b50919050565b6020808252818101527f4f776e61626c653a2063616c6c6572206973206e6f7420746865206f776e6572604082015260600190565b60008251613494818460208701612d3a565b9190910192915050565b634e487b7160e01b600052603260045260246000fd5b634e487b7160e01b600052601160045260246000fd5b60006000198214156134de576134de6134b4565b5060010190565b6000828210156134f7576134f76134b4565b500390565b68020b134b634ba3c9d160bd1b815260008251613520816009850160208701612d3a565b9190910160090192915050565b6802232bb20b232391d160bd1b815260008251613520816009850160208701612d3a565b6a02a34b6b2b9ba30b6b81d160ad1b81526000825161357781600b850160208701612d3a565b91909101600b0192915050565b6802b32b939b4b7b71d160bd1b8152600083516135a8816009850160208801612d3a565b601d60f91b60099184019182015283516135c981600a840160208801612d3a565b01600a01949350505050565b6802932b837b9b4ba1d160bd1b815260008251613520816009850160208701612d3a565b6c02232b9b1b934b83a34b7b71d1609d1b81526000825161362181600d850160208701612d3a565b91909101600d0192915050565b6000895160206136418285838f01612d3a565b8a51918401916136548184848f01612d3a565b8a519201916136668184848e01612d3a565b89519201916136788184848d01612d3a565b885192019161368a8184848c01612d3a565b875192019161369c8184848b01612d3a565b86519201916136ae8184848a01612d3a565b85519201916136c08184848901612d3a565b919091019b9a5050505050505050505050565b6000875160206136e68285838d01612d3a565b8851918401916136f98184848d01612d3a565b885192019161370b8184848c01612d3a565b875192019161371d8184848b01612d3a565b865192019161372f8184848a01612d3a565b85519201916137418184848901612d3a565b919091019998505050505050505050565b727b226e616d65223a202250726f6772616d202360681b81528251600090613781816013850160208801612d3a565b7f222c20226465736372697074696f6e223a202250726f6772616d7320617265206013918401918201527f646576656c6f70656420627920646576656c6f7065727320616e642063616e2060338201527f626520617474616368656420746f20726f626f7473206173206f6e65206f662060538201527f746865206361706162696c697469657320746865792063616e20686176652e2e60738201527f222c2022696d616765223a2022646174613a696d6167652f7376672b786d6c3b60938201526618985cd94d8d0b60ca1b60b382015283516138668160ba840160208801612d3a565b61227d60f01b60ba929091019182015260bc01949350505050565b7f646174613a6170706c69636174696f6e2f6a736f6e3b6261736536342c0000008152600082516138b981601d850160208701612d3a565b91909101601d0192915050565b60208082526025908201527f455243313135353a207472616e7366657220746f20746865207a65726f206164604082015264647265737360d81b606082015260800190565b6020808252602a908201527f455243313135353a20696e73756666696369656e742062616c616e636520666f60408201526939103a3930b739b332b960b11b606082015260800190565b60008219821115613968576139686134b4565b500190565b60408152600061398060408301856130d9565b828103602084015261399281856130d9565b95945050505050565b634e487b7160e01b600052601260045260246000fd5b6000826139c0576139c061399b565b500490565b6000826139d4576139d461399b565b500690565b60008160001904831182151516156139f3576139f36134b4565b500290565b6001600160a01b0386811682528516602082015260a060408201819052600090613a24908301866130d9565b8281036060840152613a3681866130d9565b90508281036080840152613a4a8185612d66565b98975050505050505050565b600060208284031215613a6857600080fd5b8151611d9381612cee565b600060033d1115613a8c5760046000803e5060005160e01c5b90565b600060443d1015613a9d5790565b6040516003193d81016004833e81513d6001600160401b038160248401118184111715613acc57505050505090565b8285019150815181811115613ae45750505050505090565b843d8701016020828501011115613afe5750505050505090565b613b0d60208286010187612dbb565b509095945050505050565b60208082526028908201527f455243313135353a204552433131353552656365697665722072656a656374656040820152676420746f6b656e7360c01b606082015260800190565b6001600160a01b03868116825285166020820152604081018490526060810183905260a060808201819052600090613b9a90830184612d66565b979650505050505050565b600081613bb457613bb46134b4565b506000190190565b634e487b7160e01b600052603160045260246000fdfe3c2f746578743e3c7465787420783d2231302220793d2236302220636c6173733d2262617365223e3c2f746578743e3c7465787420783d2231302220793d223132302220636c6173733d2262617365223e3c2f746578743e3c7465787420783d2231302220793d2238302220636c6173733d2262617365223e3c2f746578743e3c7465787420783d2231302220793d223130302220636c6173733d2262617365223e3c73766720786d6c6e733d22687474703a2f2f7777772e77332e6f72672f323030302f73766722207072657365727665417370656374526174696f3d22784d696e594d696e206d656574222076696577426f783d223020302033353020333530223e3c7374796c653e2e62617365207b2066696c6c3a2077686974653b20666f6e742d66616d696c793a2073657269663b20666f6e742d73697a653a20313470783b207d3c2f7374796c653e3c726563742077696474683d223130302522206865696768743d2231303025222066696c6c3d22626c61636b22202f3e3c7465787420783d2231302220793d2232302220636c6173733d2262617365223e4142434445464748494a4b4c4d4e4f505152535455565758595a6162636465666768696a6b6c6d6e6f707172737475767778797a303132333435363738392b2f3c2f746578743e3c7465787420783d2231302220793d2234302220636c6173733d2262617365223ea26469706673582212208772798fa621f1c48b8668367778dc873df83aaf5812732e54272ca19c5523bf64736f6c634300080a0033",
  "linkReferences": {},
  "deployedLinkReferences": {}
}