{
  "_format": "hh-sol-artifact-1",
  "contractName": "Program",
  "sourceName": "contracts/Program.sol",
  "abi": [
    {
      "inputs": [
        {
          "internalType": "address",
          "name": "_devContract",
          "type": "address"
        }
      ],
      "stateMutability": "nonpayable",
      "type": "constructor"
    },
    {
      "anonymous": false,
      "inputs": [
        {
          "indexed": true,
          "internalType": "address",
          "name": "account",
          "type": "address"
        },
        {
          "indexed": true,
          "internalType": "address",
          "name": "operator",
          "type": "address"
        },
        {
          "indexed": false,
          "internalType": "bool",
          "name": "approved",
          "type": "bool"
        }
      ],
      "name": "ApprovalForAll",
      "type": "event"
    },
    {
      "anonymous": false,
      "inputs": [
        {
          "indexed": true,
          "internalType": "address",
          "name": "previousOwner",
          "type": "address"
        },
        {
          "indexed": true,
          "internalType": "address",
          "name": "newOwner",
          "type": "address"
        }
      ],
      "name": "OwnershipTransferred",
      "type": "event"
    },
    {
      "anonymous": false,
      "inputs": [
        {
          "indexed": true,
          "internalType": "address",
          "name": "operator",
          "type": "address"
        },
        {
          "indexed": true,
          "internalType": "address",
          "name": "from",
          "type": "address"
        },
        {
          "indexed": true,
          "internalType": "address",
          "name": "to",
          "type": "address"
        },
        {
          "indexed": false,
          "internalType": "uint256[]",
          "name": "ids",
          "type": "uint256[]"
        },
        {
          "indexed": false,
          "internalType": "uint256[]",
          "name": "values",
          "type": "uint256[]"
        }
      ],
      "name": "TransferBatch",
      "type": "event"
    },
    {
      "anonymous": false,
      "inputs": [
        {
          "indexed": true,
          "internalType": "address",
          "name": "operator",
          "type": "address"
        },
        {
          "indexed": true,
          "internalType": "address",
          "name": "from",
          "type": "address"
        },
        {
          "indexed": true,
          "internalType": "address",
          "name": "to",
          "type": "address"
        },
        {
          "indexed": false,
          "internalType": "uint256",
          "name": "id",
          "type": "uint256"
        },
        {
          "indexed": false,
          "internalType": "uint256",
          "name": "value",
          "type": "uint256"
        }
      ],
      "name": "TransferSingle",
      "type": "event"
    },
    {
      "anonymous": false,
      "inputs": [
        {
          "indexed": false,
          "internalType": "string",
          "name": "value",
          "type": "string"
        },
        {
          "indexed": true,
          "internalType": "uint256",
          "name": "id",
          "type": "uint256"
        }
      ],
      "name": "URI",
      "type": "event"
    },
    {
      "inputs": [
        {
          "internalType": "string",
          "name": "",
          "type": "string"
        }
      ],
      "name": "abilityInitNumberMap",
      "outputs": [
        {
          "internalType": "uint256",
          "name": "",
          "type": "uint256"
        }
      ],
      "stateMutability": "view",
      "type": "function"
    },
    {
      "inputs": [
        {
          "internalType": "address",
          "name": "account",
          "type": "address"
        },
        {
          "internalType": "uint256",
          "name": "id",
          "type": "uint256"
        }
      ],
      "name": "balanceOf",
      "outputs": [
        {
          "internalType": "uint256",
          "name": "",
          "type": "uint256"
        }
      ],
      "stateMutability": "view",
      "type": "function"
    },
    {
      "inputs": [
        {
          "internalType": "address[]",
          "name": "accounts",
          "type": "address[]"
        },
        {
          "internalType": "uint256[]",
          "name": "ids",
          "type": "uint256[]"
        }
      ],
      "name": "balanceOfBatch",
      "outputs": [
        {
          "internalType": "uint256[]",
          "name": "",
          "type": "uint256[]"
        }
      ],
      "stateMutability": "view",
      "type": "function"
    },
    {
      "inputs": [],
      "name": "devContract",
      "outputs": [
        {
          "internalType": "address",
          "name": "",
          "type": "address"
        }
      ],
      "stateMutability": "view",
      "type": "function"
    },
    {
      "inputs": [
        {
          "internalType": "uint256",
          "name": "id",
          "type": "uint256"
        }
      ],
      "name": "exists",
      "outputs": [
        {
          "internalType": "bool",
          "name": "",
          "type": "bool"
        }
      ],
      "stateMutability": "view",
      "type": "function"
    },
    {
      "inputs": [
        {
          "internalType": "uint256",
          "name": "_programId",
          "type": "uint256"
        }
      ],
      "name": "getAbility",
      "outputs": [
        {
          "internalType": "string",
          "name": "",
          "type": "string"
        }
      ],
      "stateMutability": "view",
      "type": "function"
    },
    {
      "inputs": [
        {
          "internalType": "address",
          "name": "account",
          "type": "address"
        },
        {
          "internalType": "address",
          "name": "operator",
          "type": "address"
        }
      ],
      "name": "isApprovedForAll",
      "outputs": [
        {
          "internalType": "bool",
          "name": "",
          "type": "bool"
        }
      ],
      "stateMutability": "view",
      "type": "function"
    },
    {
      "inputs": [
        {
          "internalType": "uint256",
          "name": "_tokenId",
          "type": "uint256"
        },
        {
          "internalType": "uint256",
          "name": "_amount",
          "type": "uint256"
        }
      ],
      "name": "mintProgram",
      "outputs": [],
      "stateMutability": "nonpayable",
      "type": "function"
    },
    {
      "inputs": [],
      "name": "owner",
      "outputs": [
        {
          "internalType": "address",
          "name": "",
          "type": "address"
        }
      ],
      "stateMutability": "view",
      "type": "function"
    },
    {
      "inputs": [
        {
          "internalType": "uint256",
          "name": "",
          "type": "uint256"
        }
      ],
      "name": "programInfoMap",
      "outputs": [
        {
          "internalType": "uint256",
          "name": "tokenId",
          "type": "uint256"
        },
        {
          "internalType": "string",
          "name": "ability",
          "type": "string"
        },
        {
          "internalType": "address",
          "name": "dev",
          "type": "address"
        },
        {
          "internalType": "uint256",
          "name": "mainVersion",
          "type": "uint256"
        },
        {
          "internalType": "uint256",
          "name": "subVersion",
          "type": "uint256"
        },
        {
          "internalType": "uint256",
          "name": "uploadTime",
          "type": "uint256"
        },
        {
          "internalType": "bytes32",
          "name": "hashValue",
          "type": "bytes32"
        },
        {
          "internalType": "string",
          "name": "desc",
          "type": "string"
        },
        {
          "internalType": "string",
          "name": "repositUrl",
          "type": "string"
        },
        {
          "internalType": "bool",
          "name": "bPublic",
          "type": "bool"
        }
      ],
      "stateMutability": "view",
      "type": "function"
    },
    {
      "inputs": [
        {
          "internalType": "address",
          "name": "_dev",
          "type": "address"
        },
        {
          "internalType": "string",
          "name": "_ability",
          "type": "string"
        },
        {
          "internalType": "uint256",
          "name": "_mainVersion",
          "type": "uint256"
        },
        {
          "internalType": "uint256",
          "name": "_subVersion",
          "type": "uint256"
        },
        {
          "internalType": "bytes32",
          "name": "_hashValue",
          "type": "bytes32"
        },
        {
          "internalType": "string",
          "name": "_desc",
          "type": "string"
        },
        {
          "internalType": "string",
          "name": "_repositUrl",
          "type": "string"
        }
      ],
      "name": "registerProgram",
      "outputs": [
        {
          "internalType": "uint256",
          "name": "",
          "type": "uint256"
        }
      ],
      "stateMutability": "nonpayable",
      "type": "function"
    },
    {
      "inputs": [],
      "name": "renounceOwnership",
      "outputs": [],
      "stateMutability": "nonpayable",
      "type": "function"
    },
    {
      "inputs": [
        {
          "internalType": "address",
          "name": "from",
          "type": "address"
        },
        {
          "internalType": "address",
          "name": "to",
          "type": "address"
        },
        {
          "internalType": "uint256[]",
          "name": "ids",
          "type": "uint256[]"
        },
        {
          "internalType": "uint256[]",
          "name": "amounts",
          "type": "uint256[]"
        },
        {
          "internalType": "bytes",
          "name": "data",
          "type": "bytes"
        }
      ],
      "name": "safeBatchTransferFrom",
      "outputs": [],
      "stateMutability": "nonpayable",
      "type": "function"
    },
    {
      "inputs": [
        {
          "internalType": "address",
          "name": "from",
          "type": "address"
        },
        {
          "internalType": "address",
          "name": "to",
          "type": "address"
        },
        {
          "internalType": "uint256",
          "name": "id",
          "type": "uint256"
        },
        {
          "internalType": "uint256",
          "name": "amount",
          "type": "uint256"
        },
        {
          "internalType": "bytes",
          "name": "data",
          "type": "bytes"
        }
      ],
      "name": "safeTransferFrom",
      "outputs": [],
      "stateMutability": "nonpayable",
      "type": "function"
    },
    {
      "inputs": [
        {
          "internalType": "string",
          "name": "abilityName",
          "type": "string"
        },
        {
          "internalType": "uint256",
          "name": "_initNumber",
          "type": "uint256"
        }
      ],
      "name": "setAbilityInitNumber",
      "outputs": [],
      "stateMutability": "nonpayable",
      "type": "function"
    },
    {
      "inputs": [
        {
          "internalType": "address",
          "name": "operator",
          "type": "address"
        },
        {
          "internalType": "bool",
          "name": "approved",
          "type": "bool"
        }
      ],
      "name": "setApprovalForAll",
      "outputs": [],
      "stateMutability": "nonpayable",
      "type": "function"
    },
    {
      "inputs": [
        {
          "internalType": "uint256",
          "name": "_tokenId",
          "type": "uint256"
        }
      ],
      "name": "setPublic",
      "outputs": [],
      "stateMutability": "nonpayable",
      "type": "function"
    },
    {
      "inputs": [
        {
          "internalType": "string",
          "name": "abilityName",
          "type": "string"
        },
        {
          "internalType": "bool",
          "name": "_bSupported",
          "type": "bool"
        }
      ],
      "name": "setSupportAbility",
      "outputs": [],
      "stateMutability": "nonpayable",
      "type": "function"
    },
    {
      "inputs": [
        {
          "internalType": "string",
          "name": "",
          "type": "string"
        }
      ],
      "name": "supportedAbilityMap",
      "outputs": [
        {
          "internalType": "bool",
          "name": "",
          "type": "bool"
        }
      ],
      "stateMutability": "view",
      "type": "function"
    },
    {
      "inputs": [
        {
          "internalType": "bytes4",
          "name": "interfaceId",
          "type": "bytes4"
        }
      ],
      "name": "supportsInterface",
      "outputs": [
        {
          "internalType": "bool",
          "name": "",
          "type": "bool"
        }
      ],
      "stateMutability": "view",
      "type": "function"
    },
    {
      "inputs": [],
      "name": "tokenId",
      "outputs": [
        {
          "internalType": "uint256",
          "name": "",
          "type": "uint256"
        }
      ],
      "stateMutability": "view",
      "type": "function"
    },
    {
      "inputs": [
        {
          "internalType": "uint256",
          "name": "_tokenId",
          "type": "uint256"
        }
      ],
      "name": "tokenURI",
      "outputs": [
        {
          "internalType": "string",
          "name": "",
          "type": "string"
        }
      ],
      "stateMutability": "view",
      "type": "function"
    },
    {
      "inputs": [
        {
          "internalType": "uint256",
          "name": "id",
          "type": "uint256"
        }
      ],
      "name": "totalSupply",
      "outputs": [
        {
          "internalType": "uint256",
          "name": "",
          "type": "uint256"
        }
      ],
      "stateMutability": "view",
      "type": "function"
    },
    {
      "inputs": [
        {
          "internalType": "address",
          "name": "newOwner",
          "type": "address"
        }
      ],
      "name": "transferOwnership",
      "outputs": [],
      "stateMutability": "nonpayable",
      "type": "function"
    },
    {
      "inputs": [
        {
          "internalType": "uint256",
          "name": "",
          "type": "uint256"
        }
      ],
      "name": "uri",
      "outputs": [
        {
          "internalType": "string",
          "name": "",
          "type": "string"
        }
      ],
      "stateMutability": "view",
      "type": "function"
    }
  ],
  "bytecode": "0x60806040523480156200001157600080fd5b5060405162005dea38038062005dea8339818101604052810190620000379190620002c5565b604051806020016040528060008152506200005881620000c160201b60201c565b50620000796200006d620000dd60201b60201c565b620000e560201b60201c565b80600560006101000a81548173ffffffffffffffffffffffffffffffffffffffff021916908373ffffffffffffffffffffffffffffffffffffffff160217905550506200035c565b8060029080519060200190620000d9929190620001ab565b5050565b600033905090565b6000600460009054906101000a900473ffffffffffffffffffffffffffffffffffffffff16905081600460006101000a81548173ffffffffffffffffffffffffffffffffffffffff021916908373ffffffffffffffffffffffffffffffffffffffff1602179055508173ffffffffffffffffffffffffffffffffffffffff168173ffffffffffffffffffffffffffffffffffffffff167f8be0079c531659141344cd1fd0a4f28419497f9722a3daafe3b4186f6b6457e060405160405180910390a35050565b828054620001b99062000326565b90600052602060002090601f016020900481019282620001dd576000855562000229565b82601f10620001f857805160ff191683800117855562000229565b8280016001018555821562000229579182015b82811115620002285782518255916020019190600101906200020b565b5b5090506200023891906200023c565b5090565b5b80821115620002575760008160009055506001016200023d565b5090565b600080fd5b600073ffffffffffffffffffffffffffffffffffffffff82169050919050565b60006200028d8262000260565b9050919050565b6200029f8162000280565b8114620002ab57600080fd5b50565b600081519050620002bf8162000294565b92915050565b600060208284031215620002de57620002dd6200025b565b5b6000620002ee84828501620002ae565b91505092915050565b7f4e487b7100000000000000000000000000000000000000000000000000000000600052602260045260246000fd5b600060028204905060018216806200033f57607f821691505b60208210811415620003565762000355620002f7565b5b50919050565b615a7e806200036c6000396000f3fe608060405234801561001057600080fd5b50600436106101725760003560e01c80637af4461e116100de578063c87b56dd11610097578063e5889fa211610071578063e5889fa21461049c578063e985e9c5146104cc578063f242432a146104fc578063f2fde38b1461051857610172565b8063c87b56dd14610420578063cbc5d91714610450578063d5523f771461046c57610172565b80637af4461e146103315780638da5cb5b1461034d578063a22cb4651461036b578063b0d8798814610387578063bd85b039146103b7578063c2e37b9b146103e757610172565b80632f4fa7f3116101305780632f4fa7f31461025f57806331845f7d1461028f5780633201039a146102ab5780634e1273f4146102c75780634f558e79146102f7578063715018a61461032757610172565b8062fdd58e1461017757806301ffc9a7146101a75780630e89341c146101d75780630fd6240e1461020757806317d70f7c146102255780632eb2c2d614610243575b600080fd5b610191600480360381019061018c9190613684565b610534565b60405161019e91906136d3565b60405180910390f35b6101c160048036038101906101bc9190613746565b6105fd565b6040516101ce919061378e565b60405180910390f35b6101f160048036038101906101ec91906137a9565b6106df565b6040516101fe919061386f565b60405180910390f35b61020f610773565b60405161021c91906138a0565b60405180910390f35b61022d610799565b60405161023a91906136d3565b60405180910390f35b61025d60048036038101906102589190613ab8565b61079f565b005b61027960048036038101906102749190613c28565b610840565b604051610286919061378e565b60405180910390f35b6102a960048036038101906102a491906137a9565b610876565b005b6102c560048036038101906102c09190613c71565b610926565b005b6102e160048036038101906102dc9190613d90565b6109c9565b6040516102ee9190613ec6565b60405180910390f35b610311600480360381019061030c91906137a9565b610ae2565b60405161031e919061378e565b60405180910390f35b61032f610af6565b005b61034b60048036038101906103469190613f14565b610b7e565b005b610355610c34565b60405161036291906138a0565b60405180910390f35b61038560048036038101906103809190613f70565b610c5e565b005b6103a1600480360381019061039c9190613c28565b610c74565b6040516103ae91906136d3565b60405180910390f35b6103d160048036038101906103cc91906137a9565b610ca2565b6040516103de91906136d3565b60405180910390f35b61040160048036038101906103fc91906137a9565b610cbf565b6040516104179a99989796959493929190613fc9565b60405180910390f35b61043a600480360381019061043591906137a9565b610ed8565b604051610447919061386f565b60405180910390f35b61046a6004803603810190610465919061407a565b6116ae565b005b610486600480360381019061048191906137a9565b6119cc565b604051610493919061386f565b60405180910390f35b6104b660048036038101906104b191906140e6565b611a74565b6040516104c391906136d3565b60405180910390f35b6104e660048036038101906104e191906141dc565b611d83565b6040516104f3919061378e565b60405180910390f35b6105166004803603810190610511919061421c565b611e17565b005b610532600480360381019061052d91906142b3565b611eb8565b005b60008073ffffffffffffffffffffffffffffffffffffffff168373ffffffffffffffffffffffffffffffffffffffff1614156105a5576040517f08c379a000000000000000000000000000000000000000000000000000000000815260040161059c90614352565b60405180910390fd5b60008083815260200190815260200160002060008473ffffffffffffffffffffffffffffffffffffffff1673ffffffffffffffffffffffffffffffffffffffff16815260200190815260200160002054905092915050565b60007fd9b67a26000000000000000000000000000000000000000000000000000000007bffffffffffffffffffffffffffffffffffffffffffffffffffffffff1916827bffffffffffffffffffffffffffffffffffffffffffffffffffffffff191614806106c857507f0e89341c000000000000000000000000000000000000000000000000000000007bffffffffffffffffffffffffffffffffffffffffffffffffffffffff1916827bffffffffffffffffffffffffffffffffffffffffffffffffffffffff1916145b806106d857506106d782611fb0565b5b9050919050565b6060600280546106ee906143a1565b80601f016020809104026020016040519081016040528092919081815260200182805461071a906143a1565b80156107675780601f1061073c57610100808354040283529160200191610767565b820191906000526020600020905b81548152906001019060200180831161074a57829003601f168201915b50505050509050919050565b600560009054906101000a900473ffffffffffffffffffffffffffffffffffffffff1681565b60065481565b6107a761201a565b73ffffffffffffffffffffffffffffffffffffffff168573ffffffffffffffffffffffffffffffffffffffff1614806107ed57506107ec856107e761201a565b611d83565b5b61082c576040517f08c379a000000000000000000000000000000000000000000000000000000000815260040161082390614445565b60405180910390fd5b6108398585858585612022565b5050505050565b6008818051602081018201805184825260208301602085012081835280955050505050506000915054906101000a900460ff1681565b61087e61201a565b73ffffffffffffffffffffffffffffffffffffffff1661089c610c34565b73ffffffffffffffffffffffffffffffffffffffff16146108f2576040517f08c379a00000000000000000000000000000000000000000000000000000000081526004016108e9906144b1565b60405180910390fd5b600160076000600654815260200190815260200160002060090160006101000a81548160ff02191690831515021790555050565b61092e61201a565b73ffffffffffffffffffffffffffffffffffffffff1661094c610c34565b73ffffffffffffffffffffffffffffffffffffffff16146109a2576040517f08c379a0000000000000000000000000000000000000000000000000000000008152600401610999906144b1565b60405180910390fd5b806009836040516109b3919061450d565b9081526020016040518091039020819055505050565b60608151835114610a0f576040517f08c379a0000000000000000000000000000000000000000000000000000000008152600401610a0690614596565b60405180910390fd5b6000835167ffffffffffffffff811115610a2c57610a2b6138c0565b5b604051908082528060200260200182016040528015610a5a5781602001602082028036833780820191505090505b50905060005b8451811015610ad757610aa7858281518110610a7f57610a7e6145b6565b5b6020026020010151858381518110610a9a57610a996145b6565b5b6020026020010151610534565b828281518110610aba57610ab96145b6565b5b60200260200101818152505080610ad090614614565b9050610a60565b508091505092915050565b600080610aee83610ca2565b119050919050565b610afe61201a565b73ffffffffffffffffffffffffffffffffffffffff16610b1c610c34565b73ffffffffffffffffffffffffffffffffffffffff1614610b72576040517f08c379a0000000000000000000000000000000000000000000000000000000008152600401610b69906144b1565b60405180910390fd5b610b7c6000612336565b565b610b8661201a565b73ffffffffffffffffffffffffffffffffffffffff16610ba4610c34565b73ffffffffffffffffffffffffffffffffffffffff1614610bfa576040517f08c379a0000000000000000000000000000000000000000000000000000000008152600401610bf1906144b1565b60405180910390fd5b80600883604051610c0b919061450d565b908152602001604051809103902060006101000a81548160ff0219169083151502179055505050565b6000600460009054906101000a900473ffffffffffffffffffffffffffffffffffffffff16905090565b610c70610c6961201a565b83836123fc565b5050565b6009818051602081018201805184825260208301602085012081835280955050505050506000915090505481565b600060036000838152602001908152602001600020549050919050565b6007602052806000526040600020600091509050806000015490806001018054610ce8906143a1565b80601f0160208091040260200160405190810160405280929190818152602001828054610d14906143a1565b8015610d615780601f10610d3657610100808354040283529160200191610d61565b820191906000526020600020905b815481529060010190602001808311610d4457829003601f168201915b5050505050908060020160009054906101000a900473ffffffffffffffffffffffffffffffffffffffff1690806003015490806004015490806005015490806006015490806007018054610db4906143a1565b80601f0160208091040260200160405190810160405280929190818152602001828054610de0906143a1565b8015610e2d5780601f10610e0257610100808354040283529160200191610e2d565b820191906000526020600020905b815481529060010190602001808311610e1057829003601f168201915b505050505090806008018054610e42906143a1565b80601f0160208091040260200160405190810160405280929190818152602001828054610e6e906143a1565b8015610ebb5780601f10610e9057610100808354040283529160200191610ebb565b820191906000526020600020905b815481529060010190602001808311610e9e57829003601f168201915b5050505050908060090160009054906101000a900460ff1690508a565b60606000600760008481526020019081526020016000206040518061014001604052908160008201548152602001600182018054610f15906143a1565b80601f0160208091040260200160405190810160405280929190818152602001828054610f41906143a1565b8015610f8e5780601f10610f6357610100808354040283529160200191610f8e565b820191906000526020600020905b815481529060010190602001808311610f7157829003601f168201915b505050505081526020016002820160009054906101000a900473ffffffffffffffffffffffffffffffffffffffff1673ffffffffffffffffffffffffffffffffffffffff1673ffffffffffffffffffffffffffffffffffffffff16815260200160038201548152602001600482015481526020016005820154815260200160068201548152602001600782018054611025906143a1565b80601f0160208091040260200160405190810160405280929190818152602001828054611051906143a1565b801561109e5780601f106110735761010080835404028352916020019161109e565b820191906000526020600020905b81548152906001019060200180831161108157829003601f168201915b505050505081526020016008820180546110b7906143a1565b80601f01602080910402602001604051908101604052809291908181526020018280546110e3906143a1565b80156111305780601f1061110557610100808354040283529160200191611130565b820191906000526020600020905b81548152906001019060200180831161111357829003601f168201915b505050505081526020016009820160009054906101000a900460ff161515151581525050905061115e613511565b60405180610120016040528060fd81526020016158e460fd9139816000600d811061118c5761118b6145b6565b5b602002018190525081602001516040516020016111a991906146a9565b604051602081830303815290604052816001600d81106111cc576111cb6145b6565b5b6020020181905250604051806060016040528060288152602001615a2160289139816002600d8110611201576112006145b6565b5b602002018190525061122c826040015173ffffffffffffffffffffffffffffffffffffffff16612569565b60405160200161123c9190614717565b604051602081830303815290604052816003600d811061125f5761125e6145b6565b5b602002018190525060405180606001604052806028815260200161584260289139816004600d8110611294576112936145b6565b5b60200201819052506112a98260a001516125ef565b6040516020016112b99190614785565b604051602081830303815290604052816005600d81106112dc576112db6145b6565b5b602002018190525060405180606001604052806028815260200161589360289139816006600d8110611311576113106145b6565b5b602002018190525061132682606001516125ef565b61133383608001516125ef565b60405160200161134492919061483f565b604051602081830303815290604052816007600d8110611367576113666145b6565b5b60200201819052506040518060600160405280602981526020016158bb60299139816008600d811061139c5761139b6145b6565b5b60200201819052508161010001516040516020016113ba91906148c5565b604051602081830303815290604052816009600d81106113dd576113dc6145b6565b5b602002018190525060405180606001604052806029815260200161586a6029913981600a600d8110611412576114116145b6565b5b60200201819052508160e0015160405160200161142f9190614933565b60405160208183030381529060405281600b600d8110611452576114516145b6565b5b60200201819052506040518060400160405280600d81526020017f3c2f746578743e3c2f7376673e0000000000000000000000000000000000000081525081600c600d81106114a4576114a36145b6565b5b60200201819052506000816000600d81106114c2576114c16145b6565b5b6020020151826001600d81106114db576114da6145b6565b5b6020020151836002600d81106114f4576114f36145b6565b5b6020020151846003600d811061150d5761150c6145b6565b5b6020020151856004600d8110611526576115256145b6565b5b6020020151866005600d811061153f5761153e6145b6565b5b6020020151876006600d8110611558576115576145b6565b5b6020020151886007600d8110611571576115706145b6565b5b602002015160405160200161158d989796959493929190614955565b604051602081830303815290604052905080826008600d81106115b3576115b26145b6565b5b6020020151836009600d81106115cc576115cb6145b6565b5b602002015184600a600d81106115e5576115e46145b6565b5b602002015185600b600d81106115fe576115fd6145b6565b5b602002015186600c600d8110611617576116166145b6565b5b6020020151604051602001611631969594939291906149c7565b6040516020818303038152906040529050600061167e611650876125ef565b61165984612750565b60405160200161166a929190614bc1565b604051602081830303815290604052612750565b9050806040516020016116919190614c52565b604051602081830303815290604052915081945050505050919050565b600060076000600654815260200190815260200160002060405180610140016040529081600082015481526020016001820180546116eb906143a1565b80601f0160208091040260200160405190810160405280929190818152602001828054611717906143a1565b80156117645780601f1061173957610100808354040283529160200191611764565b820191906000526020600020905b81548152906001019060200180831161174757829003601f168201915b505050505081526020016002820160009054906101000a900473ffffffffffffffffffffffffffffffffffffffff1673ffffffffffffffffffffffffffffffffffffffff1673ffffffffffffffffffffffffffffffffffffffff168152602001600382015481526020016004820154815260200160058201548152602001600682015481526020016007820180546117fb906143a1565b80601f0160208091040260200160405190810160405280929190818152602001828054611827906143a1565b80156118745780601f1061184957610100808354040283529160200191611874565b820191906000526020600020905b81548152906001019060200180831161185757829003601f168201915b5050505050815260200160088201805461188d906143a1565b80601f01602080910402602001604051908101604052809291908181526020018280546118b9906143a1565b80156119065780601f106118db57610100808354040283529160200191611906565b820191906000526020600020905b8154815290600101906020018083116118e957829003601f168201915b505050505081526020016009820160009054906101000a900460ff1615151515815250509050806101200151801561196d5750806040015173ffffffffffffffffffffffffffffffffffffffff163373ffffffffffffffffffffffffffffffffffffffff16145b6119ac576040517f08c379a00000000000000000000000000000000000000000000000000000000081526004016119a390614ce6565b60405180910390fd5b6119c7338484604051806020016040528060008152506128e8565b505050565b60606007600083815260200190815260200160002060010180546119ef906143a1565b80601f0160208091040260200160405190810160405280929190818152602001828054611a1b906143a1565b8015611a685780601f10611a3d57610100808354040283529160200191611a68565b820191906000526020600020905b815481529060010190602001808311611a4b57829003601f168201915b50505050509050919050565b6000600560009054906101000a900473ffffffffffffffffffffffffffffffffffffffff1673ffffffffffffffffffffffffffffffffffffffff163373ffffffffffffffffffffffffffffffffffffffff1614611b06576040517f08c379a0000000000000000000000000000000000000000000000000000000008152600401611afd90614d78565b60405180910390fd5b600887604051611b16919061450d565b908152602001604051809103902060009054906101000a900460ff16611b71576040517f08c379a0000000000000000000000000000000000000000000000000000000008152600401611b6890614de4565b60405180910390fd5b6032835110611bb5576040517f08c379a0000000000000000000000000000000000000000000000000000000008152600401611bac90614e76565b60405180910390fd5b60066000815480929190611bc890614614565b919050555060405180610140016040528060065481526020018881526020018973ffffffffffffffffffffffffffffffffffffffff16815260200187815260200186815260200142815260200185815260200184815260200183815260200160001515815250600760006006548152602001908152602001600020600082015181600001556020820151816001019080519060200190611c69929190613539565b5060408201518160020160006101000a81548173ffffffffffffffffffffffffffffffffffffffff021916908373ffffffffffffffffffffffffffffffffffffffff160217905550606082015181600301556080820151816004015560a0820151816005015560c0820151816006015560e0820151816007019080519060200190611cf5929190613539565b50610100820151816008019080519060200190611d13929190613539565b506101208201518160090160006101000a81548160ff021916908315150217905550905050611d738860065460098a604051611d4f919061450d565b908152602001604051809103902054604051806020016040528060008152506128e8565b6006549050979650505050505050565b6000600160008473ffffffffffffffffffffffffffffffffffffffff1673ffffffffffffffffffffffffffffffffffffffff16815260200190815260200160002060008373ffffffffffffffffffffffffffffffffffffffff1673ffffffffffffffffffffffffffffffffffffffff16815260200190815260200160002060009054906101000a900460ff16905092915050565b611e1f61201a565b73ffffffffffffffffffffffffffffffffffffffff168573ffffffffffffffffffffffffffffffffffffffff161480611e655750611e6485611e5f61201a565b611d83565b5b611ea4576040517f08c379a0000000000000000000000000000000000000000000000000000000008152600401611e9b90614f08565b60405180910390fd5b611eb18585858585612a7e565b5050505050565b611ec061201a565b73ffffffffffffffffffffffffffffffffffffffff16611ede610c34565b73ffffffffffffffffffffffffffffffffffffffff1614611f34576040517f08c379a0000000000000000000000000000000000000000000000000000000008152600401611f2b906144b1565b60405180910390fd5b600073ffffffffffffffffffffffffffffffffffffffff168173ffffffffffffffffffffffffffffffffffffffff161415611fa4576040517f08c379a0000000000000000000000000000000000000000000000000000000008152600401611f9b90614f9a565b60405180910390fd5b611fad81612336565b50565b60007f01ffc9a7000000000000000000000000000000000000000000000000000000007bffffffffffffffffffffffffffffffffffffffffffffffffffffffff1916827bffffffffffffffffffffffffffffffffffffffffffffffffffffffff1916149050919050565b600033905090565b8151835114612066576040517f08c379a000000000000000000000000000000000000000000000000000000000815260040161205d9061502c565b60405180910390fd5b600073ffffffffffffffffffffffffffffffffffffffff168473ffffffffffffffffffffffffffffffffffffffff1614156120d6576040517f08c379a00000000000000000000000000000000000000000000000000000000081526004016120cd906150be565b60405180910390fd5b60006120e061201a565b90506120f0818787878787612d00565b60005b84518110156122a1576000858281518110612111576121106145b6565b5b6020026020010151905060008583815181106121305761212f6145b6565b5b60200260200101519050600080600084815260200190815260200160002060008b73ffffffffffffffffffffffffffffffffffffffff1673ffffffffffffffffffffffffffffffffffffffff168152602001908152602001600020549050818110156121d1576040517f08c379a00000000000000000000000000000000000000000000000000000000081526004016121c890615150565b60405180910390fd5b81810360008085815260200190815260200160002060008c73ffffffffffffffffffffffffffffffffffffffff1673ffffffffffffffffffffffffffffffffffffffff168152602001908152602001600020819055508160008085815260200190815260200160002060008b73ffffffffffffffffffffffffffffffffffffffff1673ffffffffffffffffffffffffffffffffffffffff16815260200190815260200160002060008282546122869190615170565b925050819055505050508061229a90614614565b90506120f3565b508473ffffffffffffffffffffffffffffffffffffffff168673ffffffffffffffffffffffffffffffffffffffff168273ffffffffffffffffffffffffffffffffffffffff167f4a39dc06d4c0dbc64b70af90fd698a233a518aa5d07e595d983b8c0526c8f7fb87876040516123189291906151c6565b60405180910390a461232e818787878787612d16565b505050505050565b6000600460009054906101000a900473ffffffffffffffffffffffffffffffffffffffff16905081600460006101000a81548173ffffffffffffffffffffffffffffffffffffffff021916908373ffffffffffffffffffffffffffffffffffffffff1602179055508173ffffffffffffffffffffffffffffffffffffffff168173ffffffffffffffffffffffffffffffffffffffff167f8be0079c531659141344cd1fd0a4f28419497f9722a3daafe3b4186f6b6457e060405160405180910390a35050565b8173ffffffffffffffffffffffffffffffffffffffff168373ffffffffffffffffffffffffffffffffffffffff16141561246b576040517f08c379a00000000000000000000000000000000000000000000000000000000081526004016124629061526f565b60405180910390fd5b80600160008573ffffffffffffffffffffffffffffffffffffffff1673ffffffffffffffffffffffffffffffffffffffff16815260200190815260200160002060008473ffffffffffffffffffffffffffffffffffffffff1673ffffffffffffffffffffffffffffffffffffffff16815260200190815260200160002060006101000a81548160ff0219169083151502179055508173ffffffffffffffffffffffffffffffffffffffff168373ffffffffffffffffffffffffffffffffffffffff167f17307eab39ab6107e8899845ad3d59bd9653f200f220920489ca2b5937696c318360405161255c919061378e565b60405180910390a3505050565b606060008214156125b1576040518060400160405280600481526020017f307830300000000000000000000000000000000000000000000000000000000081525090506125ea565b600082905060005b600082146125db5780806125cc90614614565b915050600882901c91506125b9565b6125e58482612eee565b925050505b919050565b60606000821415612637576040518060400160405280600181526020017f3000000000000000000000000000000000000000000000000000000000000000815250905061274b565b600082905060005b6000821461266957808061265290614614565b915050600a8261266291906152be565b915061263f565b60008167ffffffffffffffff811115612685576126846138c0565b5b6040519080825280601f01601f1916602001820160405280156126b75781602001600182028036833780820191505090505b5090505b60008514612744576001826126d091906152ef565b9150600a856126df9190615323565b60306126eb9190615170565b60f81b818381518110612701576127006145b6565b5b60200101907effffffffffffffffffffffffffffffffffffffffffffffffffffffffffffff1916908160001a905350600a8561273d91906152be565b94506126bb565b8093505050505b919050565b6060600082519050600081141561277957604051806020016040528060008152509150506128e3565b6000600360028361278a9190615170565b61279491906152be565b60046127a09190615354565b905060006020826127b19190615170565b67ffffffffffffffff8111156127ca576127c96138c0565b5b6040519080825280601f01601f1916602001820160405280156127fc5781602001600182028036833780820191505090505b50905060006040518060600160405280604081526020016159e1604091399050600181016020830160005b868110156128a05760038101905062ffffff818a015116603f8160121c168401518060081b905060ff603f83600c1c1686015116810190508060081b905060ff603f8360061c1686015116810190508060081b905060ff603f831686015116810190508060e01b90508084526004840193505050612827565b5060038606600181146128ba57600281146128ca576128d5565b613d3d60f01b60028303526128d5565b603d60f81b60018303525b508484525050819450505050505b919050565b600073ffffffffffffffffffffffffffffffffffffffff168473ffffffffffffffffffffffffffffffffffffffff161415612958576040517f08c379a000000000000000000000000000000000000000000000000000000000815260040161294f90615420565b60405180910390fd5b600061296261201a565b9050612983816000876129748861312a565b61297d8861312a565b87612d00565b8260008086815260200190815260200160002060008773ffffffffffffffffffffffffffffffffffffffff1673ffffffffffffffffffffffffffffffffffffffff16815260200190815260200160002060008282546129e29190615170565b925050819055508473ffffffffffffffffffffffffffffffffffffffff16600073ffffffffffffffffffffffffffffffffffffffff168273ffffffffffffffffffffffffffffffffffffffff167fc3d58168c5ae7397731d063d5bbf3d657854427343f4c083240f7aacaa2d0f628787604051612a60929190615440565b60405180910390a4612a77816000878787876131a4565b5050505050565b600073ffffffffffffffffffffffffffffffffffffffff168473ffffffffffffffffffffffffffffffffffffffff161415612aee576040517f08c379a0000000000000000000000000000000000000000000000000000000008152600401612ae5906150be565b60405180910390fd5b6000612af861201a565b9050612b18818787612b098861312a565b612b128861312a565b87612d00565b600080600086815260200190815260200160002060008873ffffffffffffffffffffffffffffffffffffffff1673ffffffffffffffffffffffffffffffffffffffff16815260200190815260200160002054905083811015612baf576040517f08c379a0000000000000000000000000000000000000000000000000000000008152600401612ba690615150565b60405180910390fd5b83810360008087815260200190815260200160002060008973ffffffffffffffffffffffffffffffffffffffff1673ffffffffffffffffffffffffffffffffffffffff168152602001908152602001600020819055508360008087815260200190815260200160002060008873ffffffffffffffffffffffffffffffffffffffff1673ffffffffffffffffffffffffffffffffffffffff1681526020019081526020016000206000828254612c649190615170565b925050819055508573ffffffffffffffffffffffffffffffffffffffff168773ffffffffffffffffffffffffffffffffffffffff168373ffffffffffffffffffffffffffffffffffffffff167fc3d58168c5ae7397731d063d5bbf3d657854427343f4c083240f7aacaa2d0f628888604051612ce1929190615440565b60405180910390a4612cf78288888888886131a4565b50505050505050565b612d0e86868686868661337c565b505050505050565b612d358473ffffffffffffffffffffffffffffffffffffffff166134f6565b15612ee6578373ffffffffffffffffffffffffffffffffffffffff1663bc197c8187878686866040518663ffffffff1660e01b8152600401612d7b9594939291906154be565b6020604051808303816000875af1925050508015612db757506040513d601f19601f82011682018060405250810190612db4919061553b565b60015b612e5d57612dc3615575565b806308c379a01415612e205750612dd8615597565b80612de35750612e22565b806040517f08c379a0000000000000000000000000000000000000000000000000000000008152600401612e17919061386f565b60405180910390fd5b505b6040517f08c379a0000000000000000000000000000000000000000000000000000000008152600401612e549061569f565b60405180910390fd5b63bc197c8160e01b7bffffffffffffffffffffffffffffffffffffffffffffffffffffffff1916817bffffffffffffffffffffffffffffffffffffffffffffffffffffffff191614612ee4576040517f08c379a0000000000000000000000000000000000000000000000000000000008152600401612edb90615731565b60405180910390fd5b505b505050505050565b606060006002836002612f019190615354565b612f0b9190615170565b67ffffffffffffffff811115612f2457612f236138c0565b5b6040519080825280601f01601f191660200182016040528015612f565781602001600182028036833780820191505090505b5090507f300000000000000000000000000000000000000000000000000000000000000081600081518110612f8e57612f8d6145b6565b5b60200101907effffffffffffffffffffffffffffffffffffffffffffffffffffffffffffff1916908160001a9053507f780000000000000000000000000000000000000000000000000000000000000081600181518110612ff257612ff16145b6565b5b60200101907effffffffffffffffffffffffffffffffffffffffffffffffffffffffffffff1916908160001a905350600060018460026130329190615354565b61303c9190615170565b90505b60018111156130dc577f3031323334353637383961626364656600000000000000000000000000000000600f86166010811061307e5761307d6145b6565b5b1a60f81b828281518110613095576130946145b6565b5b60200101907effffffffffffffffffffffffffffffffffffffffffffffffffffffffffffff1916908160001a905350600485901c9450806130d590615751565b905061303f565b5060008414613120576040517f08c379a0000000000000000000000000000000000000000000000000000000008152600401613117906157c7565b60405180910390fd5b8091505092915050565b60606000600167ffffffffffffffff811115613149576131486138c0565b5b6040519080825280602002602001820160405280156131775781602001602082028036833780820191505090505b509050828160008151811061318f5761318e6145b6565b5b60200260200101818152505080915050919050565b6131c38473ffffffffffffffffffffffffffffffffffffffff166134f6565b15613374578373ffffffffffffffffffffffffffffffffffffffff1663f23a6e6187878686866040518663ffffffff1660e01b81526004016132099594939291906157e7565b6020604051808303816000875af192505050801561324557506040513d601f19601f82011682018060405250810190613242919061553b565b60015b6132eb57613251615575565b806308c379a014156132ae5750613266615597565b8061327157506132b0565b806040517f08c379a00000000000000000000000000000000000000000000000000000000081526004016132a5919061386f565b60405180910390fd5b505b6040517f08c379a00000000000000000000000000000000000000000000000000000000081526004016132e29061569f565b60405180910390fd5b63f23a6e6160e01b7bffffffffffffffffffffffffffffffffffffffffffffffffffffffff1916817bffffffffffffffffffffffffffffffffffffffffffffffffffffffff191614613372576040517f08c379a000000000000000000000000000000000000000000000000000000000815260040161336990615731565b60405180910390fd5b505b505050505050565b61338a868686868686613509565b600073ffffffffffffffffffffffffffffffffffffffff168573ffffffffffffffffffffffffffffffffffffffff16141561343c5760005b835181101561343a578281815181106133de576133dd6145b6565b5b6020026020010151600360008684815181106133fd576133fc6145b6565b5b6020026020010151815260200190815260200160002060008282546134229190615170565b925050819055508061343390614614565b90506133c2565b505b600073ffffffffffffffffffffffffffffffffffffffff168473ffffffffffffffffffffffffffffffffffffffff1614156134ee5760005b83518110156134ec578281815181106134905761348f6145b6565b5b6020026020010151600360008684815181106134af576134ae6145b6565b5b6020026020010151815260200190815260200160002060008282546134d491906152ef565b92505081905550806134e590614614565b9050613474565b505b505050505050565b600080823b905060008111915050919050565b505050505050565b604051806101a00160405280600d905b60608152602001906001900390816135215790505090565b828054613545906143a1565b90600052602060002090601f01602090048101928261356757600085556135ae565b82601f1061358057805160ff19168380011785556135ae565b828001600101855582156135ae579182015b828111156135ad578251825591602001919060010190613592565b5b5090506135bb91906135bf565b5090565b5b808211156135d85760008160009055506001016135c0565b5090565b6000604051905090565b600080fd5b600080fd5b600073ffffffffffffffffffffffffffffffffffffffff82169050919050565b600061361b826135f0565b9050919050565b61362b81613610565b811461363657600080fd5b50565b60008135905061364881613622565b92915050565b6000819050919050565b6136618161364e565b811461366c57600080fd5b50565b60008135905061367e81613658565b92915050565b6000806040838503121561369b5761369a6135e6565b5b60006136a985828601613639565b92505060206136ba8582860161366f565b9150509250929050565b6136cd8161364e565b82525050565b60006020820190506136e860008301846136c4565b92915050565b60007fffffffff0000000000000000000000000000000000000000000000000000000082169050919050565b613723816136ee565b811461372e57600080fd5b50565b6000813590506137408161371a565b92915050565b60006020828403121561375c5761375b6135e6565b5b600061376a84828501613731565b91505092915050565b60008115159050919050565b61378881613773565b82525050565b60006020820190506137a3600083018461377f565b92915050565b6000602082840312156137bf576137be6135e6565b5b60006137cd8482850161366f565b91505092915050565b600081519050919050565b600082825260208201905092915050565b60005b838110156138105780820151818401526020810190506137f5565b8381111561381f576000848401525b50505050565b6000601f19601f8301169050919050565b6000613841826137d6565b61384b81856137e1565b935061385b8185602086016137f2565b61386481613825565b840191505092915050565b600060208201905081810360008301526138898184613836565b905092915050565b61389a81613610565b82525050565b60006020820190506138b56000830184613891565b92915050565b600080fd5b7f4e487b7100000000000000000000000000000000000000000000000000000000600052604160045260246000fd5b6138f882613825565b810181811067ffffffffffffffff82111715613917576139166138c0565b5b80604052505050565b600061392a6135dc565b905061393682826138ef565b919050565b600067ffffffffffffffff821115613956576139556138c0565b5b602082029050602081019050919050565b600080fd5b600061397f61397a8461393b565b613920565b905080838252602082019050602084028301858111156139a2576139a1613967565b5b835b818110156139cb57806139b7888261366f565b8452602084019350506020810190506139a4565b5050509392505050565b600082601f8301126139ea576139e96138bb565b5b81356139fa84826020860161396c565b91505092915050565b600080fd5b600067ffffffffffffffff821115613a2357613a226138c0565b5b613a2c82613825565b9050602081019050919050565b82818337600083830152505050565b6000613a5b613a5684613a08565b613920565b905082815260208101848484011115613a7757613a76613a03565b5b613a82848285613a39565b509392505050565b600082601f830112613a9f57613a9e6138bb565b5b8135613aaf848260208601613a48565b91505092915050565b600080600080600060a08688031215613ad457613ad36135e6565b5b6000613ae288828901613639565b9550506020613af388828901613639565b945050604086013567ffffffffffffffff811115613b1457613b136135eb565b5b613b20888289016139d5565b935050606086013567ffffffffffffffff811115613b4157613b406135eb565b5b613b4d888289016139d5565b925050608086013567ffffffffffffffff811115613b6e57613b6d6135eb565b5b613b7a88828901613a8a565b9150509295509295909350565b600067ffffffffffffffff821115613ba257613ba16138c0565b5b613bab82613825565b9050602081019050919050565b6000613bcb613bc684613b87565b613920565b905082815260208101848484011115613be757613be6613a03565b5b613bf2848285613a39565b509392505050565b600082601f830112613c0f57613c0e6138bb565b5b8135613c1f848260208601613bb8565b91505092915050565b600060208284031215613c3e57613c3d6135e6565b5b600082013567ffffffffffffffff811115613c5c57613c5b6135eb565b5b613c6884828501613bfa565b91505092915050565b60008060408385031215613c8857613c876135e6565b5b600083013567ffffffffffffffff811115613ca657613ca56135eb565b5b613cb285828601613bfa565b9250506020613cc38582860161366f565b9150509250929050565b600067ffffffffffffffff821115613ce857613ce76138c0565b5b602082029050602081019050919050565b6000613d0c613d0784613ccd565b613920565b90508083825260208201905060208402830185811115613d2f57613d2e613967565b5b835b81811015613d585780613d448882613639565b845260208401935050602081019050613d31565b5050509392505050565b600082601f830112613d7757613d766138bb565b5b8135613d87848260208601613cf9565b91505092915050565b60008060408385031215613da757613da66135e6565b5b600083013567ffffffffffffffff811115613dc557613dc46135eb565b5b613dd185828601613d62565b925050602083013567ffffffffffffffff811115613df257613df16135eb565b5b613dfe858286016139d5565b9150509250929050565b600081519050919050565b600082825260208201905092915050565b6000819050602082019050919050565b613e3d8161364e565b82525050565b6000613e4f8383613e34565b60208301905092915050565b6000602082019050919050565b6000613e7382613e08565b613e7d8185613e13565b9350613e8883613e24565b8060005b83811015613eb9578151613ea08882613e43565b9750613eab83613e5b565b925050600181019050613e8c565b5085935050505092915050565b60006020820190508181036000830152613ee08184613e68565b905092915050565b613ef181613773565b8114613efc57600080fd5b50565b600081359050613f0e81613ee8565b92915050565b60008060408385031215613f2b57613f2a6135e6565b5b600083013567ffffffffffffffff811115613f4957613f486135eb565b5b613f5585828601613bfa565b9250506020613f6685828601613eff565b9150509250929050565b60008060408385031215613f8757613f866135e6565b5b6000613f9585828601613639565b9250506020613fa685828601613eff565b9150509250929050565b6000819050919050565b613fc381613fb0565b82525050565b600061014082019050613fdf600083018d6136c4565b8181036020830152613ff1818c613836565b9050614000604083018b613891565b61400d606083018a6136c4565b61401a60808301896136c4565b61402760a08301886136c4565b61403460c0830187613fba565b81810360e08301526140468186613836565b905081810361010083015261405b8185613836565b905061406b61012083018461377f565b9b9a5050505050505050505050565b60008060408385031215614091576140906135e6565b5b600061409f8582860161366f565b92505060206140b08582860161366f565b9150509250929050565b6140c381613fb0565b81146140ce57600080fd5b50565b6000813590506140e0816140ba565b92915050565b600080600080600080600060e0888a031215614105576141046135e6565b5b60006141138a828b01613639565b975050602088013567ffffffffffffffff811115614134576141336135eb565b5b6141408a828b01613bfa565b96505060406141518a828b0161366f565b95505060606141628a828b0161366f565b94505060806141738a828b016140d1565b93505060a088013567ffffffffffffffff811115614194576141936135eb565b5b6141a08a828b01613bfa565b92505060c088013567ffffffffffffffff8111156141c1576141c06135eb565b5b6141cd8a828b01613bfa565b91505092959891949750929550565b600080604083850312156141f3576141f26135e6565b5b600061420185828601613639565b925050602061421285828601613639565b9150509250929050565b600080600080600060a08688031215614238576142376135e6565b5b600061424688828901613639565b955050602061425788828901613639565b94505060406142688882890161366f565b93505060606142798882890161366f565b925050608086013567ffffffffffffffff81111561429a576142996135eb565b5b6142a688828901613a8a565b9150509295509295909350565b6000602082840312156142c9576142c86135e6565b5b60006142d784828501613639565b91505092915050565b7f455243313135353a2062616c616e636520717565727920666f7220746865207a60008201527f65726f2061646472657373000000000000000000000000000000000000000000602082015250565b600061433c602b836137e1565b9150614347826142e0565b604082019050919050565b6000602082019050818103600083015261436b8161432f565b9050919050565b7f4e487b7100000000000000000000000000000000000000000000000000000000600052602260045260246000fd5b600060028204905060018216806143b957607f821691505b602082108114156143cd576143cc614372565b5b50919050565b7f455243313135353a207472616e736665722063616c6c6572206973206e6f742060008201527f6f776e6572206e6f7220617070726f7665640000000000000000000000000000602082015250565b600061442f6032836137e1565b915061443a826143d3565b604082019050919050565b6000602082019050818103600083015261445e81614422565b9050919050565b7f4f776e61626c653a2063616c6c6572206973206e6f7420746865206f776e6572600082015250565b600061449b6020836137e1565b91506144a682614465565b602082019050919050565b600060208201905081810360008301526144ca8161448e565b9050919050565b600081905092915050565b60006144e7826137d6565b6144f181856144d1565b93506145018185602086016137f2565b80840191505092915050565b600061451982846144dc565b915081905092915050565b7f455243313135353a206163636f756e747320616e6420696473206c656e67746860008201527f206d69736d617463680000000000000000000000000000000000000000000000602082015250565b60006145806029836137e1565b915061458b82614524565b604082019050919050565b600060208201905081810360008301526145af81614573565b9050919050565b7f4e487b7100000000000000000000000000000000000000000000000000000000600052603260045260246000fd5b7f4e487b7100000000000000000000000000000000000000000000000000000000600052601160045260246000fd5b600061461f8261364e565b91507fffffffffffffffffffffffffffffffffffffffffffffffffffffffffffffffff821415614652576146516145e5565b5b600182019050919050565b7f4162696c6974793a000000000000000000000000000000000000000000000000600082015250565b60006146936008836144d1565b915061469e8261465d565b600882019050919050565b60006146b482614686565b91506146c082846144dc565b915081905092915050565b7f446576416464723a000000000000000000000000000000000000000000000000600082015250565b60006147016008836144d1565b915061470c826146cb565b600882019050919050565b6000614722826146f4565b915061472e82846144dc565b915081905092915050565b7f54696d657374616d703a00000000000000000000000000000000000000000000600082015250565b600061476f600a836144d1565b915061477a82614739565b600a82019050919050565b600061479082614762565b915061479c82846144dc565b915081905092915050565b7f56657273696f6e3a000000000000000000000000000000000000000000000000600082015250565b60006147dd6008836144d1565b91506147e8826147a7565b600882019050919050565b7f3a00000000000000000000000000000000000000000000000000000000000000600082015250565b60006148296001836144d1565b9150614834826147f3565b600182019050919050565b600061484a826147d0565b915061485682856144dc565b91506148618261481c565b915061486d82846144dc565b91508190509392505050565b7f5265706f7369743a000000000000000000000000000000000000000000000000600082015250565b60006148af6008836144d1565b91506148ba82614879565b600882019050919050565b60006148d0826148a2565b91506148dc82846144dc565b915081905092915050565b7f4465736372697074696f6e3a0000000000000000000000000000000000000000600082015250565b600061491d600c836144d1565b9150614928826148e7565b600c82019050919050565b600061493e82614910565b915061494a82846144dc565b915081905092915050565b6000614961828b6144dc565b915061496d828a6144dc565b915061497982896144dc565b915061498582886144dc565b915061499182876144dc565b915061499d82866144dc565b91506149a982856144dc565b91506149b582846144dc565b91508190509998505050505050505050565b60006149d382896144dc565b91506149df82886144dc565b91506149eb82876144dc565b91506149f782866144dc565b9150614a0382856144dc565b9150614a0f82846144dc565b9150819050979650505050505050565b7f7b226e616d65223a202250726f6772616d202300000000000000000000000000600082015250565b6000614a556013836144d1565b9150614a6082614a1f565b601382019050919050565b7f222c20226465736372697074696f6e223a202250726f6772616d73206172652060008201527f646576656c6f70656420627920646576656c6f7065727320616e642063616e2060208201527f626520617474616368656420746f20726f626f7473206173206f6e65206f662060408201527f746865206361706162696c697469657320746865792063616e20686176652e2e60608201527f222c2022696d616765223a2022646174613a696d6167652f7376672b786d6c3b60808201527f6261736536342c0000000000000000000000000000000000000000000000000060a082015250565b6000614b5f60a7836144d1565b9150614b6a82614a6b565b60a782019050919050565b7f227d000000000000000000000000000000000000000000000000000000000000600082015250565b6000614bab6002836144d1565b9150614bb682614b75565b600282019050919050565b6000614bcc82614a48565b9150614bd882856144dc565b9150614be382614b52565b9150614bef82846144dc565b9150614bfa82614b9e565b91508190509392505050565b7f646174613a6170706c69636174696f6e2f6a736f6e3b6261736536342c000000600082015250565b6000614c3c601d836144d1565b9150614c4782614c06565b601d82019050919050565b6000614c5d82614c2f565b9150614c6982846144dc565b915081905092915050565b7f50726f6772616d3a206f6e6c792064657620636f756c64206d696e742070756260008201527f6c69632070726f6772616d2e0000000000000000000000000000000000000000602082015250565b6000614cd0602c836137e1565b9150614cdb82614c74565b604082019050919050565b60006020820190508181036000830152614cff81614cc3565b9050919050565b7f50726f6772616d3a206f6e6c792064657620636f6e74726163742063616e206360008201527f616c6c207468697320636f6e74726163742e0000000000000000000000000000602082015250565b6000614d626032836137e1565b9150614d6d82614d06565b604082019050919050565b60006020820190508181036000830152614d9181614d55565b9050919050565b7f50726f6772616d3a206162696c697479204e4f5420737570706f727465640000600082015250565b6000614dce601e836137e1565b9150614dd982614d98565b602082019050919050565b60006020820190508181036000830152614dfd81614dc1565b9050919050565b7f50726f6772616d3a20746865206c656e677468206f6620646573632073686f7560008201527f6c64206265206c657373207468616e2035302062797465732e00000000000000602082015250565b6000614e606039836137e1565b9150614e6b82614e04565b604082019050919050565b60006020820190508181036000830152614e8f81614e53565b9050919050565b7f455243313135353a2063616c6c6572206973206e6f74206f776e6572206e6f7260008201527f20617070726f7665640000000000000000000000000000000000000000000000602082015250565b6000614ef26029836137e1565b9150614efd82614e96565b604082019050919050565b60006020820190508181036000830152614f2181614ee5565b9050919050565b7f4f776e61626c653a206e6577206f776e657220697320746865207a65726f206160008201527f6464726573730000000000000000000000000000000000000000000000000000602082015250565b6000614f846026836137e1565b9150614f8f82614f28565b604082019050919050565b60006020820190508181036000830152614fb381614f77565b9050919050565b7f455243313135353a2069647320616e6420616d6f756e7473206c656e6774682060008201527f6d69736d61746368000000000000000000000000000000000000000000000000602082015250565b60006150166028836137e1565b915061502182614fba565b604082019050919050565b6000602082019050818103600083015261504581615009565b9050919050565b7f455243313135353a207472616e7366657220746f20746865207a65726f20616460008201527f6472657373000000000000000000000000000000000000000000000000000000602082015250565b60006150a86025836137e1565b91506150b38261504c565b604082019050919050565b600060208201905081810360008301526150d78161509b565b9050919050565b7f455243313135353a20696e73756666696369656e742062616c616e636520666f60008201527f72207472616e7366657200000000000000000000000000000000000000000000602082015250565b600061513a602a836137e1565b9150615145826150de565b604082019050919050565b600060208201905081810360008301526151698161512d565b9050919050565b600061517b8261364e565b91506151868361364e565b9250827fffffffffffffffffffffffffffffffffffffffffffffffffffffffffffffffff038211156151bb576151ba6145e5565b5b828201905092915050565b600060408201905081810360008301526151e08185613e68565b905081810360208301526151f48184613e68565b90509392505050565b7f455243313135353a2073657474696e6720617070726f76616c2073746174757360008201527f20666f722073656c660000000000000000000000000000000000000000000000602082015250565b60006152596029836137e1565b9150615264826151fd565b604082019050919050565b600060208201905081810360008301526152888161524c565b9050919050565b7f4e487b7100000000000000000000000000000000000000000000000000000000600052601260045260246000fd5b60006152c98261364e565b91506152d48361364e565b9250826152e4576152e361528f565b5b828204905092915050565b60006152fa8261364e565b91506153058361364e565b925082821015615318576153176145e5565b5b828203905092915050565b600061532e8261364e565b91506153398361364e565b9250826153495761534861528f565b5b828206905092915050565b600061535f8261364e565b915061536a8361364e565b9250817fffffffffffffffffffffffffffffffffffffffffffffffffffffffffffffffff04831182151516156153a3576153a26145e5565b5b828202905092915050565b7f455243313135353a206d696e7420746f20746865207a65726f2061646472657360008201527f7300000000000000000000000000000000000000000000000000000000000000602082015250565b600061540a6021836137e1565b9150615415826153ae565b604082019050919050565b60006020820190508181036000830152615439816153fd565b9050919050565b600060408201905061545560008301856136c4565b61546260208301846136c4565b9392505050565b600081519050919050565b600082825260208201905092915050565b600061549082615469565b61549a8185615474565b93506154aa8185602086016137f2565b6154b381613825565b840191505092915050565b600060a0820190506154d36000830188613891565b6154e06020830187613891565b81810360408301526154f28186613e68565b905081810360608301526155068185613e68565b9050818103608083015261551a8184615485565b90509695505050505050565b6000815190506155358161371a565b92915050565b600060208284031215615551576155506135e6565b5b600061555f84828501615526565b91505092915050565b60008160e01c9050919050565b600060033d11156155945760046000803e615591600051615568565b90505b90565b600060443d10156155a75761562a565b6155af6135dc565b60043d036004823e80513d602482011167ffffffffffffffff821117156155d757505061562a565b808201805167ffffffffffffffff8111156155f5575050505061562a565b80602083010160043d03850181111561561257505050505061562a565b615621826020018501866138ef565b82955050505050505b90565b7f455243313135353a207472616e7366657220746f206e6f6e204552433131353560008201527f526563656976657220696d706c656d656e746572000000000000000000000000602082015250565b60006156896034836137e1565b91506156948261562d565b604082019050919050565b600060208201905081810360008301526156b88161567c565b9050919050565b7f455243313135353a204552433131353552656365697665722072656a6563746560008201527f6420746f6b656e73000000000000000000000000000000000000000000000000602082015250565b600061571b6028836137e1565b9150615726826156bf565b604082019050919050565b6000602082019050818103600083015261574a8161570e565b9050919050565b600061575c8261364e565b915060008214156157705761576f6145e5565b5b600182039050919050565b7f537472696e67733a20686578206c656e67746820696e73756666696369656e74600082015250565b60006157b16020836137e1565b91506157bc8261577b565b602082019050919050565b600060208201905081810360008301526157e0816157a4565b9050919050565b600060a0820190506157fc6000830188613891565b6158096020830187613891565b61581660408301866136c4565b61582360608301856136c4565b81810360808301526158358184615485565b9050969550505050505056fe3c2f746578743e3c7465787420783d2231302220793d2236302220636c6173733d2262617365223e3c2f746578743e3c7465787420783d2231302220793d223132302220636c6173733d2262617365223e3c2f746578743e3c7465787420783d2231302220793d2238302220636c6173733d2262617365223e3c2f746578743e3c7465787420783d2231302220793d223130302220636c6173733d2262617365223e3c73766720786d6c6e733d22687474703a2f2f7777772e77332e6f72672f323030302f73766722207072657365727665417370656374526174696f3d22784d696e594d696e206d656574222076696577426f783d223020302033353020333530223e3c7374796c653e2e62617365207b2066696c6c3a2077686974653b20666f6e742d66616d696c793a2073657269663b20666f6e742d73697a653a20313470783b207d3c2f7374796c653e3c726563742077696474683d223130302522206865696768743d2231303025222066696c6c3d22626c61636b22202f3e3c7465787420783d2231302220793d2232302220636c6173733d2262617365223e4142434445464748494a4b4c4d4e4f505152535455565758595a6162636465666768696a6b6c6d6e6f707172737475767778797a303132333435363738392b2f3c2f746578743e3c7465787420783d2231302220793d2234302220636c6173733d2262617365223ea2646970667358221220164951b0dc894a5cf60bdf95cb69a856aa77b60b10db5a33bac5a22a35f9fc2b64736f6c634300080a0033",
  "linkReferences": {},
  "deployedLinkReferences": {}
}