{
  "_format": "hh-sol-artifact-1",
  "contractName": "RobocupCompetitionPlatform",
  "sourceName": "contracts/RobocupCompetitionPlatform.sol",
  "abi": [
    {
      "inputs": [
        {
          "internalType": "address",
          "name": "_robotContract",
          "type": "address"
        },
        {
          "internalType": "address",
          "name": "_programContract",
          "type": "address"
        }
      ],
      "stateMutability": "nonpayable",
      "type": "constructor"
    },
    {
      "anonymous": false,
      "inputs": [
        {
          "indexed": true,
          "internalType": "address",
          "name": "owner",
          "type": "address"
        },
        {
          "indexed": true,
          "internalType": "address",
          "name": "approved",
          "type": "address"
        },
        {
          "indexed": true,
          "internalType": "uint256",
          "name": "tokenId",
          "type": "uint256"
        }
      ],
      "name": "Approval",
      "type": "event"
    },
    {
      "anonymous": false,
      "inputs": [
        {
          "indexed": true,
          "internalType": "address",
          "name": "owner",
          "type": "address"
        },
        {
          "indexed": true,
          "internalType": "address",
          "name": "operator",
          "type": "address"
        },
        {
          "indexed": false,
          "internalType": "bool",
          "name": "approved",
          "type": "bool"
        }
      ],
      "name": "ApprovalForAll",
      "type": "event"
    },
    {
      "anonymous": false,
      "inputs": [
        {
          "indexed": true,
          "internalType": "address",
          "name": "previousOwner",
          "type": "address"
        },
        {
          "indexed": true,
          "internalType": "address",
          "name": "newOwner",
          "type": "address"
        }
      ],
      "name": "OwnershipTransferred",
      "type": "event"
    },
    {
      "anonymous": false,
      "inputs": [
        {
          "indexed": true,
          "internalType": "address",
          "name": "from",
          "type": "address"
        },
        {
          "indexed": true,
          "internalType": "address",
          "name": "to",
          "type": "address"
        },
        {
          "indexed": true,
          "internalType": "uint256",
          "name": "tokenId",
          "type": "uint256"
        }
      ],
      "name": "Transfer",
      "type": "event"
    },
    {
      "inputs": [],
      "name": "AbilityName",
      "outputs": [
        {
          "internalType": "string",
          "name": "",
          "type": "string"
        }
      ],
      "stateMutability": "view",
      "type": "function"
    },
    {
      "inputs": [],
      "name": "FeePerCompetition",
      "outputs": [
        {
          "internalType": "uint256",
          "name": "",
          "type": "uint256"
        }
      ],
      "stateMutability": "view",
      "type": "function"
    },
    {
      "inputs": [],
      "name": "MAX_INT",
      "outputs": [
        {
          "internalType": "uint256",
          "name": "",
          "type": "uint256"
        }
      ],
      "stateMutability": "view",
      "type": "function"
    },
    {
      "inputs": [
        {
          "internalType": "uint256",
          "name": "_robotId",
          "type": "uint256"
        },
        {
          "internalType": "uint256",
          "name": "_programId",
          "type": "uint256"
        }
      ],
      "name": "addExpectRobotWithProgram",
      "outputs": [],
      "stateMutability": "nonpayable",
      "type": "function"
    },
    {
      "inputs": [
        {
          "internalType": "address",
          "name": "to",
          "type": "address"
        },
        {
          "internalType": "uint256",
          "name": "tokenId",
          "type": "uint256"
        }
      ],
      "name": "approve",
      "outputs": [],
      "stateMutability": "nonpayable",
      "type": "function"
    },
    {
      "inputs": [
        {
          "internalType": "address",
          "name": "owner",
          "type": "address"
        }
      ],
      "name": "balanceOf",
      "outputs": [
        {
          "internalType": "uint256",
          "name": "",
          "type": "uint256"
        }
      ],
      "stateMutability": "view",
      "type": "function"
    },
    {
      "inputs": [
        {
          "internalType": "uint256",
          "name": "_robotId",
          "type": "uint256"
        },
        {
          "internalType": "uint256",
          "name": "_programId",
          "type": "uint256"
        }
      ],
      "name": "checkRobotContainProgram",
      "outputs": [
        {
          "internalType": "bool",
          "name": "",
          "type": "bool"
        }
      ],
      "stateMutability": "view",
      "type": "function"
    },
    {
      "inputs": [
        {
          "internalType": "string",
          "name": "a",
          "type": "string"
        },
        {
          "internalType": "string",
          "name": "b",
          "type": "string"
        }
      ],
      "name": "compareStrings",
      "outputs": [
        {
          "internalType": "bool",
          "name": "",
          "type": "bool"
        }
      ],
      "stateMutability": "view",
      "type": "function"
    },
    {
      "inputs": [
        {
          "internalType": "uint256",
          "name": "",
          "type": "uint256"
        }
      ],
      "name": "competitionId2EpMap",
      "outputs": [
        {
          "internalType": "address",
          "name": "",
          "type": "address"
        }
      ],
      "stateMutability": "view",
      "type": "function"
    },
    {
      "inputs": [
        {
          "internalType": "uint256",
          "name": "_fromIndex",
          "type": "uint256"
        },
        {
          "internalType": "uint256",
          "name": "_toIndex",
          "type": "uint256"
        }
      ],
      "name": "getAllExpectRobotIds",
      "outputs": [
        {
          "internalType": "uint256[]",
          "name": "robotIds",
          "type": "uint256[]"
        }
      ],
      "stateMutability": "view",
      "type": "function"
    },
    {
      "inputs": [],
      "name": "getAllExpectRobotNumber",
      "outputs": [
        {
          "internalType": "uint256",
          "name": "",
          "type": "uint256"
        }
      ],
      "stateMutability": "view",
      "type": "function"
    },
    {
      "inputs": [
        {
          "internalType": "uint256",
          "name": "tokenId",
          "type": "uint256"
        }
      ],
      "name": "getApproved",
      "outputs": [
        {
          "internalType": "address",
          "name": "",
          "type": "address"
        }
      ],
      "stateMutability": "view",
      "type": "function"
    },
    {
      "inputs": [
        {
          "internalType": "address",
          "name": "_epAddr",
          "type": "address"
        },
        {
          "internalType": "enum RobocupCompetitionPlatform.CompetitionStatus",
          "name": "status",
          "type": "uint8"
        }
      ],
      "name": "getCompetitionInfos",
      "outputs": [
        {
          "components": [
            {
              "internalType": "uint256",
              "name": "id",
              "type": "uint256"
            },
            {
              "internalType": "uint256",
              "name": "robotOneId",
              "type": "uint256"
            },
            {
              "internalType": "uint256",
              "name": "programOneId",
              "type": "uint256"
            },
            {
              "internalType": "uint256",
              "name": "robotTwoId",
              "type": "uint256"
            },
            {
              "internalType": "uint256",
              "name": "programTwoId",
              "type": "uint256"
            },
            {
              "internalType": "uint256",
              "name": "startTime",
              "type": "uint256"
            },
            {
              "internalType": "uint256",
              "name": "endTime",
              "type": "uint256"
            },
            {
              "internalType": "uint256",
              "name": "robotOneScore",
              "type": "uint256"
            },
            {
              "internalType": "uint256",
              "name": "robotTwoScore",
              "type": "uint256"
            },
            {
              "internalType": "string",
              "name": "logHash",
              "type": "string"
            },
            {
              "internalType": "string",
              "name": "monitorUrl",
              "type": "string"
            }
          ],
          "internalType": "struct RobocupCompetitionPlatform.CompetitionInfo[]",
          "name": "competitionInfos",
          "type": "tuple[]"
        }
      ],
      "stateMutability": "view",
      "type": "function"
    },
    {
      "inputs": [
        {
          "internalType": "uint256",
          "name": "_competitionId",
          "type": "uint256"
        }
      ],
      "name": "getCompetitionStatus",
      "outputs": [
        {
          "internalType": "enum RobocupCompetitionPlatform.CompetitionStatus",
          "name": "",
          "type": "uint8"
        }
      ],
      "stateMutability": "view",
      "type": "function"
    },
    {
      "inputs": [
        {
          "internalType": "uint256",
          "name": "_robotId",
          "type": "uint256"
        }
      ],
      "name": "getProgramsOfRobot",
      "outputs": [
        {
          "internalType": "uint256[]",
          "name": "programIds",
          "type": "uint256[]"
        }
      ],
      "stateMutability": "view",
      "type": "function"
    },
    {
      "inputs": [
        {
          "internalType": "address",
          "name": "owner",
          "type": "address"
        },
        {
          "internalType": "address",
          "name": "operator",
          "type": "address"
        }
      ],
      "name": "isApprovedForAll",
      "outputs": [
        {
          "internalType": "bool",
          "name": "",
          "type": "bool"
        }
      ],
      "stateMutability": "view",
      "type": "function"
    },
    {
      "inputs": [
        {
          "internalType": "uint256",
          "name": "_myRobotId",
          "type": "uint256"
        },
        {
          "internalType": "uint256",
          "name": "_myProgramId",
          "type": "uint256"
        },
        {
          "internalType": "uint256",
          "name": "_peerRobotId",
          "type": "uint256"
        },
        {
          "internalType": "uint256",
          "name": "_peerProgramId",
          "type": "uint256"
        }
      ],
      "name": "launchChallenge",
      "outputs": [],
      "stateMutability": "payable",
      "type": "function"
    },
    {
      "inputs": [],
      "name": "name",
      "outputs": [
        {
          "internalType": "string",
          "name": "",
          "type": "string"
        }
      ],
      "stateMutability": "view",
      "type": "function"
    },
    {
      "inputs": [],
      "name": "owner",
      "outputs": [
        {
          "internalType": "address",
          "name": "",
          "type": "address"
        }
      ],
      "stateMutability": "view",
      "type": "function"
    },
    {
      "inputs": [
        {
          "internalType": "uint256",
          "name": "tokenId",
          "type": "uint256"
        }
      ],
      "name": "ownerOf",
      "outputs": [
        {
          "internalType": "address",
          "name": "",
          "type": "address"
        }
      ],
      "stateMutability": "view",
      "type": "function"
    },
    {
      "inputs": [],
      "name": "programContract",
      "outputs": [
        {
          "internalType": "contract IProgram",
          "name": "",
          "type": "address"
        }
      ],
      "stateMutability": "view",
      "type": "function"
    },
    {
      "inputs": [
        {
          "internalType": "uint256",
          "name": "_robotId",
          "type": "uint256"
        },
        {
          "internalType": "uint256",
          "name": "_programId",
          "type": "uint256"
        }
      ],
      "name": "removeExpectRobotWithProgram",
      "outputs": [],
      "stateMutability": "nonpayable",
      "type": "function"
    },
    {
      "inputs": [],
      "name": "renounceOwnership",
      "outputs": [],
      "stateMutability": "nonpayable",
      "type": "function"
    },
    {
      "inputs": [],
      "name": "robotContract",
      "outputs": [
        {
          "internalType": "contract IRobot",
          "name": "",
          "type": "address"
        }
      ],
      "stateMutability": "view",
      "type": "function"
    },
    {
      "inputs": [
        {
          "internalType": "address",
          "name": "from",
          "type": "address"
        },
        {
          "internalType": "address",
          "name": "to",
          "type": "address"
        },
        {
          "internalType": "uint256",
          "name": "tokenId",
          "type": "uint256"
        }
      ],
      "name": "safeTransferFrom",
      "outputs": [],
      "stateMutability": "nonpayable",
      "type": "function"
    },
    {
      "inputs": [
        {
          "internalType": "address",
          "name": "from",
          "type": "address"
        },
        {
          "internalType": "address",
          "name": "to",
          "type": "address"
        },
        {
          "internalType": "uint256",
          "name": "tokenId",
          "type": "uint256"
        },
        {
          "internalType": "bytes",
          "name": "_data",
          "type": "bytes"
        }
      ],
      "name": "safeTransferFrom",
      "outputs": [],
      "stateMutability": "nonpayable",
      "type": "function"
    },
    {
      "inputs": [
        {
          "internalType": "address",
          "name": "operator",
          "type": "address"
        },
        {
          "internalType": "bool",
          "name": "approved",
          "type": "bool"
        }
      ],
      "name": "setApprovalForAll",
      "outputs": [],
      "stateMutability": "nonpayable",
      "type": "function"
    },
    {
      "inputs": [
        {
          "internalType": "uint256",
          "name": "_competitionId",
          "type": "uint256"
        },
        {
          "internalType": "uint256",
          "name": "_endTime",
          "type": "uint256"
        },
        {
          "internalType": "uint256",
          "name": "_robotOneScore",
          "type": "uint256"
        },
        {
          "internalType": "uint256",
          "name": "_robotTwoScore",
          "type": "uint256"
        },
        {
          "internalType": "string",
          "name": "_logHash",
          "type": "string"
        }
      ],
      "name": "setCompetitionResult",
      "outputs": [],
      "stateMutability": "nonpayable",
      "type": "function"
    },
    {
      "inputs": [
        {
          "internalType": "uint256",
          "name": "_competitionId",
          "type": "uint256"
        },
        {
          "internalType": "string",
          "name": "_monitorUrl",
          "type": "string"
        }
      ],
      "name": "setCompetitionRunning",
      "outputs": [],
      "stateMutability": "nonpayable",
      "type": "function"
    },
    {
      "inputs": [
        {
          "internalType": "address",
          "name": "_emulatePlatform",
          "type": "address"
        },
        {
          "internalType": "bool",
          "name": "bAdded",
          "type": "bool"
        }
      ],
      "name": "setEmulatePlatform",
      "outputs": [],
      "stateMutability": "nonpayable",
      "type": "function"
    },
    {
      "inputs": [
        {
          "internalType": "bytes4",
          "name": "interfaceId",
          "type": "bytes4"
        }
      ],
      "name": "supportsInterface",
      "outputs": [
        {
          "internalType": "bool",
          "name": "",
          "type": "bool"
        }
      ],
      "stateMutability": "view",
      "type": "function"
    },
    {
      "inputs": [],
      "name": "symbol",
      "outputs": [
        {
          "internalType": "string",
          "name": "",
          "type": "string"
        }
      ],
      "stateMutability": "view",
      "type": "function"
    },
    {
      "inputs": [
        {
          "internalType": "uint256",
          "name": "_competitionId",
          "type": "uint256"
        },
        {
          "internalType": "uint256",
          "name": "_startTime",
          "type": "uint256"
        }
      ],
      "name": "takeCompetition",
      "outputs": [],
      "stateMutability": "nonpayable",
      "type": "function"
    },
    {
      "inputs": [
        {
          "internalType": "uint256",
          "name": "index",
          "type": "uint256"
        }
      ],
      "name": "tokenByIndex",
      "outputs": [
        {
          "internalType": "uint256",
          "name": "",
          "type": "uint256"
        }
      ],
      "stateMutability": "view",
      "type": "function"
    },
    {
      "inputs": [],
      "name": "tokenId",
      "outputs": [
        {
          "internalType": "uint256",
          "name": "",
          "type": "uint256"
        }
      ],
      "stateMutability": "view",
      "type": "function"
    },
    {
      "inputs": [
        {
          "internalType": "uint256",
          "name": "",
          "type": "uint256"
        }
      ],
      "name": "tokenId2CompetitionMap",
      "outputs": [
        {
          "internalType": "uint256",
          "name": "id",
          "type": "uint256"
        },
        {
          "internalType": "uint256",
          "name": "robotOneId",
          "type": "uint256"
        },
        {
          "internalType": "uint256",
          "name": "programOneId",
          "type": "uint256"
        },
        {
          "internalType": "uint256",
          "name": "robotTwoId",
          "type": "uint256"
        },
        {
          "internalType": "uint256",
          "name": "programTwoId",
          "type": "uint256"
        },
        {
          "internalType": "uint256",
          "name": "startTime",
          "type": "uint256"
        },
        {
          "internalType": "uint256",
          "name": "endTime",
          "type": "uint256"
        },
        {
          "internalType": "uint256",
          "name": "robotOneScore",
          "type": "uint256"
        },
        {
          "internalType": "uint256",
          "name": "robotTwoScore",
          "type": "uint256"
        },
        {
          "internalType": "string",
          "name": "logHash",
          "type": "string"
        },
        {
          "internalType": "string",
          "name": "monitorUrl",
          "type": "string"
        }
      ],
      "stateMutability": "view",
      "type": "function"
    },
    {
      "inputs": [
        {
          "internalType": "address",
          "name": "owner",
          "type": "address"
        },
        {
          "internalType": "uint256",
          "name": "index",
          "type": "uint256"
        }
      ],
      "name": "tokenOfOwnerByIndex",
      "outputs": [
        {
          "internalType": "uint256",
          "name": "",
          "type": "uint256"
        }
      ],
      "stateMutability": "view",
      "type": "function"
    },
    {
      "inputs": [
        {
          "internalType": "uint256",
          "name": "_tokenId",
          "type": "uint256"
        }
      ],
      "name": "tokenURI",
      "outputs": [
        {
          "internalType": "string",
          "name": "",
          "type": "string"
        }
      ],
      "stateMutability": "view",
      "type": "function"
    },
    {
      "inputs": [],
      "name": "totalSupply",
      "outputs": [
        {
          "internalType": "uint256",
          "name": "",
          "type": "uint256"
        }
      ],
      "stateMutability": "view",
      "type": "function"
    },
    {
      "inputs": [
        {
          "internalType": "address",
          "name": "from",
          "type": "address"
        },
        {
          "internalType": "address",
          "name": "to",
          "type": "address"
        },
        {
          "internalType": "uint256",
          "name": "tokenId",
          "type": "uint256"
        }
      ],
      "name": "transferFrom",
      "outputs": [],
      "stateMutability": "nonpayable",
      "type": "function"
    },
    {
      "inputs": [
        {
          "internalType": "address",
          "name": "newOwner",
          "type": "address"
        }
      ],
      "name": "transferOwnership",
      "outputs": [],
      "stateMutability": "nonpayable",
      "type": "function"
    }
  ],
  "bytecode": "0x608060405266038d7ea4c68000600e553480156200001c57600080fd5b50604051620080b2380380620080b2833981810160405281019062000042919062000374565b6040518060400160405280601381526020017f526f626f63757020436f6d7065746974696f6e000000000000000000000000008152506040518060400160405280600381526020017f52424300000000000000000000000000000000000000000000000000000000008152508160009080519060200190620000c69291906200025a565b508060019080519060200190620000df9291906200025a565b50505062000102620000f66200018c60201b60201c565b6200019460201b60201c565b81600f60006101000a81548173ffffffffffffffffffffffffffffffffffffffff021916908373ffffffffffffffffffffffffffffffffffffffff16021790555080601060006101000a81548173ffffffffffffffffffffffffffffffffffffffff021916908373ffffffffffffffffffffffffffffffffffffffff160217905550505062000420565b600033905090565b6000600a60009054906101000a900473ffffffffffffffffffffffffffffffffffffffff16905081600a60006101000a81548173ffffffffffffffffffffffffffffffffffffffff021916908373ffffffffffffffffffffffffffffffffffffffff1602179055508173ffffffffffffffffffffffffffffffffffffffff168173ffffffffffffffffffffffffffffffffffffffff167f8be0079c531659141344cd1fd0a4f28419497f9722a3daafe3b4186f6b6457e060405160405180910390a35050565b8280546200026890620003ea565b90600052602060002090601f0160209004810192826200028c5760008555620002d8565b82601f10620002a757805160ff1916838001178555620002d8565b82800160010185558215620002d8579182015b82811115620002d7578251825591602001919060010190620002ba565b5b509050620002e79190620002eb565b5090565b5b8082111562000306576000816000905550600101620002ec565b5090565b600080fd5b600073ffffffffffffffffffffffffffffffffffffffff82169050919050565b60006200033c826200030f565b9050919050565b6200034e816200032f565b81146200035a57600080fd5b50565b6000815190506200036e8162000343565b92915050565b600080604083850312156200038e576200038d6200030a565b5b60006200039e858286016200035d565b9250506020620003b1858286016200035d565b9150509250929050565b7f4e487b7100000000000000000000000000000000000000000000000000000000600052602260045260246000fd5b600060028204905060018216806200040357607f821691505b602082108114156200041a5762000419620003bb565b5b50919050565b617c8280620004306000396000f3fe6080604052600436106102465760003560e01c8063731188a811610139578063c46ce80d116100b6578063ef432e8c1161007a578063ef432e8c146108f3578063f2912abc14610930578063f2fde38b14610959578063f48f2c2f14610982578063f87bd18d146109c9578063fda38b9f146109f257610246565b8063c46ce80d146107e3578063c76ccf0a14610820578063c87b56dd1461085d578063c952ee851461089a578063e985e9c5146108b657610246565b8063a22cb465116100fd578063a22cb46514610700578063af22c31b14610729578063b88d4fde14610754578063bac57b6a1461077d578063bed34bba146107a657610246565b8063731188a81461062d578063774f9f60146106565780637a6355ca146106815780638da5cb5b146106aa57806395d89b41146106d557610246565b80632cc78a01116101c75780634f6ccce71161018b5780634f6ccce71461052257806351a7ef1e1461055f5780636352211e1461059c57806370a08231146105d9578063715018a61461061657610246565b80632cc78a011461042b5780632f745c59146104545780633c2f5b2c1461049157806342842e0e146104ce578063482b760f146104f757610246565b8063098d32281161020e578063098d322814610356578063176a88741461038157806317d70f7c146103ac57806318160ddd146103d757806323b872dd1461040257610246565b806301ffc9a71461024b57806306fdde0314610288578063081812fc146102b3578063095ea7b3146102f057806309804a9514610319575b600080fd5b34801561025757600080fd5b50610272600480360381019061026d9190614f95565b610a1d565b60405161027f9190614fdd565b60405180910390f35b34801561029457600080fd5b5061029d610a97565b6040516102aa9190615091565b60405180910390f35b3480156102bf57600080fd5b506102da60048036038101906102d591906150e9565b610b29565b6040516102e79190615157565b60405180910390f35b3480156102fc57600080fd5b506103176004803603810190610312919061519e565b610bae565b005b34801561032557600080fd5b50610340600480360381019061033b91906151de565b610cc6565b60405161034d9190614fdd565b60405180910390f35b34801561036257600080fd5b5061036b610cf5565b604051610378919061522d565b60405180910390f35b34801561038d57600080fd5b50610396610d19565b6040516103a3919061522d565b60405180910390f35b3480156103b857600080fd5b506103c1610d2a565b6040516103ce919061522d565b60405180910390f35b3480156103e357600080fd5b506103ec610d30565b6040516103f9919061522d565b60405180910390f35b34801561040e57600080fd5b5061042960048036038101906104249190615248565b610d3d565b005b34801561043757600080fd5b50610452600480360381019061044d91906152c7565b610d9d565b005b34801561046057600080fd5b5061047b6004803603810190610476919061519e565b610e51565b604051610488919061522d565b60405180910390f35b34801561049d57600080fd5b506104b860048036038101906104b391906151de565b610ef6565b6040516104c591906153c5565b60405180910390f35b3480156104da57600080fd5b506104f560048036038101906104f09190615248565b611014565b005b34801561050357600080fd5b5061050c611034565b6040516105199190615446565b60405180910390f35b34801561052e57600080fd5b50610549600480360381019061054491906150e9565b61105a565b604051610556919061522d565b60405180910390f35b34801561056b57600080fd5b5061058660048036038101906105819190615486565b6110cb565b60405161059391906156c8565b60405180910390f35b3480156105a857600080fd5b506105c360048036038101906105be91906150e9565b611409565b6040516105d09190615157565b60405180910390f35b3480156105e557600080fd5b5061060060048036038101906105fb91906156ea565b6114bb565b60405161060d919061522d565b60405180910390f35b34801561062257600080fd5b5061062b611573565b005b34801561063957600080fd5b50610654600480360381019061064f91906151de565b6115fb565b005b34801561066257600080fd5b5061066b6118a7565b6040516106789190615738565b60405180910390f35b34801561068d57600080fd5b506106a860048036038101906106a39190615888565b6118cd565b005b3480156106b657600080fd5b506106bf611aac565b6040516106cc9190615157565b60405180910390f35b3480156106e157600080fd5b506106ea611ad6565b6040516106f79190615091565b60405180910390f35b34801561070c57600080fd5b50610727600480360381019061072291906152c7565b611b68565b005b34801561073557600080fd5b5061073e611b7e565b60405161074b9190615091565b60405180910390f35b34801561076057600080fd5b5061077b60048036038101906107769190615985565b611bb7565b005b34801561078957600080fd5b506107a4600480360381019061079f9190615a08565b611c19565b005b3480156107b257600080fd5b506107cd60048036038101906107c89190615a9f565b611e95565b6040516107da9190614fdd565b60405180910390f35b3480156107ef57600080fd5b5061080a600480360381019061080591906150e9565b611eee565b6040516108179190615b8e565b60405180910390f35b34801561082c57600080fd5b50610847600480360381019061084291906150e9565b6120d8565b60405161085491906153c5565b60405180910390f35b34801561086957600080fd5b50610884600480360381019061087f91906150e9565b6121ad565b6040516108919190615091565b60405180910390f35b6108b460048036038101906108af9190615ba9565b61292a565b005b3480156108c257600080fd5b506108dd60048036038101906108d89190615c10565b612f74565b6040516108ea9190614fdd565b60405180910390f35b3480156108ff57600080fd5b5061091a600480360381019061091591906150e9565b613008565b6040516109279190615157565b60405180910390f35b34801561093c57600080fd5b50610957600480360381019061095291906151de565b61303b565b005b34801561096557600080fd5b50610980600480360381019061097b91906156ea565b6133fc565b005b34801561098e57600080fd5b506109a960048036038101906109a491906150e9565b6134f4565b6040516109c09b9a99989796959493929190615c50565b60405180910390f35b3480156109d557600080fd5b506109f060048036038101906109eb91906151de565b61365e565b005b3480156109fe57600080fd5b50610a0761384b565b604051610a14919061522d565b60405180910390f35b60007f780e9d63000000000000000000000000000000000000000000000000000000007bffffffffffffffffffffffffffffffffffffffffffffffffffffffff1916827bffffffffffffffffffffffffffffffffffffffffffffffffffffffff19161480610a905750610a8f82613851565b5b9050919050565b606060008054610aa690615d38565b80601f0160208091040260200160405190810160405280929190818152602001828054610ad290615d38565b8015610b1f5780601f10610af457610100808354040283529160200191610b1f565b820191906000526020600020905b815481529060010190602001808311610b0257829003601f168201915b5050505050905090565b6000610b3482613933565b610b73576040517f08c379a0000000000000000000000000000000000000000000000000000000008152600401610b6a90615ddc565b60405180910390fd5b6004600083815260200190815260200160002060009054906101000a900473ffffffffffffffffffffffffffffffffffffffff169050919050565b6000610bb982611409565b90508073ffffffffffffffffffffffffffffffffffffffff168373ffffffffffffffffffffffffffffffffffffffff161415610c2a576040517f08c379a0000000000000000000000000000000000000000000000000000000008152600401610c2190615e6e565b60405180910390fd5b8073ffffffffffffffffffffffffffffffffffffffff16610c4961399f565b73ffffffffffffffffffffffffffffffffffffffff161480610c785750610c7781610c7261399f565b612f74565b5b610cb7576040517f08c379a0000000000000000000000000000000000000000000000000000000008152600401610cae90615f00565b60405180910390fd5b610cc183836139a7565b505050565b6000610ced82600b6000868152602001908152602001600020613a6090919063ffffffff16565b905092915050565b7fffffffffffffffffffffffffffffffffffffffffffffffffffffffffffffffff81565b6000610d25600c613a7a565b905090565b60115481565b6000600880549050905090565b610d4e610d4861399f565b82613a8f565b610d8d576040517f08c379a0000000000000000000000000000000000000000000000000000000008152600401610d8490615f92565b60405180910390fd5b610d98838383613b6d565b505050565b610da561399f565b73ffffffffffffffffffffffffffffffffffffffff16610dc3611aac565b73ffffffffffffffffffffffffffffffffffffffff1614610e19576040517f08c379a0000000000000000000000000000000000000000000000000000000008152600401610e1090615ffe565b60405180910390fd5b80610e3757610e32826014613dc990919063ffffffff16565b610e4c565b610e4b826014613df990919063ffffffff16565b5b505050565b6000610e5c836114bb565b8210610e9d576040517f08c379a0000000000000000000000000000000000000000000000000000000008152600401610e9490616090565b60405180910390fd5b600660008473ffffffffffffffffffffffffffffffffffffffff1673ffffffffffffffffffffffffffffffffffffffff168152602001908152602001600020600083815260200190815260200160002054905092915050565b60606000610f04600c613a7a565b905080831115610f12578092505b828410610f54576040517f08c379a0000000000000000000000000000000000000000000000000000000008152600401610f4b906160fc565b60405180910390fd5b8383610f60919061614b565b67ffffffffffffffff811115610f7957610f7861575d565b5b604051908082528060200260200182016040528015610fa75781602001602082028036833780820191505090505b5091506000808590505b8481101561100b57610fcd81600c613e2990919063ffffffff16565b848380610fd99061617f565b945081518110610fec57610feb6161c8565b5b60200260200101818152505080806110039061617f565b915050610fb1565b50505092915050565b61102f83838360405180602001604052806000815250611bb7565b505050565b601060009054906101000a900473ffffffffffffffffffffffffffffffffffffffff1681565b6000611064610d30565b82106110a5576040517f08c379a000000000000000000000000000000000000000000000000000000000815260040161109c90616269565b60405180910390fd5b600882815481106110b9576110b86161c8565b5b90600052602060002001549050919050565b6060600061114b601660008673ffffffffffffffffffffffffffffffffffffffff1673ffffffffffffffffffffffffffffffffffffffff168152602001908152602001600020600085600281111561112657611125615b17565b5b600281111561113857611137615b17565b5b8152602001908152602001600020613a7a565b90508067ffffffffffffffff8111156111675761116661575d565b5b6040519080825280602002602001820160405280156111a057816020015b61118d614e04565b8152602001906001900390816111855790505b50915060005b81811015611401576012600061123883601660008a73ffffffffffffffffffffffffffffffffffffffff1673ffffffffffffffffffffffffffffffffffffffff168152602001908152602001600020600089600281111561120a57611209615b17565b5b600281111561121c5761121b615b17565b5b8152602001908152602001600020613e2990919063ffffffff16565b8152602001908152602001600020604051806101600160405290816000820154815260200160018201548152602001600282015481526020016003820154815260200160048201548152602001600582015481526020016006820154815260200160078201548152602001600882015481526020016009820180546112bc90615d38565b80601f01602080910402602001604051908101604052809291908181526020018280546112e890615d38565b80156113355780601f1061130a57610100808354040283529160200191611335565b820191906000526020600020905b81548152906001019060200180831161131857829003601f168201915b50505050508152602001600a8201805461134e90615d38565b80601f016020809104026020016040519081016040528092919081815260200182805461137a90615d38565b80156113c75780601f1061139c576101008083540402835291602001916113c7565b820191906000526020600020905b8154815290600101906020018083116113aa57829003601f168201915b5050505050815250508382815181106113e3576113e26161c8565b5b602002602001018190525080806113f99061617f565b9150506111a6565b505092915050565b6000806002600084815260200190815260200160002060009054906101000a900473ffffffffffffffffffffffffffffffffffffffff169050600073ffffffffffffffffffffffffffffffffffffffff168173ffffffffffffffffffffffffffffffffffffffff1614156114b2576040517f08c379a00000000000000000000000000000000000000000000000000000000081526004016114a9906162fb565b60405180910390fd5b80915050919050565b60008073ffffffffffffffffffffffffffffffffffffffff168273ffffffffffffffffffffffffffffffffffffffff16141561152c576040517f08c379a00000000000000000000000000000000000000000000000000000000081526004016115239061638d565b60405180910390fd5b600360008373ffffffffffffffffffffffffffffffffffffffff1673ffffffffffffffffffffffffffffffffffffffff168152602001908152602001600020549050919050565b61157b61399f565b73ffffffffffffffffffffffffffffffffffffffff16611599611aac565b73ffffffffffffffffffffffffffffffffffffffff16146115ef576040517f08c379a00000000000000000000000000000000000000000000000000000000081526004016115e690615ffe565b60405180910390fd5b6115f96000613e43565b565b61162081600b6000858152602001908152602001600020613a6090919063ffffffff16565b61165f576040517f08c379a00000000000000000000000000000000000000000000000000000000081526004016116569061641f565b60405180910390fd5b3373ffffffffffffffffffffffffffffffffffffffff16600f60009054906101000a900473ffffffffffffffffffffffffffffffffffffffff1673ffffffffffffffffffffffffffffffffffffffff16636352211e846040518263ffffffff1660e01b81526004016116d1919061522d565b602060405180830381865afa1580156116ee573d6000803e3d6000fd5b505050506040513d601f19601f820116820180604052508101906117129190616454565b73ffffffffffffffffffffffffffffffffffffffff1614611768576040517f08c379a000000000000000000000000000000000000000000000000000000000815260040161175f906164cd565b60405180910390fd5b6000601360008481526020019081526020016000206000838152602001908152602001600020905060005b61179c82613a7a565b8110156118425760006117b88284613e2990919063ffffffff16565b905060006117c582611eee565b90506002808111156117da576117d9615b17565b5b8160028111156117ed576117ec615b17565b5b1461182d576040517f08c379a00000000000000000000000000000000000000000000000000000000081526004016118249061655f565b60405180910390fd5b5050808061183a9061617f565b915050611793565b5061186882600b6000868152602001908152602001600020613f0990919063ffffffff16565b506000611886600b6000868152602001908152602001600020613a7a565b14156118a2576118a083600c613f0990919063ffffffff16565b505b505050565b600f60009054906101000a900473ffffffffffffffffffffffffffffffffffffffff1681565b3373ffffffffffffffffffffffffffffffffffffffff166017600084815260200190815260200160002060009054906101000a900473ffffffffffffffffffffffffffffffffffffffff1673ffffffffffffffffffffffffffffffffffffffff161461196e576040517f08c379a0000000000000000000000000000000000000000000000000000000008152600401611965906165f1565b60405180910390fd5b8060126000848152602001908152602001600020600a019080519060200190611998929190614e5e565b50611a1f82601660003373ffffffffffffffffffffffffffffffffffffffff1673ffffffffffffffffffffffffffffffffffffffff16815260200190815260200160002060008060028111156119f1576119f0615b17565b5b6002811115611a0357611a02615b17565b5b8152602001908152602001600020613f0990919063ffffffff16565b50611aa782601660003373ffffffffffffffffffffffffffffffffffffffff1673ffffffffffffffffffffffffffffffffffffffff168152602001908152602001600020600060016002811115611a7957611a78615b17565b5b6002811115611a8b57611a8a615b17565b5b8152602001908152602001600020613f2390919063ffffffff16565b505050565b6000600a60009054906101000a900473ffffffffffffffffffffffffffffffffffffffff16905090565b606060018054611ae590615d38565b80601f0160208091040260200160405190810160405280929190818152602001828054611b1190615d38565b8015611b5e5780601f10611b3357610100808354040283529160200191611b5e565b820191906000526020600020905b815481529060010190602001808311611b4157829003601f168201915b5050505050905090565b611b7a611b7361399f565b8383613f3d565b5050565b6040518060400160405280600881526020017f4149536f6363657200000000000000000000000000000000000000000000000081525081565b611bc8611bc261399f565b83613a8f565b611c07576040517f08c379a0000000000000000000000000000000000000000000000000000000008152600401611bfe90615f92565b60405180910390fd5b611c13848484846140aa565b50505050565b3373ffffffffffffffffffffffffffffffffffffffff166017600087815260200190815260200160002060009054906101000a900473ffffffffffffffffffffffffffffffffffffffff1673ffffffffffffffffffffffffffffffffffffffff1614611cba576040517f08c379a0000000000000000000000000000000000000000000000000000000008152600401611cb1906165f1565b60405180910390fd5b83601260008781526020019081526020016000206006018190555082601260008781526020019081526020016000206007018190555081601260008781526020019081526020016000206008018190555080601260008781526020019081526020016000206009019080519060200190611d35929190614e5e565b50611dbd85601660003373ffffffffffffffffffffffffffffffffffffffff1673ffffffffffffffffffffffffffffffffffffffff168152602001908152602001600020600060016002811115611d8f57611d8e615b17565b5b6002811115611da157611da0615b17565b5b8152602001908152602001600020613f0990919063ffffffff16565b50611e4485601660003373ffffffffffffffffffffffffffffffffffffffff1673ffffffffffffffffffffffffffffffffffffffff1681526020019081526020016000206000600280811115611e1657611e15615b17565b5b6002811115611e2857611e27615b17565b5b8152602001908152602001600020613f2390919063ffffffff16565b503373ffffffffffffffffffffffffffffffffffffffff166108fc600e549081150290604051600060405180830381858888f19350505050158015611e8d573d6000803e3d6000fd5b505050505050565b600081604051602001611ea8919061664d565b6040516020818303038152906040528051906020012083604051602001611ecf919061664d565b6040516020818303038152906040528051906020012014905092915050565b6000806012600084815260200190815260200160002060405180610160016040529081600082015481526020016001820154815260200160028201548152602001600382015481526020016004820154815260200160058201548152602001600682015481526020016007820154815260200160088201548152602001600982018054611f7a90615d38565b80601f0160208091040260200160405190810160405280929190818152602001828054611fa690615d38565b8015611ff35780601f10611fc857610100808354040283529160200191611ff3565b820191906000526020600020905b815481529060010190602001808311611fd657829003601f168201915b50505050508152602001600a8201805461200c90615d38565b80601f016020809104026020016040519081016040528092919081815260200182805461203890615d38565b80156120855780601f1061205a57610100808354040283529160200191612085565b820191906000526020600020905b81548152906001019060200180831161206857829003601f168201915b50505050508152505090508060a001514210156120a65760009150506120d3565b8060a0015142101580156120be57508060c001514211155b156120cd5760019150506120d3565b60029150505b919050565b606060006120f7600b6000858152602001908152602001600020613a7a565b90508067ffffffffffffffff8111156121135761211261575d565b5b6040519080825280602002602001820160405280156121415781602001602082028036833780820191505090505b50915060005b818110156121a65761217481600b6000878152602001908152602001600020613e2990919063ffffffff16565b838281518110612187576121866161c8565b5b602002602001018181525050808061219e9061617f565b915050612147565b5050919050565b60606000601260008481526020019081526020016000206040518061016001604052908160008201548152602001600182015481526020016002820154815260200160038201548152602001600482015481526020016005820154815260200160068201548152602001600782015481526020016008820154815260200160098201805461223a90615d38565b80601f016020809104026020016040519081016040528092919081815260200182805461226690615d38565b80156122b35780601f10612288576101008083540402835291602001916122b3565b820191906000526020600020905b81548152906001019060200180831161229657829003601f168201915b50505050508152602001600a820180546122cc90615d38565b80601f01602080910402602001604051908101604052809291908181526020018280546122f890615d38565b80156123455780601f1061231a57610100808354040283529160200191612345565b820191906000526020600020905b81548152906001019060200180831161232857829003601f168201915b5050505050815250509050600061235b84611eee565b9050612365614ee4565b60405180610120016040528060fd8152602001617ae860fd913981600060098110612393576123926161c8565b5b60200201819052506123a88360200151614106565b6123b58460400151614106565b6123c28560600151614106565b6123cf8660800151614106565b6040516020016123e29493929190616748565b60405160208183030381529060405281600160098110612405576124046161c8565b5b6020020181905250604051806060016040528060288152602001617c25602891398160026009811061243a576124396161c8565b5b602002018190525060028081111561245557612454615b17565b5b82600281111561246857612467615b17565b5b14156125555761247b8360e00151614106565b612489846101000151614106565b60405160200161249a92919061684a565b604051602081830303815290604052816003600981106124bd576124bc6161c8565b5b6020020181905250604051806060016040528060288152602001617ac060289139816004600981106124f2576124f16161c8565b5b60200201819052506125078360a00151614106565b6125148460c00151614106565b60405160200161252592919061691c565b60405160208183030381529060405281600560098110612548576125476161c8565b5b60200201819052506126e9565b6001600281111561256957612568615b17565b5b82600281111561257c5761257b615b17565b5b141561263e57604051602001612591906169a2565b604051602081830303815290604052816003600981106125b4576125b36161c8565b5b6020020181905250604051806060016040528060288152602001617ac060289139816004600981106125e9576125e86161c8565b5b60200201819052506125fe8360a00151614106565b60405160200161260e91906169b7565b60405160208183030381529060405281600560098110612631576126306161c8565b5b60200201819052506126e8565b60405160200161264d90616a30565b604051602081830303815290604052816003600981106126705761266f6161c8565b5b6020020181905250604051806060016040528060288152602001617ac060289139816004600981106126a5576126a46161c8565b5b60200201819052506040516020016126bc90616a91565b604051602081830303815290604052816005600981106126df576126de6161c8565b5b60200201819052505b5b604051806060016040528060288152602001617ac06028913981600660098110612716576127156161c8565b5b60200201819052508261012001516040516020016127349190616af2565b60405160208183030381529060405281600760098110612757576127566161c8565b5b60200201819052506040518060400160405280600d81526020017f3c2f746578743e3c2f7376673e00000000000000000000000000000000000000815250816008600981106127a9576127a86161c8565b5b60200201819052506000816000600981106127c7576127c66161c8565b5b6020020151826001600981106127e0576127df6161c8565b5b6020020151836002600981106127f9576127f86161c8565b5b602002015184600360098110612812576128116161c8565b5b60200201518560046009811061282b5761282a6161c8565b5b602002015186600560098110612844576128436161c8565b5b60200201518760066009811061285d5761285c6161c8565b5b602002015188600760098110612876576128756161c8565b5b60200201518960086009811061288f5761288e6161c8565b5b60200201516040516020016128ac99989796959493929190616b14565b604051602081830303815290604052905060006128f96128cb88614106565b6128d484614267565b6040516020016128e5929190616ce9565b604051602081830303815290604052614267565b90508060405160200161290c9190616d7a565b60405160208183030381529060405291508195505050505050919050565b600e54341461296e576040517f08c379a000000000000000000000000000000000000000000000000000000000815260040161296590616de8565b60405180910390fd5b3373ffffffffffffffffffffffffffffffffffffffff16600f60009054906101000a900473ffffffffffffffffffffffffffffffffffffffff1673ffffffffffffffffffffffffffffffffffffffff16636352211e866040518263ffffffff1660e01b81526004016129e0919061522d565b602060405180830381865afa1580156129fd573d6000803e3d6000fd5b505050506040513d601f19601f82011682018060405250810190612a219190616454565b73ffffffffffffffffffffffffffffffffffffffff1614612a77576040517f08c379a0000000000000000000000000000000000000000000000000000000008152600401612a6e906164cd565b60405180910390fd5b612a9c83600b6000878152602001908152602001600020613a6090919063ffffffff16565b612adb576040517f08c379a0000000000000000000000000000000000000000000000000000000008152600401612ad290616e7a565b60405180910390fd5b612b0081600b6000858152602001908152602001600020613a6090919063ffffffff16565b612b3f576040517f08c379a0000000000000000000000000000000000000000000000000000000008152600401612b3690616f0c565b60405180910390fd5b612c1e601060009054906101000a900473ffffffffffffffffffffffffffffffffffffffff1673ffffffffffffffffffffffffffffffffffffffff1663d5523f77856040518263ffffffff1660e01b8152600401612b9d919061522d565b600060405180830381865afa158015612bba573d6000803e3d6000fd5b505050506040513d6000823e3d601f19601f82011682018060405250810190612be39190616f9c565b6040518060400160405280600881526020017f4149536f63636572000000000000000000000000000000000000000000000000815250611e95565b612c5d576040517f08c379a0000000000000000000000000000000000000000000000000000000008152600401612c5490617057565b60405180910390fd5b612d3c601060009054906101000a900473ffffffffffffffffffffffffffffffffffffffff1673ffffffffffffffffffffffffffffffffffffffff1663d5523f77836040518263ffffffff1660e01b8152600401612cbb919061522d565b600060405180830381865afa158015612cd8573d6000803e3d6000fd5b505050506040513d6000823e3d601f19601f82011682018060405250810190612d019190616f9c565b6040518060400160405280600881526020017f4149536f63636572000000000000000000000000000000000000000000000000815250611e95565b612d7b576040517f08c379a0000000000000000000000000000000000000000000000000000000008152600401612d72906170e9565b60405180910390fd5b60116000815480929190612d8e9061617f565b919050555060405180610160016040528060115481526020018581526020018481526020018381526020018281526020017fffffffffffffffffffffffffffffffffffffffffffffffffffffffffffffffff81526020017fffffffffffffffffffffffffffffffffffffffffffffffffffffffffffffffff8152602001600081526020016000815260200160405180602001604052806000815250815260200160405180602001604052806000815250815250601260006011548152602001908152602001600020600082015181600001556020820151816001015560408201518160020155606082015181600301556080820151816004015560a0820151816005015560c0820151816006015560e082015181600701556101008201518160080155610120820151816009019080519060200190612ece929190614e5e565b5061014082015181600a019080519060200190612eec929190614e5e565b50905050612f28601154601360008781526020019081526020016000206000868152602001908152602001600020613f2390919063ffffffff16565b50612f61601154601360008581526020019081526020016000206000848152602001908152602001600020613f2390919063ffffffff16565b50612f6e336011546143ff565b50505050565b6000600560008473ffffffffffffffffffffffffffffffffffffffff1673ffffffffffffffffffffffffffffffffffffffff16815260200190815260200160002060008373ffffffffffffffffffffffffffffffffffffffff1673ffffffffffffffffffffffffffffffffffffffff16815260200190815260200160002060009054906101000a900460ff16905092915050565b60176020528060005260406000206000915054906101000a900473ffffffffffffffffffffffffffffffffffffffff1681565b61306081600b6000858152602001908152602001600020613a6090919063ffffffff16565b156130a0576040517f08c379a00000000000000000000000000000000000000000000000000000000081526004016130979061717b565b60405180910390fd5b3373ffffffffffffffffffffffffffffffffffffffff16600f60009054906101000a900473ffffffffffffffffffffffffffffffffffffffff1673ffffffffffffffffffffffffffffffffffffffff16636352211e846040518263ffffffff1660e01b8152600401613112919061522d565b602060405180830381865afa15801561312f573d6000803e3d6000fd5b505050506040513d601f19601f820116820180604052508101906131539190616454565b73ffffffffffffffffffffffffffffffffffffffff16146131a9576040517f08c379a00000000000000000000000000000000000000000000000000000000081526004016131a0906164cd565b60405180910390fd5b600f60009054906101000a900473ffffffffffffffffffffffffffffffffffffffff1673ffffffffffffffffffffffffffffffffffffffff166309804a9583836040518363ffffffff1660e01b815260040161320692919061719b565b602060405180830381865afa158015613223573d6000803e3d6000fd5b505050506040513d601f19601f8201168201806040525081019061324791906171d9565b613286576040517f08c379a000000000000000000000000000000000000000000000000000000000815260040161327d90617278565b60405180910390fd5b613365601060009054906101000a900473ffffffffffffffffffffffffffffffffffffffff1673ffffffffffffffffffffffffffffffffffffffff1663d5523f77836040518263ffffffff1660e01b81526004016132e4919061522d565b600060405180830381865afa158015613301573d6000803e3d6000fd5b505050506040513d6000823e3d601f19601f8201168201806040525081019061332a9190616f9c565b6040518060400160405280600881526020017f4149536f63636572000000000000000000000000000000000000000000000000815250611e95565b6133a4576040517f08c379a000000000000000000000000000000000000000000000000000000000815260040161339b9061730a565b60405180910390fd5b6133c981600b6000858152602001908152602001600020613f2390919063ffffffff16565b506133de82600c613a6090919063ffffffff16565b6133f8576133f682600c613f2390919063ffffffff16565b505b5050565b61340461399f565b73ffffffffffffffffffffffffffffffffffffffff16613422611aac565b73ffffffffffffffffffffffffffffffffffffffff1614613478576040517f08c379a000000000000000000000000000000000000000000000000000000000815260040161346f90615ffe565b60405180910390fd5b600073ffffffffffffffffffffffffffffffffffffffff168173ffffffffffffffffffffffffffffffffffffffff1614156134e8576040517f08c379a00000000000000000000000000000000000000000000000000000000081526004016134df9061739c565b60405180910390fd5b6134f181613e43565b50565b601260205280600052604060002060009150905080600001549080600101549080600201549080600301549080600401549080600501549080600601549080600701549080600801549080600901805461354d90615d38565b80601f016020809104026020016040519081016040528092919081815260200182805461357990615d38565b80156135c65780601f1061359b576101008083540402835291602001916135c6565b820191906000526020600020905b8154815290600101906020018083116135a957829003601f168201915b50505050509080600a0180546135db90615d38565b80601f016020809104026020016040519081016040528092919081815260200182805461360790615d38565b80156136545780601f1061362957610100808354040283529160200191613654565b820191906000526020600020905b81548152906001019060200180831161363757829003601f168201915b505050505090508b565b6136723360146145cd90919063ffffffff16565b6136b1576040517f08c379a00000000000000000000000000000000000000000000000000000000081526004016136a89061742e565b60405180910390fd5b600073ffffffffffffffffffffffffffffffffffffffff166017600084815260200190815260200160002060009054906101000a900473ffffffffffffffffffffffffffffffffffffffff1673ffffffffffffffffffffffffffffffffffffffff1614613753576040517f08c379a000000000000000000000000000000000000000000000000000000000815260040161374a906174c0565b60405180910390fd5b8060126000848152602001908152602001600020600501819055506137f482601660003373ffffffffffffffffffffffffffffffffffffffff1673ffffffffffffffffffffffffffffffffffffffff16815260200190815260200160002060008060028111156137c6576137c5615b17565b5b60028111156137d8576137d7615b17565b5b8152602001908152602001600020613f2390919063ffffffff16565b50336017600084815260200190815260200160002060006101000a81548173ffffffffffffffffffffffffffffffffffffffff021916908373ffffffffffffffffffffffffffffffffffffffff1602179055505050565b600e5481565b60007f80ac58cd000000000000000000000000000000000000000000000000000000007bffffffffffffffffffffffffffffffffffffffffffffffffffffffff1916827bffffffffffffffffffffffffffffffffffffffffffffffffffffffff1916148061391c57507f5b5e139f000000000000000000000000000000000000000000000000000000007bffffffffffffffffffffffffffffffffffffffffffffffffffffffff1916827bffffffffffffffffffffffffffffffffffffffffffffffffffffffff1916145b8061392c575061392b826145fd565b5b9050919050565b60008073ffffffffffffffffffffffffffffffffffffffff166002600084815260200190815260200160002060009054906101000a900473ffffffffffffffffffffffffffffffffffffffff1673ffffffffffffffffffffffffffffffffffffffff1614159050919050565b600033905090565b816004600083815260200190815260200160002060006101000a81548173ffffffffffffffffffffffffffffffffffffffff021916908373ffffffffffffffffffffffffffffffffffffffff160217905550808273ffffffffffffffffffffffffffffffffffffffff16613a1a83611409565b73ffffffffffffffffffffffffffffffffffffffff167f8c5be1e5ebec7d5bd14f71427d1e84f3dd0314c0f7b2291e5b200ac8c7c3b92560405160405180910390a45050565b6000613a72836000018360001b614667565b905092915050565b6000613a888260000161468a565b9050919050565b6000613a9a82613933565b613ad9576040517f08c379a0000000000000000000000000000000000000000000000000000000008152600401613ad090617552565b60405180910390fd5b6000613ae483611409565b90508073ffffffffffffffffffffffffffffffffffffffff168473ffffffffffffffffffffffffffffffffffffffff161480613b5357508373ffffffffffffffffffffffffffffffffffffffff16613b3b84610b29565b73ffffffffffffffffffffffffffffffffffffffff16145b80613b645750613b638185612f74565b5b91505092915050565b8273ffffffffffffffffffffffffffffffffffffffff16613b8d82611409565b73ffffffffffffffffffffffffffffffffffffffff1614613be3576040517f08c379a0000000000000000000000000000000000000000000000000000000008152600401613bda906175e4565b60405180910390fd5b600073ffffffffffffffffffffffffffffffffffffffff168273ffffffffffffffffffffffffffffffffffffffff161415613c53576040517f08c379a0000000000000000000000000000000000000000000000000000000008152600401613c4a90617676565b60405180910390fd5b613c5e83838361469b565b613c696000826139a7565b6001600360008573ffffffffffffffffffffffffffffffffffffffff1673ffffffffffffffffffffffffffffffffffffffff1681526020019081526020016000206000828254613cb9919061614b565b925050819055506001600360008473ffffffffffffffffffffffffffffffffffffffff1673ffffffffffffffffffffffffffffffffffffffff1681526020019081526020016000206000828254613d109190617696565b92505081905550816002600083815260200190815260200160002060006101000a81548173ffffffffffffffffffffffffffffffffffffffff021916908373ffffffffffffffffffffffffffffffffffffffff160217905550808273ffffffffffffffffffffffffffffffffffffffff168473ffffffffffffffffffffffffffffffffffffffff167fddf252ad1be2c89b69c2b068fc378daa952ba7f163c4a11628f55a4df523b3ef60405160405180910390a4505050565b6000613df1836000018373ffffffffffffffffffffffffffffffffffffffff1660001b6147af565b905092915050565b6000613e21836000018373ffffffffffffffffffffffffffffffffffffffff1660001b6148c3565b905092915050565b6000613e388360000183614933565b60001c905092915050565b6000600a60009054906101000a900473ffffffffffffffffffffffffffffffffffffffff16905081600a60006101000a81548173ffffffffffffffffffffffffffffffffffffffff021916908373ffffffffffffffffffffffffffffffffffffffff1602179055508173ffffffffffffffffffffffffffffffffffffffff168173ffffffffffffffffffffffffffffffffffffffff167f8be0079c531659141344cd1fd0a4f28419497f9722a3daafe3b4186f6b6457e060405160405180910390a35050565b6000613f1b836000018360001b6147af565b905092915050565b6000613f35836000018360001b6148c3565b905092915050565b8173ffffffffffffffffffffffffffffffffffffffff168373ffffffffffffffffffffffffffffffffffffffff161415613fac576040517f08c379a0000000000000000000000000000000000000000000000000000000008152600401613fa390617738565b60405180910390fd5b80600560008573ffffffffffffffffffffffffffffffffffffffff1673ffffffffffffffffffffffffffffffffffffffff16815260200190815260200160002060008473ffffffffffffffffffffffffffffffffffffffff1673ffffffffffffffffffffffffffffffffffffffff16815260200190815260200160002060006101000a81548160ff0219169083151502179055508173ffffffffffffffffffffffffffffffffffffffff168373ffffffffffffffffffffffffffffffffffffffff167f17307eab39ab6107e8899845ad3d59bd9653f200f220920489ca2b5937696c318360405161409d9190614fdd565b60405180910390a3505050565b6140b5848484613b6d565b6140c18484848461495e565b614100576040517f08c379a00000000000000000000000000000000000000000000000000000000081526004016140f7906177ca565b60405180910390fd5b50505050565b6060600082141561414e576040518060400160405280600181526020017f30000000000000000000000000000000000000000000000000000000000000008152509050614262565b600082905060005b600082146141805780806141699061617f565b915050600a826141799190617819565b9150614156565b60008167ffffffffffffffff81111561419c5761419b61575d565b5b6040519080825280601f01601f1916602001820160405280156141ce5781602001600182028036833780820191505090505b5090505b6000851461425b576001826141e7919061614b565b9150600a856141f6919061784a565b60306142029190617696565b60f81b818381518110614218576142176161c8565b5b60200101907effffffffffffffffffffffffffffffffffffffffffffffffffffffffffffff1916908160001a905350600a856142549190617819565b94506141d2565b8093505050505b919050565b6060600082519050600081141561429057604051806020016040528060008152509150506143fa565b600060036002836142a19190617696565b6142ab9190617819565b60046142b7919061787b565b905060006020826142c89190617696565b67ffffffffffffffff8111156142e1576142e061575d565b5b6040519080825280601f01601f1916602001820160405280156143135781602001600182028036833780820191505090505b5090506000604051806060016040528060408152602001617be5604091399050600181016020830160005b868110156143b75760038101905062ffffff818a015116603f8160121c168401518060081b905060ff603f83600c1c1686015116810190508060081b905060ff603f8360061c1686015116810190508060081b905060ff603f831686015116810190508060e01b9050808452600484019350505061433e565b5060038606600181146143d157600281146143e1576143ec565b613d3d60f01b60028303526143ec565b603d60f81b60018303525b508484525050819450505050505b919050565b600073ffffffffffffffffffffffffffffffffffffffff168273ffffffffffffffffffffffffffffffffffffffff16141561446f576040517f08c379a000000000000000000000000000000000000000000000000000000000815260040161446690617921565b60405180910390fd5b61447881613933565b156144b8576040517f08c379a00000000000000000000000000000000000000000000000000000000081526004016144af9061798d565b60405180910390fd5b6144c46000838361469b565b6001600360008473ffffffffffffffffffffffffffffffffffffffff1673ffffffffffffffffffffffffffffffffffffffff16815260200190815260200160002060008282546145149190617696565b92505081905550816002600083815260200190815260200160002060006101000a81548173ffffffffffffffffffffffffffffffffffffffff021916908373ffffffffffffffffffffffffffffffffffffffff160217905550808273ffffffffffffffffffffffffffffffffffffffff16600073ffffffffffffffffffffffffffffffffffffffff167fddf252ad1be2c89b69c2b068fc378daa952ba7f163c4a11628f55a4df523b3ef60405160405180910390a45050565b60006145f5836000018373ffffffffffffffffffffffffffffffffffffffff1660001b614667565b905092915050565b60007f01ffc9a7000000000000000000000000000000000000000000000000000000007bffffffffffffffffffffffffffffffffffffffffffffffffffffffff1916827bffffffffffffffffffffffffffffffffffffffffffffffffffffffff1916149050919050565b600080836001016000848152602001908152602001600020541415905092915050565b600081600001805490509050919050565b6146a6838383614ae6565b600073ffffffffffffffffffffffffffffffffffffffff168373ffffffffffffffffffffffffffffffffffffffff1614156146e9576146e481614aeb565b614728565b8173ffffffffffffffffffffffffffffffffffffffff168373ffffffffffffffffffffffffffffffffffffffff1614614727576147268382614b34565b5b5b600073ffffffffffffffffffffffffffffffffffffffff168273ffffffffffffffffffffffffffffffffffffffff16141561476b5761476681614ca1565b6147aa565b8273ffffffffffffffffffffffffffffffffffffffff168273ffffffffffffffffffffffffffffffffffffffff16146147a9576147a88282614d72565b5b5b505050565b600080836001016000848152602001908152602001600020549050600081146148b75760006001826147e1919061614b565b90506000600186600001805490506147f9919061614b565b905081811461486857600086600001828154811061481a576148196161c8565b5b906000526020600020015490508087600001848154811061483e5761483d6161c8565b5b90600052602060002001819055508387600101600083815260200190815260200160002081905550505b8560000180548061487c5761487b6179ad565b5b6001900381819060005260206000200160009055905585600101600086815260200190815260200160002060009055600193505050506148bd565b60009150505b92915050565b60006148cf8383614667565b61492857826000018290806001815401808255809150506001900390600052602060002001600090919091909150558260000180549050836001016000848152602001908152602001600020819055506001905061492d565b600090505b92915050565b600082600001828154811061494b5761494a6161c8565b5b9060005260206000200154905092915050565b600061497f8473ffffffffffffffffffffffffffffffffffffffff16614df1565b15614ad9578373ffffffffffffffffffffffffffffffffffffffff1663150b7a026149a861399f565b8786866040518563ffffffff1660e01b81526004016149ca9493929190617a31565b6020604051808303816000875af1925050508015614a0657506040513d601f19601f82011682018060405250810190614a039190617a92565b60015b614a89573d8060008114614a36576040519150601f19603f3d011682016040523d82523d6000602084013e614a3b565b606091505b50600081511415614a81576040517f08c379a0000000000000000000000000000000000000000000000000000000008152600401614a78906177ca565b60405180910390fd5b805181602001fd5b63150b7a0260e01b7bffffffffffffffffffffffffffffffffffffffffffffffffffffffff1916817bffffffffffffffffffffffffffffffffffffffffffffffffffffffff191614915050614ade565b600190505b949350505050565b505050565b6008805490506009600083815260200190815260200160002081905550600881908060018154018082558091505060019003906000526020600020016000909190919091505550565b60006001614b41846114bb565b614b4b919061614b565b9050600060076000848152602001908152602001600020549050818114614c30576000600660008673ffffffffffffffffffffffffffffffffffffffff1673ffffffffffffffffffffffffffffffffffffffff168152602001908152602001600020600084815260200190815260200160002054905080600660008773ffffffffffffffffffffffffffffffffffffffff1673ffffffffffffffffffffffffffffffffffffffff168152602001908152602001600020600084815260200190815260200160002081905550816007600083815260200190815260200160002081905550505b6007600084815260200190815260200160002060009055600660008573ffffffffffffffffffffffffffffffffffffffff1673ffffffffffffffffffffffffffffffffffffffff16815260200190815260200160002060008381526020019081526020016000206000905550505050565b60006001600880549050614cb5919061614b565b9050600060096000848152602001908152602001600020549050600060088381548110614ce557614ce46161c8565b5b906000526020600020015490508060088381548110614d0757614d066161c8565b5b906000526020600020018190555081600960008381526020019081526020016000208190555060096000858152602001908152602001600020600090556008805480614d5657614d556179ad565b5b6001900381819060005260206000200160009055905550505050565b6000614d7d836114bb565b905081600660008573ffffffffffffffffffffffffffffffffffffffff1673ffffffffffffffffffffffffffffffffffffffff168152602001908152602001600020600083815260200190815260200160002081905550806007600084815260200190815260200160002081905550505050565b600080823b905060008111915050919050565b60405180610160016040528060008152602001600081526020016000815260200160008152602001600081526020016000815260200160008152602001600081526020016000815260200160608152602001606081525090565b828054614e6a90615d38565b90600052602060002090601f016020900481019282614e8c5760008555614ed3565b82601f10614ea557805160ff1916838001178555614ed3565b82800160010185558215614ed3579182015b82811115614ed2578251825591602001919060010190614eb7565b5b509050614ee09190614f0c565b5090565b6040518061012001604052806009905b6060815260200190600190039081614ef45790505090565b5b80821115614f25576000816000905550600101614f0d565b5090565b6000604051905090565b600080fd5b600080fd5b60007fffffffff0000000000000000000000000000000000000000000000000000000082169050919050565b614f7281614f3d565b8114614f7d57600080fd5b50565b600081359050614f8f81614f69565b92915050565b600060208284031215614fab57614faa614f33565b5b6000614fb984828501614f80565b91505092915050565b60008115159050919050565b614fd781614fc2565b82525050565b6000602082019050614ff26000830184614fce565b92915050565b600081519050919050565b600082825260208201905092915050565b60005b83811015615032578082015181840152602081019050615017565b83811115615041576000848401525b50505050565b6000601f19601f8301169050919050565b600061506382614ff8565b61506d8185615003565b935061507d818560208601615014565b61508681615047565b840191505092915050565b600060208201905081810360008301526150ab8184615058565b905092915050565b6000819050919050565b6150c6816150b3565b81146150d157600080fd5b50565b6000813590506150e3816150bd565b92915050565b6000602082840312156150ff576150fe614f33565b5b600061510d848285016150d4565b91505092915050565b600073ffffffffffffffffffffffffffffffffffffffff82169050919050565b600061514182615116565b9050919050565b61515181615136565b82525050565b600060208201905061516c6000830184615148565b92915050565b61517b81615136565b811461518657600080fd5b50565b60008135905061519881615172565b92915050565b600080604083850312156151b5576151b4614f33565b5b60006151c385828601615189565b92505060206151d4858286016150d4565b9150509250929050565b600080604083850312156151f5576151f4614f33565b5b6000615203858286016150d4565b9250506020615214858286016150d4565b9150509250929050565b615227816150b3565b82525050565b6000602082019050615242600083018461521e565b92915050565b60008060006060848603121561526157615260614f33565b5b600061526f86828701615189565b935050602061528086828701615189565b9250506040615291868287016150d4565b9150509250925092565b6152a481614fc2565b81146152af57600080fd5b50565b6000813590506152c18161529b565b92915050565b600080604083850312156152de576152dd614f33565b5b60006152ec85828601615189565b92505060206152fd858286016152b2565b9150509250929050565b600081519050919050565b600082825260208201905092915050565b6000819050602082019050919050565b61533c816150b3565b82525050565b600061534e8383615333565b60208301905092915050565b6000602082019050919050565b600061537282615307565b61537c8185615312565b935061538783615323565b8060005b838110156153b857815161539f8882615342565b97506153aa8361535a565b92505060018101905061538b565b5085935050505092915050565b600060208201905081810360008301526153df8184615367565b905092915050565b6000819050919050565b600061540c61540761540284615116565b6153e7565b615116565b9050919050565b600061541e826153f1565b9050919050565b600061543082615413565b9050919050565b61544081615425565b82525050565b600060208201905061545b6000830184615437565b92915050565b6003811061546e57600080fd5b50565b60008135905061548081615461565b92915050565b6000806040838503121561549d5761549c614f33565b5b60006154ab85828601615189565b92505060206154bc85828601615471565b9150509250929050565b600081519050919050565b600082825260208201905092915050565b6000819050602082019050919050565b600082825260208201905092915050565b600061550e82614ff8565b61551881856154f2565b9350615528818560208601615014565b61553181615047565b840191505092915050565b6000610160830160008301516155556000860182615333565b5060208301516155686020860182615333565b50604083015161557b6040860182615333565b50606083015161558e6060860182615333565b5060808301516155a16080860182615333565b5060a08301516155b460a0860182615333565b5060c08301516155c760c0860182615333565b5060e08301516155da60e0860182615333565b506101008301516155ef610100860182615333565b506101208301518482036101208601526156098282615503565b9150506101408301518482036101408601526156258282615503565b9150508091505092915050565b600061563e838361553c565b905092915050565b6000602082019050919050565b600061565e826154c6565b61566881856154d1565b93508360208202850161567a856154e2565b8060005b858110156156b657848403895281516156978582615632565b94506156a283615646565b925060208a0199505060018101905061567e565b50829750879550505050505092915050565b600060208201905081810360008301526156e28184615653565b905092915050565b600060208284031215615700576156ff614f33565b5b600061570e84828501615189565b91505092915050565b600061572282615413565b9050919050565b61573281615717565b82525050565b600060208201905061574d6000830184615729565b92915050565b600080fd5b600080fd5b7f4e487b7100000000000000000000000000000000000000000000000000000000600052604160045260246000fd5b61579582615047565b810181811067ffffffffffffffff821117156157b4576157b361575d565b5b80604052505050565b60006157c7614f29565b90506157d3828261578c565b919050565b600067ffffffffffffffff8211156157f3576157f261575d565b5b6157fc82615047565b9050602081019050919050565b82818337600083830152505050565b600061582b615826846157d8565b6157bd565b90508281526020810184848401111561584757615846615758565b5b615852848285615809565b509392505050565b600082601f83011261586f5761586e615753565b5b813561587f848260208601615818565b91505092915050565b6000806040838503121561589f5761589e614f33565b5b60006158ad858286016150d4565b925050602083013567ffffffffffffffff8111156158ce576158cd614f38565b5b6158da8582860161585a565b9150509250929050565b600067ffffffffffffffff8211156158ff576158fe61575d565b5b61590882615047565b9050602081019050919050565b6000615928615923846158e4565b6157bd565b90508281526020810184848401111561594457615943615758565b5b61594f848285615809565b509392505050565b600082601f83011261596c5761596b615753565b5b813561597c848260208601615915565b91505092915050565b6000806000806080858703121561599f5761599e614f33565b5b60006159ad87828801615189565b94505060206159be87828801615189565b93505060406159cf878288016150d4565b925050606085013567ffffffffffffffff8111156159f0576159ef614f38565b5b6159fc87828801615957565b91505092959194509250565b600080600080600060a08688031215615a2457615a23614f33565b5b6000615a32888289016150d4565b9550506020615a43888289016150d4565b9450506040615a54888289016150d4565b9350506060615a65888289016150d4565b925050608086013567ffffffffffffffff811115615a8657615a85614f38565b5b615a928882890161585a565b9150509295509295909350565b60008060408385031215615ab657615ab5614f33565b5b600083013567ffffffffffffffff811115615ad457615ad3614f38565b5b615ae08582860161585a565b925050602083013567ffffffffffffffff811115615b0157615b00614f38565b5b615b0d8582860161585a565b9150509250929050565b7f4e487b7100000000000000000000000000000000000000000000000000000000600052602160045260246000fd5b60038110615b5757615b56615b17565b5b50565b6000819050615b6882615b46565b919050565b6000615b7882615b5a565b9050919050565b615b8881615b6d565b82525050565b6000602082019050615ba36000830184615b7f565b92915050565b60008060008060808587031215615bc357615bc2614f33565b5b6000615bd1878288016150d4565b9450506020615be2878288016150d4565b9350506040615bf3878288016150d4565b9250506060615c04878288016150d4565b91505092959194509250565b60008060408385031215615c2757615c26614f33565b5b6000615c3585828601615189565b9250506020615c4685828601615189565b9150509250929050565b600061016082019050615c66600083018e61521e565b615c73602083018d61521e565b615c80604083018c61521e565b615c8d606083018b61521e565b615c9a608083018a61521e565b615ca760a083018961521e565b615cb460c083018861521e565b615cc160e083018761521e565b615ccf61010083018661521e565b818103610120830152615ce28185615058565b9050818103610140830152615cf78184615058565b90509c9b505050505050505050505050565b7f4e487b7100000000000000000000000000000000000000000000000000000000600052602260045260246000fd5b60006002820490506001821680615d5057607f821691505b60208210811415615d6457615d63615d09565b5b50919050565b7f4552433732313a20617070726f76656420717565727920666f72206e6f6e657860008201527f697374656e7420746f6b656e0000000000000000000000000000000000000000602082015250565b6000615dc6602c83615003565b9150615dd182615d6a565b604082019050919050565b60006020820190508181036000830152615df581615db9565b9050919050565b7f4552433732313a20617070726f76616c20746f2063757272656e74206f776e6560008201527f7200000000000000000000000000000000000000000000000000000000000000602082015250565b6000615e58602183615003565b9150615e6382615dfc565b604082019050919050565b60006020820190508181036000830152615e8781615e4b565b9050919050565b7f4552433732313a20617070726f76652063616c6c6572206973206e6f74206f7760008201527f6e6572206e6f7220617070726f76656420666f7220616c6c0000000000000000602082015250565b6000615eea603883615003565b9150615ef582615e8e565b604082019050919050565b60006020820190508181036000830152615f1981615edd565b9050919050565b7f4552433732313a207472616e736665722063616c6c6572206973206e6f74206f60008201527f776e6572206e6f7220617070726f766564000000000000000000000000000000602082015250565b6000615f7c603183615003565b9150615f8782615f20565b604082019050919050565b60006020820190508181036000830152615fab81615f6f565b9050919050565b7f4f776e61626c653a2063616c6c6572206973206e6f7420746865206f776e6572600082015250565b6000615fe8602083615003565b9150615ff382615fb2565b602082019050919050565b6000602082019050818103600083015261601781615fdb565b9050919050565b7f455243373231456e756d657261626c653a206f776e657220696e646578206f7560008201527f74206f6620626f756e6473000000000000000000000000000000000000000000602082015250565b600061607a602b83615003565b91506160858261601e565b604082019050919050565b600060208201905081810360008301526160a98161606d565b9050919050565b7f526f626f6375703a20696e646578206f7574206f662072616e67652100000000600082015250565b60006160e6601c83615003565b91506160f1826160b0565b602082019050919050565b60006020820190508181036000830152616115816160d9565b9050919050565b7f4e487b7100000000000000000000000000000000000000000000000000000000600052601160045260246000fd5b6000616156826150b3565b9150616161836150b3565b9250828210156161745761617361611c565b5b828203905092915050565b600061618a826150b3565b91507fffffffffffffffffffffffffffffffffffffffffffffffffffffffffffffffff8214156161bd576161bc61611c565b5b600182019050919050565b7f4e487b7100000000000000000000000000000000000000000000000000000000600052603260045260246000fd5b7f455243373231456e756d657261626c653a20676c6f62616c20696e646578206f60008201527f7574206f6620626f756e64730000000000000000000000000000000000000000602082015250565b6000616253602c83615003565b915061625e826161f7565b604082019050919050565b6000602082019050818103600083015261628281616246565b9050919050565b7f4552433732313a206f776e657220717565727920666f72206e6f6e657869737460008201527f656e7420746f6b656e0000000000000000000000000000000000000000000000602082015250565b60006162e5602983615003565b91506162f082616289565b604082019050919050565b60006020820190508181036000830152616314816162d8565b9050919050565b7f4552433732313a2062616c616e636520717565727920666f7220746865207a6560008201527f726f206164647265737300000000000000000000000000000000000000000000602082015250565b6000616377602a83615003565b91506163828261631b565b604082019050919050565b600060208201905081810360008301526163a68161636a565b9050919050565b7f526f626f6375703a20726f626f742077697468207468652070726f6772616d2060008201527f686173204e4f54206265656e20636f6e7461696e656400000000000000000000602082015250565b6000616409603683615003565b9150616414826163ad565b604082019050919050565b60006020820190508181036000830152616438816163fc565b9050919050565b60008151905061644e81615172565b92915050565b60006020828403121561646a57616469614f33565b5b60006164788482850161643f565b91505092915050565b7f526f626f6375703a204e6f74206f776e6572206f6620726f626f740000000000600082015250565b60006164b7601b83615003565b91506164c282616481565b602082019050919050565b600060208201905081810360008301526164e6816164aa565b9050919050565b7f526f626f6375703a207468657265206973207374696c6c20636f6d706574697460008201527f696f6e20746f20617474656e6400000000000000000000000000000000000000602082015250565b6000616549602d83615003565b9150616554826164ed565b604082019050919050565b600060208201905081810360008301526165788161653c565b9050919050565b7f526f626f6375703a204e4f542074686520656d756c61746520706c6174666f7260008201527f6d206f662074686520636f6d7065746974696f6e000000000000000000000000602082015250565b60006165db603483615003565b91506165e68261657f565b604082019050919050565b6000602082019050818103600083015261660a816165ce565b9050919050565b600081905092915050565b600061662782614ff8565b6166318185616611565b9350616641818560208601615014565b80840191505092915050565b6000616659828461661c565b915081905092915050565b7f526f626f742e50726f6772616d23000000000000000000000000000000000000600082015250565b600061669a600e83616611565b91506166a582616664565b600e82019050919050565b7f2e00000000000000000000000000000000000000000000000000000000000000600082015250565b60006166e6600183616611565b91506166f1826166b0565b600182019050919050565b7f565320526f626f742e50726f6772616d23000000000000000000000000000000600082015250565b6000616732601183616611565b915061673d826166fc565b601182019050919050565b60006167538261668d565b915061675f828761661c565b915061676a826166d9565b9150616776828661661c565b915061678182616725565b915061678d828561661c565b9150616798826166d9565b91506167a4828461661c565b915081905095945050505050565b7f53636f726528456e64293a000000000000000000000000000000000000000000600082015250565b60006167e8600b83616611565b91506167f3826167b2565b600b82019050919050565b7f203a200000000000000000000000000000000000000000000000000000000000600082015250565b6000616834600383616611565b915061683f826167fe565b600382019050919050565b6000616855826167db565b9150616861828561661c565b915061686c82616827565b9150616878828461661c565b91508190509392505050565b7f54696d655374616d703a00000000000000000000000000000000000000000000600082015250565b60006168ba600a83616611565b91506168c582616884565b600a82019050919050565b7f202d200000000000000000000000000000000000000000000000000000000000600082015250565b6000616906600383616611565b9150616911826168d0565b600382019050919050565b6000616927826168ad565b9150616933828561661c565b915061693e826168f9565b915061694a828461661c565b91508190509392505050565b7f52756e6e696e67204e6f77000000000000000000000000000000000000000000600082015250565b600061698c600b83616611565b915061699782616956565b600b82019050919050565b60006169ad8261697f565b9150819050919050565b60006169c2826168ad565b91506169ce828461661c565b91506169d9826168f9565b915081905092915050565b7f4e6f742053746172746564000000000000000000000000000000000000000000600082015250565b6000616a1a600b83616611565b9150616a25826169e4565b600b82019050919050565b6000616a3b82616a0d565b9150819050919050565b7f54696d655374616d703a202d2000000000000000000000000000000000000000600082015250565b6000616a7b600d83616611565b9150616a8682616a45565b600d82019050919050565b6000616a9c82616a6e565b9150819050919050565b7f4c6f67486173683a000000000000000000000000000000000000000000000000600082015250565b6000616adc600883616611565b9150616ae782616aa6565b600882019050919050565b6000616afd82616acf565b9150616b09828461661c565b915081905092915050565b6000616b20828c61661c565b9150616b2c828b61661c565b9150616b38828a61661c565b9150616b44828961661c565b9150616b50828861661c565b9150616b5c828761661c565b9150616b68828661661c565b9150616b74828561661c565b9150616b80828461661c565b91508190509a9950505050505050505050565b7f7b226e616d65223a2022526f626f63757020436f6d7065746974696f6e202300600082015250565b6000616bc9601f83616611565b9150616bd482616b93565b601f82019050919050565b7f222c20226465736372697074696f6e223a2022526f626f63757020636f6d706560008201527f746974696f6e207265636f7264732074686520626174746c652062657477656560208201527f6e20726f626f74732e222c2022696d616765223a2022646174613a696d61676560408201527f2f7376672b786d6c3b6261736536342c00000000000000000000000000000000606082015250565b6000616c87607083616611565b9150616c9282616bdf565b607082019050919050565b7f227d000000000000000000000000000000000000000000000000000000000000600082015250565b6000616cd3600283616611565b9150616cde82616c9d565b600282019050919050565b6000616cf482616bbc565b9150616d00828561661c565b9150616d0b82616c7a565b9150616d17828461661c565b9150616d2282616cc6565b91508190509392505050565b7f646174613a6170706c69636174696f6e2f6a736f6e3b6261736536342c000000600082015250565b6000616d64601d83616611565b9150616d6f82616d2e565b601d82019050919050565b6000616d8582616d57565b9150616d91828461661c565b915081905092915050565b7f526f626f6375703a204e4f5420656e6f75676820666565000000000000000000600082015250565b6000616dd2601783615003565b9150616ddd82616d9c565b602082019050919050565b60006020820190508181036000830152616e0181616dc5565b9050919050565b7f526f626f6375703a206d7920726f626f742077697468207468652070726f677260008201527f616d20686173204e4f54206265656e20636f6e7461696e656400000000000000602082015250565b6000616e64603983615003565b9150616e6f82616e08565b604082019050919050565b60006020820190508181036000830152616e9381616e57565b9050919050565b7f526f626f6375703a207065657220726f626f742077697468207468652070726f60008201527f6772616d20686173204e4f54206265656e20636f6e7461696e65640000000000602082015250565b6000616ef6603b83615003565b9150616f0182616e9a565b604082019050919050565b60006020820190508181036000830152616f2581616ee9565b9050919050565b6000616f3f616f3a846157d8565b6157bd565b905082815260208101848484011115616f5b57616f5a615758565b5b616f66848285615014565b509392505050565b600082601f830112616f8357616f82615753565b5b8151616f93848260208601616f2c565b91505092915050565b600060208284031215616fb257616fb1614f33565b5b600082015167ffffffffffffffff811115616fd057616fcf614f38565b5b616fdc84828501616f6e565b91505092915050565b7f526f626f6375703a206d792070726f6772616d2773206162696c69747920697360008201527f204e4f54204149536f6363657200000000000000000000000000000000000000602082015250565b6000617041602d83615003565b915061704c82616fe5565b604082019050919050565b6000602082019050818103600083015261707081617034565b9050919050565b7f526f626f6375703a20706565722070726f6772616d2773206162696c6974792060008201527f6973204e4f54204149536f636365720000000000000000000000000000000000602082015250565b60006170d3602f83615003565b91506170de82617077565b604082019050919050565b60006020820190508181036000830152617102816170c6565b9050919050565b7f526f626f6375703a20726f626f742077697468207468652070726f6772616d2060008201527f686173206265656e20636f6e7461696e65640000000000000000000000000000602082015250565b6000617165603283615003565b915061717082617109565b604082019050919050565b6000602082019050818103600083015261719481617158565b9050919050565b60006040820190506171b0600083018561521e565b6171bd602083018461521e565b9392505050565b6000815190506171d38161529b565b92915050565b6000602082840312156171ef576171ee614f33565b5b60006171fd848285016171c4565b91505092915050565b7f526f626f6375703a20726f626f7420646f6573204e4f5420636f6e7461696e2060008201527f7468652070726f6772616d000000000000000000000000000000000000000000602082015250565b6000617262602b83615003565b915061726d82617206565b604082019050919050565b6000602082019050818103600083015261729181617255565b9050919050565b7f526f626f6375703a2070726f6772616d2773206162696c697479206973204e4f60008201527f54204149536f6363657200000000000000000000000000000000000000000000602082015250565b60006172f4602a83615003565b91506172ff82617298565b604082019050919050565b60006020820190508181036000830152617323816172e7565b9050919050565b7f4f776e61626c653a206e6577206f776e657220697320746865207a65726f206160008201527f6464726573730000000000000000000000000000000000000000000000000000602082015250565b6000617386602683615003565b91506173918261732a565b604082019050919050565b600060208201905081810360008301526173b581617379565b9050919050565b7f526f626f6375703a204e4f54206c6567616c20656d756c61746520706c61746660008201527f6f726d0000000000000000000000000000000000000000000000000000000000602082015250565b6000617418602383615003565b9150617423826173bc565b604082019050919050565b600060208201905081810360008301526174478161740b565b9050919050565b7f526f626f6375703a20636f6d7065746974696f6e20686173206265656e20746160008201527f6b656e0000000000000000000000000000000000000000000000000000000000602082015250565b60006174aa602383615003565b91506174b58261744e565b604082019050919050565b600060208201905081810360008301526174d98161749d565b9050919050565b7f4552433732313a206f70657261746f7220717565727920666f72206e6f6e657860008201527f697374656e7420746f6b656e0000000000000000000000000000000000000000602082015250565b600061753c602c83615003565b9150617547826174e0565b604082019050919050565b6000602082019050818103600083015261756b8161752f565b9050919050565b7f4552433732313a207472616e73666572206f6620746f6b656e2074686174206960008201527f73206e6f74206f776e0000000000000000000000000000000000000000000000602082015250565b60006175ce602983615003565b91506175d982617572565b604082019050919050565b600060208201905081810360008301526175fd816175c1565b9050919050565b7f4552433732313a207472616e7366657220746f20746865207a65726f2061646460008201527f7265737300000000000000000000000000000000000000000000000000000000602082015250565b6000617660602483615003565b915061766b82617604565b604082019050919050565b6000602082019050818103600083015261768f81617653565b9050919050565b60006176a1826150b3565b91506176ac836150b3565b9250827fffffffffffffffffffffffffffffffffffffffffffffffffffffffffffffffff038211156176e1576176e061611c565b5b828201905092915050565b7f4552433732313a20617070726f766520746f2063616c6c657200000000000000600082015250565b6000617722601983615003565b915061772d826176ec565b602082019050919050565b6000602082019050818103600083015261775181617715565b9050919050565b7f4552433732313a207472616e7366657220746f206e6f6e20455243373231526560008201527f63656976657220696d706c656d656e7465720000000000000000000000000000602082015250565b60006177b4603283615003565b91506177bf82617758565b604082019050919050565b600060208201905081810360008301526177e3816177a7565b9050919050565b7f4e487b7100000000000000000000000000000000000000000000000000000000600052601260045260246000fd5b6000617824826150b3565b915061782f836150b3565b92508261783f5761783e6177ea565b5b828204905092915050565b6000617855826150b3565b9150617860836150b3565b9250826178705761786f6177ea565b5b828206905092915050565b6000617886826150b3565b9150617891836150b3565b9250817fffffffffffffffffffffffffffffffffffffffffffffffffffffffffffffffff04831182151516156178ca576178c961611c565b5b828202905092915050565b7f4552433732313a206d696e7420746f20746865207a65726f2061646472657373600082015250565b600061790b602083615003565b9150617916826178d5565b602082019050919050565b6000602082019050818103600083015261793a816178fe565b9050919050565b7f4552433732313a20746f6b656e20616c7265616479206d696e74656400000000600082015250565b6000617977601c83615003565b915061798282617941565b602082019050919050565b600060208201905081810360008301526179a68161796a565b9050919050565b7f4e487b7100000000000000000000000000000000000000000000000000000000600052603160045260246000fd5b600081519050919050565b600082825260208201905092915050565b6000617a03826179dc565b617a0d81856179e7565b9350617a1d818560208601615014565b617a2681615047565b840191505092915050565b6000608082019050617a466000830187615148565b617a536020830186615148565b617a60604083018561521e565b8181036060830152617a7281846179f8565b905095945050505050565b600081519050617a8c81614f69565b92915050565b600060208284031215617aa857617aa7614f33565b5b6000617ab684828501617a7d565b9150509291505056fe3c2f746578743e3c7465787420783d2231302220793d2236302220636c6173733d2262617365223e3c73766720786d6c6e733d22687474703a2f2f7777772e77332e6f72672f323030302f73766722207072657365727665417370656374526174696f3d22784d696e594d696e206d656574222076696577426f783d223020302033353020333530223e3c7374796c653e2e62617365207b2066696c6c3a2077686974653b20666f6e742d66616d696c793a2073657269663b20666f6e742d73697a653a20313470783b207d3c2f7374796c653e3c726563742077696474683d223130302522206865696768743d2231303025222066696c6c3d22626c61636b22202f3e3c7465787420783d2231302220793d2232302220636c6173733d2262617365223e4142434445464748494a4b4c4d4e4f505152535455565758595a6162636465666768696a6b6c6d6e6f707172737475767778797a303132333435363738392b2f3c2f746578743e3c7465787420783d2231302220793d2234302220636c6173733d2262617365223ea26469706673582212208fa6ab8f86e312f1da1da0cc0429f965aff6b4ae80c4ff668d1fb68420195aeb64736f6c634300080a0033",
  "linkReferences": {},
  "deployedLinkReferences": {}
}