{
  "_format": "hh-sol-artifact-1",
  "contractName": "Developer",
  "sourceName": "contracts/Developer.sol",
  "abi": [
    {
      "inputs": [
        {
          "internalType": "address",
          "name": "_programContract",
          "type": "address"
        }
      ],
      "stateMutability": "nonpayable",
      "type": "constructor"
    },
    {
      "anonymous": false,
      "inputs": [
        {
          "indexed": false,
          "internalType": "address",
          "name": "owner",
          "type": "address"
        },
        {
          "indexed": false,
          "internalType": "uint256",
          "name": "aiProgramTokenId",
          "type": "uint256"
        }
      ],
      "name": "AddProgram",
      "type": "event"
    },
    {
      "anonymous": false,
      "inputs": [
        {
          "indexed": true,
          "internalType": "address",
          "name": "previousOwner",
          "type": "address"
        },
        {
          "indexed": true,
          "internalType": "address",
          "name": "newOwner",
          "type": "address"
        }
      ],
      "name": "OwnershipTransferred",
      "type": "event"
    },
    {
      "anonymous": false,
      "inputs": [
        {
          "indexed": false,
          "internalType": "address",
          "name": "owner",
          "type": "address"
        },
        {
          "indexed": true,
          "internalType": "string",
          "name": "name",
          "type": "string"
        },
        {
          "indexed": true,
          "internalType": "string",
          "name": "githubUrl",
          "type": "string"
        }
      ],
      "name": "RegisterDev",
      "type": "event"
    },
    {
      "inputs": [
        {
          "internalType": "address",
          "name": "",
          "type": "address"
        }
      ],
      "name": "addrDevInfoMap",
      "outputs": [
        {
          "internalType": "address",
          "name": "devAddr",
          "type": "address"
        },
        {
          "internalType": "string",
          "name": "name",
          "type": "string"
        },
        {
          "internalType": "string",
          "name": "desc",
          "type": "string"
        },
        {
          "internalType": "string",
          "name": "headIconUrl",
          "type": "string"
        },
        {
          "internalType": "string",
          "name": "githubUrl",
          "type": "string"
        }
      ],
      "stateMutability": "view",
      "type": "function"
    },
    {
      "inputs": [
        {
          "internalType": "address",
          "name": "",
          "type": "address"
        },
        {
          "internalType": "uint256",
          "name": "",
          "type": "uint256"
        }
      ],
      "name": "addrProgramTokenIdsMap",
      "outputs": [
        {
          "internalType": "uint256",
          "name": "",
          "type": "uint256"
        }
      ],
      "stateMutability": "view",
      "type": "function"
    },
    {
      "inputs": [],
      "name": "bPermissionless",
      "outputs": [
        {
          "internalType": "bool",
          "name": "",
          "type": "bool"
        }
      ],
      "stateMutability": "view",
      "type": "function"
    },
    {
      "inputs": [],
      "name": "getAllDevInfo",
      "outputs": [
        {
          "components": [
            {
              "internalType": "address",
              "name": "devAddr",
              "type": "address"
            },
            {
              "internalType": "string",
              "name": "name",
              "type": "string"
            },
            {
              "internalType": "string",
              "name": "desc",
              "type": "string"
            },
            {
              "internalType": "string",
              "name": "headIconUrl",
              "type": "string"
            },
            {
              "internalType": "string",
              "name": "githubUrl",
              "type": "string"
            }
          ],
          "internalType": "struct Developer.DevInfo[]",
          "name": "devInfos",
          "type": "tuple[]"
        }
      ],
      "stateMutability": "nonpayable",
      "type": "function"
    },
    {
      "inputs": [
        {
          "internalType": "address",
          "name": "_dev",
          "type": "address"
        }
      ],
      "name": "getProgramNumber",
      "outputs": [
        {
          "internalType": "uint256",
          "name": "",
          "type": "uint256"
        }
      ],
      "stateMutability": "nonpayable",
      "type": "function"
    },
    {
      "inputs": [
        {
          "internalType": "address",
          "name": "_devAddr",
          "type": "address"
        }
      ],
      "name": "isDevPermitted",
      "outputs": [
        {
          "internalType": "bool",
          "name": "",
          "type": "bool"
        }
      ],
      "stateMutability": "nonpayable",
      "type": "function"
    },
    {
      "inputs": [],
      "name": "owner",
      "outputs": [
        {
          "internalType": "address",
          "name": "",
          "type": "address"
        }
      ],
      "stateMutability": "view",
      "type": "function"
    },
    {
      "inputs": [],
      "name": "programContract",
      "outputs": [
        {
          "internalType": "contract Program",
          "name": "",
          "type": "address"
        }
      ],
      "stateMutability": "view",
      "type": "function"
    },
    {
      "inputs": [
        {
          "internalType": "string",
          "name": "_name",
          "type": "string"
        },
        {
          "internalType": "string",
          "name": "_desc",
          "type": "string"
        },
        {
          "internalType": "string",
          "name": "_headIconUrl",
          "type": "string"
        },
        {
          "internalType": "string",
          "name": "_githubUrl",
          "type": "string"
        }
      ],
      "name": "registerDev",
      "outputs": [],
      "stateMutability": "nonpayable",
      "type": "function"
    },
    {
      "inputs": [
        {
          "internalType": "string",
          "name": "_ability",
          "type": "string"
        },
        {
          "internalType": "uint256",
          "name": "_mainVersion",
          "type": "uint256"
        },
        {
          "internalType": "uint256",
          "name": "_subVersion",
          "type": "uint256"
        },
        {
          "internalType": "bytes32",
          "name": "_hashValue",
          "type": "bytes32"
        },
        {
          "internalType": "string",
          "name": "_desc",
          "type": "string"
        },
        {
          "internalType": "string",
          "name": "_repositUrl",
          "type": "string"
        }
      ],
      "name": "registerProgram",
      "outputs": [
        {
          "internalType": "uint256",
          "name": "",
          "type": "uint256"
        }
      ],
      "stateMutability": "nonpayable",
      "type": "function"
    },
    {
      "inputs": [],
      "name": "renounceOwnership",
      "outputs": [],
      "stateMutability": "nonpayable",
      "type": "function"
    },
    {
      "inputs": [
        {
          "internalType": "address",
          "name": "_devAddr",
          "type": "address"
        },
        {
          "internalType": "bool",
          "name": "_bAdded",
          "type": "bool"
        }
      ],
      "name": "setDev",
      "outputs": [],
      "stateMutability": "nonpayable",
      "type": "function"
    },
    {
      "inputs": [
        {
          "internalType": "bool",
          "name": "_bPermissionless",
          "type": "bool"
        }
      ],
      "name": "setPermission",
      "outputs": [],
      "stateMutability": "nonpayable",
      "type": "function"
    },
    {
      "inputs": [
        {
          "internalType": "address",
          "name": "newOwner",
          "type": "address"
        }
      ],
      "name": "transferOwnership",
      "outputs": [],
      "stateMutability": "nonpayable",
      "type": "function"
    }
  ],
  "bytecode": "0x608060405234801561001057600080fd5b5060405161173d38038061173d83398101604081905261002f916100b2565b61003833610062565b600180546001600160a81b0319166001600160a01b0390921691909117600160a01b1790556100e2565b600080546001600160a01b038381166001600160a01b0319831681178455604051919092169283917f8be0079c531659141344cd1fd0a4f28419497f9722a3daafe3b4186f6b6457e09190a35050565b6000602082840312156100c457600080fd5b81516001600160a01b03811681146100db57600080fd5b9392505050565b61164c806100f16000396000f3fe608060405234801561001057600080fd5b50600436106100ea5760003560e01c806384c33dc51161008c578063bbed840511610066578063bbed8405146101f4578063c3cd2bf81461021d578063d175fd6414610230578063f2fde38b1461024457600080fd5b806384c33dc5146101bd5780638da5cb5b146101d0578063a712b7cf146101e157600080fd5b8063568a3652116100c8578063568a36521461015b578063593e2a851461017c578063715018a6146101915780637bb34e3c1461019957600080fd5b806310d4023f146100ef5780631100d6ed1461010d578063482b760f14610130575b600080fd5b6100f7610257565b60405161010491906110a4565b60405180910390f35b61012061011b366004611192565b6105bb565b6040519015158152602001610104565b600154610143906001600160a01b031681565b6040516001600160a01b039091168152602001610104565b61016e6101693660046111ad565b6105ce565b604051908152602001610104565b61018f61018a36600461127a565b6105ff565b005b61018f61087e565b6101ac6101a7366004611192565b6108b4565b604051610104959493929190611327565b61016e6101cb366004611391565b610b0d565b6000546001600160a01b0316610143565b61018f6101ef366004611445565b610c5d565b61016e610202366004611192565b6001600160a01b031660009081526007602052604090205490565b61018f61022b366004611478565b610ca7565b60015461012090600160a01b900460ff1681565b61018f610252366004611192565b610cef565b606060006102656004610d8a565b90508067ffffffffffffffff811115610280576102806111d7565b6040519080825280602002602001820160405280156102ec57816020015b6102d96040518060a0016040528060006001600160a01b03168152602001606081526020016060815260200160608152602001606081525090565b81526020019060019003908161029e5790505b50915060005b818110156105b6576000610307600483610d94565b6001600160a01b03808216600090815260066020908152604091829020825160a08101909352805490931682526001830180549495509193908401919061034d90611493565b80601f016020809104026020016040519081016040528092919081815260200182805461037990611493565b80156103c65780601f1061039b576101008083540402835291602001916103c6565b820191906000526020600020905b8154815290600101906020018083116103a957829003601f168201915b505050505081526020016002820180546103df90611493565b80601f016020809104026020016040519081016040528092919081815260200182805461040b90611493565b80156104585780601f1061042d57610100808354040283529160200191610458565b820191906000526020600020905b81548152906001019060200180831161043b57829003601f168201915b5050505050815260200160038201805461047190611493565b80601f016020809104026020016040519081016040528092919081815260200182805461049d90611493565b80156104ea5780601f106104bf576101008083540402835291602001916104ea565b820191906000526020600020905b8154815290600101906020018083116104cd57829003601f168201915b5050505050815260200160048201805461050390611493565b80601f016020809104026020016040519081016040528092919081815260200182805461052f90611493565b801561057c5780601f106105515761010080835404028352916020019161057c565b820191906000526020600020905b81548152906001019060200180831161055f57829003601f168201915b505050505081525050848381518110610597576105976114ce565b60200260200101819052505080806105ae906114fa565b9150506102f2565b505090565b60006105c8600283610da7565b92915050565b600760205281600052604060002081815481106105ea57600080fd5b90600052602060002001600091509150505481565b600154600160a01b900460ff168061061d575061061d600233610da7565b6106675760405162461bcd60e51b815260206004820152601660248201527511195d995b1bdc195c8e881393d508185b1b1bddd95960521b60448201526064015b60405180910390fd5b610672600433610da7565b156106d55760405162461bcd60e51b815260206004820152602d60248201527f446576656c6f7065723a596f752068617665207265676973746572656420617360448201526c1030903232bb32b637b832b91760991b606482015260840161065e565b600284511180156106e7575060c88351105b61074b5760405162461bcd60e51b815260206004820152602f60248201527f446576656c6f7065723a20746865206c656e677468206f66206e616d65206f7260448201526e103232b9b19034b99032b93937b91760891b606482015260840161065e565b6040805160a081018252338082526020808301888152838501889052606084018790526080840186905260009283526006825293909120825181546001600160a01b0319166001600160a01b03909116178155925180519293926107b59260018501920190610faf565b50604082015180516107d1916002840191602090910190610faf565b50606082015180516107ed916003840191602090910190610faf565b5060808201518051610809916004840191602090910190610faf565b5061081991506004905033610dc9565b50806040516108289190611515565b60405180910390208460405161083e9190611515565b604051908190038120338252907f06ec8770d0866b2b3554208d0d6f704afe40d126fc2e180ddbc1defd35f593c39060200160405180910390a350505050565b6000546001600160a01b031633146108a85760405162461bcd60e51b815260040161065e90611531565b6108b26000610dde565b565b600660205260009081526040902080546001820180546001600160a01b0390921692916108e090611493565b80601f016020809104026020016040519081016040528092919081815260200182805461090c90611493565b80156109595780601f1061092e57610100808354040283529160200191610959565b820191906000526020600020905b81548152906001019060200180831161093c57829003601f168201915b50505050509080600201805461096e90611493565b80601f016020809104026020016040519081016040528092919081815260200182805461099a90611493565b80156109e75780601f106109bc576101008083540402835291602001916109e7565b820191906000526020600020905b8154815290600101906020018083116109ca57829003601f168201915b5050505050908060030180546109fc90611493565b80601f0160208091040260200160405190810160405280929190818152602001828054610a2890611493565b8015610a755780601f10610a4a57610100808354040283529160200191610a75565b820191906000526020600020905b815481529060010190602001808311610a5857829003601f168201915b505050505090806004018054610a8a90611493565b80601f0160208091040260200160405190810160405280929190818152602001828054610ab690611493565b8015610b035780601f10610ad857610100808354040283529160200191610b03565b820191906000526020600020905b815481529060010190602001808311610ae657829003601f168201915b5050505050905085565b600154600090600160a01b900460ff1680610b2e5750610b2e600233610da7565b610b735760405162461bcd60e51b815260206004820152601660248201527511195d995b1bdc195c8e881393d508185b1b1bddd95960521b604482015260640161065e565b6001546040516372c44fd160e11b81526000916001600160a01b03169063e5889fa290610bb09033908c908c908c908c908c908c90600401611566565b6020604051808303816000875af1158015610bcf573d6000803e3d6000fd5b505050506040513d601f19601f82011682018060405250810190610bf391906115d0565b336000818152600760209081526040808320805460018101825590845292829020909201849055815192835282018390529192507f76d2638547b2ca9c7c55c11a8981f7c1f92fe07cc9caa94925dc906f50334477910160405180910390a1979650505050505050565b6000546001600160a01b03163314610c875760405162461bcd60e51b815260040161065e90611531565b80610c9c57610c97600283610e2e565b505050565b610c97600283610dc9565b6000546001600160a01b03163314610cd15760405162461bcd60e51b815260040161065e90611531565b60018054911515600160a01b0260ff60a01b19909216919091179055565b6000546001600160a01b03163314610d195760405162461bcd60e51b815260040161065e90611531565b6001600160a01b038116610d7e5760405162461bcd60e51b815260206004820152602660248201527f4f776e61626c653a206e6577206f776e657220697320746865207a65726f206160448201526564647265737360d01b606482015260840161065e565b610d8781610dde565b50565b60006105c8825490565b6000610da08383610e43565b9392505050565b6001600160a01b03811660009081526001830160205260408120541515610da0565b6000610da0836001600160a01b038416610e6d565b600080546001600160a01b038381166001600160a01b0319831681178455604051919092169283917f8be0079c531659141344cd1fd0a4f28419497f9722a3daafe3b4186f6b6457e09190a35050565b6000610da0836001600160a01b038416610ebc565b6000826000018281548110610e5a57610e5a6114ce565b9060005260206000200154905092915050565b6000818152600183016020526040812054610eb4575081546001818101845560008481526020808220909301849055845484825282860190935260409020919091556105c8565b5060006105c8565b60008181526001830160205260408120548015610fa5576000610ee06001836115e9565b8554909150600090610ef4906001906115e9565b9050818114610f59576000866000018281548110610f1457610f146114ce565b9060005260206000200154905080876000018481548110610f3757610f376114ce565b6000918252602080832090910192909255918252600188019052604090208390555b8554869080610f6a57610f6a611600565b6001900381819060005260206000200160009055905585600101600086815260200190815260200160002060009055600193505050506105c8565b60009150506105c8565b828054610fbb90611493565b90600052602060002090601f016020900481019282610fdd5760008555611023565b82601f10610ff657805160ff1916838001178555611023565b82800160010185558215611023579182015b82811115611023578251825591602001919060010190611008565b5061102f929150611033565b5090565b5b8082111561102f5760008155600101611034565b60005b8381101561106357818101518382015260200161104b565b83811115611072576000848401525b50505050565b60008151808452611090816020860160208601611048565b601f01601f19169290920160200192915050565b60006020808301818452808551808352604092508286019150828160051b87010184880160005b8381101561116857888303603f19018552815180516001600160a01b031684528781015160a08986018190529061110482870182611078565b915050878201518582038987015261111c8282611078565b915050606080830151868303828801526111368382611078565b92505050608080830151925085820381870152506111548183611078565b9689019694505050908601906001016110cb565b509098975050505050505050565b80356001600160a01b038116811461118d57600080fd5b919050565b6000602082840312156111a457600080fd5b610da082611176565b600080604083850312156111c057600080fd5b6111c983611176565b946020939093013593505050565b634e487b7160e01b600052604160045260246000fd5b600082601f8301126111fe57600080fd5b813567ffffffffffffffff80821115611219576112196111d7565b604051601f8301601f19908116603f01168101908282118183101715611241576112416111d7565b8160405283815286602085880101111561125a57600080fd5b836020870160208301376000602085830101528094505050505092915050565b6000806000806080858703121561129057600080fd5b843567ffffffffffffffff808211156112a857600080fd5b6112b4888389016111ed565b955060208701359150808211156112ca57600080fd5b6112d6888389016111ed565b945060408701359150808211156112ec57600080fd5b6112f8888389016111ed565b9350606087013591508082111561130e57600080fd5b5061131b878288016111ed565b91505092959194509250565b6001600160a01b038616815260a06020820181905260009061134b90830187611078565b828103604084015261135d8187611078565b905082810360608401526113718186611078565b905082810360808401526113858185611078565b98975050505050505050565b60008060008060008060c087890312156113aa57600080fd5b863567ffffffffffffffff808211156113c257600080fd5b6113ce8a838b016111ed565b975060208901359650604089013595506060890135945060808901359150808211156113f957600080fd5b6114058a838b016111ed565b935060a089013591508082111561141b57600080fd5b5061142889828a016111ed565b9150509295509295509295565b8035801515811461118d57600080fd5b6000806040838503121561145857600080fd5b61146183611176565b915061146f60208401611435565b90509250929050565b60006020828403121561148a57600080fd5b610da082611435565b600181811c908216806114a757607f821691505b602082108114156114c857634e487b7160e01b600052602260045260246000fd5b50919050565b634e487b7160e01b600052603260045260246000fd5b634e487b7160e01b600052601160045260246000fd5b600060001982141561150e5761150e6114e4565b5060010190565b60008251611527818460208701611048565b9190910192915050565b6020808252818101527f4f776e61626c653a2063616c6c6572206973206e6f7420746865206f776e6572604082015260600190565b6001600160a01b038816815260e06020820181905260009061158a90830189611078565b87604084015286606084015285608084015282810360a08401526115ae8186611078565b905082810360c08401526115c28185611078565b9a9950505050505050505050565b6000602082840312156115e257600080fd5b5051919050565b6000828210156115fb576115fb6114e4565b500390565b634e487b7160e01b600052603160045260246000fdfea26469706673582212204d93daa77d7acae60f5ffe907484ad8c0cd70ca5617b063563092a723478cbf764736f6c634300080a0033",
  "linkReferences": {},
  "deployedLinkReferences": {}
}