{
  "_format": "hh-sol-artifact-1",
  "contractName": "Developer",
  "sourceName": "contracts/Developer.sol",
  "abi": [
    {
      "inputs": [
        {
          "internalType": "address",
          "name": "_programContractAddr",
          "type": "address"
        }
      ],
      "stateMutability": "nonpayable",
      "type": "constructor"
    },
    {
      "anonymous": false,
      "inputs": [
        {
          "indexed": false,
          "internalType": "address",
          "name": "owner",
          "type": "address"
        },
        {
          "indexed": false,
          "internalType": "uint256",
          "name": "aiProgramTokenId",
          "type": "uint256"
        }
      ],
      "name": "AddProgram",
      "type": "event"
    },
    {
      "anonymous": false,
      "inputs": [
        {
          "indexed": true,
          "internalType": "address",
          "name": "previousOwner",
          "type": "address"
        },
        {
          "indexed": true,
          "internalType": "address",
          "name": "newOwner",
          "type": "address"
        }
      ],
      "name": "OwnershipTransferred",
      "type": "event"
    },
    {
      "anonymous": false,
      "inputs": [
        {
          "indexed": false,
          "internalType": "address",
          "name": "owner",
          "type": "address"
        },
        {
          "indexed": true,
          "internalType": "string",
          "name": "name",
          "type": "string"
        },
        {
          "indexed": true,
          "internalType": "string",
          "name": "githubUrl",
          "type": "string"
        }
      ],
      "name": "RegisterDev",
      "type": "event"
    },
    {
      "inputs": [
        {
          "internalType": "address",
          "name": "",
          "type": "address"
        }
      ],
      "name": "addrDevInfoMap",
      "outputs": [
        {
          "internalType": "address",
          "name": "devAddr",
          "type": "address"
        },
        {
          "internalType": "string",
          "name": "name",
          "type": "string"
        },
        {
          "internalType": "string",
          "name": "desc",
          "type": "string"
        },
        {
          "internalType": "string",
          "name": "headIconUrl",
          "type": "string"
        },
        {
          "internalType": "string",
          "name": "githubUrl",
          "type": "string"
        }
      ],
      "stateMutability": "view",
      "type": "function"
    },
    {
      "inputs": [
        {
          "internalType": "address",
          "name": "",
          "type": "address"
        },
        {
          "internalType": "uint256",
          "name": "",
          "type": "uint256"
        }
      ],
      "name": "addrProgramTokenIdsMap",
      "outputs": [
        {
          "internalType": "uint256",
          "name": "",
          "type": "uint256"
        }
      ],
      "stateMutability": "view",
      "type": "function"
    },
    {
      "inputs": [],
      "name": "bPermissionless",
      "outputs": [
        {
          "internalType": "bool",
          "name": "",
          "type": "bool"
        }
      ],
      "stateMutability": "view",
      "type": "function"
    },
    {
      "inputs": [],
      "name": "getAllDevInfo",
      "outputs": [
        {
          "components": [
            {
              "internalType": "address",
              "name": "devAddr",
              "type": "address"
            },
            {
              "internalType": "string",
              "name": "name",
              "type": "string"
            },
            {
              "internalType": "string",
              "name": "desc",
              "type": "string"
            },
            {
              "internalType": "string",
              "name": "headIconUrl",
              "type": "string"
            },
            {
              "internalType": "string",
              "name": "githubUrl",
              "type": "string"
            }
          ],
          "internalType": "struct Developer.DevInfo[]",
          "name": "devInfos",
          "type": "tuple[]"
        }
      ],
      "stateMutability": "nonpayable",
      "type": "function"
    },
    {
      "inputs": [
        {
          "internalType": "address",
          "name": "_dev",
          "type": "address"
        }
      ],
      "name": "getProgramNumber",
      "outputs": [
        {
          "internalType": "uint256",
          "name": "",
          "type": "uint256"
        }
      ],
      "stateMutability": "nonpayable",
      "type": "function"
    },
    {
      "inputs": [
        {
          "internalType": "address",
          "name": "_devAddr",
          "type": "address"
        }
      ],
      "name": "isDevPermitted",
      "outputs": [
        {
          "internalType": "bool",
          "name": "",
          "type": "bool"
        }
      ],
      "stateMutability": "nonpayable",
      "type": "function"
    },
    {
      "inputs": [],
      "name": "owner",
      "outputs": [
        {
          "internalType": "address",
          "name": "",
          "type": "address"
        }
      ],
      "stateMutability": "view",
      "type": "function"
    },
    {
      "inputs": [],
      "name": "programContractAddr",
      "outputs": [
        {
          "internalType": "contract Program",
          "name": "",
          "type": "address"
        }
      ],
      "stateMutability": "view",
      "type": "function"
    },
    {
      "inputs": [
        {
          "internalType": "string",
          "name": "_name",
          "type": "string"
        },
        {
          "internalType": "string",
          "name": "_desc",
          "type": "string"
        },
        {
          "internalType": "string",
          "name": "_headIconUrl",
          "type": "string"
        },
        {
          "internalType": "string",
          "name": "_githubUrl",
          "type": "string"
        }
      ],
      "name": "registerDev",
      "outputs": [],
      "stateMutability": "nonpayable",
      "type": "function"
    },
    {
      "inputs": [
        {
          "internalType": "string",
          "name": "_ability",
          "type": "string"
        },
        {
          "internalType": "uint256",
          "name": "_mainVersion",
          "type": "uint256"
        },
        {
          "internalType": "uint256",
          "name": "_subVersion",
          "type": "uint256"
        },
        {
          "internalType": "bytes32",
          "name": "_hashValue",
          "type": "bytes32"
        },
        {
          "internalType": "string",
          "name": "_desc",
          "type": "string"
        },
        {
          "internalType": "string",
          "name": "_repositUrl",
          "type": "string"
        }
      ],
      "name": "registerProgram",
      "outputs": [
        {
          "internalType": "uint256",
          "name": "",
          "type": "uint256"
        }
      ],
      "stateMutability": "nonpayable",
      "type": "function"
    },
    {
      "inputs": [],
      "name": "renounceOwnership",
      "outputs": [],
      "stateMutability": "nonpayable",
      "type": "function"
    },
    {
      "inputs": [
        {
          "internalType": "address",
          "name": "_devAddr",
          "type": "address"
        },
        {
          "internalType": "bool",
          "name": "_bAdded",
          "type": "bool"
        }
      ],
      "name": "setDev",
      "outputs": [],
      "stateMutability": "nonpayable",
      "type": "function"
    },
    {
      "inputs": [
        {
          "internalType": "bool",
          "name": "_bPermissionless",
          "type": "bool"
        }
      ],
      "name": "setPermission",
      "outputs": [],
      "stateMutability": "nonpayable",
      "type": "function"
    },
    {
      "inputs": [
        {
          "internalType": "address",
          "name": "newOwner",
          "type": "address"
        }
      ],
      "name": "transferOwnership",
      "outputs": [],
      "stateMutability": "nonpayable",
      "type": "function"
    }
  ],
  "bytecode": "0x60806040523480156200001157600080fd5b50604051620025f6380380620025f68339818101604052810190620000379190620001ef565b620000576200004b620000b960201b60201c565b620000c160201b60201c565b80600160006101000a81548173ffffffffffffffffffffffffffffffffffffffff021916908373ffffffffffffffffffffffffffffffffffffffff16021790555060018060146101000a81548160ff0219169083151502179055505062000221565b600033905090565b60008060009054906101000a900473ffffffffffffffffffffffffffffffffffffffff169050816000806101000a81548173ffffffffffffffffffffffffffffffffffffffff021916908373ffffffffffffffffffffffffffffffffffffffff1602179055508173ffffffffffffffffffffffffffffffffffffffff168173ffffffffffffffffffffffffffffffffffffffff167f8be0079c531659141344cd1fd0a4f28419497f9722a3daafe3b4186f6b6457e060405160405180910390a35050565b600080fd5b600073ffffffffffffffffffffffffffffffffffffffff82169050919050565b6000620001b7826200018a565b9050919050565b620001c981620001aa565b8114620001d557600080fd5b50565b600081519050620001e981620001be565b92915050565b60006020828403121562000208576200020762000185565b5b60006200021884828501620001d8565b91505092915050565b6123c580620002316000396000f3fe608060405234801561001057600080fd5b50600436106100ea5760003560e01c806384c33dc51161008c578063bbed840511610066578063bbed84051461024f578063c3cd2bf81461027f578063d175fd641461029b578063f2fde38b146102b9576100ea565b806384c33dc5146101e55780638da5cb5b14610215578063a712b7cf14610233576100ea565b8063593e2a85116100c8578063593e2a851461016d578063715018a6146101895780637bb34e3c146101935780637edc9bb6146101c7576100ea565b806310d4023f146100ef5780631100d6ed1461010d578063568a36521461013d575b600080fd5b6100f76102d5565b60405161010491906117c7565b60405180910390f35b61012760048036038101906101229190611829565b61067d565b6040516101349190611871565b60405180910390f35b610157600480360381019061015291906118c2565b61069a565b6040516101649190611911565b60405180910390f35b61018760048036038101906101829190611a61565b6106cb565b005b610191610992565b005b6101ad60048036038101906101a89190611829565b610a1a565b6040516101be959493929190611b91565b60405180910390f35b6101cf610c90565b6040516101dc9190611c5f565b60405180910390f35b6101ff60048036038101906101fa9190611cb0565b610cb6565b60405161020c9190611911565b60405180910390f35b61021d610e7d565b60405161022a9190611d91565b60405180910390f35b61024d60048036038101906102489190611dd8565b610ea6565b005b61026960048036038101906102649190611829565b610f5a565b6040516102769190611911565b60405180910390f35b61029960048036038101906102949190611e18565b610fa6565b005b6102a361103f565b6040516102b09190611871565b60405180910390f35b6102d360048036038101906102ce9190611829565b611052565b005b606060006102e3600461114a565b90508067ffffffffffffffff8111156102ff576102fe611936565b5b60405190808252806020026020018201604052801561033857816020015b6103256114b8565b81526020019060019003908161031d5790505b50915060005b8181101561067857600061035c82600461115f90919063ffffffff16565b9050600660008273ffffffffffffffffffffffffffffffffffffffff1673ffffffffffffffffffffffffffffffffffffffff1681526020019081526020016000206040518060a00160405290816000820160009054906101000a900473ffffffffffffffffffffffffffffffffffffffff1673ffffffffffffffffffffffffffffffffffffffff1673ffffffffffffffffffffffffffffffffffffffff16815260200160018201805461040e90611e74565b80601f016020809104026020016040519081016040528092919081815260200182805461043a90611e74565b80156104875780601f1061045c57610100808354040283529160200191610487565b820191906000526020600020905b81548152906001019060200180831161046a57829003601f168201915b505050505081526020016002820180546104a090611e74565b80601f01602080910402602001604051908101604052809291908181526020018280546104cc90611e74565b80156105195780601f106104ee57610100808354040283529160200191610519565b820191906000526020600020905b8154815290600101906020018083116104fc57829003601f168201915b5050505050815260200160038201805461053290611e74565b80601f016020809104026020016040519081016040528092919081815260200182805461055e90611e74565b80156105ab5780601f10610580576101008083540402835291602001916105ab565b820191906000526020600020905b81548152906001019060200180831161058e57829003601f168201915b505050505081526020016004820180546105c490611e74565b80601f01602080910402602001604051908101604052809291908181526020018280546105f090611e74565b801561063d5780601f106106125761010080835404028352916020019161063d565b820191906000526020600020905b81548152906001019060200180831161062057829003601f168201915b50505050508152505084838151811061065957610658611ea6565b5b602002602001018190525050808061067090611f04565b91505061033e565b505090565b600061069382600261117990919063ffffffff16565b9050919050565b600760205281600052604060002081815481106106b657600080fd5b90600052602060002001600091509150505481565b600160149054906101000a900460ff16806106f657506106f533600261117990919063ffffffff16565b5b610735576040517f08c379a000000000000000000000000000000000000000000000000000000000815260040161072c90611f99565b60405180910390fd5b61074933600461117990919063ffffffff16565b15610789576040517f08c379a00000000000000000000000000000000000000000000000000000000081526004016107809061202b565b60405180910390fd5b6002845111801561079b575060c88351105b6107da576040517f08c379a00000000000000000000000000000000000000000000000000000000081526004016107d1906120bd565b60405180910390fd5b6040518060a001604052803373ffffffffffffffffffffffffffffffffffffffff16815260200185815260200184815260200183815260200182815250600660003373ffffffffffffffffffffffffffffffffffffffff1673ffffffffffffffffffffffffffffffffffffffff16815260200190815260200160002060008201518160000160006101000a81548173ffffffffffffffffffffffffffffffffffffffff021916908373ffffffffffffffffffffffffffffffffffffffff16021790555060208201518160010190805190602001906108b99291906114fd565b5060408201518160020190805190602001906108d69291906114fd565b5060608201518160030190805190602001906108f39291906114fd565b5060808201518160040190805190602001906109109291906114fd565b509050506109283360046111a990919063ffffffff16565b50806040516109379190612119565b60405180910390208460405161094d9190612119565b60405180910390207f06ec8770d0866b2b3554208d0d6f704afe40d126fc2e180ddbc1defd35f593c3336040516109849190611d91565b60405180910390a350505050565b61099a6111d9565b73ffffffffffffffffffffffffffffffffffffffff166109b8610e7d565b73ffffffffffffffffffffffffffffffffffffffff1614610a0e576040517f08c379a0000000000000000000000000000000000000000000000000000000008152600401610a059061217c565b60405180910390fd5b610a1860006111e1565b565b60066020528060005260406000206000915090508060000160009054906101000a900473ffffffffffffffffffffffffffffffffffffffff1690806001018054610a6390611e74565b80601f0160208091040260200160405190810160405280929190818152602001828054610a8f90611e74565b8015610adc5780601f10610ab157610100808354040283529160200191610adc565b820191906000526020600020905b815481529060010190602001808311610abf57829003601f168201915b505050505090806002018054610af190611e74565b80601f0160208091040260200160405190810160405280929190818152602001828054610b1d90611e74565b8015610b6a5780601f10610b3f57610100808354040283529160200191610b6a565b820191906000526020600020905b815481529060010190602001808311610b4d57829003601f168201915b505050505090806003018054610b7f90611e74565b80601f0160208091040260200160405190810160405280929190818152602001828054610bab90611e74565b8015610bf85780601f10610bcd57610100808354040283529160200191610bf8565b820191906000526020600020905b815481529060010190602001808311610bdb57829003601f168201915b505050505090806004018054610c0d90611e74565b80601f0160208091040260200160405190810160405280929190818152602001828054610c3990611e74565b8015610c865780601f10610c5b57610100808354040283529160200191610c86565b820191906000526020600020905b815481529060010190602001808311610c6957829003601f168201915b5050505050905085565b600160009054906101000a900473ffffffffffffffffffffffffffffffffffffffff1681565b6000600160149054906101000a900460ff1680610ce35750610ce233600261117990919063ffffffff16565b5b610d22576040517f08c379a0000000000000000000000000000000000000000000000000000000008152600401610d1990611f99565b60405180910390fd5b6000600160009054906101000a900473ffffffffffffffffffffffffffffffffffffffff1673ffffffffffffffffffffffffffffffffffffffff1663e5889fa2338a8a8a8a8a8a6040518863ffffffff1660e01b8152600401610d8b97969594939291906121ab565b6020604051808303816000875af1158015610daa573d6000803e3d6000fd5b505050506040513d601f19601f82011682018060405250810190610dce9190612244565b9050600760003373ffffffffffffffffffffffffffffffffffffffff1673ffffffffffffffffffffffffffffffffffffffff1681526020019081526020016000208190806001815401808255809150506001900390600052602060002001600090919091909150557f76d2638547b2ca9c7c55c11a8981f7c1f92fe07cc9caa94925dc906f503344773382604051610e67929190612271565b60405180910390a1809150509695505050505050565b60008060009054906101000a900473ffffffffffffffffffffffffffffffffffffffff16905090565b610eae6111d9565b73ffffffffffffffffffffffffffffffffffffffff16610ecc610e7d565b73ffffffffffffffffffffffffffffffffffffffff1614610f22576040517f08c379a0000000000000000000000000000000000000000000000000000000008152600401610f199061217c565b60405180910390fd5b80610f4057610f3b8260026112a590919063ffffffff16565b610f55565b610f548260026111a990919063ffffffff16565b5b505050565b6000600760008373ffffffffffffffffffffffffffffffffffffffff1673ffffffffffffffffffffffffffffffffffffffff168152602001908152602001600020805490509050919050565b610fae6111d9565b73ffffffffffffffffffffffffffffffffffffffff16610fcc610e7d565b73ffffffffffffffffffffffffffffffffffffffff1614611022576040517f08c379a00000000000000000000000000000000000000000000000000000000081526004016110199061217c565b60405180910390fd5b80600160146101000a81548160ff02191690831515021790555050565b600160149054906101000a900460ff1681565b61105a6111d9565b73ffffffffffffffffffffffffffffffffffffffff16611078610e7d565b73ffffffffffffffffffffffffffffffffffffffff16146110ce576040517f08c379a00000000000000000000000000000000000000000000000000000000081526004016110c59061217c565b60405180910390fd5b600073ffffffffffffffffffffffffffffffffffffffff168173ffffffffffffffffffffffffffffffffffffffff16141561113e576040517f08c379a00000000000000000000000000000000000000000000000000000000081526004016111359061230c565b60405180910390fd5b611147816111e1565b50565b6000611158826000016112d5565b9050919050565b600061116e83600001836112e6565b60001c905092915050565b60006111a1836000018373ffffffffffffffffffffffffffffffffffffffff1660001b611311565b905092915050565b60006111d1836000018373ffffffffffffffffffffffffffffffffffffffff1660001b611334565b905092915050565b600033905090565b60008060009054906101000a900473ffffffffffffffffffffffffffffffffffffffff169050816000806101000a81548173ffffffffffffffffffffffffffffffffffffffff021916908373ffffffffffffffffffffffffffffffffffffffff1602179055508173ffffffffffffffffffffffffffffffffffffffff168173ffffffffffffffffffffffffffffffffffffffff167f8be0079c531659141344cd1fd0a4f28419497f9722a3daafe3b4186f6b6457e060405160405180910390a35050565b60006112cd836000018373ffffffffffffffffffffffffffffffffffffffff1660001b6113a4565b905092915050565b600081600001805490509050919050565b60008260000182815481106112fe576112fd611ea6565b5b9060005260206000200154905092915050565b600080836001016000848152602001908152602001600020541415905092915050565b60006113408383611311565b61139957826000018290806001815401808255809150506001900390600052602060002001600090919091909150558260000180549050836001016000848152602001908152602001600020819055506001905061139e565b600090505b92915050565b600080836001016000848152602001908152602001600020549050600081146114ac5760006001826113d6919061232c565b90506000600186600001805490506113ee919061232c565b905081811461145d57600086600001828154811061140f5761140e611ea6565b5b906000526020600020015490508087600001848154811061143357611432611ea6565b5b90600052602060002001819055508387600101600083815260200190815260200160002081905550505b8560000180548061147157611470612360565b5b6001900381819060005260206000200160009055905585600101600086815260200190815260200160002060009055600193505050506114b2565b60009150505b92915050565b6040518060a00160405280600073ffffffffffffffffffffffffffffffffffffffff168152602001606081526020016060815260200160608152602001606081525090565b82805461150990611e74565b90600052602060002090601f01602090048101928261152b5760008555611572565b82601f1061154457805160ff1916838001178555611572565b82800160010185558215611572579182015b82811115611571578251825591602001919060010190611556565b5b50905061157f9190611583565b5090565b5b8082111561159c576000816000905550600101611584565b5090565b600081519050919050565b600082825260208201905092915050565b6000819050602082019050919050565b600073ffffffffffffffffffffffffffffffffffffffff82169050919050565b60006115f7826115cc565b9050919050565b611607816115ec565b82525050565b600081519050919050565b600082825260208201905092915050565b60005b8381101561164757808201518184015260208101905061162c565b83811115611656576000848401525b50505050565b6000601f19601f8301169050919050565b60006116788261160d565b6116828185611618565b9350611692818560208601611629565b61169b8161165c565b840191505092915050565b600060a0830160008301516116be60008601826115fe565b50602083015184820360208601526116d6828261166d565b915050604083015184820360408601526116f0828261166d565b9150506060830151848203606086015261170a828261166d565b91505060808301518482036080860152611724828261166d565b9150508091505092915050565b600061173d83836116a6565b905092915050565b6000602082019050919050565b600061175d826115a0565b61176781856115ab565b935083602082028501611779856115bc565b8060005b858110156117b557848403895281516117968582611731565b94506117a183611745565b925060208a0199505060018101905061177d565b50829750879550505050505092915050565b600060208201905081810360008301526117e18184611752565b905092915050565b6000604051905090565b600080fd5b600080fd5b611806816115ec565b811461181157600080fd5b50565b600081359050611823816117fd565b92915050565b60006020828403121561183f5761183e6117f3565b5b600061184d84828501611814565b91505092915050565b60008115159050919050565b61186b81611856565b82525050565b60006020820190506118866000830184611862565b92915050565b6000819050919050565b61189f8161188c565b81146118aa57600080fd5b50565b6000813590506118bc81611896565b92915050565b600080604083850312156118d9576118d86117f3565b5b60006118e785828601611814565b92505060206118f8858286016118ad565b9150509250929050565b61190b8161188c565b82525050565b60006020820190506119266000830184611902565b92915050565b600080fd5b600080fd5b7f4e487b7100000000000000000000000000000000000000000000000000000000600052604160045260246000fd5b61196e8261165c565b810181811067ffffffffffffffff8211171561198d5761198c611936565b5b80604052505050565b60006119a06117e9565b90506119ac8282611965565b919050565b600067ffffffffffffffff8211156119cc576119cb611936565b5b6119d58261165c565b9050602081019050919050565b82818337600083830152505050565b6000611a046119ff846119b1565b611996565b905082815260208101848484011115611a2057611a1f611931565b5b611a2b8482856119e2565b509392505050565b600082601f830112611a4857611a4761192c565b5b8135611a588482602086016119f1565b91505092915050565b60008060008060808587031215611a7b57611a7a6117f3565b5b600085013567ffffffffffffffff811115611a9957611a986117f8565b5b611aa587828801611a33565b945050602085013567ffffffffffffffff811115611ac657611ac56117f8565b5b611ad287828801611a33565b935050604085013567ffffffffffffffff811115611af357611af26117f8565b5b611aff87828801611a33565b925050606085013567ffffffffffffffff811115611b2057611b1f6117f8565b5b611b2c87828801611a33565b91505092959194509250565b611b41816115ec565b82525050565b600082825260208201905092915050565b6000611b638261160d565b611b6d8185611b47565b9350611b7d818560208601611629565b611b868161165c565b840191505092915050565b600060a082019050611ba66000830188611b38565b8181036020830152611bb88187611b58565b90508181036040830152611bcc8186611b58565b90508181036060830152611be08185611b58565b90508181036080830152611bf48184611b58565b90509695505050505050565b6000819050919050565b6000611c25611c20611c1b846115cc565b611c00565b6115cc565b9050919050565b6000611c3782611c0a565b9050919050565b6000611c4982611c2c565b9050919050565b611c5981611c3e565b82525050565b6000602082019050611c746000830184611c50565b92915050565b6000819050919050565b611c8d81611c7a565b8114611c9857600080fd5b50565b600081359050611caa81611c84565b92915050565b60008060008060008060c08789031215611ccd57611ccc6117f3565b5b600087013567ffffffffffffffff811115611ceb57611cea6117f8565b5b611cf789828a01611a33565b9650506020611d0889828a016118ad565b9550506040611d1989828a016118ad565b9450506060611d2a89828a01611c9b565b935050608087013567ffffffffffffffff811115611d4b57611d4a6117f8565b5b611d5789828a01611a33565b92505060a087013567ffffffffffffffff811115611d7857611d776117f8565b5b611d8489828a01611a33565b9150509295509295509295565b6000602082019050611da66000830184611b38565b92915050565b611db581611856565b8114611dc057600080fd5b50565b600081359050611dd281611dac565b92915050565b60008060408385031215611def57611dee6117f3565b5b6000611dfd85828601611814565b9250506020611e0e85828601611dc3565b9150509250929050565b600060208284031215611e2e57611e2d6117f3565b5b6000611e3c84828501611dc3565b91505092915050565b7f4e487b7100000000000000000000000000000000000000000000000000000000600052602260045260246000fd5b60006002820490506001821680611e8c57607f821691505b60208210811415611ea057611e9f611e45565b5b50919050565b7f4e487b7100000000000000000000000000000000000000000000000000000000600052603260045260246000fd5b7f4e487b7100000000000000000000000000000000000000000000000000000000600052601160045260246000fd5b6000611f0f8261188c565b91507fffffffffffffffffffffffffffffffffffffffffffffffffffffffffffffffff821415611f4257611f41611ed5565b5b600182019050919050565b7f446576656c6f7065723a204e4f5420616c6c6f77656400000000000000000000600082015250565b6000611f83601683611b47565b9150611f8e82611f4d565b602082019050919050565b60006020820190508181036000830152611fb281611f76565b9050919050565b7f446576656c6f7065723a596f752068617665207265676973746572656420617360008201527f206120646576656c6f7065722e00000000000000000000000000000000000000602082015250565b6000612015602d83611b47565b915061202082611fb9565b604082019050919050565b6000602082019050818103600083015261204481612008565b9050919050565b7f446576656c6f7065723a20746865206c656e677468206f66206e616d65206f7260008201527f2064657363206973206572726f722e0000000000000000000000000000000000602082015250565b60006120a7602f83611b47565b91506120b28261204b565b604082019050919050565b600060208201905081810360008301526120d68161209a565b9050919050565b600081905092915050565b60006120f38261160d565b6120fd81856120dd565b935061210d818560208601611629565b80840191505092915050565b600061212582846120e8565b915081905092915050565b7f4f776e61626c653a2063616c6c6572206973206e6f7420746865206f776e6572600082015250565b6000612166602083611b47565b915061217182612130565b602082019050919050565b6000602082019050818103600083015261219581612159565b9050919050565b6121a581611c7a565b82525050565b600060e0820190506121c0600083018a611b38565b81810360208301526121d28189611b58565b90506121e16040830188611902565b6121ee6060830187611902565b6121fb608083018661219c565b81810360a083015261220d8185611b58565b905081810360c08301526122218184611b58565b905098975050505050505050565b60008151905061223e81611896565b92915050565b60006020828403121561225a576122596117f3565b5b60006122688482850161222f565b91505092915050565b60006040820190506122866000830185611b38565b6122936020830184611902565b9392505050565b7f4f776e61626c653a206e6577206f776e657220697320746865207a65726f206160008201527f6464726573730000000000000000000000000000000000000000000000000000602082015250565b60006122f6602683611b47565b91506123018261229a565b604082019050919050565b60006020820190508181036000830152612325816122e9565b9050919050565b60006123378261188c565b91506123428361188c565b92508282101561235557612354611ed5565b5b828203905092915050565b7f4e487b7100000000000000000000000000000000000000000000000000000000600052603160045260246000fdfea26469706673582212208885e30ab1f861731a216487afda863d1d668746b3289898ef17084060d8246864736f6c634300080a0033",
  "linkReferences": {},
  "deployedLinkReferences": {}
}