{
  "_format": "hh-sol-artifact-1",
  "contractName": "Robot",
  "sourceName": "contracts/Robot.sol",
  "abi": [
    {
      "inputs": [
        {
          "internalType": "address",
          "name": "_programContract",
          "type": "address"
        },
        {
          "internalType": "address",
          "name": "_loot",
          "type": "address"
        }
      ],
      "stateMutability": "nonpayable",
      "type": "constructor"
    },
    {
      "anonymous": false,
      "inputs": [
        {
          "indexed": true,
          "internalType": "address",
          "name": "owner",
          "type": "address"
        },
        {
          "indexed": true,
          "internalType": "address",
          "name": "approved",
          "type": "address"
        },
        {
          "indexed": true,
          "internalType": "uint256",
          "name": "tokenId",
          "type": "uint256"
        }
      ],
      "name": "Approval",
      "type": "event"
    },
    {
      "anonymous": false,
      "inputs": [
        {
          "indexed": true,
          "internalType": "address",
          "name": "owner",
          "type": "address"
        },
        {
          "indexed": true,
          "internalType": "address",
          "name": "operator",
          "type": "address"
        },
        {
          "indexed": false,
          "internalType": "bool",
          "name": "approved",
          "type": "bool"
        }
      ],
      "name": "ApprovalForAll",
      "type": "event"
    },
    {
      "anonymous": false,
      "inputs": [
        {
          "indexed": true,
          "internalType": "uint256[]",
          "name": "tokenIds",
          "type": "uint256[]"
        },
        {
          "indexed": false,
          "internalType": "uint256",
          "name": "amount",
          "type": "uint256"
        },
        {
          "indexed": true,
          "internalType": "uint256",
          "name": "priceReceived",
          "type": "uint256"
        },
        {
          "indexed": true,
          "internalType": "uint256",
          "name": "reserveAfterBurn",
          "type": "uint256"
        }
      ],
      "name": "Burned",
      "type": "event"
    },
    {
      "anonymous": false,
      "inputs": [
        {
          "indexed": true,
          "internalType": "uint256[]",
          "name": "tokenIds",
          "type": "uint256[]"
        },
        {
          "indexed": false,
          "internalType": "uint256",
          "name": "amount",
          "type": "uint256"
        },
        {
          "indexed": true,
          "internalType": "uint256",
          "name": "pricePaid",
          "type": "uint256"
        },
        {
          "indexed": true,
          "internalType": "uint256",
          "name": "reserveAfterMint",
          "type": "uint256"
        }
      ],
      "name": "Minted",
      "type": "event"
    },
    {
      "anonymous": false,
      "inputs": [
        {
          "indexed": true,
          "internalType": "address",
          "name": "previousOwner",
          "type": "address"
        },
        {
          "indexed": true,
          "internalType": "address",
          "name": "newOwner",
          "type": "address"
        }
      ],
      "name": "OwnershipTransferred",
      "type": "event"
    },
    {
      "anonymous": false,
      "inputs": [
        {
          "indexed": true,
          "internalType": "address",
          "name": "from",
          "type": "address"
        },
        {
          "indexed": true,
          "internalType": "address",
          "name": "to",
          "type": "address"
        },
        {
          "indexed": true,
          "internalType": "uint256",
          "name": "tokenId",
          "type": "uint256"
        }
      ],
      "name": "Transfer",
      "type": "event"
    },
    {
      "inputs": [
        {
          "internalType": "address",
          "name": "to",
          "type": "address"
        },
        {
          "internalType": "uint256",
          "name": "tokenId",
          "type": "uint256"
        }
      ],
      "name": "approve",
      "outputs": [],
      "stateMutability": "nonpayable",
      "type": "function"
    },
    {
      "inputs": [
        {
          "internalType": "address",
          "name": "owner",
          "type": "address"
        }
      ],
      "name": "balanceOf",
      "outputs": [
        {
          "internalType": "uint256",
          "name": "",
          "type": "uint256"
        }
      ],
      "stateMutability": "view",
      "type": "function"
    },
    {
      "inputs": [
        {
          "internalType": "uint256",
          "name": "_programId",
          "type": "uint256"
        },
        {
          "internalType": "uint256",
          "name": "_robotId",
          "type": "uint256"
        }
      ],
      "name": "bindProgram2Robot",
      "outputs": [],
      "stateMutability": "nonpayable",
      "type": "function"
    },
    {
      "inputs": [
        {
          "internalType": "uint256[]",
          "name": "_tokenIds",
          "type": "uint256[]"
        }
      ],
      "name": "burn",
      "outputs": [],
      "stateMutability": "nonpayable",
      "type": "function"
    },
    {
      "inputs": [
        {
          "internalType": "uint256",
          "name": "_robotId",
          "type": "uint256"
        },
        {
          "internalType": "uint256",
          "name": "_programId",
          "type": "uint256"
        }
      ],
      "name": "checkRobotContainProgram",
      "outputs": [
        {
          "internalType": "bool",
          "name": "",
          "type": "bool"
        }
      ],
      "stateMutability": "view",
      "type": "function"
    },
    {
      "inputs": [],
      "name": "creator",
      "outputs": [
        {
          "internalType": "address payable",
          "name": "",
          "type": "address"
        }
      ],
      "stateMutability": "view",
      "type": "function"
    },
    {
      "inputs": [
        {
          "internalType": "uint256",
          "name": "tokenId",
          "type": "uint256"
        }
      ],
      "name": "getApproved",
      "outputs": [
        {
          "internalType": "address",
          "name": "",
          "type": "address"
        }
      ],
      "stateMutability": "view",
      "type": "function"
    },
    {
      "inputs": [
        {
          "internalType": "uint256",
          "name": "_amount",
          "type": "uint256"
        }
      ],
      "name": "getCurrentPriceToBurn",
      "outputs": [
        {
          "internalType": "uint256",
          "name": "",
          "type": "uint256"
        }
      ],
      "stateMutability": "view",
      "type": "function"
    },
    {
      "inputs": [
        {
          "internalType": "uint256",
          "name": "_amount",
          "type": "uint256"
        }
      ],
      "name": "getCurrentPriceToMint",
      "outputs": [
        {
          "internalType": "uint256",
          "name": "",
          "type": "uint256"
        }
      ],
      "stateMutability": "view",
      "type": "function"
    },
    {
      "inputs": [],
      "name": "getCurrentSupply",
      "outputs": [
        {
          "internalType": "uint256",
          "name": "",
          "type": "uint256"
        }
      ],
      "stateMutability": "view",
      "type": "function"
    },
    {
      "inputs": [
        {
          "internalType": "uint256",
          "name": "_robotId",
          "type": "uint256"
        }
      ],
      "name": "getProgramsBound2Robot",
      "outputs": [
        {
          "internalType": "uint256[]",
          "name": "programIds",
          "type": "uint256[]"
        }
      ],
      "stateMutability": "view",
      "type": "function"
    },
    {
      "inputs": [
        {
          "internalType": "uint256",
          "name": "_amount",
          "type": "uint256"
        }
      ],
      "name": "getReserveCut",
      "outputs": [
        {
          "internalType": "uint256",
          "name": "",
          "type": "uint256"
        }
      ],
      "stateMutability": "view",
      "type": "function"
    },
    {
      "inputs": [
        {
          "internalType": "uint256",
          "name": "_programId",
          "type": "uint256"
        },
        {
          "internalType": "uint256",
          "name": "_fromIndex",
          "type": "uint256"
        },
        {
          "internalType": "uint256",
          "name": "_toIndex",
          "type": "uint256"
        }
      ],
      "name": "getRobotIdsBoundByProgram",
      "outputs": [
        {
          "internalType": "uint256[]",
          "name": "robotIds",
          "type": "uint256[]"
        }
      ],
      "stateMutability": "view",
      "type": "function"
    },
    {
      "inputs": [
        {
          "internalType": "uint256",
          "name": "_programId",
          "type": "uint256"
        }
      ],
      "name": "getRobotNumberBoundByProgram",
      "outputs": [
        {
          "internalType": "uint256",
          "name": "",
          "type": "uint256"
        }
      ],
      "stateMutability": "view",
      "type": "function"
    },
    {
      "inputs": [
        {
          "internalType": "uint256",
          "name": "tokenId",
          "type": "uint256"
        }
      ],
      "name": "getRole",
      "outputs": [
        {
          "internalType": "string",
          "name": "",
          "type": "string"
        }
      ],
      "stateMutability": "view",
      "type": "function"
    },
    {
      "inputs": [],
      "name": "initBurnPrice",
      "outputs": [
        {
          "internalType": "uint256",
          "name": "",
          "type": "uint256"
        }
      ],
      "stateMutability": "view",
      "type": "function"
    },
    {
      "inputs": [],
      "name": "initMintPrice",
      "outputs": [
        {
          "internalType": "uint256",
          "name": "",
          "type": "uint256"
        }
      ],
      "stateMutability": "view",
      "type": "function"
    },
    {
      "inputs": [
        {
          "internalType": "address",
          "name": "owner",
          "type": "address"
        },
        {
          "internalType": "address",
          "name": "operator",
          "type": "address"
        }
      ],
      "name": "isApprovedForAll",
      "outputs": [
        {
          "internalType": "bool",
          "name": "",
          "type": "bool"
        }
      ],
      "stateMutability": "view",
      "type": "function"
    },
    {
      "inputs": [],
      "name": "loot",
      "outputs": [
        {
          "internalType": "contract ILoot",
          "name": "",
          "type": "address"
        }
      ],
      "stateMutability": "view",
      "type": "function"
    },
    {
      "inputs": [
        {
          "internalType": "uint256",
          "name": "_amount",
          "type": "uint256"
        },
        {
          "internalType": "uint256",
          "name": "_maxPriceFirstRobot",
          "type": "uint256"
        }
      ],
      "name": "mint",
      "outputs": [
        {
          "internalType": "uint256[]",
          "name": "_tokenIds",
          "type": "uint256[]"
        }
      ],
      "stateMutability": "payable",
      "type": "function"
    },
    {
      "inputs": [],
      "name": "name",
      "outputs": [
        {
          "internalType": "string",
          "name": "",
          "type": "string"
        }
      ],
      "stateMutability": "view",
      "type": "function"
    },
    {
      "inputs": [
        {
          "internalType": "address",
          "name": "operator",
          "type": "address"
        },
        {
          "internalType": "address",
          "name": "from",
          "type": "address"
        },
        {
          "internalType": "uint256[]",
          "name": "ids",
          "type": "uint256[]"
        },
        {
          "internalType": "uint256[]",
          "name": "values",
          "type": "uint256[]"
        },
        {
          "internalType": "bytes",
          "name": "data",
          "type": "bytes"
        }
      ],
      "name": "onERC1155BatchReceived",
      "outputs": [
        {
          "internalType": "bytes4",
          "name": "",
          "type": "bytes4"
        }
      ],
      "stateMutability": "pure",
      "type": "function"
    },
    {
      "inputs": [
        {
          "internalType": "address",
          "name": "operator",
          "type": "address"
        },
        {
          "internalType": "address",
          "name": "from",
          "type": "address"
        },
        {
          "internalType": "uint256",
          "name": "id",
          "type": "uint256"
        },
        {
          "internalType": "uint256",
          "name": "value",
          "type": "uint256"
        },
        {
          "internalType": "bytes",
          "name": "data",
          "type": "bytes"
        }
      ],
      "name": "onERC1155Received",
      "outputs": [
        {
          "internalType": "bytes4",
          "name": "",
          "type": "bytes4"
        }
      ],
      "stateMutability": "pure",
      "type": "function"
    },
    {
      "inputs": [],
      "name": "owner",
      "outputs": [
        {
          "internalType": "address",
          "name": "",
          "type": "address"
        }
      ],
      "stateMutability": "view",
      "type": "function"
    },
    {
      "inputs": [
        {
          "internalType": "uint256",
          "name": "tokenId",
          "type": "uint256"
        }
      ],
      "name": "ownerOf",
      "outputs": [
        {
          "internalType": "address",
          "name": "",
          "type": "address"
        }
      ],
      "stateMutability": "view",
      "type": "function"
    },
    {
      "inputs": [],
      "name": "programContract",
      "outputs": [
        {
          "internalType": "contract IERC1155",
          "name": "",
          "type": "address"
        }
      ],
      "stateMutability": "view",
      "type": "function"
    },
    {
      "inputs": [],
      "name": "renounceOwnership",
      "outputs": [],
      "stateMutability": "nonpayable",
      "type": "function"
    },
    {
      "inputs": [],
      "name": "reserve",
      "outputs": [
        {
          "internalType": "uint256",
          "name": "",
          "type": "uint256"
        }
      ],
      "stateMutability": "view",
      "type": "function"
    },
    {
      "inputs": [],
      "name": "robocup",
      "outputs": [
        {
          "internalType": "contract IRobocupCompetitionPlatform",
          "name": "",
          "type": "address"
        }
      ],
      "stateMutability": "view",
      "type": "function"
    },
    {
      "inputs": [
        {
          "internalType": "address",
          "name": "from",
          "type": "address"
        },
        {
          "internalType": "address",
          "name": "to",
          "type": "address"
        },
        {
          "internalType": "uint256",
          "name": "tokenId",
          "type": "uint256"
        }
      ],
      "name": "safeTransferFrom",
      "outputs": [],
      "stateMutability": "nonpayable",
      "type": "function"
    },
    {
      "inputs": [
        {
          "internalType": "address",
          "name": "from",
          "type": "address"
        },
        {
          "internalType": "address",
          "name": "to",
          "type": "address"
        },
        {
          "internalType": "uint256",
          "name": "tokenId",
          "type": "uint256"
        },
        {
          "internalType": "bytes",
          "name": "_data",
          "type": "bytes"
        }
      ],
      "name": "safeTransferFrom",
      "outputs": [],
      "stateMutability": "nonpayable",
      "type": "function"
    },
    {
      "inputs": [
        {
          "internalType": "address",
          "name": "operator",
          "type": "address"
        },
        {
          "internalType": "bool",
          "name": "approved",
          "type": "bool"
        }
      ],
      "name": "setApprovalForAll",
      "outputs": [],
      "stateMutability": "nonpayable",
      "type": "function"
    },
    {
      "inputs": [
        {
          "internalType": "address payable",
          "name": "_creator",
          "type": "address"
        }
      ],
      "name": "setCreator",
      "outputs": [],
      "stateMutability": "nonpayable",
      "type": "function"
    },
    {
      "inputs": [
        {
          "internalType": "address",
          "name": "_robocup",
          "type": "address"
        }
      ],
      "name": "setRobocup",
      "outputs": [],
      "stateMutability": "nonpayable",
      "type": "function"
    },
    {
      "inputs": [
        {
          "internalType": "bytes4",
          "name": "interfaceId",
          "type": "bytes4"
        }
      ],
      "name": "supportsInterface",
      "outputs": [
        {
          "internalType": "bool",
          "name": "",
          "type": "bool"
        }
      ],
      "stateMutability": "view",
      "type": "function"
    },
    {
      "inputs": [],
      "name": "symbol",
      "outputs": [
        {
          "internalType": "string",
          "name": "",
          "type": "string"
        }
      ],
      "stateMutability": "view",
      "type": "function"
    },
    {
      "inputs": [
        {
          "internalType": "uint256",
          "name": "index",
          "type": "uint256"
        }
      ],
      "name": "tokenByIndex",
      "outputs": [
        {
          "internalType": "uint256",
          "name": "",
          "type": "uint256"
        }
      ],
      "stateMutability": "view",
      "type": "function"
    },
    {
      "inputs": [
        {
          "internalType": "address",
          "name": "owner",
          "type": "address"
        },
        {
          "internalType": "uint256",
          "name": "index",
          "type": "uint256"
        }
      ],
      "name": "tokenOfOwnerByIndex",
      "outputs": [
        {
          "internalType": "uint256",
          "name": "",
          "type": "uint256"
        }
      ],
      "stateMutability": "view",
      "type": "function"
    },
    {
      "inputs": [
        {
          "internalType": "uint256",
          "name": "tokenId",
          "type": "uint256"
        }
      ],
      "name": "tokenURI",
      "outputs": [
        {
          "internalType": "string",
          "name": "",
          "type": "string"
        }
      ],
      "stateMutability": "view",
      "type": "function"
    },
    {
      "inputs": [],
      "name": "totalEverMinted",
      "outputs": [
        {
          "internalType": "uint256",
          "name": "",
          "type": "uint256"
        }
      ],
      "stateMutability": "view",
      "type": "function"
    },
    {
      "inputs": [],
      "name": "totalSupply",
      "outputs": [
        {
          "internalType": "uint256",
          "name": "",
          "type": "uint256"
        }
      ],
      "stateMutability": "view",
      "type": "function"
    },
    {
      "inputs": [
        {
          "internalType": "address",
          "name": "from",
          "type": "address"
        },
        {
          "internalType": "address",
          "name": "to",
          "type": "address"
        },
        {
          "internalType": "uint256",
          "name": "tokenId",
          "type": "uint256"
        }
      ],
      "name": "transferFrom",
      "outputs": [],
      "stateMutability": "nonpayable",
      "type": "function"
    },
    {
      "inputs": [
        {
          "internalType": "address",
          "name": "newOwner",
          "type": "address"
        }
      ],
      "name": "transferOwnership",
      "outputs": [],
      "stateMutability": "nonpayable",
      "type": "function"
    },
    {
      "inputs": [
        {
          "internalType": "uint256",
          "name": "_programId",
          "type": "uint256"
        },
        {
          "internalType": "uint256",
          "name": "_robotId",
          "type": "uint256"
        }
      ],
      "name": "unbindProgramFromRobot",
      "outputs": [],
      "stateMutability": "nonpayable",
      "type": "function"
    }
  ],
  "bytecode": "0x6611c37937e08000600b55660e35fa931a0000600c556000600e819055600f55600460c0908152634d616c6560e01b60e052608090815261014060405260066101009081526546656d616c6560d01b6101205260a05262000065906015906002620001a4565b503480156200007357600080fd5b50604051620044263803806200442683398101604081905262000096916200032a565b6040805180820182526005815264149bd89bdd60da1b6020808301918252835180850190945260038452621093d560ea1b908401528151919291620000de9160009162000208565b508051620000f490600190602084019062000208565b505050620001116200010b6200014e60201b60201c565b62000152565b600d80546001600160a01b03199081163317909155601080546001600160a01b03948516908316179055601480549290931691161790556200039f565b3390565b600a80546001600160a01b038381166001600160a01b0319831681179093556040519116919082907f8be0079c531659141344cd1fd0a4f28419497f9722a3daafe3b4186f6b6457e090600090a35050565b828054828255906000526020600020908101928215620001f6579160200282015b82811115620001f65782518051620001e591849160209091019062000208565b5091602001919060010190620001c5565b506200020492915062000293565b5090565b828054620002169062000362565b90600052602060002090601f0160209004810192826200023a576000855562000285565b82601f106200025557805160ff191683800117855562000285565b8280016001018555821562000285579182015b828111156200028557825182559160200191906001019062000268565b5062000204929150620002b4565b8082111562000204576000620002aa8282620002cb565b5060010162000293565b5b80821115620002045760008155600101620002b5565b508054620002d99062000362565b6000825580601f10620002ea575050565b601f0160209004906000526020600020908101906200030a9190620002b4565b50565b80516001600160a01b03811681146200032557600080fd5b919050565b600080604083850312156200033e57600080fd5b62000349836200030d565b915062000359602084016200030d565b90509250929050565b600181811c908216806200037757607f821691505b602082108114156200039957634e487b7160e01b600052602260045260246000fd5b50919050565b61407780620003af6000396000f3fe6080604052600436106102675760003560e01c80635d9be39a11610144578063a22cb465116100b6578063c87b56dd1161007a578063c87b56dd14610760578063cd3293de14610780578063e985e9c514610796578063f18b01ad146107df578063f23a6e61146107ff578063f2fde38b1461084557600080fd5b8063a22cb4651461067f578063b80f55c91461069f578063b88d4fde146106bf578063bad6aa7a146106df578063bc197c81146106ff57600080fd5b80638da5cb5b116101085780638da5cb5b146105d6578063924808b4146105f457806395d89b411461060a578063998808cb1461061f5780639b7b2ab01461063f578063a0b87c5f1461065f57600080fd5b80635d9be39a146105415780636352211e1461056157806370a0823114610581578063715018a6146105a1578063808c5e38146105b657600080fd5b80632e8ad69f116101dd578063482b760f116101a1578063482b760f1461048c5780634e6914ff146104ac5780634f3e1efc146104cc5780634f6ccce7146104e15780635312fdc2146105015780635826b0331461052157600080fd5b80632e8ad69f146103f65780632f745c591461040c578063328ef36f1461042c5780633f5160181461044c57806342842e0e1461046c57600080fd5b806309804a951161022f57806309804a951461033d5780631649229f1461035d57806318160ddd146103815780631b2ef1ca1461039657806323b872dd146103b65780632b7f4bad146103d657600080fd5b806301ffc9a71461026c57806302d05d3f146102a157806306fdde03146102d9578063081812fc146102fb578063095ea7b31461031b575b600080fd5b34801561027857600080fd5b5061028c6102873660046130ec565b610865565b60405190151581526020015b60405180910390f35b3480156102ad57600080fd5b50600d546102c1906001600160a01b031681565b6040516001600160a01b039091168152602001610298565b3480156102e557600080fd5b506102ee610890565b6040516102989190613161565b34801561030757600080fd5b506102c1610316366004613174565b610922565b34801561032757600080fd5b5061033b6103363660046131a2565b6109bc565b005b34801561034957600080fd5b5061028c6103583660046131ce565b610ad2565b34801561036957600080fd5b50610373600b5481565b604051908152602001610298565b34801561038d57600080fd5b50600854610373565b6103a96103a43660046131ce565b610af1565b60405161029891906131f0565b3480156103c257600080fd5b5061033b6103d1366004613234565b610e8d565b3480156103e257600080fd5b5061033b6103f13660046131ce565b610ebe565b34801561040257600080fd5b50610373600c5481565b34801561041857600080fd5b506103736104273660046131a2565b61111c565b34801561043857600080fd5b50610373610447366004613174565b6111b2565b34801561045857600080fd5b5061033b610467366004613275565b6111c9565b34801561047857600080fd5b5061033b610487366004613234565b611215565b34801561049857600080fd5b506010546102c1906001600160a01b031681565b3480156104b857600080fd5b506103a96104c7366004613174565b611230565b3480156104d857600080fd5b506103736112ea565b3480156104ed57600080fd5b506103736104fc366004613174565b6112fa565b34801561050d57600080fd5b506102ee61051c366004613174565b61138d565b34801561052d57600080fd5b5061037361053c366004613174565b611406565b34801561054d57600080fd5b506013546102c1906001600160a01b031681565b34801561056d57600080fd5b506102c161057c366004613174565b611471565b34801561058d57600080fd5b5061037361059c366004613275565b6114e8565b3480156105ad57600080fd5b5061033b61156f565b3480156105c257600080fd5b506103736105d1366004613174565b6115a5565b3480156105e257600080fd5b50600a546001600160a01b03166102c1565b34801561060057600080fd5b50610373600e5481565b34801561061657600080fd5b506102ee6115b0565b34801561062b57600080fd5b506103a961063a366004613292565b6115bf565b34801561064b57600080fd5b506014546102c1906001600160a01b031681565b34801561066b57600080fd5b5061033b61067a3660046131ce565b6116ec565b34801561068b57600080fd5b5061033b61069a3660046132cc565b611922565b3480156106ab57600080fd5b5061033b6106ba36600461334b565b611931565b3480156106cb57600080fd5b5061033b6106da366004613417565b611ad2565b3480156106eb57600080fd5b5061033b6106fa366004613275565b611b0a565b34801561070b57600080fd5b5061074761071a366004613551565b7fc5d2460186f7233c927e7db2dcc703c0e500b653ca82273b7bfad8045d85a47098975050505050505050565b6040516001600160e01b03199091168152602001610298565b34801561076c57600080fd5b506102ee61077b366004613174565b611b56565b34801561078c57600080fd5b50610373600f5481565b3480156107a257600080fd5b5061028c6107b136600461360f565b6001600160a01b03918216600090815260056020908152604080832093909416825291909152205460ff1690565b3480156107eb57600080fd5b506103736107fa366004613174565b61219d565b34801561080b57600080fd5b5061074761081a36600461363d565b7ff23a6e612e1ff4830e658fe43f4e3cb4a5f8170bd5d9e69fb5d7a7fa9e4fdf979695505050505050565b34801561085157600080fd5b5061033b610860366004613275565b6121ec565b60006001600160e01b0319821663780e9d6360e01b148061088a575061088a82612287565b92915050565b60606000805461089f906136b8565b80601f01602080910402602001604051908101604052809291908181526020018280546108cb906136b8565b80156109185780601f106108ed57610100808354040283529160200191610918565b820191906000526020600020905b8154815290600101906020018083116108fb57829003601f168201915b5050505050905090565b6000818152600260205260408120546001600160a01b03166109a05760405162461bcd60e51b815260206004820152602c60248201527f4552433732313a20617070726f76656420717565727920666f72206e6f6e657860448201526b34b9ba32b73a103a37b5b2b760a11b60648201526084015b60405180910390fd5b506000908152600460205260409020546001600160a01b031690565b60006109c782611471565b9050806001600160a01b0316836001600160a01b03161415610a355760405162461bcd60e51b815260206004820152602160248201527f4552433732313a20617070726f76616c20746f2063757272656e74206f776e656044820152603960f91b6064820152608401610997565b336001600160a01b0382161480610a515750610a5181336107b1565b610ac35760405162461bcd60e51b815260206004820152603860248201527f4552433732313a20617070726f76652063616c6c6572206973206e6f74206f7760448201527f6e6572206e6f7220617070726f76656420666f7220616c6c00000000000000006064820152608401610997565b610acd83836122d7565b505050565b6000828152601160205260408120610aea9083612345565b9392505050565b6060333214610b345760405162461bcd60e51b815260206004820152600f60248201526e526f626f743a206f6e6c7920454f4160881b6044820152606401610997565b60008311610b955760405162461bcd60e51b815260206004820152602860248201527f526f626f743a205f616d6f756e74206d757374206265206c617267657220746860448201526730b7103d32b9379760c11b6064820152608401610997565b6000610ba1600161219d565b905082811115610c065760405162461bcd60e51b815260206004820152602a60248201527f526f626f743a20507269636520646f6573204e4f54206d6174636820796f75726044820152691032bc3832b1ba32b21760b11b6064820152608401610997565b600084600114610c1e57610c198561219d565b610c20565b815b905080341015610c725760405162461bcd60e51b815260206004820152601a60248201527f526f626f743a204e6f7420656e6f756768204554482073656e740000000000006044820152606401610997565b846001600160401b03811115610c8a57610c8a613305565b604051908082528060200260200182016040528015610cb3578160200160208202803683370190505b50925060005b85811015610d8d576000600e544233604051602001610cfd93929190928352602083019190915260601b6bffffffffffffffffffffffff1916604082015260540190565b6040516020818303038152906040528051906020012090508060001c63ffffffff16858381518110610d3157610d316136f3565b602002602001018181525050610d6033868481518110610d5357610d536136f3565b602002602001015161235d565b6001600e6000828254610d73919061371f565b90915550829150610d85905081613737565b915050610cb9565b506000610d99866115a5565b600f54909150610da990826124ab565b600f55600d546001600160a01b03166108fc610dc584846124b7565b6040518115909202916000818181858888f19350505050158015610ded573d6000803e3d6000fd5b506000610dfa34846124b7565b1115610e3857336108fc610e0e34856124b7565b6040518115909202916000818181858888f19350505050158015610e36573d6000803e3d6000fd5b505b600f548285604051610e4a9190613752565b604051908190038120898252907ff5705be7282ecd6328040667ea73761f5120f58ecefc8ee9b4145bf14d9a52709060200160405180910390a450505092915050565b610e9733826124c3565b610eb35760405162461bcd60e51b815260040161099790613788565b610acd8383836125ba565b610ec781611471565b6001600160a01b0316336001600160a01b031614610f275760405162461bcd60e51b815260206004820152601e60248201527f526f626f743a20726f626f74204e4f542062656c6f6e6720746f20796f7500006044820152606401610997565b6000818152601160205260409020610f3f9083612345565b610fa35760405162461bcd60e51b815260206004820152602f60248201527f526f626f743a207468652070726f6772616d20686173204e4f54206265656e2060448201526e189bdd5b99081d1a19481c9bd89bdd608a1b6064820152608401610997565b6013546040516309804a9560e01b815260048101839052602481018490526001600160a01b03909116906309804a9590604401602060405180830381865afa158015610ff3573d6000803e3d6000fd5b505050506040513d601f19601f8201168201806040525081019061101791906137d9565b1561108257601354604051630e62311560e31b815260048101839052602481018490526001600160a01b039091169063731188a890604401600060405180830381600087803b15801561106957600080fd5b505af115801561107d573d6000803e3d6000fd5b505050505b601054604051637921219560e11b81526001600160a01b039091169063f242432a906110b9903090339087906001906004016137f6565b600060405180830381600087803b1580156110d357600080fd5b505af11580156110e7573d6000803e3d6000fd5b5050506000828152601160205260409020611103915083612765565b506000828152601260205260409020610acd9082612765565b6000611127836114e8565b82106111895760405162461bcd60e51b815260206004820152602b60248201527f455243373231456e756d657261626c653a206f776e657220696e646578206f7560448201526a74206f6620626f756e647360a81b6064820152608401610997565b506001600160a01b03919091166000908152600660209081526040808320938352929052205490565b600081815260126020526040812061088a90612771565b600a546001600160a01b031633146111f35760405162461bcd60e51b81526004016109979061382e565b600d80546001600160a01b0319166001600160a01b0392909216919091179055565b610acd83838360405180602001604052806000815250611ad2565b60008181526011602052604081206060919061124b90612771565b9050806001600160401b0381111561126557611265613305565b60405190808252806020026020018201604052801561128e578160200160208202803683370190505b50915060005b818110156112e35760008481526011602052604090206112b4908261277b565b8382815181106112c6576112c66136f3565b6020908102919091010152806112db81613737565b915050611294565b5050919050565b60006112f560085490565b905090565b600061130560085490565b82106113685760405162461bcd60e51b815260206004820152602c60248201527f455243373231456e756d657261626c653a20676c6f62616c20696e646578206f60448201526b7574206f6620626f756e647360a01b6064820152608401610997565b6008828154811061137b5761137b6136f3565b90600052602060002001549050919050565b601454604051634b77b8eb60e01b81526060916001600160a01b031690634b77b8eb906113c1908590601590600401613863565b600060405180830381865afa1580156113de573d6000803e3d6000fd5b505050506040513d6000823e601f3d908101601f1916820160405261088a9190810190613976565b6000806114116112ea565b9050806114215750600092915050565b6000805b84811015611469576000611447600c54838661144191906139ec565b90612787565b905061145383826124ab565b925050808061146190613737565b915050611425565b509392505050565b6000818152600260205260408120546001600160a01b03168061088a5760405162461bcd60e51b815260206004820152602960248201527f4552433732313a206f776e657220717565727920666f72206e6f6e657869737460448201526832b73a103a37b5b2b760b91b6064820152608401610997565b60006001600160a01b0382166115535760405162461bcd60e51b815260206004820152602a60248201527f4552433732313a2062616c616e636520717565727920666f7220746865207a65604482015269726f206164647265737360b01b6064820152608401610997565b506001600160a01b031660009081526003602052604090205490565b600a546001600160a01b031633146115995760405162461bcd60e51b81526004016109979061382e565b6115a36000612793565b565b600061088a82611406565b60606001805461089f906136b8565b6000838152601260205260408120606091906115da90612771565b9050808311156115e8578092505b8284106116375760405162461bcd60e51b815260206004820152601a60248201527f526f626f743a20696e646578206f7574206f662072616e6765210000000000006044820152606401610997565b61164184846139ec565b6001600160401b0381111561165857611658613305565b604051908082528060200260200182016040528015611681578160200160208202803683370190505b5091506000845b848110156116e25760008781526012602052604090206116a8908261277b565b84836116b381613737565b9450815181106116c5576116c56136f3565b6020908102919091010152806116da81613737565b915050611688565b5050509392505050565b601054604051627eeac760e11b8152336004820152602481018490526000916001600160a01b03169062fdd58e90604401602060405180830381865afa15801561173a573d6000803e3d6000fd5b505050506040513d601f19601f8201168201806040525081019061175e9190613a03565b116117ab5760405162461bcd60e51b815260206004820152601a60248201527f526f626f743a20796f752068617665206e6f2070726f6772616d0000000000006044820152606401610997565b6117b481611471565b6001600160a01b0316336001600160a01b0316146118145760405162461bcd60e51b815260206004820152601e60248201527f526f626f743a20726f626f74204e4f542062656c6f6e6720746f20796f7500006044820152606401610997565b600081815260116020526040902061182c9083612345565b156118885760405162461bcd60e51b815260206004820152602660248201527f526f626f743a2074686520726f626f742068617320626f756e64207468652070604482015265726f6772616d60d01b6064820152608401610997565b601054604051637921219560e11b81526001600160a01b039091169063f242432a906118bf903390309087906001906004016137f6565b600060405180830381600087803b1580156118d957600080fd5b505af11580156118ed573d6000803e3d6000fd5b50505060008281526011602052604090206119099150836127e5565b506000828152601260205260409020610acd90826127e5565b61192d3383836127f1565b5050565b3332146119725760405162461bcd60e51b815260206004820152600f60248201526e526f626f743a206f6e6c7920454f4160881b6044820152606401610997565b600061197e8251611406565b905060005b8251811015611a42576119ae8382815181106119a1576119a16136f3565b6020026020010151611471565b6001600160a01b0316336001600160a01b031614611a0e5760405162461bcd60e51b815260206004820152601c60248201527f526f626f743a204e6f742074686520636f7272656374206f776e6572000000006044820152606401610997565b611a30838281518110611a2357611a236136f3565b60200260200101516128c0565b80611a3a81613737565b915050611983565b50600f54611a5090826124b7565b600f55604051339082156108fc029083906000818181858888f19350505050158015611a80573d6000803e3d6000fd5b50600f548183604051611a939190613752565b60405190819003812085518252907fc4f0ab9a1e75e794af20b71e07383c194780132094987b97038b2a274a5352dd9060200160405180910390a45050565b611adc33836124c3565b611af85760405162461bcd60e51b815260040161099790613788565b611b0484848484612967565b50505050565b600a546001600160a01b03163314611b345760405162461bcd60e51b81526004016109979061382e565b601380546001600160a01b0319166001600160a01b0392909216919091179055565b6060611b606130ae565b60405180610120016040528060fd8152602001613e8b60fd91398152601454604051639e41b73f60e01b8152600481018590526001600160a01b0390911690639e41b73f90602401600060405180830381865afa158015611bc5573d6000803e3d6000fd5b505050506040513d6000823e601f3d908101601f19168201604052611bed9190810190613976565b8160016020020181905250604051806060016040528060288152602001613ff16028913981600260200201526014546040516377b403ad60e11b8152600481018590526001600160a01b039091169063ef68075a90602401600060405180830381865afa158015611c62573d6000803e3d6000fd5b505050506040513d6000823e601f3d908101601f19168201604052611c8a9190810190613976565b6060808301919091526040805191820190526028808252613dc060208301396080820152601454604051639720c96960e01b8152600481018590526001600160a01b0390911690639720c96990602401600060405180830381865afa158015611cf7573d6000803e3d6000fd5b505050506040513d6000823e601f3d908101601f19168201604052611d1f9190810190613976565b60a082015260408051606081019091526028808252613e3a602083013960c0820152601454604051639bdc1b6960e01b8152600481018590526001600160a01b0390911690639bdc1b6990602401600060405180830381865afa158015611d8a573d6000803e3d6000fd5b505050506040513d6000823e601f3d908101601f19168201604052611db29190810190613976565b60e082015260408051606081019091526029808252613e626020830139610100820152601454604051630e99990d60e01b8152600481018590526001600160a01b0390911690630e99990d90602401600060405180830381865afa158015611e1e573d6000803e3d6000fd5b505050506040513d6000823e601f3d908101601f19168201604052611e469190810190613976565b61012082015260408051606081019091526029808252613e116020830139610140820152601454604051636a3f934f60e11b8152600481018590526001600160a01b039091169063d47f269e90602401600060405180830381865afa158015611eb3573d6000803e3d6000fd5b505050506040513d6000823e601f3d908101601f19168201604052611edb9190810190613976565b61016082015260408051606081019091526029808252613f886020830139610180820152601454604051630ce4135560e31b8152600481018590526001600160a01b03909116906367209aa890602401600060405180830381865afa158015611f48573d6000803e3d6000fd5b505050506040513d6000823e601f3d908101601f19168201604052611f709190810190613976565b6101a082015260408051606081019091526029808252613de860208301396101c082015260145460405163c08a5dd560e01b8152600481018590526001600160a01b039091169063c08a5dd590602401600060405180830381865afa158015611fdd573d6000803e3d6000fd5b505050506040513d6000823e601f3d908101601f191682016040526120059190810190613976565b6101e08201526040805160608101909152602980825261401960208301396102008201526120328361138d565b610220820152604080518082018252600d81526c1e17ba32bc3a1f1e17b9bb339f60991b602080830191909152610240840191909152825181840151838501516060860151608087015160a088015160c089015160e08a01516101008b0151995160009a6120a29a909101613a1c565b60408051808303601f19018152908290526101208401516101408501516101608601516101808701516101a08801516101c08901516101e08a01516102008b01519799506120f5988a9890602001613a1c565b60408051808303601f190181529082905261022084015161024085015191935061212492849290602001613add565b604051602081830303815290604052905060006121716121438661299a565b61214c84612a97565b60405160200161215d929190613b20565b604051602081830303815290604052612a97565b9050806040516020016121849190613c5b565b60408051601f1981840301815291905295945050505050565b6000806121a86112ea565b9050600060015b8481116114695760006121ca600b548386611441919061371f565b90506121d683826124ab565b92505080806121e490613737565b9150506121af565b600a546001600160a01b031633146122165760405162461bcd60e51b81526004016109979061382e565b6001600160a01b03811661227b5760405162461bcd60e51b815260206004820152602660248201527f4f776e61626c653a206e6577206f776e657220697320746865207a65726f206160448201526564647265737360d01b6064820152608401610997565b61228481612793565b50565b60006001600160e01b031982166380ac58cd60e01b14806122b857506001600160e01b03198216635b5e139f60e01b145b8061088a57506301ffc9a760e01b6001600160e01b031983161461088a565b600081815260046020526040902080546001600160a01b0319166001600160a01b038416908117909155819061230c82611471565b6001600160a01b03167f8c5be1e5ebec7d5bd14f71427d1e84f3dd0314c0f7b2291e5b200ac8c7c3b92560405160405180910390a45050565b60008181526001830160205260408120541515610aea565b6001600160a01b0382166123b35760405162461bcd60e51b815260206004820181905260248201527f4552433732313a206d696e7420746f20746865207a65726f20616464726573736044820152606401610997565b6000818152600260205260409020546001600160a01b0316156124185760405162461bcd60e51b815260206004820152601c60248201527f4552433732313a20746f6b656e20616c7265616479206d696e746564000000006044820152606401610997565b61242460008383612bfc565b6001600160a01b038216600090815260036020526040812080546001929061244d90849061371f565b909155505060008181526002602052604080822080546001600160a01b0319166001600160a01b03861690811790915590518392907fddf252ad1be2c89b69c2b068fc378daa952ba7f163c4a11628f55a4df523b3ef908290a45050565b6000610aea828461371f565b6000610aea82846139ec565b6000818152600260205260408120546001600160a01b031661253c5760405162461bcd60e51b815260206004820152602c60248201527f4552433732313a206f70657261746f7220717565727920666f72206e6f6e657860448201526b34b9ba32b73a103a37b5b2b760a11b6064820152608401610997565b600061254783611471565b9050806001600160a01b0316846001600160a01b031614806125825750836001600160a01b031661257784610922565b6001600160a01b0316145b806125b257506001600160a01b0380821660009081526005602090815260408083209388168352929052205460ff165b949350505050565b826001600160a01b03166125cd82611471565b6001600160a01b0316146126355760405162461bcd60e51b815260206004820152602960248201527f4552433732313a207472616e73666572206f6620746f6b656e2074686174206960448201526839903737ba1037bbb760b91b6064820152608401610997565b6001600160a01b0382166126975760405162461bcd60e51b8152602060048201526024808201527f4552433732313a207472616e7366657220746f20746865207a65726f206164646044820152637265737360e01b6064820152608401610997565b6126a2838383612bfc565b6126ad6000826122d7565b6001600160a01b03831660009081526003602052604081208054600192906126d69084906139ec565b90915550506001600160a01b038216600090815260036020526040812080546001929061270490849061371f565b909155505060008181526002602052604080822080546001600160a01b0319166001600160a01b0386811691821790925591518493918716917fddf252ad1be2c89b69c2b068fc378daa952ba7f163c4a11628f55a4df523b3ef91a4505050565b6000610aea8383612cb4565b600061088a825490565b6000610aea8383612da7565b6000610aea8284613ca0565b600a80546001600160a01b038381166001600160a01b0319831681179093556040519116919082907f8be0079c531659141344cd1fd0a4f28419497f9722a3daafe3b4186f6b6457e090600090a35050565b6000610aea8383612dd1565b816001600160a01b0316836001600160a01b031614156128535760405162461bcd60e51b815260206004820152601960248201527f4552433732313a20617070726f766520746f2063616c6c6572000000000000006044820152606401610997565b6001600160a01b03838116600081815260056020908152604080832094871680845294825291829020805460ff191686151590811790915591519182527f17307eab39ab6107e8899845ad3d59bd9653f200f220920489ca2b5937696c31910160405180910390a3505050565b60006128cb82611471565b90506128d981600084612bfc565b6128e46000836122d7565b6001600160a01b038116600090815260036020526040812080546001929061290d9084906139ec565b909155505060008281526002602052604080822080546001600160a01b0319169055518391906001600160a01b038416907fddf252ad1be2c89b69c2b068fc378daa952ba7f163c4a11628f55a4df523b3ef908390a45050565b6129728484846125ba565b61297e84848484612e20565b611b045760405162461bcd60e51b815260040161099790613cbf565b6060816129be5750506040805180820190915260018152600360fc1b602082015290565b8160005b81156129e857806129d281613737565b91506129e19050600a83613d27565b91506129c2565b6000816001600160401b03811115612a0257612a02613305565b6040519080825280601f01601f191660200182016040528015612a2c576020820181803683370190505b5090505b84156125b257612a416001836139ec565b9150612a4e600a86613d3b565b612a5990603061371f565b60f81b818381518110612a6e57612a6e6136f3565b60200101906001600160f81b031916908160001a905350612a90600a86613d27565b9450612a30565b805160609080612ab7575050604080516020810190915260008152919050565b60006003612ac683600261371f565b612ad09190613d27565b612adb906004613ca0565b90506000612aea82602061371f565b6001600160401b03811115612b0157612b01613305565b6040519080825280601f01601f191660200182016040528015612b2b576020820181803683370190505b5090506000604051806060016040528060408152602001613fb1604091399050600181016020830160005b86811015612bb7576003818a01810151603f601282901c8116860151600c83901c8216870151600684901c831688015192909316870151600891821b60ff94851601821b92841692909201901b91160160e01b835260049092019101612b56565b506003860660018114612bd15760028114612be257612bee565b613d3d60f01b600119830152612bee565b603d60f81b6000198301525b505050918152949350505050565b6001600160a01b038316612c5757612c5281600880546000838152600960205260408120829055600182018355919091527ff3f7a9fe364faab93b216da50a3214154f22a0a2b415b23a84c8169e8b636ee30155565b612c7a565b816001600160a01b0316836001600160a01b031614612c7a57612c7a8382612f1e565b6001600160a01b038216612c9157610acd81612fbb565b826001600160a01b0316826001600160a01b031614610acd57610acd828261306a565b60008181526001830160205260408120548015612d9d576000612cd86001836139ec565b8554909150600090612cec906001906139ec565b9050818114612d51576000866000018281548110612d0c57612d0c6136f3565b9060005260206000200154905080876000018481548110612d2f57612d2f6136f3565b6000918252602080832090910192909255918252600188019052604090208390555b8554869080612d6257612d62613d4f565b60019003818190600052602060002001600090559055856001016000868152602001908152602001600020600090556001935050505061088a565b600091505061088a565b6000826000018281548110612dbe57612dbe6136f3565b9060005260206000200154905092915050565b6000818152600183016020526040812054612e185750815460018181018455600084815260208082209093018490558454848252828601909352604090209190915561088a565b50600061088a565b60006001600160a01b0384163b15612f1357604051630a85bd0160e11b81526001600160a01b0385169063150b7a0290612e64903390899088908890600401613d65565b6020604051808303816000875af1925050508015612e9f575060408051601f3d908101601f19168201909252612e9c91810190613da2565b60015b612ef9573d808015612ecd576040519150601f19603f3d011682016040523d82523d6000602084013e612ed2565b606091505b508051612ef15760405162461bcd60e51b815260040161099790613cbf565b805181602001fd5b6001600160e01b031916630a85bd0160e11b1490506125b2565b506001949350505050565b60006001612f2b846114e8565b612f3591906139ec565b600083815260076020526040902054909150808214612f88576001600160a01b03841660009081526006602090815260408083208584528252808320548484528184208190558352600790915290208190555b5060009182526007602090815260408084208490556001600160a01b039094168352600681528383209183525290812055565b600854600090612fcd906001906139ec565b60008381526009602052604081205460088054939450909284908110612ff557612ff56136f3565b906000526020600020015490508060088381548110613016576130166136f3565b600091825260208083209091019290925582815260099091526040808220849055858252812055600880548061304e5761304e613d4f565b6001900381819060005260206000200160009055905550505050565b6000613075836114e8565b6001600160a01b039093166000908152600660209081526040808320868452825280832085905593825260079052919091209190915550565b6040518061026001604052806013905b60608152602001906001900390816130be5790505090565b6001600160e01b03198116811461228457600080fd5b6000602082840312156130fe57600080fd5b8135610aea816130d6565b60005b8381101561312457818101518382015260200161310c565b83811115611b045750506000910152565b6000815180845261314d816020860160208601613109565b601f01601f19169290920160200192915050565b602081526000610aea6020830184613135565b60006020828403121561318657600080fd5b5035919050565b6001600160a01b038116811461228457600080fd5b600080604083850312156131b557600080fd5b82356131c08161318d565b946020939093013593505050565b600080604083850312156131e157600080fd5b50508035926020909101359150565b6020808252825182820181905260009190848201906040850190845b818110156132285783518352928401929184019160010161320c565b50909695505050505050565b60008060006060848603121561324957600080fd5b83356132548161318d565b925060208401356132648161318d565b929592945050506040919091013590565b60006020828403121561328757600080fd5b8135610aea8161318d565b6000806000606084860312156132a757600080fd5b505081359360208301359350604090920135919050565b801515811461228457600080fd5b600080604083850312156132df57600080fd5b82356132ea8161318d565b915060208301356132fa816132be565b809150509250929050565b634e487b7160e01b600052604160045260246000fd5b604051601f8201601f191681016001600160401b038111828210171561334357613343613305565b604052919050565b6000602080838503121561335e57600080fd5b82356001600160401b038082111561337557600080fd5b818501915085601f83011261338957600080fd5b81358181111561339b5761339b613305565b8060051b91506133ac84830161331b565b81815291830184019184810190888411156133c657600080fd5b938501935b838510156133e4578435825293850193908501906133cb565b98975050505050505050565b60006001600160401b0382111561340957613409613305565b50601f01601f191660200190565b6000806000806080858703121561342d57600080fd5b84356134388161318d565b935060208501356134488161318d565b92506040850135915060608501356001600160401b0381111561346a57600080fd5b8501601f8101871361347b57600080fd5b803561348e613489826133f0565b61331b565b8181528860208385010111156134a357600080fd5b8160208401602083013760006020838301015280935050505092959194509250565b60008083601f8401126134d757600080fd5b5081356001600160401b038111156134ee57600080fd5b6020830191508360208260051b850101111561350957600080fd5b9250929050565b60008083601f84011261352257600080fd5b5081356001600160401b0381111561353957600080fd5b60208301915083602082850101111561350957600080fd5b60008060008060008060008060a0898b03121561356d57600080fd5b88356135788161318d565b975060208901356135888161318d565b965060408901356001600160401b03808211156135a457600080fd5b6135b08c838d016134c5565b909850965060608b01359150808211156135c957600080fd5b6135d58c838d016134c5565b909650945060808b01359150808211156135ee57600080fd5b506135fb8b828c01613510565b999c989b5096995094979396929594505050565b6000806040838503121561362257600080fd5b823561362d8161318d565b915060208301356132fa8161318d565b60008060008060008060a0878903121561365657600080fd5b86356136618161318d565b955060208701356136718161318d565b9450604087013593506060870135925060808701356001600160401b0381111561369a57600080fd5b6136a689828a01613510565b979a9699509497509295939492505050565b600181811c908216806136cc57607f821691505b602082108114156136ed57634e487b7160e01b600052602260045260246000fd5b50919050565b634e487b7160e01b600052603260045260246000fd5b634e487b7160e01b600052601160045260246000fd5b6000821982111561373257613732613709565b500190565b600060001982141561374b5761374b613709565b5060010190565b815160009082906020808601845b8381101561377c57815185529382019390820190600101613760565b50929695505050505050565b60208082526031908201527f4552433732313a207472616e736665722063616c6c6572206973206e6f74206f6040820152701ddb995c881b9bdc88185c1c1c9bdd9959607a1b606082015260800190565b6000602082840312156137eb57600080fd5b8151610aea816132be565b6001600160a01b0394851681529290931660208301526040820152606081019190915260a06080820181905260009082015260c00190565b6020808252818101527f4f776e61626c653a2063616c6c6572206973206e6f7420746865206f776e6572604082015260600190565b828152600060206060818401526004606084015263524f4c4560e01b608084015260a0830160a0604085015280855480835260c08601915060c08160051b87010192506000878152848120815b838110156139675788860360bf1901855281548390600181811c90808316806138da57607f831692505b8b83108114156138f857634e487b7160e01b88526022600452602488fd5b828b5260208b0181801561391357600181146139245761394e565b60ff19861682528d8201965061394e565b6000898152602090208a5b8681101561394857815484820152908501908f0161392f565b83019750505b50949a5050978a019794909401935050506001016138b0565b50939998505050505050505050565b60006020828403121561398857600080fd5b81516001600160401b0381111561399e57600080fd5b8201601f810184136139af57600080fd5b80516139bd613489826133f0565b8181528560208385010111156139d257600080fd5b6139e3826020830160208601613109565b95945050505050565b6000828210156139fe576139fe613709565b500390565b600060208284031215613a1557600080fd5b5051919050565b60008a51613a2e818460208f01613109565b8a51613a408183860160208f01613109565b8a519184010190613a55818360208e01613109565b8951613a678183850160208e01613109565b8951929091010190613a7d818360208c01613109565b8751613a8f8183850160208c01613109565b8751929091010190613aa5818360208a01613109565b8551613ab78183850160208a01613109565b8551929091010190613acd818360208801613109565b019b9a5050505050505050505050565b60008451613aef818460208901613109565b845190830190613b03818360208901613109565b8451910190613b16818360208801613109565b0195945050505050565b707b226e616d65223a2022526f626f74202360781b81528251600090613b4d816011850160208801613109565b7f222c20226465736372697074696f6e223a2022526f626f742069732072616e646011918401918201527f6f6d6c792067656e657261746564204e465420776974682065717569706d656e60318201527f742c20616e642063616e2061737369676e2050726f6772616d204e465473207460518201527f6f20726f626f742c207468757320726f626f742063616e20676574206365727460718201527f61696e206162696c69746965732e222c2022696d616765223a2022646174613a6091820152741a5b5859d94bdcdd99cade1b5b0ed8985cd94d8d0b605a1b60b18201528351613c408160c6840160208801613109565b61227d60f01b60c6929091019182015260c801949350505050565b7f646174613a6170706c69636174696f6e2f6a736f6e3b6261736536342c000000815260008251613c9381601d850160208701613109565b91909101601d0192915050565b6000816000190483118215151615613cba57613cba613709565b500290565b60208082526032908201527f4552433732313a207472616e7366657220746f206e6f6e20455243373231526560408201527131b2b4bb32b91034b6b83632b6b2b73a32b960711b606082015260800190565b634e487b7160e01b600052601260045260246000fd5b600082613d3657613d36613d11565b500490565b600082613d4a57613d4a613d11565b500690565b634e487b7160e01b600052603160045260246000fd5b6001600160a01b0385811682528416602082015260408101839052608060608201819052600090613d9890830184613135565b9695505050505050565b600060208284031215613db457600080fd5b8151610aea816130d656fe3c2f746578743e3c7465787420783d2231302220793d2236302220636c6173733d2262617365223e3c2f746578743e3c7465787420783d2231302220793d223136302220636c6173733d2262617365223e3c2f746578743e3c7465787420783d2231302220793d223132302220636c6173733d2262617365223e3c2f746578743e3c7465787420783d2231302220793d2238302220636c6173733d2262617365223e3c2f746578743e3c7465787420783d2231302220793d223130302220636c6173733d2262617365223e3c73766720786d6c6e733d22687474703a2f2f7777772e77332e6f72672f323030302f73766722207072657365727665417370656374526174696f3d22784d696e594d696e206d656574222076696577426f783d223020302033353020333530223e3c7374796c653e2e62617365207b2066696c6c3a2077686974653b20666f6e742d66616d696c793a2073657269663b20666f6e742d73697a653a20313470783b207d3c2f7374796c653e3c726563742077696474683d223130302522206865696768743d2231303025222066696c6c3d22626c61636b22202f3e3c7465787420783d2231302220793d2232302220636c6173733d2262617365223e3c2f746578743e3c7465787420783d2231302220793d223134302220636c6173733d2262617365223e4142434445464748494a4b4c4d4e4f505152535455565758595a6162636465666768696a6b6c6d6e6f707172737475767778797a303132333435363738392b2f3c2f746578743e3c7465787420783d2231302220793d2234302220636c6173733d2262617365223e3c2f746578743e3c7465787420783d2231302220793d223138302220636c6173733d2262617365223ea2646970667358221220e1d3724738bb17c97d6466b0f8a5db9dff480cbacdb593b8bf144168fbac0d1564736f6c634300080a0033",
  "linkReferences": {},
  "deployedLinkReferences": {}
}