{
  "_format": "hh-sol-artifact-1",
  "contractName": "Robot",
  "sourceName": "contracts/Robot.sol",
  "abi": [
    {
      "inputs": [
        {
          "internalType": "address",
          "name": "_programContract",
          "type": "address"
        }
      ],
      "stateMutability": "nonpayable",
      "type": "constructor"
    },
    {
      "anonymous": false,
      "inputs": [
        {
          "indexed": true,
          "internalType": "address",
          "name": "owner",
          "type": "address"
        },
        {
          "indexed": true,
          "internalType": "address",
          "name": "approved",
          "type": "address"
        },
        {
          "indexed": true,
          "internalType": "uint256",
          "name": "tokenId",
          "type": "uint256"
        }
      ],
      "name": "Approval",
      "type": "event"
    },
    {
      "anonymous": false,
      "inputs": [
        {
          "indexed": true,
          "internalType": "address",
          "name": "owner",
          "type": "address"
        },
        {
          "indexed": true,
          "internalType": "address",
          "name": "operator",
          "type": "address"
        },
        {
          "indexed": false,
          "internalType": "bool",
          "name": "approved",
          "type": "bool"
        }
      ],
      "name": "ApprovalForAll",
      "type": "event"
    },
    {
      "anonymous": false,
      "inputs": [
        {
          "indexed": true,
          "internalType": "uint256[]",
          "name": "tokenIds",
          "type": "uint256[]"
        },
        {
          "indexed": false,
          "internalType": "uint256",
          "name": "amount",
          "type": "uint256"
        },
        {
          "indexed": true,
          "internalType": "uint256",
          "name": "priceReceived",
          "type": "uint256"
        },
        {
          "indexed": true,
          "internalType": "uint256",
          "name": "reserveAfterBurn",
          "type": "uint256"
        }
      ],
      "name": "Burned",
      "type": "event"
    },
    {
      "anonymous": false,
      "inputs": [
        {
          "indexed": true,
          "internalType": "uint256[]",
          "name": "tokenIds",
          "type": "uint256[]"
        },
        {
          "indexed": false,
          "internalType": "uint256",
          "name": "amount",
          "type": "uint256"
        },
        {
          "indexed": true,
          "internalType": "uint256",
          "name": "pricePaid",
          "type": "uint256"
        },
        {
          "indexed": true,
          "internalType": "uint256",
          "name": "reserveAfterMint",
          "type": "uint256"
        }
      ],
      "name": "Minted",
      "type": "event"
    },
    {
      "anonymous": false,
      "inputs": [
        {
          "indexed": true,
          "internalType": "address",
          "name": "previousOwner",
          "type": "address"
        },
        {
          "indexed": true,
          "internalType": "address",
          "name": "newOwner",
          "type": "address"
        }
      ],
      "name": "OwnershipTransferred",
      "type": "event"
    },
    {
      "anonymous": false,
      "inputs": [
        {
          "indexed": true,
          "internalType": "address",
          "name": "from",
          "type": "address"
        },
        {
          "indexed": true,
          "internalType": "address",
          "name": "to",
          "type": "address"
        },
        {
          "indexed": true,
          "internalType": "uint256",
          "name": "tokenId",
          "type": "uint256"
        }
      ],
      "name": "Transfer",
      "type": "event"
    },
    {
      "inputs": [
        {
          "internalType": "address",
          "name": "to",
          "type": "address"
        },
        {
          "internalType": "uint256",
          "name": "tokenId",
          "type": "uint256"
        }
      ],
      "name": "approve",
      "outputs": [],
      "stateMutability": "nonpayable",
      "type": "function"
    },
    {
      "inputs": [
        {
          "internalType": "address",
          "name": "owner",
          "type": "address"
        }
      ],
      "name": "balanceOf",
      "outputs": [
        {
          "internalType": "uint256",
          "name": "",
          "type": "uint256"
        }
      ],
      "stateMutability": "view",
      "type": "function"
    },
    {
      "inputs": [
        {
          "internalType": "uint256",
          "name": "_programId",
          "type": "uint256"
        },
        {
          "internalType": "uint256",
          "name": "_robotId",
          "type": "uint256"
        }
      ],
      "name": "bindProgram2Robot",
      "outputs": [],
      "stateMutability": "nonpayable",
      "type": "function"
    },
    {
      "inputs": [
        {
          "internalType": "uint256[]",
          "name": "_tokenIds",
          "type": "uint256[]"
        }
      ],
      "name": "burn",
      "outputs": [],
      "stateMutability": "nonpayable",
      "type": "function"
    },
    {
      "inputs": [
        {
          "internalType": "uint256",
          "name": "_robotId",
          "type": "uint256"
        },
        {
          "internalType": "uint256",
          "name": "_programId",
          "type": "uint256"
        }
      ],
      "name": "checkRobotContainProgram",
      "outputs": [
        {
          "internalType": "bool",
          "name": "",
          "type": "bool"
        }
      ],
      "stateMutability": "view",
      "type": "function"
    },
    {
      "inputs": [],
      "name": "creator",
      "outputs": [
        {
          "internalType": "address payable",
          "name": "",
          "type": "address"
        }
      ],
      "stateMutability": "view",
      "type": "function"
    },
    {
      "inputs": [
        {
          "internalType": "uint256",
          "name": "tokenId",
          "type": "uint256"
        }
      ],
      "name": "getApproved",
      "outputs": [
        {
          "internalType": "address",
          "name": "",
          "type": "address"
        }
      ],
      "stateMutability": "view",
      "type": "function"
    },
    {
      "inputs": [
        {
          "internalType": "uint256",
          "name": "tokenId",
          "type": "uint256"
        }
      ],
      "name": "getChest",
      "outputs": [
        {
          "internalType": "string",
          "name": "",
          "type": "string"
        }
      ],
      "stateMutability": "view",
      "type": "function"
    },
    {
      "inputs": [
        {
          "internalType": "uint256",
          "name": "_amount",
          "type": "uint256"
        }
      ],
      "name": "getCurrentPriceToBurn",
      "outputs": [
        {
          "internalType": "uint256",
          "name": "",
          "type": "uint256"
        }
      ],
      "stateMutability": "view",
      "type": "function"
    },
    {
      "inputs": [
        {
          "internalType": "uint256",
          "name": "_amount",
          "type": "uint256"
        }
      ],
      "name": "getCurrentPriceToMint",
      "outputs": [
        {
          "internalType": "uint256",
          "name": "",
          "type": "uint256"
        }
      ],
      "stateMutability": "view",
      "type": "function"
    },
    {
      "inputs": [],
      "name": "getCurrentSupply",
      "outputs": [
        {
          "internalType": "uint256",
          "name": "",
          "type": "uint256"
        }
      ],
      "stateMutability": "view",
      "type": "function"
    },
    {
      "inputs": [
        {
          "internalType": "uint256",
          "name": "tokenId",
          "type": "uint256"
        }
      ],
      "name": "getFoot",
      "outputs": [
        {
          "internalType": "string",
          "name": "",
          "type": "string"
        }
      ],
      "stateMutability": "view",
      "type": "function"
    },
    {
      "inputs": [
        {
          "internalType": "uint256",
          "name": "tokenId",
          "type": "uint256"
        }
      ],
      "name": "getHand",
      "outputs": [
        {
          "internalType": "string",
          "name": "",
          "type": "string"
        }
      ],
      "stateMutability": "view",
      "type": "function"
    },
    {
      "inputs": [
        {
          "internalType": "uint256",
          "name": "tokenId",
          "type": "uint256"
        }
      ],
      "name": "getHead",
      "outputs": [
        {
          "internalType": "string",
          "name": "",
          "type": "string"
        }
      ],
      "stateMutability": "view",
      "type": "function"
    },
    {
      "inputs": [
        {
          "internalType": "uint256",
          "name": "tokenId",
          "type": "uint256"
        }
      ],
      "name": "getNeck",
      "outputs": [
        {
          "internalType": "string",
          "name": "",
          "type": "string"
        }
      ],
      "stateMutability": "view",
      "type": "function"
    },
    {
      "inputs": [
        {
          "internalType": "uint256",
          "name": "_amount",
          "type": "uint256"
        }
      ],
      "name": "getReserveCut",
      "outputs": [
        {
          "internalType": "uint256",
          "name": "",
          "type": "uint256"
        }
      ],
      "stateMutability": "view",
      "type": "function"
    },
    {
      "inputs": [
        {
          "internalType": "uint256",
          "name": "tokenId",
          "type": "uint256"
        }
      ],
      "name": "getRing",
      "outputs": [
        {
          "internalType": "string",
          "name": "",
          "type": "string"
        }
      ],
      "stateMutability": "view",
      "type": "function"
    },
    {
      "inputs": [
        {
          "internalType": "uint256",
          "name": "tokenId",
          "type": "uint256"
        }
      ],
      "name": "getRole",
      "outputs": [
        {
          "internalType": "string",
          "name": "",
          "type": "string"
        }
      ],
      "stateMutability": "view",
      "type": "function"
    },
    {
      "inputs": [
        {
          "internalType": "uint256",
          "name": "tokenId",
          "type": "uint256"
        }
      ],
      "name": "getWaist",
      "outputs": [
        {
          "internalType": "string",
          "name": "",
          "type": "string"
        }
      ],
      "stateMutability": "view",
      "type": "function"
    },
    {
      "inputs": [
        {
          "internalType": "uint256",
          "name": "tokenId",
          "type": "uint256"
        }
      ],
      "name": "getWeapon",
      "outputs": [
        {
          "internalType": "string",
          "name": "",
          "type": "string"
        }
      ],
      "stateMutability": "view",
      "type": "function"
    },
    {
      "inputs": [],
      "name": "initBurnPrice",
      "outputs": [
        {
          "internalType": "uint256",
          "name": "",
          "type": "uint256"
        }
      ],
      "stateMutability": "view",
      "type": "function"
    },
    {
      "inputs": [],
      "name": "initMintPrice",
      "outputs": [
        {
          "internalType": "uint256",
          "name": "",
          "type": "uint256"
        }
      ],
      "stateMutability": "view",
      "type": "function"
    },
    {
      "inputs": [
        {
          "internalType": "address",
          "name": "owner",
          "type": "address"
        },
        {
          "internalType": "address",
          "name": "operator",
          "type": "address"
        }
      ],
      "name": "isApprovedForAll",
      "outputs": [
        {
          "internalType": "bool",
          "name": "",
          "type": "bool"
        }
      ],
      "stateMutability": "view",
      "type": "function"
    },
    {
      "inputs": [
        {
          "internalType": "uint256",
          "name": "_amount",
          "type": "uint256"
        },
        {
          "internalType": "uint256",
          "name": "_maxPriceFirstRobot",
          "type": "uint256"
        }
      ],
      "name": "mint",
      "outputs": [
        {
          "internalType": "uint256[]",
          "name": "_tokenIds",
          "type": "uint256[]"
        }
      ],
      "stateMutability": "payable",
      "type": "function"
    },
    {
      "inputs": [],
      "name": "name",
      "outputs": [
        {
          "internalType": "string",
          "name": "",
          "type": "string"
        }
      ],
      "stateMutability": "view",
      "type": "function"
    },
    {
      "inputs": [
        {
          "internalType": "address",
          "name": "operator",
          "type": "address"
        },
        {
          "internalType": "address",
          "name": "from",
          "type": "address"
        },
        {
          "internalType": "uint256[]",
          "name": "ids",
          "type": "uint256[]"
        },
        {
          "internalType": "uint256[]",
          "name": "values",
          "type": "uint256[]"
        },
        {
          "internalType": "bytes",
          "name": "data",
          "type": "bytes"
        }
      ],
      "name": "onERC1155BatchReceived",
      "outputs": [
        {
          "internalType": "bytes4",
          "name": "",
          "type": "bytes4"
        }
      ],
      "stateMutability": "pure",
      "type": "function"
    },
    {
      "inputs": [
        {
          "internalType": "address",
          "name": "operator",
          "type": "address"
        },
        {
          "internalType": "address",
          "name": "from",
          "type": "address"
        },
        {
          "internalType": "uint256",
          "name": "id",
          "type": "uint256"
        },
        {
          "internalType": "uint256",
          "name": "value",
          "type": "uint256"
        },
        {
          "internalType": "bytes",
          "name": "data",
          "type": "bytes"
        }
      ],
      "name": "onERC1155Received",
      "outputs": [
        {
          "internalType": "bytes4",
          "name": "",
          "type": "bytes4"
        }
      ],
      "stateMutability": "pure",
      "type": "function"
    },
    {
      "inputs": [],
      "name": "owner",
      "outputs": [
        {
          "internalType": "address",
          "name": "",
          "type": "address"
        }
      ],
      "stateMutability": "view",
      "type": "function"
    },
    {
      "inputs": [
        {
          "internalType": "uint256",
          "name": "tokenId",
          "type": "uint256"
        }
      ],
      "name": "ownerOf",
      "outputs": [
        {
          "internalType": "address",
          "name": "",
          "type": "address"
        }
      ],
      "stateMutability": "view",
      "type": "function"
    },
    {
      "inputs": [],
      "name": "programContract",
      "outputs": [
        {
          "internalType": "contract IERC1155",
          "name": "",
          "type": "address"
        }
      ],
      "stateMutability": "view",
      "type": "function"
    },
    {
      "inputs": [],
      "name": "renounceOwnership",
      "outputs": [],
      "stateMutability": "nonpayable",
      "type": "function"
    },
    {
      "inputs": [],
      "name": "reserve",
      "outputs": [
        {
          "internalType": "uint256",
          "name": "",
          "type": "uint256"
        }
      ],
      "stateMutability": "view",
      "type": "function"
    },
    {
      "inputs": [],
      "name": "robocup",
      "outputs": [
        {
          "internalType": "contract IRobocupCompetitionPlatform",
          "name": "",
          "type": "address"
        }
      ],
      "stateMutability": "view",
      "type": "function"
    },
    {
      "inputs": [
        {
          "internalType": "address",
          "name": "from",
          "type": "address"
        },
        {
          "internalType": "address",
          "name": "to",
          "type": "address"
        },
        {
          "internalType": "uint256",
          "name": "tokenId",
          "type": "uint256"
        }
      ],
      "name": "safeTransferFrom",
      "outputs": [],
      "stateMutability": "nonpayable",
      "type": "function"
    },
    {
      "inputs": [
        {
          "internalType": "address",
          "name": "from",
          "type": "address"
        },
        {
          "internalType": "address",
          "name": "to",
          "type": "address"
        },
        {
          "internalType": "uint256",
          "name": "tokenId",
          "type": "uint256"
        },
        {
          "internalType": "bytes",
          "name": "_data",
          "type": "bytes"
        }
      ],
      "name": "safeTransferFrom",
      "outputs": [],
      "stateMutability": "nonpayable",
      "type": "function"
    },
    {
      "inputs": [
        {
          "internalType": "address",
          "name": "operator",
          "type": "address"
        },
        {
          "internalType": "bool",
          "name": "approved",
          "type": "bool"
        }
      ],
      "name": "setApprovalForAll",
      "outputs": [],
      "stateMutability": "nonpayable",
      "type": "function"
    },
    {
      "inputs": [
        {
          "internalType": "address payable",
          "name": "_creator",
          "type": "address"
        }
      ],
      "name": "setCreator",
      "outputs": [],
      "stateMutability": "nonpayable",
      "type": "function"
    },
    {
      "inputs": [
        {
          "internalType": "address",
          "name": "_robocup",
          "type": "address"
        }
      ],
      "name": "setRobocup",
      "outputs": [],
      "stateMutability": "nonpayable",
      "type": "function"
    },
    {
      "inputs": [],
      "name": "stepMintPrice",
      "outputs": [
        {
          "internalType": "uint256",
          "name": "",
          "type": "uint256"
        }
      ],
      "stateMutability": "view",
      "type": "function"
    },
    {
      "inputs": [
        {
          "internalType": "bytes4",
          "name": "interfaceId",
          "type": "bytes4"
        }
      ],
      "name": "supportsInterface",
      "outputs": [
        {
          "internalType": "bool",
          "name": "",
          "type": "bool"
        }
      ],
      "stateMutability": "view",
      "type": "function"
    },
    {
      "inputs": [],
      "name": "symbol",
      "outputs": [
        {
          "internalType": "string",
          "name": "",
          "type": "string"
        }
      ],
      "stateMutability": "view",
      "type": "function"
    },
    {
      "inputs": [
        {
          "internalType": "uint256",
          "name": "index",
          "type": "uint256"
        }
      ],
      "name": "tokenByIndex",
      "outputs": [
        {
          "internalType": "uint256",
          "name": "",
          "type": "uint256"
        }
      ],
      "stateMutability": "view",
      "type": "function"
    },
    {
      "inputs": [
        {
          "internalType": "address",
          "name": "owner",
          "type": "address"
        },
        {
          "internalType": "uint256",
          "name": "index",
          "type": "uint256"
        }
      ],
      "name": "tokenOfOwnerByIndex",
      "outputs": [
        {
          "internalType": "uint256",
          "name": "",
          "type": "uint256"
        }
      ],
      "stateMutability": "view",
      "type": "function"
    },
    {
      "inputs": [
        {
          "internalType": "uint256",
          "name": "tokenId",
          "type": "uint256"
        }
      ],
      "name": "tokenURI",
      "outputs": [
        {
          "internalType": "string",
          "name": "",
          "type": "string"
        }
      ],
      "stateMutability": "view",
      "type": "function"
    },
    {
      "inputs": [],
      "name": "totalEverMinted",
      "outputs": [
        {
          "internalType": "uint256",
          "name": "",
          "type": "uint256"
        }
      ],
      "stateMutability": "view",
      "type": "function"
    },
    {
      "inputs": [],
      "name": "totalSupply",
      "outputs": [
        {
          "internalType": "uint256",
          "name": "",
          "type": "uint256"
        }
      ],
      "stateMutability": "view",
      "type": "function"
    },
    {
      "inputs": [
        {
          "internalType": "address",
          "name": "from",
          "type": "address"
        },
        {
          "internalType": "address",
          "name": "to",
          "type": "address"
        },
        {
          "internalType": "uint256",
          "name": "tokenId",
          "type": "uint256"
        }
      ],
      "name": "transferFrom",
      "outputs": [],
      "stateMutability": "nonpayable",
      "type": "function"
    },
    {
      "inputs": [
        {
          "internalType": "address",
          "name": "newOwner",
          "type": "address"
        }
      ],
      "name": "transferOwnership",
      "outputs": [],
      "stateMutability": "nonpayable",
      "type": "function"
    },
    {
      "inputs": [
        {
          "internalType": "uint256",
          "name": "_programId",
          "type": "uint256"
        },
        {
          "internalType": "uint256",
          "name": "_robotId",
          "type": "uint256"
        }
      ],
      "name": "unbindProgramFromRobot",
      "outputs": [],
      "stateMutability": "nonpayable",
      "type": "function"
    }
  ],
  "bytecode": "0x60096102c0818152682bb0b93430b6b6b2b960b91b6102e0526080908152600c6103009081526b28bab0b93a32b939ba30b33360a11b6103205260a05260046103408181526313585d5b60e21b6103605260c052610380818152634d61636560e01b6103a05260e0526103c08181526321b63ab160e11b6103e052610100526006610400908152654b6174616e6160d01b61042052610120526008610440818152672330b631b434b7b760c11b61046052610140526104808181526729b1b4b6b4ba30b960c11b6104a05261016052600a6104c081815269131bdb99c814dddbdc9960b21b6104e05261018052600b6105009081526a14da1bdc9d0814dddbdc9960aa1b610520526101a0526105408181526911da1bdcdd0815d85b9960b21b610560526101c0526105809081526911dc985d994815d85b9960b21b6105a0526101e0526105c084815268109bdb994815d85b9960ba1b6105e052610200526106008281526315d85b9960e21b6106205261022052610640908152674772696d6f69726560c01b6106605261024052610680928352684368726f6e69636c6560b81b6106a052610260929092526106c082815263546f6d6560e01b6106e0526102805261074060405261070091825263426f6f6b60e01b610720526102a091909152620001f190600090601262001deb565b506040805161022081018252600b6101e082019081526a446976696e6520526f626560a81b61020083015281528151808301835260098082526853696c6b20526f626560b81b6020838101919091528084019290925283518085018552600a808252694c696e656e20526f626560b01b8285015284860191909152845180860186526004815263526f626560e01b81850152606085015284518086018652600581526414da1a5c9d60da1b818501526080850152845180860186528181526944656d6f6e204875736b60b01b8185015260a085015284518086018652601081526f223930b3b7b739b5b4b71020b936b7b960811b8185015260c085015284518086018652601581527f53747564646564204c6561746865722041726d6f7200000000000000000000008185015260e08501528451808601865260128152712430b932102632b0ba3432b91020b936b7b960711b8185015261010085015284518086018652600d81526c2632b0ba3432b91020b936b7b960991b8185015261012085015284518086018652600f8082526e486f6c79204368657374706c61746560881b828601526101408601919091528551808701875260118152704f726e617465204368657374706c61746560781b818601526101608601528551808701875282815269141b185d194813585a5b60b21b81860152610180860152855180870187529182526910da185a5b8813585a5b60b21b828501526101a0850191909152845180860190955290845268149a5b99c813585a5b60ba1b918401919091526101c082019290925262000448916001919062001e4f565b506040805161022081018252600c6101e082019081526b416e6369656e742048656c6d60a01b610200830152815281518083018352600b8082526a4f726e6174652048656c6d60a81b6020838101919091528084019290925283518085018552600a8082526947726561742048656c6d60b01b82850152848601919091528451808601865260098082526846756c6c2048656c6d60b81b8286015260608601919091528551808701875260048082526348656c6d60e01b828701526080870191909152865180880188528481526a2232b6b7b71021b937bbb760a91b8187015260a087015286518088018852600e81526d223930b3b7b713b99021b937bbb760911b8187015260c08701528651808801885260078152660576172204361760cc1b8187015260e0870152865180880188528481526a04c656174686572204361760ac1b8187015261010087015286518088018852600381526204361760ec1b8187015261012087015286518088018852600581526421b937bbb760d91b81870152610140870152865180880188529384526a111a5d9a5b9948121bdbd960aa1b84860152610160860193909352855180870187529081526814da5b1ac8121bdbd960ba1b818501526101808501528451808601865290815269131a5b995b88121bdbd960b21b818401526101a08401528351808501909452835263121bdbd960e21b908301526101c08101919091526200066790600290600f62001e4f565b506040805161022081018252600b6101e082018181526a13dc9b985d194810995b1d60aa1b610200840152825282518084018452600881526715d85c8810995b1d60c21b60208281019190915280840191909152835180850185529182526a141b185d19590810995b1d60aa1b82820152828401919091528251808401845260098082526813595cda0810995b1d60ba1b82840152606084019190915283518085018552600a808252691219585d9e4810995b1d60b21b82850152608085019190915284518086018652600e81526d11195b5bdb9a1a59194810995b1d60921b8185015260a085015284518086018652600f8082526e111c9859dbdb9cdada5b8810995b1d608a1b8286015260c086019190915285518087018752601481527f53747564646564204c6561746865722042656c740000000000000000000000008186015260e086015285518087018752601181527012185c99081319585d1a195c8810995b1d607a1b8186015261010086015285518087018752600c81526b1319585d1a195c8810995b1d60a21b81860152610120860152855180870187528181526e084e4d2ced0e8e6d2d8d640a6c2e6d608b1b8186015261014086015285518087018752838152680a6d2d8d640a6c2e6d60bb1b8186015261016086015285518087018752928352680aededed840a6c2e6d60bb1b838501526101808501929092528451808601865290815269098d2dccadc40a6c2e6d60b31b818401526101a0840152835180850190945260048452630a6c2e6d60e31b918401919091526101c0820192909252620008c0916003919062001e4f565b506040805161022081018252600c6101e082019081526b486f6c79204772656176657360a01b610200830152815281518083018352600e81526d4f726e617465204772656176657360901b602082810191909152808301919091528251808401845260078152664772656176657360c81b818301528284015282518084018452600b8082526a436861696e20426f6f747360a81b828401526060840191909152835180850185528181526a486561767920426f6f747360a81b81840152608084015283518085018552600f8082526e44656d6f6e6869646520426f6f747360881b8285015260a085019190915284518086018652601081526f447261676f6e736b696e20426f6f747360801b8185015260c085015284518086018652601581527f53747564646564204c65617468657220426f6f747300000000000000000000008185015260e085015284518086018652601281527148617264204c65617468657220426f6f747360701b8185015261010085015284518086018652600d8082526c4c65617468657220426f6f747360981b82860152610120860191909152855180870187528281526e446976696e6520536c69707065727360881b81860152610140860152855180870187529081526c53696c6b20536c69707065727360981b8185015261016085015284518086018652600a815269576f6f6c2053686f657360b01b81850152610180850152845180860186529182526a4c696e656e2053686f657360a81b828401526101a08401919091528351808501909452600584526453686f657360d81b918401919091526101c082019290925262000b28916004919062001e4f565b506040805161022081018252600e6101e082018181526d486f6c79204761756e746c65747360901b610200840152825282518084018452601081526f4f726e617465204761756e746c65747360801b602082810191909152808401919091528351808501855260098152684761756e746c65747360b81b818301528385015283518085018552600c8082526b436861696e20476c6f76657360a01b828401526060850191909152845180860186528181526b486561767920476c6f76657360a01b81840152608085015284518086018652600d8082526c44656d6f6e27732048616e647360981b8285015260a0860191909152855180870187526011815270447261676f6e736b696e20476c6f76657360781b8185015260c086015285518087018752601681527f53747564646564204c65617468657220476c6f766573000000000000000000008185015260e086015285518087018752601381527f48617264204c65617468657220476c6f7665730000000000000000000000000081850152610100860152855180870187529384526d4c65617468657220476c6f76657360901b84840152610120850193909352845180860186529283526c446976696e6520476c6f76657360981b8383015261014084019290925283518085018552600b8082526a53696c6b20476c6f76657360a81b82840152610160850191909152845180860186529081526a576f6f6c20476c6f76657360a81b81830152610180840152835180850185529182526b4c696e656e20476c6f76657360a01b828201526101a083019190915282518084019093526006835265476c6f76657360d01b908301526101c081019190915262000da590600590600f62001e4f565b506040805160a081018252600860608201908152674e65636b6c61636560c01b6080830152815281518083018352600680825265105b5d5b195d60d21b6020838101919091528084019290925283518085018552600781526614195b99185b9d60ca1b928101929092529282015262000e219190600362001ea1565b506040805160e081018252600960a0820190815268476f6c642052696e6760b81b60c0830152815281518083018352600b8082526a53696c7665722052696e6760a81b60208381019190915280840192909252835180850185529081526a42726f6e7a652052696e6760a81b818301528284015282518084018452600d8082526c506c6174696e756d2052696e6760981b828401526060840191909152835180850190945283526c546974616e69756d2052696e6760981b90830152608081019190915262000ef590600790600562001ef3565b506040518061020001604052806040518060400160405280600881526020016737b3102837bbb2b960c11b8152508152602001604051806040016040528060098152602001686f66204769616e747360b81b8152508152602001604051806040016040528060098152602001686f6620546974616e7360b81b8152508152602001604051806040016040528060088152602001671bd98814dada5b1b60c21b81525081526020016040518060400160405280600d81526020016c37b3102832b93332b1ba34b7b760991b81525081526020016040518060400160405280600d81526020016c6f66204272696c6c69616e636560981b81525081526020016040518060400160405280601081526020016f1bd988115b9b1a59da1d195b9b595b9d60821b81525081526020016040518060400160405280600d81526020016c37b310283937ba32b1ba34b7b760991b81525081526020016040518060400160405280600881526020016737b31020b733b2b960c11b8152508152602001604051806040016040528060078152602001666f66205261676560c81b8152508152602001604051806040016040528060078152602001666f66204675727960c81b81525081526020016040518060400160405280600a8152602001691bd988159a5d1c9a5bdb60b21b81525081526020016040518060400160405280600a8152602001690decc40e8d0ca408cdef60b31b81525081526020016040518060400160405280600c81526020016b37b3102232ba32b1ba34b7b760a11b81525081526020016040518060400160405280600d81526020016c37b3102932b33632b1ba34b7b760991b81525081526020016040518060400160405280600c81526020016b6f6620746865205477696e7360a01b81525081525060089060106200119a92919062001f45565b50604080516108e08101825260056108a082018181526441676f6e7960d81b6108c0840152825282518084018452600a8082526941706f63616c7970736560b01b60208381019190915280850192909252845180860186528181526920b936b0b3b2b23237b760b11b818401528486015284518086018652838152641099585cdd60da1b81840152606085015284518086018652600880825267084cad0cadadee8d60c31b82850152608086019190915285518087018752600680825265109b1a59da1d60d21b8286015260a08701919091528651808801885285815264109b1bdbd960da1b8186015260c0870152865180880188526007808252664272616d626c6560c81b8287015260e0880191909152875180890189526009808252684272696d73746f6e6560b81b828801526101008901919091528851808a018a5287815264109c9bdbd960da1b818801526101208901528851808a018a528281526621b0b93934b7b760c91b818801526101408901528851808a018a528181526843617461636c79736d60b81b818801526101608901528851808a018a52848152674368696d6572696360c01b818801526101808901528851808a018a5283815265436f7270736560d01b818801526101a08901528851808a018a528581526921b7b9393ab83a34b7b760b11b818801526101c08901528851808a018a52818152682230b6b730ba34b7b760b91b818801526101e08901528851808a018a5287815264088cac2e8d60db1b818801526102008901528851808a018a52878152642232b6b7b760d91b818801526102208901528851808a018a526004808252634469726560e01b828901526102408a01919091528951808b018b5284815265223930b3b7b760d11b818901526102608a01528951808b018b5288815264111c99585960da1b818901526102808a01528951808b018b5281815263446f6f6d60e01b818901526102a08a01528951808b018b52818152634475736b60e01b818901526102c08a01528951808b018b52888152644561676c6560d81b818901526102e08a01528951808b018b528581526722b6b83cb932b0b760c11b818901526103008a01528951808b018b52818152634661746560e01b818901526103208a01528951808b018b52600380825262466f6560e81b828a01526103408b01919091528a51808c018c528281526347616c6560e01b818a01526103608b01528a51808c018c528981526411da1bdd5b60da1b818a01526103808b01528a51808c018c5289815264476c6f6f6d60d81b818a01526103a08b01528a51808c018c528981526408ed8f2e0d60db1b818a01526103c08b01528a51808c018c5289815264476f6c656d60d81b818a01526103e08b01528a51808c018c52828152634772696d60e01b818a01526104008b01528a51808c018c52828152634861746560e01b818a01526104208b01528a51808c018c52898152644861766f6360d81b818a01526104408b01528a51808c018c52858152652437b737bab960d11b818a01526104608b01528a51808c018c52858152652437b93937b960d11b818a01526104808b01528a51808c018c52868152674879706e6f74696360c01b818a01526104a08b01528a51808c018c528581526525b930b5b2b760d11b818a01526104c08b01528a51808c018c5289815264098dec2e8d60db1b818a01526104e08b01528a51808c018c52838152684d61656c7374726f6d60b81b818a01526105008b01528a51808c018c5282815263135a5b9960e21b818a01526105208b01528a51808c018c52848152664d697261636c6560c81b818a01526105408b01528a51808c018c5285815265135bdc989a5960d21b818a01526105608b01528a51808c018c529586526727b13634bb34b7b760c11b868901526105808a01959095528951808b018b528281526813db9cdb185d59da1d60ba1b818901526105a08a01528951808b018b52818152632830b4b760e11b818901526105c08a01528951808b018b52600b81526a50616e64656d6f6e69756d60a81b818901526105e08a01528951808b018b52838152660a0d0decadcd2f60cb1b818901526106008a01528951808b018b5284815265506c6167756560d01b818901526106208a01528951808b018b52818152635261676560e01b818901526106408a01528951808b018b52838152665261707475726560c81b818901526106608a01528951808b018b528181526352756e6560e01b818901526106808a01528951808b018b528881526414dadd5b1b60da1b818901526106a08a01528951808b018b528581526214dbdb60ea1b818901526106c08a01528951808b018b529081526314dbdd5b60e21b818801526106e08901528851808a018a5283815265536f72726f7760d01b818801526107008901528851808a018a528381526514dc1a5c9a5d60d21b818801526107208901528851808a018a528781526453746f726d60d81b818801526107408901528851808a018a528281526615195b5c195cdd60ca1b818801526107608901528851808a018a5282815266151bdc9b595b9d60ca1b818801526107808901528851808a018a528181526856656e6765616e636560b81b818801526107a08901528851808a018a5282815266566963746f727960c81b818801526107c08901528851808a018a52878152642b34b832b960d91b818801526107e08901528851808a018a52928352650acdee4e8caf60d31b838701526108008801929092528751808901895292835262576f6560e81b8386015261082087019290925286518088018852948552640aee4c2e8d60db1b8585015261084086019490945285518087018752908152664c69676874277360c81b8184015261086085015284518086019095528452695368696d6d6572696e6760b01b90840152610880820192909252620019fe9190604562001f97565b506040805161028081018252600461024082018181526342616e6560e01b61026084015282528251808401845281815263149bdbdd60e21b6020828101919091528084019190915283518085018552828152634269746560e01b81830152838501528351808501855282815263536f6e6760e01b81830152606084015283518085018552828152632937b0b960e11b81830152608084015283518085018552600580825264047726173760dc1b8284015260a085019190915284518086018652600a80825269125b9cdd1c9d5b595b9d60b21b8285015260c08601919091528551808701875284815263476c6f7760e01b8185015260e0860152855180870187526006808252652132b73232b960d11b828601526101008701919091528651808801885290815265536861646f7760d01b818501526101208601528551808701875260078152662bb434b9b832b960c91b81850152610140860152855180870187528281526414da1bdd5d60da1b81850152610160860152855180870187529182526411dc9bdddb60da1b8284015261018085019190915284518086018652838152632a32b0b960e11b818401526101a085015284518086018652838152635065616b60e01b818401526101c08501528451808601865283815263466f726d60e01b818401526101e085015284518086018652600381526229bab760e91b8184015261020085015284518086019095529184526326b7b7b760e11b9084015261022082019290925262001c349190601262001deb565b50662386f26fc1000060165566071afd498d000060175566066517289880006018556000601a819055601b55604080516080810182526004818301908152634d616c6560e01b606083015281528151808301909252600682526546656d616c6560d01b6020838101919091528082019290925262001cb59190600262001fe9565b5034801562001cc357600080fd5b50604051620069173803806200691783398101604081905262001ce69162002140565b6040805180820182526005815264149bd89bdd60da1b6020808301918252835180850190945260038452621093d560ea1b90840152815191929162001d2e91600b916200203b565b50805162001d4490600c9060208401906200203b565b50505062001d6162001d5b62001d9560201b60201c565b62001d99565b60198054336001600160a01b031991821617909155601c80549091166001600160a01b0392909216919091179055620021af565b3390565b601580546001600160a01b038381166001600160a01b0319831681179093556040519116919082907f8be0079c531659141344cd1fd0a4f28419497f9722a3daafe3b4186f6b6457e090600090a35050565b82805482825590600052602060002090810192821562001e3d579160200282015b8281111562001e3d578251805162001e2c9184916020909101906200203b565b509160200191906001019062001e0c565b5062001e4b929150620020c6565b5090565b82805482825590600052602060002090810192821562001e3d579160200282015b8281111562001e3d578251805162001e909184916020909101906200203b565b509160200191906001019062001e70565b82805482825590600052602060002090810192821562001e3d579160200282015b8281111562001e3d578251805162001ee29184916020909101906200203b565b509160200191906001019062001ec2565b82805482825590600052602060002090810192821562001e3d579160200282015b8281111562001e3d578251805162001f349184916020909101906200203b565b509160200191906001019062001f14565b82805482825590600052602060002090810192821562001e3d579160200282015b8281111562001e3d578251805162001f869184916020909101906200203b565b509160200191906001019062001f66565b82805482825590600052602060002090810192821562001e3d579160200282015b8281111562001e3d578251805162001fd89184916020909101906200203b565b509160200191906001019062001fb8565b82805482825590600052602060002090810192821562001e3d579160200282015b8281111562001e3d57825180516200202a9184916020909101906200203b565b50916020019190600101906200200a565b828054620020499062002172565b90600052602060002090601f0160209004810192826200206d5760008555620020b8565b82601f106200208857805160ff1916838001178555620020b8565b82800160010185558215620020b8579182015b82811115620020b85782518255916020019190600101906200209b565b5062001e4b929150620020e7565b8082111562001e4b576000620020dd8282620020fe565b50600101620020c6565b5b8082111562001e4b5760008155600101620020e8565b5080546200210c9062002172565b6000825580601f106200211d575050565b601f0160209004906000526020600020908101906200213d9190620020e7565b50565b6000602082840312156200215357600080fd5b81516001600160a01b03811681146200216b57600080fd5b9392505050565b600181811c908216806200218757607f821691505b60208210811415620021a957634e487b7160e01b600052602260045260246000fd5b50919050565b61475880620021bf6000396000f3fe6080604052600436106102ae5760003560e01c806370a0823111610175578063b88d4fde116100dc578063d47f269e11610095578063f18b01ad1161006f578063f18b01ad146108a6578063f23a6e61146108c6578063f2fde38b1461090c578063f621dba71461092c57600080fd5b8063d47f269e1461081d578063e985e9c51461083d578063ef68075a1461088657600080fd5b8063b88d4fde14610726578063bad6aa7a14610746578063bc197c8114610766578063c08a5dd5146107c7578063c87b56dd146107e7578063cd3293de1461080757600080fd5b80639720c9691161012e5780639720c969146106665780639bdc1b69146106865780639e41b73f146106a6578063a0b87c5f146106c6578063a22cb465146106e6578063b80f55c91461070657600080fd5b806370a08231146105c8578063715018a6146105e8578063808c5e38146105fd5780638da5cb5b1461061d578063924808b41461063b57806395d89b411461065157600080fd5b80632e8ad69f116102195780634f6ccce7116101d25780634f6ccce7146105085780635312fdc2146105285780635826b033146105485780635d9be39a146105685780636352211e1461058857806367209aa8146105a857600080fd5b80632e8ad69f1461045d5780632f745c59146104735780633f5160181461049357806342842e0e146104b3578063482b760f146104d35780634f3e1efc146104f357600080fd5b80630e99990d1161026b5780630e99990d146103a45780631649229f146103c457806318160ddd146103e85780631b2ef1ca146103fd57806323b872dd1461041d5780632b7f4bad1461043d57600080fd5b806301ffc9a7146102b357806302d05d3f146102e857806306fdde0314610320578063081812fc14610342578063095ea7b31461036257806309804a9514610384575b600080fd5b3480156102bf57600080fd5b506102d36102ce366004613796565b610942565b60405190151581526020015b60405180910390f35b3480156102f457600080fd5b50601954610308906001600160a01b031681565b6040516001600160a01b0390911681526020016102df565b34801561032c57600080fd5b5061033561096d565b6040516102df919061380b565b34801561034e57600080fd5b5061030861035d36600461381e565b6109ff565b34801561036e57600080fd5b5061038261037d36600461384c565b610a99565b005b34801561039057600080fd5b506102d361039f366004613878565b610baf565b3480156103b057600080fd5b506103356103bf36600461381e565b610bce565b3480156103d057600080fd5b506103da60165481565b6040519081526020016102df565b3480156103f457600080fd5b506013546103da565b61041061040b366004613878565b610cc8565b6040516102df919061389a565b34801561042957600080fd5b506103826104383660046138de565b611065565b34801561044957600080fd5b50610382610458366004613878565b611096565b34801561046957600080fd5b506103da60185481565b34801561047f57600080fd5b506103da61048e36600461384c565b6112f4565b34801561049f57600080fd5b506103826104ae36600461391f565b61138a565b3480156104bf57600080fd5b506103826104ce3660046138de565b6113d6565b3480156104df57600080fd5b50601c54610308906001600160a01b031681565b3480156104ff57600080fd5b506103da6113f1565b34801561051457600080fd5b506103da61052336600461381e565b611401565b34801561053457600080fd5b5061033561054336600461381e565b611494565b34801561055457600080fd5b506103da61056336600461381e565b611585565b34801561057457600080fd5b50601f54610308906001600160a01b031681565b34801561059457600080fd5b506103086105a336600461381e565b611608565b3480156105b457600080fd5b506103356105c336600461381e565b61167f565b3480156105d457600080fd5b506103da6105e336600461391f565b611770565b3480156105f457600080fd5b506103826117f7565b34801561060957600080fd5b506103da61061836600461381e565b61182d565b34801561062957600080fd5b506015546001600160a01b0316610308565b34801561064757600080fd5b506103da601a5481565b34801561065d57600080fd5b50610335611838565b34801561067257600080fd5b5061033561068136600461381e565b611847565b34801561069257600080fd5b506103356106a136600461381e565b611938565b3480156106b257600080fd5b506103356106c136600461381e565b611a2a565b3480156106d257600080fd5b506103826106e1366004613878565b611b1d565b3480156106f257600080fd5b5061038261070136600461394a565b611d53565b34801561071257600080fd5b506103826107213660046139ca565b611d62565b34801561073257600080fd5b50610382610741366004613a70565b611f03565b34801561075257600080fd5b5061038261076136600461391f565b611f3b565b34801561077257600080fd5b506107ae610781366004613bc2565b7fc5d2460186f7233c927e7db2dcc703c0e500b653ca82273b7bfad8045d85a47098975050505050505050565b6040516001600160e01b031990911681526020016102df565b3480156107d357600080fd5b506103356107e236600461381e565b611f87565b3480156107f357600080fd5b5061033561080236600461381e565b612078565b34801561081357600080fd5b506103da601b5481565b34801561082957600080fd5b5061033561083836600461381e565b61237c565b34801561084957600080fd5b506102d3610858366004613c81565b6001600160a01b03918216600090815260106020908152604080832093909416825291909152205460ff1690565b34801561089257600080fd5b506103356108a136600461381e565b61246d565b3480156108b257600080fd5b506103da6108c136600461381e565b61255f565b3480156108d257600080fd5b506107ae6108e1366004613caf565b7ff23a6e612e1ff4830e658fe43f4e3cb4a5f8170bd5d9e69fb5d7a7fa9e4fdf979695505050505050565b34801561091857600080fd5b5061038261092736600461391f565b6125b1565b34801561093857600080fd5b506103da60175481565b60006001600160e01b0319821663780e9d6360e01b148061096757506109678261264c565b92915050565b6060600b805461097c90613d2b565b80601f01602080910402602001604051908101604052809291908181526020018280546109a890613d2b565b80156109f55780601f106109ca576101008083540402835291602001916109f5565b820191906000526020600020905b8154815290600101906020018083116109d857829003601f168201915b5050505050905090565b6000818152600d60205260408120546001600160a01b0316610a7d5760405162461bcd60e51b815260206004820152602c60248201527f4552433732313a20617070726f76656420717565727920666f72206e6f6e657860448201526b34b9ba32b73a103a37b5b2b760a11b60648201526084015b60405180910390fd5b506000908152600f60205260409020546001600160a01b031690565b6000610aa482611608565b9050806001600160a01b0316836001600160a01b03161415610b125760405162461bcd60e51b815260206004820152602160248201527f4552433732313a20617070726f76616c20746f2063757272656e74206f776e656044820152603960f91b6064820152608401610a74565b336001600160a01b0382161480610b2e5750610b2e8133610858565b610ba05760405162461bcd60e51b815260206004820152603860248201527f4552433732313a20617070726f76652063616c6c6572206973206e6f74206f7760448201527f6e6572206e6f7220617070726f76656420666f7220616c6c00000000000000006064820152608401610a74565b610baa838361269c565b505050565b6000828152601d60205260408120610bc7908361270a565b9392505050565b606061096782604051806040016040528060048152602001631193d3d560e21b8152506004805480602002602001604051908101604052809291908181526020016000905b82821015610cbf578382906000526020600020018054610c3290613d2b565b80601f0160208091040260200160405190810160405280929190818152602001828054610c5e90613d2b565b8015610cab5780601f10610c8057610100808354040283529160200191610cab565b820191906000526020600020905b815481529060010190602001808311610c8e57829003601f168201915b505050505081526020019060010190610c13565b50505050612722565b6060333214610d0b5760405162461bcd60e51b815260206004820152600f60248201526e526f626f743a206f6e6c7920454f4160881b6044820152606401610a74565b60008311610d6c5760405162461bcd60e51b815260206004820152602860248201527f526f626f743a205f616d6f756e74206d757374206265206c617267657220746860448201526730b7103d32b9379760c11b6064820152608401610a74565b6000610d78600161255f565b905082811115610ddd5760405162461bcd60e51b815260206004820152602a60248201527f526f626f743a20507269636520646f6573204e4f54206d6174636820796f75726044820152691032bc3832b1ba32b21760b11b6064820152608401610a74565b600084600114610df557610df08561255f565b610df7565b815b905080341015610e495760405162461bcd60e51b815260206004820152601a60248201527f526f626f743a204e6f7420656e6f756768204554482073656e740000000000006044820152606401610a74565b8467ffffffffffffffff811115610e6257610e62613983565b604051908082528060200260200182016040528015610e8b578160200160208202803683370190505b50925060005b85811015610f65576000601a544233604051602001610ed593929190928352602083019190915260601b6bffffffffffffffffffffffff1916604082015260540190565b6040516020818303038152906040528051906020012090508060001c63ffffffff16858381518110610f0957610f09613d66565b602002602001018181525050610f3833868481518110610f2b57610f2b613d66565b60200260200101516129fb565b6001601a6000828254610f4b9190613d92565b90915550829150610f5d905081613daa565b915050610e91565b506000610f718661182d565b601b54909150610f819082612b49565b601b556019546001600160a01b03166108fc610f9d8484612b55565b6040518115909202916000818181858888f19350505050158015610fc5573d6000803e3d6000fd5b506000610fd23484612b55565b111561101057336108fc610fe63485612b55565b6040518115909202916000818181858888f1935050505015801561100e573d6000803e3d6000fd5b505b601b5482856040516110229190613dc5565b604051908190038120898252907ff5705be7282ecd6328040667ea73761f5120f58ecefc8ee9b4145bf14d9a52709060200160405180910390a450505092915050565b61106f3382612b61565b61108b5760405162461bcd60e51b8152600401610a7490613dfb565b610baa838383612c58565b61109f81611608565b6001600160a01b0316336001600160a01b0316146110ff5760405162461bcd60e51b815260206004820152601e60248201527f526f626f743a20726f626f74204e4f542062656c6f6e6720746f20796f7500006044820152606401610a74565b6000818152601d60205260409020611117908361270a565b61117b5760405162461bcd60e51b815260206004820152602f60248201527f526f626f743a207468652070726f6772616d20686173204e4f54206265656e2060448201526e189bdd5b99081d1a19481c9bd89bdd608a1b6064820152608401610a74565b601f546040516309804a9560e01b815260048101839052602481018490526001600160a01b03909116906309804a9590604401602060405180830381865afa1580156111cb573d6000803e3d6000fd5b505050506040513d601f19601f820116820180604052508101906111ef9190613e4c565b1561125a57601f54604051630e62311560e31b815260048101839052602481018490526001600160a01b039091169063731188a890604401600060405180830381600087803b15801561124157600080fd5b505af1158015611255573d6000803e3d6000fd5b505050505b601c54604051637921219560e11b81526001600160a01b039091169063f242432a9061129190309033908790600190600401613e69565b600060405180830381600087803b1580156112ab57600080fd5b505af11580156112bf573d6000803e3d6000fd5b5050506000828152601d602052604090206112db915083612e03565b506000828152601e60205260409020610baa9082612e03565b60006112ff83611770565b82106113615760405162461bcd60e51b815260206004820152602b60248201527f455243373231456e756d657261626c653a206f776e657220696e646578206f7560448201526a74206f6620626f756e647360a81b6064820152608401610a74565b506001600160a01b03919091166000908152601160209081526040808320938352929052205490565b6015546001600160a01b031633146113b45760405162461bcd60e51b8152600401610a7490613ea1565b601980546001600160a01b0319166001600160a01b0392909216919091179055565b610baa83838360405180602001604052806000815250611f03565b60006113fc60135490565b905090565b600061140c60135490565b821061146f5760405162461bcd60e51b815260206004820152602c60248201527f455243373231456e756d657261626c653a20676c6f62616c20696e646578206f60448201526b7574206f6620626f756e647360a01b6064820152608401610a74565b6013828154811061148257611482613d66565b90600052602060002001549050919050565b60606109678260405180604001604052806004815260200163524f4c4560e01b8152506020805480602002602001604051908101604052809291908181526020016000905b82821015610cbf5783829060005260206000200180546114f890613d2b565b80601f016020809104026020016040519081016040528092919081815260200182805461152490613d2b565b80156115715780601f1061154657610100808354040283529160200191611571565b820191906000526020600020905b81548152906001019060200180831161155457829003601f168201915b5050505050815260200190600101906114d9565b6000806115906113f1565b9050806115a05750600092915050565b6000805b848110156116005760006115de6115d5601854846001886115c59190613ed6565b6115cf9190613ed6565b90612e0f565b60165490612b49565b90506115ea8382612b49565b92505080806115f890613daa565b9150506115a4565b509392505050565b6000818152600d60205260408120546001600160a01b0316806109675760405162461bcd60e51b815260206004820152602960248201527f4552433732313a206f776e657220717565727920666f72206e6f6e657869737460448201526832b73a103a37b5b2b760b91b6064820152608401610a74565b606061096782604051806040016040528060048152602001634e45434b60e01b8152506006805480602002602001604051908101604052809291908181526020016000905b82821015610cbf5783829060005260206000200180546116e390613d2b565b80601f016020809104026020016040519081016040528092919081815260200182805461170f90613d2b565b801561175c5780601f106117315761010080835404028352916020019161175c565b820191906000526020600020905b81548152906001019060200180831161173f57829003601f168201915b5050505050815260200190600101906116c4565b60006001600160a01b0382166117db5760405162461bcd60e51b815260206004820152602a60248201527f4552433732313a2062616c616e636520717565727920666f7220746865207a65604482015269726f206164647265737360b01b6064820152608401610a74565b506001600160a01b03166000908152600e602052604090205490565b6015546001600160a01b031633146118215760405162461bcd60e51b8152600401610a7490613ea1565b61182b6000612e1b565b565b600061096782611585565b6060600c805461097c90613d2b565b606061096782604051806040016040528060048152602001631211505160e21b8152506002805480602002602001604051908101604052809291908181526020016000905b82821015610cbf5783829060005260206000200180546118ab90613d2b565b80601f01602080910402602001604051908101604052809291908181526020018280546118d790613d2b565b80156119245780601f106118f957610100808354040283529160200191611924565b820191906000526020600020905b81548152906001019060200180831161190757829003601f168201915b50505050508152602001906001019061188c565b6060610967826040518060400160405280600581526020016415d05254d560da1b8152506003805480602002602001604051908101604052809291908181526020016000905b82821015610cbf57838290600052602060002001805461199d90613d2b565b80601f01602080910402602001604051908101604052809291908181526020018280546119c990613d2b565b8015611a165780601f106119eb57610100808354040283529160200191611a16565b820191906000526020600020905b8154815290600101906020018083116119f957829003601f168201915b50505050508152602001906001019061197e565b606061096782604051806040016040528060068152602001652ba2a0a827a760d11b8152506000805480602002602001604051908101604052809291908181526020016000905b82821015610cbf578382906000526020600020018054611a9090613d2b565b80601f0160208091040260200160405190810160405280929190818152602001828054611abc90613d2b565b8015611b095780601f10611ade57610100808354040283529160200191611b09565b820191906000526020600020905b815481529060010190602001808311611aec57829003601f168201915b505050505081526020019060010190611a71565b601c54604051627eeac760e11b8152336004820152602481018490526000916001600160a01b03169062fdd58e90604401602060405180830381865afa158015611b6b573d6000803e3d6000fd5b505050506040513d601f19601f82011682018060405250810190611b8f9190613eed565b11611bdc5760405162461bcd60e51b815260206004820152601a60248201527f526f626f743a20796f752068617665206e6f2070726f6772616d0000000000006044820152606401610a74565b611be581611608565b6001600160a01b0316336001600160a01b031614611c455760405162461bcd60e51b815260206004820152601e60248201527f526f626f743a20726f626f74204e4f542062656c6f6e6720746f20796f7500006044820152606401610a74565b6000818152601d60205260409020611c5d908361270a565b15611cb95760405162461bcd60e51b815260206004820152602660248201527f526f626f743a2074686520726f626f742068617320626f756e64207468652070604482015265726f6772616d60d01b6064820152608401610a74565b601c54604051637921219560e11b81526001600160a01b039091169063f242432a90611cf090339030908790600190600401613e69565b600060405180830381600087803b158015611d0a57600080fd5b505af1158015611d1e573d6000803e3d6000fd5b5050506000828152601d60205260409020611d3a915083612e6d565b506000828152601e60205260409020610baa9082612e6d565b611d5e338383612e79565b5050565b333214611da35760405162461bcd60e51b815260206004820152600f60248201526e526f626f743a206f6e6c7920454f4160881b6044820152606401610a74565b6000611daf8251611585565b905060005b8251811015611e7357611ddf838281518110611dd257611dd2613d66565b6020026020010151611608565b6001600160a01b0316336001600160a01b031614611e3f5760405162461bcd60e51b815260206004820152601c60248201527f526f626f743a204e6f742074686520636f7272656374206f776e6572000000006044820152606401610a74565b611e61838281518110611e5457611e54613d66565b6020026020010151612f48565b80611e6b81613daa565b915050611db4565b50601b54611e819082612b55565b601b55604051339082156108fc029083906000818181858888f19350505050158015611eb1573d6000803e3d6000fd5b50601b548183604051611ec49190613dc5565b60405190819003812085518252907fc4f0ab9a1e75e794af20b71e07383c194780132094987b97038b2a274a5352dd9060200160405180910390a45050565b611f0d3383612b61565b611f295760405162461bcd60e51b8152600401610a7490613dfb565b611f3584848484612fef565b50505050565b6015546001600160a01b03163314611f655760405162461bcd60e51b8152600401610a7490613ea1565b601f80546001600160a01b0319166001600160a01b0392909216919091179055565b6060610967826040518060400160405280600481526020016352494e4760e01b8152506007805480602002602001604051908101604052809291908181526020016000905b82821015610cbf578382906000526020600020018054611feb90613d2b565b80601f016020809104026020016040519081016040528092919081815260200182805461201790613d2b565b80156120645780601f1061203957610100808354040283529160200191612064565b820191906000526020600020905b81548152906001019060200180831161204757829003601f168201915b505050505081526020019060010190611fcc565b606061208261373f565b60405180610120016040528060fd815260200161456c60fd913981526120a783611a2a565b81600160200201819052506040518060600160405280602881526020016146d26028913960408201526120d98361246d565b60608083019190915260408051918201905260288082526144a16020830139608082015261210683611847565b60a08201526040805160608101909152602880825261451b602083013960c082015261213183611938565b60e082015260408051606081019091526029808252614543602083013961010082015261215d83610bce565b610120820152604080516060810190915260298082526144f2602083013961014082015261218a8361237c565b6101608201526040805160608101909152602980825261466960208301396101808201526121b78361167f565b6101a0820152604080516060810190915260298082526144c960208301396101c08201526121e483611f87565b6101e0820152604080516060810190915260298082526146fa602083013961020082015261221183611494565b610220820152604080518082018252600d81526c1e17ba32bc3a1f1e17b9bb339f60991b602080830191909152610240840191909152825181840151838501516060860151608087015160a088015160c089015160e08a01516101008b0151995160009a6122819a909101613f06565b60408051808303601f19018152908290526101208401516101408501516101608601516101808701516101a08801516101c08901516101e08a01516102008b01519799506122d4988a9890602001613f06565b60408051808303601f190181529082905261022084015161024085015191935061230392849290602001613fc7565b6040516020818303038152906040529050600061235061232286613022565b61232b84613120565b60405160200161233c92919061400a565b604051602081830303815290604052613120565b9050806040516020016123639190614145565b60408051601f1981840301815291905295945050505050565b606061096782604051806040016040528060048152602001631210539160e21b8152506005805480602002602001604051908101604052809291908181526020016000905b82821015610cbf5783829060005260206000200180546123e090613d2b565b80601f016020809104026020016040519081016040528092919081815260200182805461240c90613d2b565b80156124595780601f1061242e57610100808354040283529160200191612459565b820191906000526020600020905b81548152906001019060200180831161243c57829003601f168201915b5050505050815260200190600101906123c1565b6060610967826040518060400160405280600581526020016410d21154d560da1b8152506001805480602002602001604051908101604052809291908181526020016000905b82821015610cbf5783829060005260206000200180546124d290613d2b565b80601f01602080910402602001604051908101604052809291908181526020018280546124fe90613d2b565b801561254b5780601f106125205761010080835404028352916020019161254b565b820191906000526020600020905b81548152906001019060200180831161252e57829003601f168201915b5050505050815260200190600101906124b3565b60008061256a6113f1565b90506000805b8481101561160057600061258f6115d560175484876115cf9190613d92565b905061259b8382612b49565b92505080806125a990613daa565b915050612570565b6015546001600160a01b031633146125db5760405162461bcd60e51b8152600401610a7490613ea1565b6001600160a01b0381166126405760405162461bcd60e51b815260206004820152602660248201527f4f776e61626c653a206e6577206f776e657220697320746865207a65726f206160448201526564647265737360d01b6064820152608401610a74565b61264981612e1b565b50565b60006001600160e01b031982166380ac58cd60e01b148061267d57506001600160e01b03198216635b5e139f60e01b145b8061096757506301ffc9a760e01b6001600160e01b0319831614610967565b6000818152600f6020526040902080546001600160a01b0319166001600160a01b03841690811790915581906126d182611608565b6001600160a01b03167f8c5be1e5ebec7d5bd14f71427d1e84f3dd0314c0f7b2291e5b200ac8c7c3b92560405160405180910390a45050565b60008181526001830160205260408120541515610bc7565b606060006127588461273387613022565b60405160200161274492919061418a565b604051602081830303815290604052613286565b905060008384518361276a91906141cf565b8151811061277a5761277a613d66565b60200260200101519050600060158361279391906141cf565b9050600e8111156127ec57600880548391906127af90866141cf565b815481106127bf576127bf613d66565b906000526020600020016040516020016127da9291906141e3565b60405160208183030381529060405291505b601381106129f1576127fc613767565b6009805461280a90866141cf565b8154811061281a5761281a613d66565b90600052602060002001805461282f90613d2b565b80601f016020809104026020016040519081016040528092919081815260200182805461285b90613d2b565b80156128a85780601f1061287d576101008083540402835291602001916128a8565b820191906000526020600020905b81548152906001019060200180831161288b57829003601f168201915b5050505050816000600281106128c0576128c0613d66565b6020020152600a80546128d390866141cf565b815481106128e3576128e3613d66565b9060005260206000200180546128f890613d2b565b80601f016020809104026020016040519081016040528092919081815260200182805461292490613d2b565b80156129715780601f1061294657610100808354040283529160200191612971565b820191906000526020600020905b81548152906001019060200180831161295457829003601f168201915b50505050508160016002811061298957612989613d66565b602002015260138214156129c55780516020808301516040516129af93928791016142a3565b60405160208183030381529060405292506129ef565b80516020808301516040516129dd9392879101614311565b60405160208183030381529060405292505b505b5095945050505050565b6001600160a01b038216612a515760405162461bcd60e51b815260206004820181905260248201527f4552433732313a206d696e7420746f20746865207a65726f20616464726573736044820152606401610a74565b6000818152600d60205260409020546001600160a01b031615612ab65760405162461bcd60e51b815260206004820152601c60248201527f4552433732313a20746f6b656e20616c7265616479206d696e746564000000006044820152606401610a74565b612ac2600083836132b7565b6001600160a01b0382166000908152600e60205260408120805460019290612aeb908490613d92565b90915550506000818152600d602052604080822080546001600160a01b0319166001600160a01b03861690811790915590518392907fddf252ad1be2c89b69c2b068fc378daa952ba7f163c4a11628f55a4df523b3ef908290a45050565b6000610bc78284613d92565b6000610bc78284613ed6565b6000818152600d60205260408120546001600160a01b0316612bda5760405162461bcd60e51b815260206004820152602c60248201527f4552433732313a206f70657261746f7220717565727920666f72206e6f6e657860448201526b34b9ba32b73a103a37b5b2b760a11b6064820152608401610a74565b6000612be583611608565b9050806001600160a01b0316846001600160a01b03161480612c205750836001600160a01b0316612c15846109ff565b6001600160a01b0316145b80612c5057506001600160a01b0380821660009081526010602090815260408083209388168352929052205460ff165b949350505050565b826001600160a01b0316612c6b82611608565b6001600160a01b031614612cd35760405162461bcd60e51b815260206004820152602960248201527f4552433732313a207472616e73666572206f6620746f6b656e2074686174206960448201526839903737ba1037bbb760b91b6064820152608401610a74565b6001600160a01b038216612d355760405162461bcd60e51b8152602060048201526024808201527f4552433732313a207472616e7366657220746f20746865207a65726f206164646044820152637265737360e01b6064820152608401610a74565b612d408383836132b7565b612d4b60008261269c565b6001600160a01b0383166000908152600e60205260408120805460019290612d74908490613ed6565b90915550506001600160a01b0382166000908152600e60205260408120805460019290612da2908490613d92565b90915550506000818152600d602052604080822080546001600160a01b0319166001600160a01b0386811691821790925591518493918716917fddf252ad1be2c89b69c2b068fc378daa952ba7f163c4a11628f55a4df523b3ef91a4505050565b6000610bc7838361336f565b6000610bc7828461438f565b601580546001600160a01b038381166001600160a01b0319831681179093556040519116919082907f8be0079c531659141344cd1fd0a4f28419497f9722a3daafe3b4186f6b6457e090600090a35050565b6000610bc78383613462565b816001600160a01b0316836001600160a01b03161415612edb5760405162461bcd60e51b815260206004820152601960248201527f4552433732313a20617070726f766520746f2063616c6c6572000000000000006044820152606401610a74565b6001600160a01b03838116600081815260106020908152604080832094871680845294825291829020805460ff191686151590811790915591519182527f17307eab39ab6107e8899845ad3d59bd9653f200f220920489ca2b5937696c31910160405180910390a3505050565b6000612f5382611608565b9050612f61816000846132b7565b612f6c60008361269c565b6001600160a01b0381166000908152600e60205260408120805460019290612f95908490613ed6565b90915550506000828152600d602052604080822080546001600160a01b0319169055518391906001600160a01b038416907fddf252ad1be2c89b69c2b068fc378daa952ba7f163c4a11628f55a4df523b3ef908390a45050565b612ffa848484612c58565b613006848484846134b1565b611f355760405162461bcd60e51b8152600401610a74906143ae565b6060816130465750506040805180820190915260018152600360fc1b602082015290565b8160005b8115613070578061305a81613daa565b91506130699050600a83614400565b915061304a565b60008167ffffffffffffffff81111561308b5761308b613983565b6040519080825280601f01601f1916602001820160405280156130b5576020820181803683370190505b5090505b8415612c50576130ca600183613ed6565b91506130d7600a866141cf565b6130e2906030613d92565b60f81b8183815181106130f7576130f7613d66565b60200101906001600160f81b031916908160001a905350613119600a86614400565b94506130b9565b805160609080613140575050604080516020810190915260008152919050565b6000600361314f836002613d92565b6131599190614400565b61316490600461438f565b90506000613173826020613d92565b67ffffffffffffffff81111561318b5761318b613983565b6040519080825280601f01601f1916602001820160405280156131b5576020820181803683370190505b5090506000604051806060016040528060408152602001614692604091399050600181016020830160005b86811015613241576003818a01810151603f601282901c8116860151600c83901c8216870151600684901c831688015192909316870151600891821b60ff94851601821b92841692909201901b91160160e01b8352600490920191016131e0565b50600386066001811461325b576002811461326c57613278565b613d3d60f01b600119830152613278565b603d60f81b6000198301525b505050918152949350505050565b6000816040516020016132999190614414565b60408051601f19818403018152919052805160209091012092915050565b6001600160a01b0383166133125761330d81601380546000838152601460205260408120829055600182018355919091527f66de8ffda797e3de9c05e8fc57b3bf0ec28a930d40b0d285d93c06501cf6a0900155565b613335565b816001600160a01b0316836001600160a01b0316146133355761333583826135af565b6001600160a01b03821661334c57610baa8161364c565b826001600160a01b0316826001600160a01b031614610baa57610baa82826136fb565b60008181526001830160205260408120548015613458576000613393600183613ed6565b85549091506000906133a790600190613ed6565b905081811461340c5760008660000182815481106133c7576133c7613d66565b90600052602060002001549050808760000184815481106133ea576133ea613d66565b6000918252602080832090910192909255918252600188019052604090208390555b855486908061341d5761341d614430565b600190038181906000526020600020016000905590558560010160008681526020019081526020016000206000905560019350505050610967565b6000915050610967565b60008181526001830160205260408120546134a957508154600181810184556000848152602080822090930184905584548482528286019093526040902091909155610967565b506000610967565b60006001600160a01b0384163b156135a457604051630a85bd0160e11b81526001600160a01b0385169063150b7a02906134f5903390899088908890600401614446565b6020604051808303816000875af1925050508015613530575060408051601f3d908101601f1916820190925261352d91810190614483565b60015b61358a573d80801561355e576040519150601f19603f3d011682016040523d82523d6000602084013e613563565b606091505b5080516135825760405162461bcd60e51b8152600401610a74906143ae565b805181602001fd5b6001600160e01b031916630a85bd0160e11b149050612c50565b506001949350505050565b600060016135bc84611770565b6135c69190613ed6565b600083815260126020526040902054909150808214613619576001600160a01b03841660009081526011602090815260408083208584528252808320548484528184208190558352601290915290208190555b5060009182526012602090815260408084208490556001600160a01b039094168352601181528383209183525290812055565b60135460009061365e90600190613ed6565b6000838152601460205260408120546013805493945090928490811061368657613686613d66565b9060005260206000200154905080601383815481106136a7576136a7613d66565b60009182526020808320909101929092558281526014909152604080822084905585825281205560138054806136df576136df614430565b6001900381819060005260206000200160009055905550505050565b600061370683611770565b6001600160a01b039093166000908152601160209081526040808320868452825280832085905593825260129052919091209190915550565b6040518061026001604052806013905b606081526020019060019003908161374f5790505090565b604080518082019091526060815260016020820161374f565b6001600160e01b03198116811461264957600080fd5b6000602082840312156137a857600080fd5b8135610bc781613780565b60005b838110156137ce5781810151838201526020016137b6565b83811115611f355750506000910152565b600081518084526137f78160208601602086016137b3565b601f01601f19169290920160200192915050565b602081526000610bc760208301846137df565b60006020828403121561383057600080fd5b5035919050565b6001600160a01b038116811461264957600080fd5b6000806040838503121561385f57600080fd5b823561386a81613837565b946020939093013593505050565b6000806040838503121561388b57600080fd5b50508035926020909101359150565b6020808252825182820181905260009190848201906040850190845b818110156138d2578351835292840192918401916001016138b6565b50909695505050505050565b6000806000606084860312156138f357600080fd5b83356138fe81613837565b9250602084013561390e81613837565b929592945050506040919091013590565b60006020828403121561393157600080fd5b8135610bc781613837565b801515811461264957600080fd5b6000806040838503121561395d57600080fd5b823561396881613837565b915060208301356139788161393c565b809150509250929050565b634e487b7160e01b600052604160045260246000fd5b604051601f8201601f1916810167ffffffffffffffff811182821017156139c2576139c2613983565b604052919050565b600060208083850312156139dd57600080fd5b823567ffffffffffffffff808211156139f557600080fd5b818501915085601f830112613a0957600080fd5b813581811115613a1b57613a1b613983565b8060051b9150613a2c848301613999565b8181529183018401918481019088841115613a4657600080fd5b938501935b83851015613a6457843582529385019390850190613a4b565b98975050505050505050565b60008060008060808587031215613a8657600080fd5b8435613a9181613837565b9350602085810135613aa281613837565b935060408601359250606086013567ffffffffffffffff80821115613ac657600080fd5b818801915088601f830112613ada57600080fd5b813581811115613aec57613aec613983565b613afe601f8201601f19168501613999565b91508082528984828501011115613b1457600080fd5b808484018584013760008482840101525080935050505092959194509250565b60008083601f840112613b4657600080fd5b50813567ffffffffffffffff811115613b5e57600080fd5b6020830191508360208260051b8501011115613b7957600080fd5b9250929050565b60008083601f840112613b9257600080fd5b50813567ffffffffffffffff811115613baa57600080fd5b602083019150836020828501011115613b7957600080fd5b60008060008060008060008060a0898b031215613bde57600080fd5b8835613be981613837565b97506020890135613bf981613837565b9650604089013567ffffffffffffffff80821115613c1657600080fd5b613c228c838d01613b34565b909850965060608b0135915080821115613c3b57600080fd5b613c478c838d01613b34565b909650945060808b0135915080821115613c6057600080fd5b50613c6d8b828c01613b80565b999c989b5096995094979396929594505050565b60008060408385031215613c9457600080fd5b8235613c9f81613837565b9150602083013561397881613837565b60008060008060008060a08789031215613cc857600080fd5b8635613cd381613837565b95506020870135613ce381613837565b94506040870135935060608701359250608087013567ffffffffffffffff811115613d0d57600080fd5b613d1989828a01613b80565b979a9699509497509295939492505050565b600181811c90821680613d3f57607f821691505b60208210811415613d6057634e487b7160e01b600052602260045260246000fd5b50919050565b634e487b7160e01b600052603260045260246000fd5b634e487b7160e01b600052601160045260246000fd5b60008219821115613da557613da5613d7c565b500190565b6000600019821415613dbe57613dbe613d7c565b5060010190565b815160009082906020808601845b83811015613def57815185529382019390820190600101613dd3565b50929695505050505050565b60208082526031908201527f4552433732313a207472616e736665722063616c6c6572206973206e6f74206f6040820152701ddb995c881b9bdc88185c1c1c9bdd9959607a1b606082015260800190565b600060208284031215613e5e57600080fd5b8151610bc78161393c565b6001600160a01b0394851681529290931660208301526040820152606081019190915260a06080820181905260009082015260c00190565b6020808252818101527f4f776e61626c653a2063616c6c6572206973206e6f7420746865206f776e6572604082015260600190565b600082821015613ee857613ee8613d7c565b500390565b600060208284031215613eff57600080fd5b5051919050565b60008a51613f18818460208f016137b3565b8a51613f2a8183860160208f016137b3565b8a519184010190613f3f818360208e016137b3565b8951613f518183850160208e016137b3565b8951929091010190613f67818360208c016137b3565b8751613f798183850160208c016137b3565b8751929091010190613f8f818360208a016137b3565b8551613fa18183850160208a016137b3565b8551929091010190613fb78183602088016137b3565b019b9a5050505050505050505050565b60008451613fd98184602089016137b3565b845190830190613fed8183602089016137b3565b84519101906140008183602088016137b3565b0195945050505050565b707b226e616d65223a2022526f626f74202360781b815282516000906140378160118501602088016137b3565b7f222c20226465736372697074696f6e223a2022526f626f742069732072616e646011918401918201527f6f6d6c792067656e657261746564204e465420776974682065717569706d656e60318201527f742c20616e642063616e2061737369676e2050726f6772616d204e465473207460518201527f6f20726f626f742c207468757320726f626f742063616e20676574206365727460718201527f61696e206162696c69746965732e222c2022696d616765223a2022646174613a6091820152741a5b5859d94bdcdd99cade1b5b0ed8985cd94d8d0b605a1b60b1820152835161412a8160c68401602088016137b3565b61227d60f01b60c6929091019182015260c801949350505050565b7f646174613a6170706c69636174696f6e2f6a736f6e3b6261736536342c00000081526000825161417d81601d8501602087016137b3565b91909101601d0192915050565b6000835161419c8184602088016137b3565b8351908301906141b08183602088016137b3565b01949350505050565b634e487b7160e01b600052601260045260246000fd5b6000826141de576141de6141b9565b500690565b6000835160206141f682858389016137b3565b600160fd1b918401918252845460019060009080831c8184168061421b57607f821691505b85821081141561423957634e487b7160e01b84526022600452602484fd5b80801561424d576001811461426257614293565b60ff1984168887015282880186019450614293565b60008b81526020902060005b848110156142895781548a820189015290870190880161426e565b5050858389010194505b50929a9950505050505050505050565b601160f91b815283516000906142c08160018501602089016137b3565b600160fd1b60019184019182015284516142e18160028401602089016137b3565b61011160f51b6002929091019182015283516143048160048401602088016137b3565b0160040195945050505050565b601160f91b8152835160009061432e8160018501602089016137b3565b600160fd1b600191840191820152845161434f8160028401602089016137b3565b61011160f51b6002929091019182015283516143728160048401602088016137b3565b62202b3160e81b6004929091019182015260070195945050505050565b60008160001904831182151516156143a9576143a9613d7c565b500290565b60208082526032908201527f4552433732313a207472616e7366657220746f206e6f6e20455243373231526560408201527131b2b4bb32b91034b6b83632b6b2b73a32b960711b606082015260800190565b60008261440f5761440f6141b9565b500490565b600082516144268184602087016137b3565b9190910192915050565b634e487b7160e01b600052603160045260246000fd5b6001600160a01b0385811682528416602082015260408101839052608060608201819052600090614479908301846137df565b9695505050505050565b60006020828403121561449557600080fd5b8151610bc78161378056fe3c2f746578743e3c7465787420783d2231302220793d2236302220636c6173733d2262617365223e3c2f746578743e3c7465787420783d2231302220793d223136302220636c6173733d2262617365223e3c2f746578743e3c7465787420783d2231302220793d223132302220636c6173733d2262617365223e3c2f746578743e3c7465787420783d2231302220793d2238302220636c6173733d2262617365223e3c2f746578743e3c7465787420783d2231302220793d223130302220636c6173733d2262617365223e3c73766720786d6c6e733d22687474703a2f2f7777772e77332e6f72672f323030302f73766722207072657365727665417370656374526174696f3d22784d696e594d696e206d656574222076696577426f783d223020302033353020333530223e3c7374796c653e2e62617365207b2066696c6c3a2077686974653b20666f6e742d66616d696c793a2073657269663b20666f6e742d73697a653a20313470783b207d3c2f7374796c653e3c726563742077696474683d223130302522206865696768743d2231303025222066696c6c3d22626c61636b22202f3e3c7465787420783d2231302220793d2232302220636c6173733d2262617365223e3c2f746578743e3c7465787420783d2231302220793d223134302220636c6173733d2262617365223e4142434445464748494a4b4c4d4e4f505152535455565758595a6162636465666768696a6b6c6d6e6f707172737475767778797a303132333435363738392b2f3c2f746578743e3c7465787420783d2231302220793d2234302220636c6173733d2262617365223e3c2f746578743e3c7465787420783d2231302220793d223138302220636c6173733d2262617365223ea26469706673582212206a2209ded98f0cc12dbf1f4c79f3c9342edb7487bf01f6708a7df871749c1ef364736f6c634300080a0033",
  "linkReferences": {},
  "deployedLinkReferences": {}
}