{
  "_format": "hh-sol-artifact-1",
  "contractName": "Robot",
  "sourceName": "contracts/Robot.sol",
  "abi": [
    {
      "inputs": [
        {
          "internalType": "address",
          "name": "_programContract",
          "type": "address"
        }
      ],
      "stateMutability": "nonpayable",
      "type": "constructor"
    },
    {
      "anonymous": false,
      "inputs": [
        {
          "indexed": true,
          "internalType": "address",
          "name": "owner",
          "type": "address"
        },
        {
          "indexed": true,
          "internalType": "address",
          "name": "approved",
          "type": "address"
        },
        {
          "indexed": true,
          "internalType": "uint256",
          "name": "tokenId",
          "type": "uint256"
        }
      ],
      "name": "Approval",
      "type": "event"
    },
    {
      "anonymous": false,
      "inputs": [
        {
          "indexed": true,
          "internalType": "address",
          "name": "owner",
          "type": "address"
        },
        {
          "indexed": true,
          "internalType": "address",
          "name": "operator",
          "type": "address"
        },
        {
          "indexed": false,
          "internalType": "bool",
          "name": "approved",
          "type": "bool"
        }
      ],
      "name": "ApprovalForAll",
      "type": "event"
    },
    {
      "anonymous": false,
      "inputs": [
        {
          "indexed": true,
          "internalType": "uint256[]",
          "name": "tokenIds",
          "type": "uint256[]"
        },
        {
          "indexed": false,
          "internalType": "uint256",
          "name": "amount",
          "type": "uint256"
        },
        {
          "indexed": true,
          "internalType": "uint256",
          "name": "priceReceived",
          "type": "uint256"
        },
        {
          "indexed": true,
          "internalType": "uint256",
          "name": "reserveAfterBurn",
          "type": "uint256"
        }
      ],
      "name": "Burned",
      "type": "event"
    },
    {
      "anonymous": false,
      "inputs": [
        {
          "indexed": true,
          "internalType": "uint256[]",
          "name": "tokenIds",
          "type": "uint256[]"
        },
        {
          "indexed": false,
          "internalType": "uint256",
          "name": "amount",
          "type": "uint256"
        },
        {
          "indexed": true,
          "internalType": "uint256",
          "name": "pricePaid",
          "type": "uint256"
        },
        {
          "indexed": true,
          "internalType": "uint256",
          "name": "reserveAfterMint",
          "type": "uint256"
        }
      ],
      "name": "Minted",
      "type": "event"
    },
    {
      "anonymous": false,
      "inputs": [
        {
          "indexed": true,
          "internalType": "address",
          "name": "previousOwner",
          "type": "address"
        },
        {
          "indexed": true,
          "internalType": "address",
          "name": "newOwner",
          "type": "address"
        }
      ],
      "name": "OwnershipTransferred",
      "type": "event"
    },
    {
      "anonymous": false,
      "inputs": [
        {
          "indexed": true,
          "internalType": "address",
          "name": "from",
          "type": "address"
        },
        {
          "indexed": true,
          "internalType": "address",
          "name": "to",
          "type": "address"
        },
        {
          "indexed": true,
          "internalType": "uint256",
          "name": "tokenId",
          "type": "uint256"
        }
      ],
      "name": "Transfer",
      "type": "event"
    },
    {
      "inputs": [
        {
          "internalType": "address",
          "name": "to",
          "type": "address"
        },
        {
          "internalType": "uint256",
          "name": "tokenId",
          "type": "uint256"
        }
      ],
      "name": "approve",
      "outputs": [],
      "stateMutability": "nonpayable",
      "type": "function"
    },
    {
      "inputs": [
        {
          "internalType": "address",
          "name": "owner",
          "type": "address"
        }
      ],
      "name": "balanceOf",
      "outputs": [
        {
          "internalType": "uint256",
          "name": "",
          "type": "uint256"
        }
      ],
      "stateMutability": "view",
      "type": "function"
    },
    {
      "inputs": [
        {
          "internalType": "uint256",
          "name": "_programId",
          "type": "uint256"
        },
        {
          "internalType": "uint256",
          "name": "_robotId",
          "type": "uint256"
        }
      ],
      "name": "bindProgram2Robot",
      "outputs": [],
      "stateMutability": "nonpayable",
      "type": "function"
    },
    {
      "inputs": [
        {
          "internalType": "uint256[]",
          "name": "_tokenIds",
          "type": "uint256[]"
        }
      ],
      "name": "burn",
      "outputs": [],
      "stateMutability": "nonpayable",
      "type": "function"
    },
    {
      "inputs": [
        {
          "internalType": "uint256",
          "name": "_robotId",
          "type": "uint256"
        },
        {
          "internalType": "uint256",
          "name": "_programId",
          "type": "uint256"
        }
      ],
      "name": "checkRobotContainProgram",
      "outputs": [
        {
          "internalType": "bool",
          "name": "",
          "type": "bool"
        }
      ],
      "stateMutability": "view",
      "type": "function"
    },
    {
      "inputs": [],
      "name": "creator",
      "outputs": [
        {
          "internalType": "address payable",
          "name": "",
          "type": "address"
        }
      ],
      "stateMutability": "view",
      "type": "function"
    },
    {
      "inputs": [
        {
          "internalType": "uint256",
          "name": "tokenId",
          "type": "uint256"
        }
      ],
      "name": "getApproved",
      "outputs": [
        {
          "internalType": "address",
          "name": "",
          "type": "address"
        }
      ],
      "stateMutability": "view",
      "type": "function"
    },
    {
      "inputs": [
        {
          "internalType": "uint256",
          "name": "tokenId",
          "type": "uint256"
        }
      ],
      "name": "getChest",
      "outputs": [
        {
          "internalType": "string",
          "name": "",
          "type": "string"
        }
      ],
      "stateMutability": "view",
      "type": "function"
    },
    {
      "inputs": [
        {
          "internalType": "uint256",
          "name": "_amount",
          "type": "uint256"
        }
      ],
      "name": "getCurrentPriceToBurn",
      "outputs": [
        {
          "internalType": "uint256",
          "name": "",
          "type": "uint256"
        }
      ],
      "stateMutability": "view",
      "type": "function"
    },
    {
      "inputs": [
        {
          "internalType": "uint256",
          "name": "_amount",
          "type": "uint256"
        }
      ],
      "name": "getCurrentPriceToMint",
      "outputs": [
        {
          "internalType": "uint256",
          "name": "",
          "type": "uint256"
        }
      ],
      "stateMutability": "view",
      "type": "function"
    },
    {
      "inputs": [],
      "name": "getCurrentSupply",
      "outputs": [
        {
          "internalType": "uint256",
          "name": "",
          "type": "uint256"
        }
      ],
      "stateMutability": "view",
      "type": "function"
    },
    {
      "inputs": [
        {
          "internalType": "uint256",
          "name": "tokenId",
          "type": "uint256"
        }
      ],
      "name": "getFoot",
      "outputs": [
        {
          "internalType": "string",
          "name": "",
          "type": "string"
        }
      ],
      "stateMutability": "view",
      "type": "function"
    },
    {
      "inputs": [
        {
          "internalType": "uint256",
          "name": "tokenId",
          "type": "uint256"
        }
      ],
      "name": "getHand",
      "outputs": [
        {
          "internalType": "string",
          "name": "",
          "type": "string"
        }
      ],
      "stateMutability": "view",
      "type": "function"
    },
    {
      "inputs": [
        {
          "internalType": "uint256",
          "name": "tokenId",
          "type": "uint256"
        }
      ],
      "name": "getHead",
      "outputs": [
        {
          "internalType": "string",
          "name": "",
          "type": "string"
        }
      ],
      "stateMutability": "view",
      "type": "function"
    },
    {
      "inputs": [
        {
          "internalType": "uint256",
          "name": "tokenId",
          "type": "uint256"
        }
      ],
      "name": "getNeck",
      "outputs": [
        {
          "internalType": "string",
          "name": "",
          "type": "string"
        }
      ],
      "stateMutability": "view",
      "type": "function"
    },
    {
      "inputs": [
        {
          "internalType": "uint256",
          "name": "_amount",
          "type": "uint256"
        }
      ],
      "name": "getReserveCut",
      "outputs": [
        {
          "internalType": "uint256",
          "name": "",
          "type": "uint256"
        }
      ],
      "stateMutability": "view",
      "type": "function"
    },
    {
      "inputs": [
        {
          "internalType": "uint256",
          "name": "tokenId",
          "type": "uint256"
        }
      ],
      "name": "getRing",
      "outputs": [
        {
          "internalType": "string",
          "name": "",
          "type": "string"
        }
      ],
      "stateMutability": "view",
      "type": "function"
    },
    {
      "inputs": [
        {
          "internalType": "uint256",
          "name": "tokenId",
          "type": "uint256"
        }
      ],
      "name": "getRole",
      "outputs": [
        {
          "internalType": "string",
          "name": "",
          "type": "string"
        }
      ],
      "stateMutability": "view",
      "type": "function"
    },
    {
      "inputs": [
        {
          "internalType": "uint256",
          "name": "tokenId",
          "type": "uint256"
        }
      ],
      "name": "getWaist",
      "outputs": [
        {
          "internalType": "string",
          "name": "",
          "type": "string"
        }
      ],
      "stateMutability": "view",
      "type": "function"
    },
    {
      "inputs": [
        {
          "internalType": "uint256",
          "name": "tokenId",
          "type": "uint256"
        }
      ],
      "name": "getWeapon",
      "outputs": [
        {
          "internalType": "string",
          "name": "",
          "type": "string"
        }
      ],
      "stateMutability": "view",
      "type": "function"
    },
    {
      "inputs": [],
      "name": "initBurnPrice",
      "outputs": [
        {
          "internalType": "uint256",
          "name": "",
          "type": "uint256"
        }
      ],
      "stateMutability": "view",
      "type": "function"
    },
    {
      "inputs": [],
      "name": "initMintPrice",
      "outputs": [
        {
          "internalType": "uint256",
          "name": "",
          "type": "uint256"
        }
      ],
      "stateMutability": "view",
      "type": "function"
    },
    {
      "inputs": [
        {
          "internalType": "address",
          "name": "owner",
          "type": "address"
        },
        {
          "internalType": "address",
          "name": "operator",
          "type": "address"
        }
      ],
      "name": "isApprovedForAll",
      "outputs": [
        {
          "internalType": "bool",
          "name": "",
          "type": "bool"
        }
      ],
      "stateMutability": "view",
      "type": "function"
    },
    {
      "inputs": [
        {
          "internalType": "uint256",
          "name": "_amount",
          "type": "uint256"
        },
        {
          "internalType": "uint256",
          "name": "_maxPriceFirstRobot",
          "type": "uint256"
        }
      ],
      "name": "mint",
      "outputs": [
        {
          "internalType": "uint256[]",
          "name": "_tokenIds",
          "type": "uint256[]"
        }
      ],
      "stateMutability": "payable",
      "type": "function"
    },
    {
      "inputs": [],
      "name": "name",
      "outputs": [
        {
          "internalType": "string",
          "name": "",
          "type": "string"
        }
      ],
      "stateMutability": "view",
      "type": "function"
    },
    {
      "inputs": [
        {
          "internalType": "address",
          "name": "operator",
          "type": "address"
        },
        {
          "internalType": "address",
          "name": "from",
          "type": "address"
        },
        {
          "internalType": "uint256[]",
          "name": "ids",
          "type": "uint256[]"
        },
        {
          "internalType": "uint256[]",
          "name": "values",
          "type": "uint256[]"
        },
        {
          "internalType": "bytes",
          "name": "data",
          "type": "bytes"
        }
      ],
      "name": "onERC1155BatchReceived",
      "outputs": [
        {
          "internalType": "bytes4",
          "name": "",
          "type": "bytes4"
        }
      ],
      "stateMutability": "pure",
      "type": "function"
    },
    {
      "inputs": [
        {
          "internalType": "address",
          "name": "operator",
          "type": "address"
        },
        {
          "internalType": "address",
          "name": "from",
          "type": "address"
        },
        {
          "internalType": "uint256",
          "name": "id",
          "type": "uint256"
        },
        {
          "internalType": "uint256",
          "name": "value",
          "type": "uint256"
        },
        {
          "internalType": "bytes",
          "name": "data",
          "type": "bytes"
        }
      ],
      "name": "onERC1155Received",
      "outputs": [
        {
          "internalType": "bytes4",
          "name": "",
          "type": "bytes4"
        }
      ],
      "stateMutability": "pure",
      "type": "function"
    },
    {
      "inputs": [],
      "name": "owner",
      "outputs": [
        {
          "internalType": "address",
          "name": "",
          "type": "address"
        }
      ],
      "stateMutability": "view",
      "type": "function"
    },
    {
      "inputs": [
        {
          "internalType": "uint256",
          "name": "tokenId",
          "type": "uint256"
        }
      ],
      "name": "ownerOf",
      "outputs": [
        {
          "internalType": "address",
          "name": "",
          "type": "address"
        }
      ],
      "stateMutability": "view",
      "type": "function"
    },
    {
      "inputs": [],
      "name": "programContract",
      "outputs": [
        {
          "internalType": "contract IERC1155",
          "name": "",
          "type": "address"
        }
      ],
      "stateMutability": "view",
      "type": "function"
    },
    {
      "inputs": [],
      "name": "renounceOwnership",
      "outputs": [],
      "stateMutability": "nonpayable",
      "type": "function"
    },
    {
      "inputs": [],
      "name": "reserve",
      "outputs": [
        {
          "internalType": "uint256",
          "name": "",
          "type": "uint256"
        }
      ],
      "stateMutability": "view",
      "type": "function"
    },
    {
      "inputs": [],
      "name": "robocup",
      "outputs": [
        {
          "internalType": "contract IRobocupCompetitionPlatform",
          "name": "",
          "type": "address"
        }
      ],
      "stateMutability": "view",
      "type": "function"
    },
    {
      "inputs": [
        {
          "internalType": "address",
          "name": "from",
          "type": "address"
        },
        {
          "internalType": "address",
          "name": "to",
          "type": "address"
        },
        {
          "internalType": "uint256",
          "name": "tokenId",
          "type": "uint256"
        }
      ],
      "name": "safeTransferFrom",
      "outputs": [],
      "stateMutability": "nonpayable",
      "type": "function"
    },
    {
      "inputs": [
        {
          "internalType": "address",
          "name": "from",
          "type": "address"
        },
        {
          "internalType": "address",
          "name": "to",
          "type": "address"
        },
        {
          "internalType": "uint256",
          "name": "tokenId",
          "type": "uint256"
        },
        {
          "internalType": "bytes",
          "name": "_data",
          "type": "bytes"
        }
      ],
      "name": "safeTransferFrom",
      "outputs": [],
      "stateMutability": "nonpayable",
      "type": "function"
    },
    {
      "inputs": [
        {
          "internalType": "address",
          "name": "operator",
          "type": "address"
        },
        {
          "internalType": "bool",
          "name": "approved",
          "type": "bool"
        }
      ],
      "name": "setApprovalForAll",
      "outputs": [],
      "stateMutability": "nonpayable",
      "type": "function"
    },
    {
      "inputs": [
        {
          "internalType": "address payable",
          "name": "_creator",
          "type": "address"
        }
      ],
      "name": "setCreator",
      "outputs": [],
      "stateMutability": "nonpayable",
      "type": "function"
    },
    {
      "inputs": [
        {
          "internalType": "address",
          "name": "_robocup",
          "type": "address"
        }
      ],
      "name": "setRobocup",
      "outputs": [],
      "stateMutability": "nonpayable",
      "type": "function"
    },
    {
      "inputs": [],
      "name": "stepMintPrice",
      "outputs": [
        {
          "internalType": "uint256",
          "name": "",
          "type": "uint256"
        }
      ],
      "stateMutability": "view",
      "type": "function"
    },
    {
      "inputs": [
        {
          "internalType": "bytes4",
          "name": "interfaceId",
          "type": "bytes4"
        }
      ],
      "name": "supportsInterface",
      "outputs": [
        {
          "internalType": "bool",
          "name": "",
          "type": "bool"
        }
      ],
      "stateMutability": "view",
      "type": "function"
    },
    {
      "inputs": [],
      "name": "symbol",
      "outputs": [
        {
          "internalType": "string",
          "name": "",
          "type": "string"
        }
      ],
      "stateMutability": "view",
      "type": "function"
    },
    {
      "inputs": [
        {
          "internalType": "uint256",
          "name": "index",
          "type": "uint256"
        }
      ],
      "name": "tokenByIndex",
      "outputs": [
        {
          "internalType": "uint256",
          "name": "",
          "type": "uint256"
        }
      ],
      "stateMutability": "view",
      "type": "function"
    },
    {
      "inputs": [
        {
          "internalType": "address",
          "name": "owner",
          "type": "address"
        },
        {
          "internalType": "uint256",
          "name": "index",
          "type": "uint256"
        }
      ],
      "name": "tokenOfOwnerByIndex",
      "outputs": [
        {
          "internalType": "uint256",
          "name": "",
          "type": "uint256"
        }
      ],
      "stateMutability": "view",
      "type": "function"
    },
    {
      "inputs": [
        {
          "internalType": "uint256",
          "name": "tokenId",
          "type": "uint256"
        }
      ],
      "name": "tokenURI",
      "outputs": [
        {
          "internalType": "string",
          "name": "",
          "type": "string"
        }
      ],
      "stateMutability": "view",
      "type": "function"
    },
    {
      "inputs": [],
      "name": "totalEverMinted",
      "outputs": [
        {
          "internalType": "uint256",
          "name": "",
          "type": "uint256"
        }
      ],
      "stateMutability": "view",
      "type": "function"
    },
    {
      "inputs": [],
      "name": "totalSupply",
      "outputs": [
        {
          "internalType": "uint256",
          "name": "",
          "type": "uint256"
        }
      ],
      "stateMutability": "view",
      "type": "function"
    },
    {
      "inputs": [
        {
          "internalType": "address",
          "name": "from",
          "type": "address"
        },
        {
          "internalType": "address",
          "name": "to",
          "type": "address"
        },
        {
          "internalType": "uint256",
          "name": "tokenId",
          "type": "uint256"
        }
      ],
      "name": "transferFrom",
      "outputs": [],
      "stateMutability": "nonpayable",
      "type": "function"
    },
    {
      "inputs": [
        {
          "internalType": "address",
          "name": "newOwner",
          "type": "address"
        }
      ],
      "name": "transferOwnership",
      "outputs": [],
      "stateMutability": "nonpayable",
      "type": "function"
    },
    {
      "inputs": [
        {
          "internalType": "uint256",
          "name": "_programId",
          "type": "uint256"
        },
        {
          "internalType": "uint256",
          "name": "_robotId",
          "type": "uint256"
        }
      ],
      "name": "unbindProgramFromRobot",
      "outputs": [],
      "stateMutability": "nonpayable",
      "type": "function"
    }
  ],
  "bytecode": "0x60806040526040518061024001604052806040518060400160405280600981526020017f57617268616d6d6572000000000000000000000000000000000000000000000081525081526020016040518060400160405280600c81526020017f517561727465727374616666000000000000000000000000000000000000000081525081526020016040518060400160405280600481526020017f4d61756c0000000000000000000000000000000000000000000000000000000081525081526020016040518060400160405280600481526020017f4d6163650000000000000000000000000000000000000000000000000000000081525081526020016040518060400160405280600481526020017f436c75620000000000000000000000000000000000000000000000000000000081525081526020016040518060400160405280600681526020017f4b6174616e61000000000000000000000000000000000000000000000000000081525081526020016040518060400160405280600881526020017f46616c6368696f6e00000000000000000000000000000000000000000000000081525081526020016040518060400160405280600881526020017f5363696d6974617200000000000000000000000000000000000000000000000081525081526020016040518060400160405280600a81526020017f4c6f6e672053776f72640000000000000000000000000000000000000000000081525081526020016040518060400160405280600b81526020017f53686f72742053776f726400000000000000000000000000000000000000000081525081526020016040518060400160405280600a81526020017f47686f73742057616e640000000000000000000000000000000000000000000081525081526020016040518060400160405280600a81526020017f47726176652057616e640000000000000000000000000000000000000000000081525081526020016040518060400160405280600981526020017f426f6e652057616e64000000000000000000000000000000000000000000000081525081526020016040518060400160405280600481526020017f57616e640000000000000000000000000000000000000000000000000000000081525081526020016040518060400160405280600881526020017f4772696d6f69726500000000000000000000000000000000000000000000000081525081526020016040518060400160405280600981526020017f4368726f6e69636c65000000000000000000000000000000000000000000000081525081526020016040518060400160405280600481526020017f546f6d650000000000000000000000000000000000000000000000000000000081525081526020016040518060400160405280600481526020017f426f6f6b000000000000000000000000000000000000000000000000000000008152508152506000906012620004469291906200334c565b50604051806101e001604052806040518060400160405280600b81526020017f446976696e6520526f626500000000000000000000000000000000000000000081525081526020016040518060400160405280600981526020017f53696c6b20526f6265000000000000000000000000000000000000000000000081525081526020016040518060400160405280600a81526020017f4c696e656e20526f62650000000000000000000000000000000000000000000081525081526020016040518060400160405280600481526020017f526f62650000000000000000000000000000000000000000000000000000000081525081526020016040518060400160405280600581526020017f536869727400000000000000000000000000000000000000000000000000000081525081526020016040518060400160405280600a81526020017f44656d6f6e204875736b0000000000000000000000000000000000000000000081525081526020016040518060400160405280601081526020017f447261676f6e736b696e2041726d6f720000000000000000000000000000000081525081526020016040518060400160405280601581526020017f53747564646564204c6561746865722041726d6f72000000000000000000000081525081526020016040518060400160405280601281526020017f48617264204c6561746865722041726d6f72000000000000000000000000000081525081526020016040518060400160405280600d81526020017f4c6561746865722041726d6f720000000000000000000000000000000000000081525081526020016040518060400160405280600f81526020017f486f6c79204368657374706c617465000000000000000000000000000000000081525081526020016040518060400160405280601181526020017f4f726e617465204368657374706c61746500000000000000000000000000000081525081526020016040518060400160405280600a81526020017f506c617465204d61696c0000000000000000000000000000000000000000000081525081526020016040518060400160405280600a81526020017f436861696e204d61696c0000000000000000000000000000000000000000000081525081526020016040518060400160405280600981526020017f52696e67204d61696c0000000000000000000000000000000000000000000000815250815250600190600f620007d8929190620033b3565b50604051806101e001604052806040518060400160405280600c81526020017f416e6369656e742048656c6d000000000000000000000000000000000000000081525081526020016040518060400160405280600b81526020017f4f726e6174652048656c6d00000000000000000000000000000000000000000081525081526020016040518060400160405280600a81526020017f47726561742048656c6d0000000000000000000000000000000000000000000081525081526020016040518060400160405280600981526020017f46756c6c2048656c6d000000000000000000000000000000000000000000000081525081526020016040518060400160405280600481526020017f48656c6d0000000000000000000000000000000000000000000000000000000081525081526020016040518060400160405280600b81526020017f44656d6f6e2043726f776e00000000000000000000000000000000000000000081525081526020016040518060400160405280600e81526020017f447261676f6e27732043726f776e00000000000000000000000000000000000081525081526020016040518060400160405280600781526020017f576172204361700000000000000000000000000000000000000000000000000081525081526020016040518060400160405280600b81526020017f4c6561746865722043617000000000000000000000000000000000000000000081525081526020016040518060400160405280600381526020017f436170000000000000000000000000000000000000000000000000000000000081525081526020016040518060400160405280600581526020017f43726f776e00000000000000000000000000000000000000000000000000000081525081526020016040518060400160405280600b81526020017f446976696e6520486f6f6400000000000000000000000000000000000000000081525081526020016040518060400160405280600981526020017f53696c6b20486f6f64000000000000000000000000000000000000000000000081525081526020016040518060400160405280600a81526020017f4c696e656e20486f6f640000000000000000000000000000000000000000000081525081526020016040518060400160405280600481526020017f486f6f6400000000000000000000000000000000000000000000000000000000815250815250600290600f62000b6a929190620033b3565b50604051806101e001604052806040518060400160405280600b81526020017f4f726e6174652042656c7400000000000000000000000000000000000000000081525081526020016040518060400160405280600881526020017f5761722042656c7400000000000000000000000000000000000000000000000081525081526020016040518060400160405280600b81526020017f506c617465642042656c7400000000000000000000000000000000000000000081525081526020016040518060400160405280600981526020017f4d6573682042656c74000000000000000000000000000000000000000000000081525081526020016040518060400160405280600a81526020017f48656176792042656c740000000000000000000000000000000000000000000081525081526020016040518060400160405280600e81526020017f44656d6f6e686964652042656c7400000000000000000000000000000000000081525081526020016040518060400160405280600f81526020017f447261676f6e736b696e2042656c74000000000000000000000000000000000081525081526020016040518060400160405280601481526020017f53747564646564204c6561746865722042656c7400000000000000000000000081525081526020016040518060400160405280601181526020017f48617264204c6561746865722042656c7400000000000000000000000000000081525081526020016040518060400160405280600c81526020017f4c6561746865722042656c74000000000000000000000000000000000000000081525081526020016040518060400160405280600f81526020017f42726967687473696c6b2053617368000000000000000000000000000000000081525081526020016040518060400160405280600981526020017f53696c6b2053617368000000000000000000000000000000000000000000000081525081526020016040518060400160405280600981526020017f576f6f6c2053617368000000000000000000000000000000000000000000000081525081526020016040518060400160405280600a81526020017f4c696e656e20536173680000000000000000000000000000000000000000000081525081526020016040518060400160405280600481526020017f5361736800000000000000000000000000000000000000000000000000000000815250815250600390600f62000efc929190620033b3565b50604051806101e001604052806040518060400160405280600c81526020017f486f6c792047726561766573000000000000000000000000000000000000000081525081526020016040518060400160405280600e81526020017f4f726e617465204772656176657300000000000000000000000000000000000081525081526020016040518060400160405280600781526020017f477265617665730000000000000000000000000000000000000000000000000081525081526020016040518060400160405280600b81526020017f436861696e20426f6f747300000000000000000000000000000000000000000081525081526020016040518060400160405280600b81526020017f486561767920426f6f747300000000000000000000000000000000000000000081525081526020016040518060400160405280600f81526020017f44656d6f6e6869646520426f6f7473000000000000000000000000000000000081525081526020016040518060400160405280601081526020017f447261676f6e736b696e20426f6f74730000000000000000000000000000000081525081526020016040518060400160405280601581526020017f53747564646564204c65617468657220426f6f7473000000000000000000000081525081526020016040518060400160405280601281526020017f48617264204c65617468657220426f6f7473000000000000000000000000000081525081526020016040518060400160405280600d81526020017f4c65617468657220426f6f74730000000000000000000000000000000000000081525081526020016040518060400160405280600f81526020017f446976696e6520536c697070657273000000000000000000000000000000000081525081526020016040518060400160405280600d81526020017f53696c6b20536c6970706572730000000000000000000000000000000000000081525081526020016040518060400160405280600a81526020017f576f6f6c2053686f65730000000000000000000000000000000000000000000081525081526020016040518060400160405280600b81526020017f4c696e656e2053686f657300000000000000000000000000000000000000000081525081526020016040518060400160405280600581526020017f53686f6573000000000000000000000000000000000000000000000000000000815250815250600490600f6200128e929190620033b3565b50604051806101e001604052806040518060400160405280600e81526020017f486f6c79204761756e746c65747300000000000000000000000000000000000081525081526020016040518060400160405280601081526020017f4f726e617465204761756e746c6574730000000000000000000000000000000081525081526020016040518060400160405280600981526020017f4761756e746c657473000000000000000000000000000000000000000000000081525081526020016040518060400160405280600c81526020017f436861696e20476c6f766573000000000000000000000000000000000000000081525081526020016040518060400160405280600c81526020017f486561767920476c6f766573000000000000000000000000000000000000000081525081526020016040518060400160405280600d81526020017f44656d6f6e27732048616e64730000000000000000000000000000000000000081525081526020016040518060400160405280601181526020017f447261676f6e736b696e20476c6f76657300000000000000000000000000000081525081526020016040518060400160405280601681526020017f53747564646564204c65617468657220476c6f7665730000000000000000000081525081526020016040518060400160405280601381526020017f48617264204c65617468657220476c6f7665730000000000000000000000000081525081526020016040518060400160405280600e81526020017f4c65617468657220476c6f76657300000000000000000000000000000000000081525081526020016040518060400160405280600d81526020017f446976696e6520476c6f7665730000000000000000000000000000000000000081525081526020016040518060400160405280600b81526020017f53696c6b20476c6f76657300000000000000000000000000000000000000000081525081526020016040518060400160405280600b81526020017f576f6f6c20476c6f76657300000000000000000000000000000000000000000081525081526020016040518060400160405280600c81526020017f4c696e656e20476c6f766573000000000000000000000000000000000000000081525081526020016040518060400160405280600681526020017f476c6f7665730000000000000000000000000000000000000000000000000000815250815250600590600f62001620929190620033b3565b5060405180606001604052806040518060400160405280600881526020017f4e65636b6c61636500000000000000000000000000000000000000000000000081525081526020016040518060400160405280600681526020017f416d756c6574000000000000000000000000000000000000000000000000000081525081526020016040518060400160405280600781526020017f50656e64616e74000000000000000000000000000000000000000000000000008152508152506006906003620016ed9291906200341a565b506040518060a001604052806040518060400160405280600981526020017f476f6c642052696e67000000000000000000000000000000000000000000000081525081526020016040518060400160405280600b81526020017f53696c7665722052696e6700000000000000000000000000000000000000000081525081526020016040518060400160405280600b81526020017f42726f6e7a652052696e6700000000000000000000000000000000000000000081525081526020016040518060400160405280600d81526020017f506c6174696e756d2052696e670000000000000000000000000000000000000081525081526020016040518060400160405280600d81526020017f546974616e69756d2052696e670000000000000000000000000000000000000081525081525060079060056200183092919062003481565b506040518061020001604052806040518060400160405280600881526020017f6f6620506f77657200000000000000000000000000000000000000000000000081525081526020016040518060400160405280600981526020017f6f66204769616e7473000000000000000000000000000000000000000000000081525081526020016040518060400160405280600981526020017f6f6620546974616e73000000000000000000000000000000000000000000000081525081526020016040518060400160405280600881526020017f6f6620536b696c6c00000000000000000000000000000000000000000000000081525081526020016040518060400160405280600d81526020017f6f662050657266656374696f6e0000000000000000000000000000000000000081525081526020016040518060400160405280600d81526020017f6f66204272696c6c69616e63650000000000000000000000000000000000000081525081526020016040518060400160405280601081526020017f6f6620456e6c69676874656e6d656e740000000000000000000000000000000081525081526020016040518060400160405280600d81526020017f6f662050726f74656374696f6e0000000000000000000000000000000000000081525081526020016040518060400160405280600881526020017f6f6620416e67657200000000000000000000000000000000000000000000000081525081526020016040518060400160405280600781526020017f6f6620526167650000000000000000000000000000000000000000000000000081525081526020016040518060400160405280600781526020017f6f6620467572790000000000000000000000000000000000000000000000000081525081526020016040518060400160405280600a81526020017f6f662056697472696f6c0000000000000000000000000000000000000000000081525081526020016040518060400160405280600a81526020017f6f662074686520466f780000000000000000000000000000000000000000000081525081526020016040518060400160405280600c81526020017f6f6620446574656374696f6e000000000000000000000000000000000000000081525081526020016040518060400160405280600d81526020017f6f66205265666c656374696f6e0000000000000000000000000000000000000081525081526020016040518060400160405280600c81526020017f6f6620746865205477696e730000000000000000000000000000000000000000815250815250600890601062001bfd929190620034e8565b50604051806108a001604052806040518060400160405280600581526020017f41676f6e7900000000000000000000000000000000000000000000000000000081525081526020016040518060400160405280600a81526020017f41706f63616c797073650000000000000000000000000000000000000000000081525081526020016040518060400160405280600a81526020017f41726d61676564646f6e0000000000000000000000000000000000000000000081525081526020016040518060400160405280600581526020017f426561737400000000000000000000000000000000000000000000000000000081525081526020016040518060400160405280600881526020017f426568656d6f746800000000000000000000000000000000000000000000000081525081526020016040518060400160405280600681526020017f426c69676874000000000000000000000000000000000000000000000000000081525081526020016040518060400160405280600581526020017f426c6f6f6400000000000000000000000000000000000000000000000000000081525081526020016040518060400160405280600781526020017f4272616d626c650000000000000000000000000000000000000000000000000081525081526020016040518060400160405280600981526020017f4272696d73746f6e65000000000000000000000000000000000000000000000081525081526020016040518060400160405280600581526020017f42726f6f6400000000000000000000000000000000000000000000000000000081525081526020016040518060400160405280600781526020017f43617272696f6e0000000000000000000000000000000000000000000000000081525081526020016040518060400160405280600981526020017f43617461636c79736d000000000000000000000000000000000000000000000081525081526020016040518060400160405280600881526020017f4368696d6572696300000000000000000000000000000000000000000000000081525081526020016040518060400160405280600681526020017f436f72707365000000000000000000000000000000000000000000000000000081525081526020016040518060400160405280600a81526020017f436f7272757074696f6e0000000000000000000000000000000000000000000081525081526020016040518060400160405280600981526020017f44616d6e6174696f6e000000000000000000000000000000000000000000000081525081526020016040518060400160405280600581526020017f446561746800000000000000000000000000000000000000000000000000000081525081526020016040518060400160405280600581526020017f44656d6f6e00000000000000000000000000000000000000000000000000000081525081526020016040518060400160405280600481526020017f446972650000000000000000000000000000000000000000000000000000000081525081526020016040518060400160405280600681526020017f447261676f6e000000000000000000000000000000000000000000000000000081525081526020016040518060400160405280600581526020017f447265616400000000000000000000000000000000000000000000000000000081525081526020016040518060400160405280600481526020017f446f6f6d0000000000000000000000000000000000000000000000000000000081525081526020016040518060400160405280600481526020017f4475736b0000000000000000000000000000000000000000000000000000000081525081526020016040518060400160405280600581526020017f4561676c6500000000000000000000000000000000000000000000000000000081525081526020016040518060400160405280600881526020017f456d70797265616e00000000000000000000000000000000000000000000000081525081526020016040518060400160405280600481526020017f466174650000000000000000000000000000000000000000000000000000000081525081526020016040518060400160405280600381526020017f466f65000000000000000000000000000000000000000000000000000000000081525081526020016040518060400160405280600481526020017f47616c650000000000000000000000000000000000000000000000000000000081525081526020016040518060400160405280600581526020017f47686f756c00000000000000000000000000000000000000000000000000000081525081526020016040518060400160405280600581526020017f476c6f6f6d00000000000000000000000000000000000000000000000000000081525081526020016040518060400160405280600581526020017f476c79706800000000000000000000000000000000000000000000000000000081525081526020016040518060400160405280600581526020017f476f6c656d00000000000000000000000000000000000000000000000000000081525081526020016040518060400160405280600481526020017f4772696d0000000000000000000000000000000000000000000000000000000081525081526020016040518060400160405280600481526020017f486174650000000000000000000000000000000000000000000000000000000081525081526020016040518060400160405280600581526020017f4861766f6300000000000000000000000000000000000000000000000000000081525081526020016040518060400160405280600681526020017f486f6e6f7572000000000000000000000000000000000000000000000000000081525081526020016040518060400160405280600681526020017f486f72726f72000000000000000000000000000000000000000000000000000081525081526020016040518060400160405280600881526020017f4879706e6f74696300000000000000000000000000000000000000000000000081525081526020016040518060400160405280600681526020017f4b72616b656e000000000000000000000000000000000000000000000000000081525081526020016040518060400160405280600581526020017f4c6f61746800000000000000000000000000000000000000000000000000000081525081526020016040518060400160405280600981526020017f4d61656c7374726f6d000000000000000000000000000000000000000000000081525081526020016040518060400160405280600481526020017f4d696e640000000000000000000000000000000000000000000000000000000081525081526020016040518060400160405280600781526020017f4d697261636c650000000000000000000000000000000000000000000000000081525081526020016040518060400160405280600681526020017f4d6f72626964000000000000000000000000000000000000000000000000000081525081526020016040518060400160405280600881526020017f4f626c6976696f6e00000000000000000000000000000000000000000000000081525081526020016040518060400160405280600981526020017f4f6e736c6175676874000000000000000000000000000000000000000000000081525081526020016040518060400160405280600481526020017f5061696e0000000000000000000000000000000000000000000000000000000081525081526020016040518060400160405280600b81526020017f50616e64656d6f6e69756d00000000000000000000000000000000000000000081525081526020016040518060400160405280600781526020017f50686f656e69780000000000000000000000000000000000000000000000000081525081526020016040518060400160405280600681526020017f506c61677565000000000000000000000000000000000000000000000000000081525081526020016040518060400160405280600481526020017f526167650000000000000000000000000000000000000000000000000000000081525081526020016040518060400160405280600781526020017f526170747572650000000000000000000000000000000000000000000000000081525081526020016040518060400160405280600481526020017f52756e650000000000000000000000000000000000000000000000000000000081525081526020016040518060400160405280600581526020017f536b756c6c00000000000000000000000000000000000000000000000000000081525081526020016040518060400160405280600381526020017f536f6c000000000000000000000000000000000000000000000000000000000081525081526020016040518060400160405280600481526020017f536f756c0000000000000000000000000000000000000000000000000000000081525081526020016040518060400160405280600681526020017f536f72726f77000000000000000000000000000000000000000000000000000081525081526020016040518060400160405280600681526020017f537069726974000000000000000000000000000000000000000000000000000081525081526020016040518060400160405280600581526020017f53746f726d00000000000000000000000000000000000000000000000000000081525081526020016040518060400160405280600781526020017f54656d706573740000000000000000000000000000000000000000000000000081525081526020016040518060400160405280600781526020017f546f726d656e740000000000000000000000000000000000000000000000000081525081526020016040518060400160405280600981526020017f56656e6765616e6365000000000000000000000000000000000000000000000081525081526020016040518060400160405280600781526020017f566963746f72790000000000000000000000000000000000000000000000000081525081526020016040518060400160405280600581526020017f566970657200000000000000000000000000000000000000000000000000000081525081526020016040518060400160405280600681526020017f566f72746578000000000000000000000000000000000000000000000000000081525081526020016040518060400160405280600381526020017f576f65000000000000000000000000000000000000000000000000000000000081525081526020016040518060400160405280600581526020017f577261746800000000000000000000000000000000000000000000000000000081525081526020016040518060400160405280600781526020017f4c6967687427730000000000000000000000000000000000000000000000000081525081526020016040518060400160405280600a81526020017f5368696d6d6572696e6700000000000000000000000000000000000000000000815250815250600990604562002c019291906200354f565b506040518061024001604052806040518060400160405280600481526020017f42616e650000000000000000000000000000000000000000000000000000000081525081526020016040518060400160405280600481526020017f526f6f740000000000000000000000000000000000000000000000000000000081525081526020016040518060400160405280600481526020017f426974650000000000000000000000000000000000000000000000000000000081525081526020016040518060400160405280600481526020017f536f6e670000000000000000000000000000000000000000000000000000000081525081526020016040518060400160405280600481526020017f526f61720000000000000000000000000000000000000000000000000000000081525081526020016040518060400160405280600581526020017f477261737000000000000000000000000000000000000000000000000000000081525081526020016040518060400160405280600a81526020017f496e737472756d656e740000000000000000000000000000000000000000000081525081526020016040518060400160405280600481526020017f476c6f770000000000000000000000000000000000000000000000000000000081525081526020016040518060400160405280600681526020017f42656e646572000000000000000000000000000000000000000000000000000081525081526020016040518060400160405280600681526020017f536861646f77000000000000000000000000000000000000000000000000000081525081526020016040518060400160405280600781526020017f576869737065720000000000000000000000000000000000000000000000000081525081526020016040518060400160405280600581526020017f53686f757400000000000000000000000000000000000000000000000000000081525081526020016040518060400160405280600581526020017f47726f776c00000000000000000000000000000000000000000000000000000081525081526020016040518060400160405280600481526020017f546561720000000000000000000000000000000000000000000000000000000081525081526020016040518060400160405280600481526020017f5065616b0000000000000000000000000000000000000000000000000000000081525081526020016040518060400160405280600481526020017f466f726d0000000000000000000000000000000000000000000000000000000081525081526020016040518060400160405280600381526020017f53756e000000000000000000000000000000000000000000000000000000000081525081526020016040518060400160405280600481526020017f4d6f6f6e00000000000000000000000000000000000000000000000000000000815250815250600a906012620030449291906200334c565b50662386f26fc1000060165566071afd498d000060175566066517289880006018556000601a556000601b5560405180604001604052806040518060400160405280600481526020017f4d616c650000000000000000000000000000000000000000000000000000000081525081526020016040518060400160405280600681526020017f46656d616c650000000000000000000000000000000000000000000000000000815250815250602090600262003101929190620035b6565b503480156200310f57600080fd5b506040516200af693803806200af698339818101604052810190620031359190620037a5565b6040518060400160405280600581526020017f526f626f740000000000000000000000000000000000000000000000000000008152506040518060400160405280600381526020017f424f54000000000000000000000000000000000000000000000000000000000081525081600b9080519060200190620031b99291906200361d565b5080600c9080519060200190620031d29291906200361d565b505050620031f5620031e96200327e60201b60201c565b6200328660201b60201c565b33601960006101000a81548173ffffffffffffffffffffffffffffffffffffffff021916908373ffffffffffffffffffffffffffffffffffffffff16021790555080601c60006101000a81548173ffffffffffffffffffffffffffffffffffffffff021916908373ffffffffffffffffffffffffffffffffffffffff160217905550506200383c565b600033905090565b6000601560009054906101000a900473ffffffffffffffffffffffffffffffffffffffff16905081601560006101000a81548173ffffffffffffffffffffffffffffffffffffffff021916908373ffffffffffffffffffffffffffffffffffffffff1602179055508173ffffffffffffffffffffffffffffffffffffffff168173ffffffffffffffffffffffffffffffffffffffff167f8be0079c531659141344cd1fd0a4f28419497f9722a3daafe3b4186f6b6457e060405160405180910390a35050565b828054828255906000526020600020908101928215620033a0579160200282015b828111156200339f5782518290805190602001906200338e9291906200361d565b50916020019190600101906200336d565b5b509050620033af9190620036ae565b5090565b82805482825590600052602060002090810192821562003407579160200282015b8281111562003406578251829080519060200190620033f59291906200361d565b5091602001919060010190620033d4565b5b509050620034169190620036ae565b5090565b8280548282559060005260206000209081019282156200346e579160200282015b828111156200346d5782518290805190602001906200345c9291906200361d565b50916020019190600101906200343b565b5b5090506200347d9190620036ae565b5090565b828054828255906000526020600020908101928215620034d5579160200282015b82811115620034d4578251829080519060200190620034c39291906200361d565b5091602001919060010190620034a2565b5b509050620034e49190620036ae565b5090565b8280548282559060005260206000209081019282156200353c579160200282015b828111156200353b5782518290805190602001906200352a9291906200361d565b509160200191906001019062003509565b5b5090506200354b9190620036ae565b5090565b828054828255906000526020600020908101928215620035a3579160200282015b82811115620035a2578251829080519060200190620035919291906200361d565b509160200191906001019062003570565b5b509050620035b29190620036ae565b5090565b8280548282559060005260206000209081019282156200360a579160200282015b8281111562003609578251829080519060200190620035f89291906200361d565b5091602001919060010190620035d7565b5b509050620036199190620036ae565b5090565b8280546200362b9062003806565b90600052602060002090601f0160209004810192826200364f57600085556200369b565b82601f106200366a57805160ff19168380011785556200369b565b828001600101855582156200369b579182015b828111156200369a5782518255916020019190600101906200367d565b5b509050620036aa9190620036d6565b5090565b5b80821115620036d25760008181620036c89190620036f5565b50600101620036af565b5090565b5b80821115620036f1576000816000905550600101620036d7565b5090565b508054620037039062003806565b6000825580601f1062003717575062003738565b601f016020900490600052602060002090810190620037379190620036d6565b5b50565b600080fd5b600073ffffffffffffffffffffffffffffffffffffffff82169050919050565b60006200376d8262003740565b9050919050565b6200377f8162003760565b81146200378b57600080fd5b50565b6000815190506200379f8162003774565b92915050565b600060208284031215620037be57620037bd6200373b565b5b6000620037ce848285016200378e565b91505092915050565b7f4e487b7100000000000000000000000000000000000000000000000000000000600052602260045260246000fd5b600060028204905060018216806200381f57607f821691505b60208210811415620038365762003835620037d7565b5b50919050565b61771d806200384c6000396000f3fe6080604052600436106102ae5760003560e01c806370a0823111610175578063b88d4fde116100dc578063d47f269e11610095578063f18b01ad1161006f578063f18b01ad14610b99578063f23a6e6114610bd6578063f2fde38b14610c13578063f621dba714610c3c576102ae565b8063d47f269e14610ae2578063e985e9c514610b1f578063ef68075a14610b5c576102ae565b8063b88d4fde146109ae578063bad6aa7a146109d7578063bc197c8114610a00578063c08a5dd514610a3d578063c87b56dd14610a7a578063cd3293de14610ab7576102ae565b80639720c9691161012e5780639720c9691461087c5780639bdc1b69146108b95780639e41b73f146108f6578063a0b87c5f14610933578063a22cb4651461095c578063b80f55c914610985576102ae565b806370a082311461076a578063715018a6146107a7578063808c5e38146107be5780638da5cb5b146107fb578063924808b41461082657806395d89b4114610851576102ae565b80632e8ad69f116102195780634f6ccce7116101d25780634f6ccce71461060e5780635312fdc21461064b5780635826b033146106885780635d9be39a146106c55780636352211e146106f057806367209aa81461072d576102ae565b80632e8ad69f146104fe5780632f745c59146105295780633f5160181461056657806342842e0e1461058f578063482b760f146105b85780634f3e1efc146105e3576102ae565b80630e99990d1161026b5780630e99990d146103e95780631649229f1461042657806318160ddd146104515780631b2ef1ca1461047c57806323b872dd146104ac5780632b7f4bad146104d5576102ae565b806301ffc9a7146102b357806302d05d3f146102f057806306fdde031461031b578063081812fc14610346578063095ea7b31461038357806309804a95146103ac575b600080fd5b3480156102bf57600080fd5b506102da60048036038101906102d59190614f3a565b610c67565b6040516102e79190614f82565b60405180910390f35b3480156102fc57600080fd5b50610305610ce1565b6040516103129190614fde565b60405180910390f35b34801561032757600080fd5b50610330610d07565b60405161033d9190615092565b60405180910390f35b34801561035257600080fd5b5061036d600480360381019061036891906150ea565b610d99565b60405161037a9190615138565b60405180910390f35b34801561038f57600080fd5b506103aa60048036038101906103a5919061517f565b610e1e565b005b3480156103b857600080fd5b506103d360048036038101906103ce91906151bf565b610f36565b6040516103e09190614f82565b60405180910390f35b3480156103f557600080fd5b50610410600480360381019061040b91906150ea565b610f65565b60405161041d9190615092565b60405180910390f35b34801561043257600080fd5b5061043b61107f565b604051610448919061520e565b60405180910390f35b34801561045d57600080fd5b50610466611085565b604051610473919061520e565b60405180910390f35b610496600480360381019061049191906151bf565b611092565b6040516104a391906152e7565b60405180910390f35b3480156104b857600080fd5b506104d360048036038101906104ce9190615309565b61146a565b005b3480156104e157600080fd5b506104fc60048036038101906104f791906151bf565b6114ca565b005b34801561050a57600080fd5b506105136117bb565b604051610520919061520e565b60405180910390f35b34801561053557600080fd5b50610550600480360381019061054b919061517f565b6117c1565b60405161055d919061520e565b60405180910390f35b34801561057257600080fd5b5061058d60048036038101906105889190615388565b611866565b005b34801561059b57600080fd5b506105b660048036038101906105b19190615309565b611926565b005b3480156105c457600080fd5b506105cd611946565b6040516105da9190615414565b60405180910390f35b3480156105ef57600080fd5b506105f861196c565b604051610605919061520e565b60405180910390f35b34801561061a57600080fd5b50610635600480360381019061063091906150ea565b61197b565b604051610642919061520e565b60405180910390f35b34801561065757600080fd5b50610672600480360381019061066d91906150ea565b6119ec565b60405161067f9190615092565b60405180910390f35b34801561069457600080fd5b506106af60048036038101906106aa91906150ea565b611b06565b6040516106bc919061520e565b60405180910390f35b3480156106d157600080fd5b506106da611baf565b6040516106e79190615450565b60405180910390f35b3480156106fc57600080fd5b50610717600480360381019061071291906150ea565b611bd5565b6040516107249190615138565b60405180910390f35b34801561073957600080fd5b50610754600480360381019061074f91906150ea565b611c87565b6040516107619190615092565b60405180910390f35b34801561077657600080fd5b50610791600480360381019061078c919061546b565b611da1565b60405161079e919061520e565b60405180910390f35b3480156107b357600080fd5b506107bc611e59565b005b3480156107ca57600080fd5b506107e560048036038101906107e091906150ea565b611ee1565b6040516107f2919061520e565b60405180910390f35b34801561080757600080fd5b50610810611ef3565b60405161081d9190615138565b60405180910390f35b34801561083257600080fd5b5061083b611f1d565b604051610848919061520e565b60405180910390f35b34801561085d57600080fd5b50610866611f23565b6040516108739190615092565b60405180910390f35b34801561088857600080fd5b506108a3600480360381019061089e91906150ea565b611fb5565b6040516108b09190615092565b60405180910390f35b3480156108c557600080fd5b506108e060048036038101906108db91906150ea565b6120cf565b6040516108ed9190615092565b60405180910390f35b34801561090257600080fd5b5061091d600480360381019061091891906150ea565b6121e9565b60405161092a9190615092565b60405180910390f35b34801561093f57600080fd5b5061095a600480360381019061095591906151bf565b612303565b005b34801561096857600080fd5b50610983600480360381019061097e91906154c4565b6125a1565b005b34801561099157600080fd5b506109ac60048036038101906109a7919061564c565b6125b7565b005b3480156109ba57600080fd5b506109d560048036038101906109d0919061574a565b6127be565b005b3480156109e357600080fd5b506109fe60048036038101906109f9919061546b565b612820565b005b348015610a0c57600080fd5b50610a276004803603810190610a22919061587e565b6128e0565b604051610a349190615969565b60405180910390f35b348015610a4957600080fd5b50610a646004803603810190610a5f91906150ea565b612911565b604051610a719190615092565b60405180910390f35b348015610a8657600080fd5b50610aa16004803603810190610a9c91906150ea565b612a2b565b604051610aae9190615092565b60405180910390f35b348015610ac357600080fd5b50610acc613071565b604051610ad9919061520e565b60405180910390f35b348015610aee57600080fd5b50610b096004803603810190610b0491906150ea565b613077565b604051610b169190615092565b60405180910390f35b348015610b2b57600080fd5b50610b466004803603810190610b419190615984565b613191565b604051610b539190614f82565b60405180910390f35b348015610b6857600080fd5b50610b836004803603810190610b7e91906150ea565b613225565b604051610b909190615092565b60405180910390f35b348015610ba557600080fd5b50610bc06004803603810190610bbb91906150ea565b61333f565b604051610bcd919061520e565b60405180910390f35b348015610be257600080fd5b50610bfd6004803603810190610bf891906159c4565b6133c8565b604051610c0a9190615969565b60405180910390f35b348015610c1f57600080fd5b50610c3a6004803603810190610c35919061546b565b6133f7565b005b348015610c4857600080fd5b50610c516134ef565b604051610c5e919061520e565b60405180910390f35b60007f780e9d63000000000000000000000000000000000000000000000000000000007bffffffffffffffffffffffffffffffffffffffffffffffffffffffff1916827bffffffffffffffffffffffffffffffffffffffffffffffffffffffff19161480610cda5750610cd9826134f5565b5b9050919050565b601960009054906101000a900473ffffffffffffffffffffffffffffffffffffffff1681565b6060600b8054610d1690615a8d565b80601f0160208091040260200160405190810160405280929190818152602001828054610d4290615a8d565b8015610d8f5780601f10610d6457610100808354040283529160200191610d8f565b820191906000526020600020905b815481529060010190602001808311610d7257829003601f168201915b5050505050905090565b6000610da4826135d7565b610de3576040517f08c379a0000000000000000000000000000000000000000000000000000000008152600401610dda90615b31565b60405180910390fd5b600f600083815260200190815260200160002060009054906101000a900473ffffffffffffffffffffffffffffffffffffffff169050919050565b6000610e2982611bd5565b90508073ffffffffffffffffffffffffffffffffffffffff168373ffffffffffffffffffffffffffffffffffffffff161415610e9a576040517f08c379a0000000000000000000000000000000000000000000000000000000008152600401610e9190615bc3565b60405180910390fd5b8073ffffffffffffffffffffffffffffffffffffffff16610eb9613643565b73ffffffffffffffffffffffffffffffffffffffff161480610ee85750610ee781610ee2613643565b613191565b5b610f27576040517f08c379a0000000000000000000000000000000000000000000000000000000008152600401610f1e90615c55565b60405180910390fd5b610f31838361364b565b505050565b6000610f5d82601d600086815260200190815260200160002061370490919063ffffffff16565b905092915050565b6060611078826040518060400160405280600481526020017f464f4f54000000000000000000000000000000000000000000000000000000008152506004805480602002602001604051908101604052809291908181526020016000905b8282101561106f578382906000526020600020018054610fe290615a8d565b80601f016020809104026020016040519081016040528092919081815260200182805461100e90615a8d565b801561105b5780601f106110305761010080835404028352916020019161105b565b820191906000526020600020905b81548152906001019060200180831161103e57829003601f168201915b505050505081526020019060010190610fc3565b5050505061371e565b9050919050565b60165481565b6000601380549050905090565b60603273ffffffffffffffffffffffffffffffffffffffff163373ffffffffffffffffffffffffffffffffffffffff1614611102576040517f08c379a00000000000000000000000000000000000000000000000000000000081526004016110f990615cc1565b60405180910390fd5b60008311611145576040517f08c379a000000000000000000000000000000000000000000000000000000000815260040161113c90615d53565b60405180910390fd5b6000611151600161333f565b905082811115611196576040517f08c379a000000000000000000000000000000000000000000000000000000000815260040161118d90615de5565b60405180910390fd5b6000600185146111ae576111a98561333f565b6111b0565b815b9050803410156111f5576040517f08c379a00000000000000000000000000000000000000000000000000000000081526004016111ec90615e51565b60405180910390fd5b8467ffffffffffffffff81111561120f5761120e615509565b5b60405190808252806020026020018201604052801561123d5781602001602082028036833780820191505090505b50925060005b858110156112f7576000601a54423360405160200161126493929190615eda565b6040516020818303038152906040528051906020012090508060001c63ffffffff1685838151811061129957611298615f17565b5b6020026020010181815250506112c9338684815181106112bc576112bb615f17565b5b6020026020010151613a6a565b6001601a60008282546112dc9190615f75565b925050819055505080806112ef90615fcb565b915050611243565b50600061130386611ee1565b905061131a81601b54613c3890919063ffffffff16565b601b81905550601960009054906101000a900473ffffffffffffffffffffffffffffffffffffffff1673ffffffffffffffffffffffffffffffffffffffff166108fc61136f8385613c4e90919063ffffffff16565b9081150290604051600060405180830381858888f1935050505015801561139a573d6000803e3d6000fd5b5060006113b08334613c4e90919063ffffffff16565b1115611410573373ffffffffffffffffffffffffffffffffffffffff166108fc6113e38434613c4e90919063ffffffff16565b9081150290604051600060405180830381858888f1935050505015801561140e573d6000803e3d6000fd5b505b601b54828560405161142291906160a4565b60405180910390207ff5705be7282ecd6328040667ea73761f5120f58ecefc8ee9b4145bf14d9a527089604051611459919061520e565b60405180910390a450505092915050565b61147b611475613643565b82613c64565b6114ba576040517f08c379a00000000000000000000000000000000000000000000000000000000081526004016114b19061612d565b60405180910390fd5b6114c5838383613d42565b505050565b6114d381611bd5565b73ffffffffffffffffffffffffffffffffffffffff163373ffffffffffffffffffffffffffffffffffffffff1614611540576040517f08c379a000000000000000000000000000000000000000000000000000000000815260040161153790616199565b60405180910390fd5b61156582601d600084815260200190815260200160002061370490919063ffffffff16565b6115a4576040517f08c379a000000000000000000000000000000000000000000000000000000000815260040161159b9061622b565b60405180910390fd5b601f60009054906101000a900473ffffffffffffffffffffffffffffffffffffffff1673ffffffffffffffffffffffffffffffffffffffff166309804a9582846040518363ffffffff1660e01b815260040161160192919061624b565b602060405180830381865afa15801561161e573d6000803e3d6000fd5b505050506040513d601f19601f820116820180604052508101906116429190616289565b156116d757601f60009054906101000a900473ffffffffffffffffffffffffffffffffffffffff1673ffffffffffffffffffffffffffffffffffffffff1663731188a882846040518363ffffffff1660e01b81526004016116a492919061624b565b600060405180830381600087803b1580156116be57600080fd5b505af11580156116d2573d6000803e3d6000fd5b505050505b601c60009054906101000a900473ffffffffffffffffffffffffffffffffffffffff1673ffffffffffffffffffffffffffffffffffffffff1663f242432a30338560016040518563ffffffff1660e01b81526004016117399493929190616328565b600060405180830381600087803b15801561175357600080fd5b505af1158015611767573d6000803e3d6000fd5b5050505061179082601d6000848152602001908152602001600020613f9e90919063ffffffff16565b506117b681601e6000858152602001908152602001600020613f9e90919063ffffffff16565b505050565b60185481565b60006117cc83611da1565b821061180d576040517f08c379a0000000000000000000000000000000000000000000000000000000008152600401611804906163f2565b60405180910390fd5b601160008473ffffffffffffffffffffffffffffffffffffffff1673ffffffffffffffffffffffffffffffffffffffff168152602001908152602001600020600083815260200190815260200160002054905092915050565b61186e613643565b73ffffffffffffffffffffffffffffffffffffffff1661188c611ef3565b73ffffffffffffffffffffffffffffffffffffffff16146118e2576040517f08c379a00000000000000000000000000000000000000000000000000000000081526004016118d99061645e565b60405180910390fd5b80601960006101000a81548173ffffffffffffffffffffffffffffffffffffffff021916908373ffffffffffffffffffffffffffffffffffffffff16021790555050565b611941838383604051806020016040528060008152506127be565b505050565b601c60009054906101000a900473ffffffffffffffffffffffffffffffffffffffff1681565b6000611976611085565b905090565b6000611985611085565b82106119c6576040517f08c379a00000000000000000000000000000000000000000000000000000000081526004016119bd906164f0565b60405180910390fd5b601382815481106119da576119d9615f17565b5b90600052602060002001549050919050565b6060611aff826040518060400160405280600481526020017f524f4c45000000000000000000000000000000000000000000000000000000008152506020805480602002602001604051908101604052809291908181526020016000905b82821015611af6578382906000526020600020018054611a6990615a8d565b80601f0160208091040260200160405190810160405280929190818152602001828054611a9590615a8d565b8015611ae25780601f10611ab757610100808354040283529160200191611ae2565b820191906000526020600020905b815481529060010190602001808311611ac557829003601f168201915b505050505081526020019060010190611a4a565b5050505061371e565b9050919050565b600080611b1161196c565b90506000811415611b26576000915050611baa565b600080600090505b84811015611ba3576000611b78611b6760185484600188611b4f9190616510565b611b599190616510565b613fb890919063ffffffff16565b601654613c3890919063ffffffff16565b9050611b8d8184613c3890919063ffffffff16565b9250508080611b9b90615fcb565b915050611b2e565b5080925050505b919050565b601f60009054906101000a900473ffffffffffffffffffffffffffffffffffffffff1681565b600080600d600084815260200190815260200160002060009054906101000a900473ffffffffffffffffffffffffffffffffffffffff169050600073ffffffffffffffffffffffffffffffffffffffff168173ffffffffffffffffffffffffffffffffffffffff161415611c7e576040517f08c379a0000000000000000000000000000000000000000000000000000000008152600401611c75906165b6565b60405180910390fd5b80915050919050565b6060611d9a826040518060400160405280600481526020017f4e45434b000000000000000000000000000000000000000000000000000000008152506006805480602002602001604051908101604052809291908181526020016000905b82821015611d91578382906000526020600020018054611d0490615a8d565b80601f0160208091040260200160405190810160405280929190818152602001828054611d3090615a8d565b8015611d7d5780601f10611d5257610100808354040283529160200191611d7d565b820191906000526020600020905b815481529060010190602001808311611d6057829003601f168201915b505050505081526020019060010190611ce5565b5050505061371e565b9050919050565b60008073ffffffffffffffffffffffffffffffffffffffff168273ffffffffffffffffffffffffffffffffffffffff161415611e12576040517f08c379a0000000000000000000000000000000000000000000000000000000008152600401611e0990616648565b60405180910390fd5b600e60008373ffffffffffffffffffffffffffffffffffffffff1673ffffffffffffffffffffffffffffffffffffffff168152602001908152602001600020549050919050565b611e61613643565b73ffffffffffffffffffffffffffffffffffffffff16611e7f611ef3565b73ffffffffffffffffffffffffffffffffffffffff1614611ed5576040517f08c379a0000000000000000000000000000000000000000000000000000000008152600401611ecc9061645e565b60405180910390fd5b611edf6000613fce565b565b6000611eec82611b06565b9050919050565b6000601560009054906101000a900473ffffffffffffffffffffffffffffffffffffffff16905090565b601a5481565b6060600c8054611f3290615a8d565b80601f0160208091040260200160405190810160405280929190818152602001828054611f5e90615a8d565b8015611fab5780601f10611f8057610100808354040283529160200191611fab565b820191906000526020600020905b815481529060010190602001808311611f8e57829003601f168201915b5050505050905090565b60606120c8826040518060400160405280600481526020017f48454144000000000000000000000000000000000000000000000000000000008152506002805480602002602001604051908101604052809291908181526020016000905b828210156120bf57838290600052602060002001805461203290615a8d565b80601f016020809104026020016040519081016040528092919081815260200182805461205e90615a8d565b80156120ab5780601f10612080576101008083540402835291602001916120ab565b820191906000526020600020905b81548152906001019060200180831161208e57829003601f168201915b505050505081526020019060010190612013565b5050505061371e565b9050919050565b60606121e2826040518060400160405280600581526020017f57414953540000000000000000000000000000000000000000000000000000008152506003805480602002602001604051908101604052809291908181526020016000905b828210156121d957838290600052602060002001805461214c90615a8d565b80601f016020809104026020016040519081016040528092919081815260200182805461217890615a8d565b80156121c55780601f1061219a576101008083540402835291602001916121c5565b820191906000526020600020905b8154815290600101906020018083116121a857829003601f168201915b50505050508152602001906001019061212d565b5050505061371e565b9050919050565b60606122fc826040518060400160405280600681526020017f574541504f4e00000000000000000000000000000000000000000000000000008152506000805480602002602001604051908101604052809291908181526020016000905b828210156122f357838290600052602060002001805461226690615a8d565b80601f016020809104026020016040519081016040528092919081815260200182805461229290615a8d565b80156122df5780601f106122b4576101008083540402835291602001916122df565b820191906000526020600020905b8154815290600101906020018083116122c257829003601f168201915b505050505081526020019060010190612247565b5050505061371e565b9050919050565b6000601c60009054906101000a900473ffffffffffffffffffffffffffffffffffffffff1673ffffffffffffffffffffffffffffffffffffffff1662fdd58e33856040518363ffffffff1660e01b8152600401612361929190616668565b602060405180830381865afa15801561237e573d6000803e3d6000fd5b505050506040513d601f19601f820116820180604052508101906123a291906166a6565b116123e2576040517f08c379a00000000000000000000000000000000000000000000000000000000081526004016123d99061671f565b60405180910390fd5b6123eb81611bd5565b73ffffffffffffffffffffffffffffffffffffffff163373ffffffffffffffffffffffffffffffffffffffff1614612458576040517f08c379a000000000000000000000000000000000000000000000000000000000815260040161244f90616199565b60405180910390fd5b61247d82601d600084815260200190815260200160002061370490919063ffffffff16565b156124bd576040517f08c379a00000000000000000000000000000000000000000000000000000000081526004016124b4906167b1565b60405180910390fd5b601c60009054906101000a900473ffffffffffffffffffffffffffffffffffffffff1673ffffffffffffffffffffffffffffffffffffffff1663f242432a33308560016040518563ffffffff1660e01b815260040161251f9493929190616328565b600060405180830381600087803b15801561253957600080fd5b505af115801561254d573d6000803e3d6000fd5b5050505061257682601d600084815260200190815260200160002061409490919063ffffffff16565b5061259c81601e600085815260200190815260200160002061409490919063ffffffff16565b505050565b6125b36125ac613643565b83836140ae565b5050565b3273ffffffffffffffffffffffffffffffffffffffff163373ffffffffffffffffffffffffffffffffffffffff1614612625576040517f08c379a000000000000000000000000000000000000000000000000000000000815260040161261c90615cc1565b60405180910390fd5b60006126318251611b06565b905060005b82518110156127055761266283828151811061265557612654615f17565b5b6020026020010151611bd5565b73ffffffffffffffffffffffffffffffffffffffff163373ffffffffffffffffffffffffffffffffffffffff16146126cf576040517f08c379a00000000000000000000000000000000000000000000000000000000081526004016126c69061681d565b60405180910390fd5b6126f28382815181106126e5576126e4615f17565b5b602002602001015161421b565b80806126fd90615fcb565b915050612636565b5061271b81601b54613c4e90919063ffffffff16565b601b819055503373ffffffffffffffffffffffffffffffffffffffff166108fc829081150290604051600060405180830381858888f19350505050158015612767573d6000803e3d6000fd5b50601b54818360405161277a91906160a4565b60405180910390207fc4f0ab9a1e75e794af20b71e07383c194780132094987b97038b2a274a5352dd85516040516127b2919061520e565b60405180910390a45050565b6127cf6127c9613643565b83613c64565b61280e576040517f08c379a00000000000000000000000000000000000000000000000000000000081526004016128059061612d565b60405180910390fd5b61281a8484848461432c565b50505050565b612828613643565b73ffffffffffffffffffffffffffffffffffffffff16612846611ef3565b73ffffffffffffffffffffffffffffffffffffffff161461289c576040517f08c379a00000000000000000000000000000000000000000000000000000000081526004016128939061645e565b60405180910390fd5b80601f60006101000a81548173ffffffffffffffffffffffffffffffffffffffff021916908373ffffffffffffffffffffffffffffffffffffffff16021790555050565b60007fc5d2460186f7233c927e7db2dcc703c0e500b653ca82273b7bfad8045d85a470905098975050505050505050565b6060612a24826040518060400160405280600481526020017f52494e47000000000000000000000000000000000000000000000000000000008152506007805480602002602001604051908101604052809291908181526020016000905b82821015612a1b57838290600052602060002001805461298e90615a8d565b80601f01602080910402602001604051908101604052809291908181526020018280546129ba90615a8d565b8015612a075780601f106129dc57610100808354040283529160200191612a07565b820191906000526020600020905b8154815290600101906020018083116129ea57829003601f168201915b50505050508152602001906001019061296f565b5050505061371e565b9050919050565b6060612a35614e7f565b60405180610120016040528060fd815260200161753160fd913981600060138110612a6357612a62615f17565b5b6020020181905250612a74836121e9565b81600160138110612a8857612a87615f17565b5b60200201819052506040518060600160405280602881526020016176976028913981600260138110612abd57612abc615f17565b5b6020020181905250612ace83613225565b81600360138110612ae257612ae1615f17565b5b60200201819052506040518060600160405280602881526020016174666028913981600460138110612b1757612b16615f17565b5b6020020181905250612b2883611fb5565b81600560138110612b3c57612b3b615f17565b5b60200201819052506040518060600160405280602881526020016174e06028913981600660138110612b7157612b70615f17565b5b6020020181905250612b82836120cf565b81600760138110612b9657612b95615f17565b5b60200201819052506040518060600160405280602981526020016175086029913981600860138110612bcb57612bca615f17565b5b6020020181905250612bdc83610f65565b81600960138110612bf057612bef615f17565b5b60200201819052506040518060600160405280602981526020016174b76029913981600a60138110612c2557612c24615f17565b5b6020020181905250612c3683613077565b81600b60138110612c4a57612c49615f17565b5b602002018190525060405180606001604052806029815260200161762e6029913981600c60138110612c7f57612c7e615f17565b5b6020020181905250612c9083611c87565b81600d60138110612ca457612ca3615f17565b5b602002018190525060405180606001604052806029815260200161748e6029913981600e60138110612cd957612cd8615f17565b5b6020020181905250612cea83612911565b81600f60138110612cfe57612cfd615f17565b5b60200201819052506040518060600160405280602981526020016176bf6029913981601060138110612d3357612d32615f17565b5b6020020181905250612d44836119ec565b81601160138110612d5857612d57615f17565b5b60200201819052506040518060400160405280600d81526020017f3c2f746578743e3c2f7376673e0000000000000000000000000000000000000081525081601260138110612daa57612da9615f17565b5b6020020181905250600081600060138110612dc857612dc7615f17565b5b602002015182600160138110612de157612de0615f17565b5b602002015183600260138110612dfa57612df9615f17565b5b602002015184600360138110612e1357612e12615f17565b5b602002015185600460138110612e2c57612e2b615f17565b5b602002015186600560138110612e4557612e44615f17565b5b602002015187600660138110612e5e57612e5d615f17565b5b602002015188600760138110612e7757612e76615f17565b5b602002015189600860138110612e9057612e8f615f17565b5b6020020151604051602001612ead99989796959493929190616879565b60405160208183030381529060405290508082600960138110612ed357612ed2615f17565b5b602002015183600a60138110612eec57612eeb615f17565b5b602002015184600b60138110612f0557612f04615f17565b5b602002015185600c60138110612f1e57612f1d615f17565b5b602002015186600d60138110612f3757612f36615f17565b5b602002015187600e60138110612f5057612f4f615f17565b5b602002015188600f60138110612f6957612f68615f17565b5b602002015189601060138110612f8257612f81615f17565b5b6020020151604051602001612f9f99989796959493929190616879565b60405160208183030381529060405290508082601160138110612fc557612fc4615f17565b5b602002015183601260138110612fde57612fdd615f17565b5b6020020151604051602001612ff5939291906168f8565b6040516020818303038152906040529050600061304261301486614388565b61301d846144e9565b60405160200161302e929190616acb565b6040516020818303038152906040526144e9565b9050806040516020016130559190616b5c565b6040516020818303038152906040529150819350505050919050565b601b5481565b606061318a826040518060400160405280600481526020017f48414e44000000000000000000000000000000000000000000000000000000008152506005805480602002602001604051908101604052809291908181526020016000905b828210156131815783829060005260206000200180546130f490615a8d565b80601f016020809104026020016040519081016040528092919081815260200182805461312090615a8d565b801561316d5780601f106131425761010080835404028352916020019161316d565b820191906000526020600020905b81548152906001019060200180831161315057829003601f168201915b5050505050815260200190600101906130d5565b5050505061371e565b9050919050565b6000601060008473ffffffffffffffffffffffffffffffffffffffff1673ffffffffffffffffffffffffffffffffffffffff16815260200190815260200160002060008373ffffffffffffffffffffffffffffffffffffffff1673ffffffffffffffffffffffffffffffffffffffff16815260200190815260200160002060009054906101000a900460ff16905092915050565b6060613338826040518060400160405280600581526020017f43484553540000000000000000000000000000000000000000000000000000008152506001805480602002602001604051908101604052809291908181526020016000905b8282101561332f5783829060005260206000200180546132a290615a8d565b80601f01602080910402602001604051908101604052809291908181526020018280546132ce90615a8d565b801561331b5780601f106132f05761010080835404028352916020019161331b565b820191906000526020600020905b8154815290600101906020018083116132fe57829003601f168201915b505050505081526020019060010190613283565b5050505061371e565b9050919050565b60008061334a61196c565b9050600080600090505b848110156133bd57600061339261338160175484876133739190615f75565b613fb890919063ffffffff16565b601654613c3890919063ffffffff16565b90506133a78184613c3890919063ffffffff16565b92505080806133b590615fcb565b915050613354565b508092505050919050565b60007ff23a6e612e1ff4830e658fe43f4e3cb4a5f8170bd5d9e69fb5d7a7fa9e4fdf9790509695505050505050565b6133ff613643565b73ffffffffffffffffffffffffffffffffffffffff1661341d611ef3565b73ffffffffffffffffffffffffffffffffffffffff1614613473576040517f08c379a000000000000000000000000000000000000000000000000000000000815260040161346a9061645e565b60405180910390fd5b600073ffffffffffffffffffffffffffffffffffffffff168173ffffffffffffffffffffffffffffffffffffffff1614156134e3576040517f08c379a00000000000000000000000000000000000000000000000000000000081526004016134da90616bf0565b60405180910390fd5b6134ec81613fce565b50565b60175481565b60007f80ac58cd000000000000000000000000000000000000000000000000000000007bffffffffffffffffffffffffffffffffffffffffffffffffffffffff1916827bffffffffffffffffffffffffffffffffffffffffffffffffffffffff191614806135c057507f5b5e139f000000000000000000000000000000000000000000000000000000007bffffffffffffffffffffffffffffffffffffffffffffffffffffffff1916827bffffffffffffffffffffffffffffffffffffffffffffffffffffffff1916145b806135d057506135cf82614681565b5b9050919050565b60008073ffffffffffffffffffffffffffffffffffffffff16600d600084815260200190815260200160002060009054906101000a900473ffffffffffffffffffffffffffffffffffffffff1673ffffffffffffffffffffffffffffffffffffffff1614159050919050565b600033905090565b81600f600083815260200190815260200160002060006101000a81548173ffffffffffffffffffffffffffffffffffffffff021916908373ffffffffffffffffffffffffffffffffffffffff160217905550808273ffffffffffffffffffffffffffffffffffffffff166136be83611bd5565b73ffffffffffffffffffffffffffffffffffffffff167f8c5be1e5ebec7d5bd14f71427d1e84f3dd0314c0f7b2291e5b200ac8c7c3b92560405160405180910390a45050565b6000613716836000018360001b6146eb565b905092915050565b606060006137548461372f87614388565b604051602001613740929190616c10565b60405160208183030381529060405261470e565b90506000838451836137669190616c63565b8151811061377757613776615f17565b5b6020026020010151905060006015836137909190616c63565b9050600e8111156137ec578160088080549050856137ae9190616c63565b815481106137bf576137be615f17565b5b906000526020600020016040516020016137da929190616d74565b60405160208183030381529060405291505b60138110613a5d576137fc614ea7565b600980805490508561380e9190616c63565b8154811061381f5761381e615f17565b5b90600052602060002001805461383490615a8d565b80601f016020809104026020016040519081016040528092919081815260200182805461386090615a8d565b80156138ad5780601f10613882576101008083540402835291602001916138ad565b820191906000526020600020905b81548152906001019060200180831161389057829003601f168201915b5050505050816000600281106138c6576138c5615f17565b5b6020020181905250600a8080549050856138e09190616c63565b815481106138f1576138f0615f17565b5b90600052602060002001805461390690615a8d565b80601f016020809104026020016040519081016040528092919081815260200182805461393290615a8d565b801561397f5780601f106139545761010080835404028352916020019161397f565b820191906000526020600020905b81548152906001019060200180831161396257829003601f168201915b50505050508160016002811061399857613997615f17565b5b60200201819052506013821415613a0457806000600281106139bd576139bc615f17565b5b6020020151816001600281106139d6576139d5615f17565b5b6020020151846040516020016139ee93929190616e3b565b6040516020818303038152906040529250613a5b565b80600060028110613a1857613a17615f17565b5b602002015181600160028110613a3157613a30615f17565b5b602002015184604051602001613a4993929190616ed9565b60405160208183030381529060405292505b505b8193505050509392505050565b600073ffffffffffffffffffffffffffffffffffffffff168273ffffffffffffffffffffffffffffffffffffffff161415613ada576040517f08c379a0000000000000000000000000000000000000000000000000000000008152600401613ad190616f82565b60405180910390fd5b613ae3816135d7565b15613b23576040517f08c379a0000000000000000000000000000000000000000000000000000000008152600401613b1a90616fee565b60405180910390fd5b613b2f60008383614741565b6001600e60008473ffffffffffffffffffffffffffffffffffffffff1673ffffffffffffffffffffffffffffffffffffffff1681526020019081526020016000206000828254613b7f9190615f75565b9250508190555081600d600083815260200190815260200160002060006101000a81548173ffffffffffffffffffffffffffffffffffffffff021916908373ffffffffffffffffffffffffffffffffffffffff160217905550808273ffffffffffffffffffffffffffffffffffffffff16600073ffffffffffffffffffffffffffffffffffffffff167fddf252ad1be2c89b69c2b068fc378daa952ba7f163c4a11628f55a4df523b3ef60405160405180910390a45050565b60008183613c469190615f75565b905092915050565b60008183613c5c9190616510565b905092915050565b6000613c6f826135d7565b613cae576040517f08c379a0000000000000000000000000000000000000000000000000000000008152600401613ca590617080565b60405180910390fd5b6000613cb983611bd5565b90508073ffffffffffffffffffffffffffffffffffffffff168473ffffffffffffffffffffffffffffffffffffffff161480613d2857508373ffffffffffffffffffffffffffffffffffffffff16613d1084610d99565b73ffffffffffffffffffffffffffffffffffffffff16145b80613d395750613d388185613191565b5b91505092915050565b8273ffffffffffffffffffffffffffffffffffffffff16613d6282611bd5565b73ffffffffffffffffffffffffffffffffffffffff1614613db8576040517f08c379a0000000000000000000000000000000000000000000000000000000008152600401613daf90617112565b60405180910390fd5b600073ffffffffffffffffffffffffffffffffffffffff168273ffffffffffffffffffffffffffffffffffffffff161415613e28576040517f08c379a0000000000000000000000000000000000000000000000000000000008152600401613e1f906171a4565b60405180910390fd5b613e33838383614741565b613e3e60008261364b565b6001600e60008573ffffffffffffffffffffffffffffffffffffffff1673ffffffffffffffffffffffffffffffffffffffff1681526020019081526020016000206000828254613e8e9190616510565b925050819055506001600e60008473ffffffffffffffffffffffffffffffffffffffff1673ffffffffffffffffffffffffffffffffffffffff1681526020019081526020016000206000828254613ee59190615f75565b9250508190555081600d600083815260200190815260200160002060006101000a81548173ffffffffffffffffffffffffffffffffffffffff021916908373ffffffffffffffffffffffffffffffffffffffff160217905550808273ffffffffffffffffffffffffffffffffffffffff168473ffffffffffffffffffffffffffffffffffffffff167fddf252ad1be2c89b69c2b068fc378daa952ba7f163c4a11628f55a4df523b3ef60405160405180910390a4505050565b6000613fb0836000018360001b614855565b905092915050565b60008183613fc691906171c4565b905092915050565b6000601560009054906101000a900473ffffffffffffffffffffffffffffffffffffffff16905081601560006101000a81548173ffffffffffffffffffffffffffffffffffffffff021916908373ffffffffffffffffffffffffffffffffffffffff1602179055508173ffffffffffffffffffffffffffffffffffffffff168173ffffffffffffffffffffffffffffffffffffffff167f8be0079c531659141344cd1fd0a4f28419497f9722a3daafe3b4186f6b6457e060405160405180910390a35050565b60006140a6836000018360001b614969565b905092915050565b8173ffffffffffffffffffffffffffffffffffffffff168373ffffffffffffffffffffffffffffffffffffffff16141561411d576040517f08c379a00000000000000000000000000000000000000000000000000000000081526004016141149061726a565b60405180910390fd5b80601060008573ffffffffffffffffffffffffffffffffffffffff1673ffffffffffffffffffffffffffffffffffffffff16815260200190815260200160002060008473ffffffffffffffffffffffffffffffffffffffff1673ffffffffffffffffffffffffffffffffffffffff16815260200190815260200160002060006101000a81548160ff0219169083151502179055508173ffffffffffffffffffffffffffffffffffffffff168373ffffffffffffffffffffffffffffffffffffffff167f17307eab39ab6107e8899845ad3d59bd9653f200f220920489ca2b5937696c318360405161420e9190614f82565b60405180910390a3505050565b600061422682611bd5565b905061423481600084614741565b61423f60008361364b565b6001600e60008373ffffffffffffffffffffffffffffffffffffffff1673ffffffffffffffffffffffffffffffffffffffff168152602001908152602001600020600082825461428f9190616510565b92505081905550600d600083815260200190815260200160002060006101000a81549073ffffffffffffffffffffffffffffffffffffffff021916905581600073ffffffffffffffffffffffffffffffffffffffff168273ffffffffffffffffffffffffffffffffffffffff167fddf252ad1be2c89b69c2b068fc378daa952ba7f163c4a11628f55a4df523b3ef60405160405180910390a45050565b614337848484613d42565b614343848484846149d9565b614382576040517f08c379a0000000000000000000000000000000000000000000000000000000008152600401614379906172fc565b60405180910390fd5b50505050565b606060008214156143d0576040518060400160405280600181526020017f300000000000000000000000000000000000000000000000000000000000000081525090506144e4565b600082905060005b600082146144025780806143eb90615fcb565b915050600a826143fb919061731c565b91506143d8565b60008167ffffffffffffffff81111561441e5761441d615509565b5b6040519080825280601f01601f1916602001820160405280156144505781602001600182028036833780820191505090505b5090505b600085146144dd576001826144699190616510565b9150600a856144789190616c63565b60306144849190615f75565b60f81b81838151811061449a57614499615f17565b5b60200101907effffffffffffffffffffffffffffffffffffffffffffffffffffffffffffff1916908160001a905350600a856144d6919061731c565b9450614454565b8093505050505b919050565b60606000825190506000811415614512576040518060200160405280600081525091505061467c565b600060036002836145239190615f75565b61452d919061731c565b600461453991906171c4565b9050600060208261454a9190615f75565b67ffffffffffffffff81111561456357614562615509565b5b6040519080825280601f01601f1916602001820160405280156145955781602001600182028036833780820191505090505b5090506000604051806060016040528060408152602001617657604091399050600181016020830160005b868110156146395760038101905062ffffff818a015116603f8160121c168401518060081b905060ff603f83600c1c1686015116810190508060081b905060ff603f8360061c1686015116810190508060081b905060ff603f831686015116810190508060e01b905080845260048401935050506145c0565b50600386066001811461465357600281146146635761466e565b613d3d60f01b600283035261466e565b603d60f81b60018303525b508484525050819450505050505b919050565b60007f01ffc9a7000000000000000000000000000000000000000000000000000000007bffffffffffffffffffffffffffffffffffffffffffffffffffffffff1916827bffffffffffffffffffffffffffffffffffffffffffffffffffffffff1916149050919050565b600080836001016000848152602001908152602001600020541415905092915050565b600081604051602001614721919061734d565b6040516020818303038152906040528051906020012060001c9050919050565b61474c838383614b61565b600073ffffffffffffffffffffffffffffffffffffffff168373ffffffffffffffffffffffffffffffffffffffff16141561478f5761478a81614b66565b6147ce565b8173ffffffffffffffffffffffffffffffffffffffff168373ffffffffffffffffffffffffffffffffffffffff16146147cd576147cc8382614baf565b5b5b600073ffffffffffffffffffffffffffffffffffffffff168273ffffffffffffffffffffffffffffffffffffffff1614156148115761480c81614d1c565b614850565b8273ffffffffffffffffffffffffffffffffffffffff168273ffffffffffffffffffffffffffffffffffffffff161461484f5761484e8282614ded565b5b5b505050565b6000808360010160008481526020019081526020016000205490506000811461495d5760006001826148879190616510565b905060006001866000018054905061489f9190616510565b905081811461490e5760008660000182815481106148c0576148bf615f17565b5b90600052602060002001549050808760000184815481106148e4576148e3615f17565b5b90600052602060002001819055508387600101600083815260200190815260200160002081905550505b8560000180548061492257614921617364565b5b600190038181906000526020600020016000905590558560010160008681526020019081526020016000206000905560019350505050614963565b60009150505b92915050565b600061497583836146eb565b6149ce5782600001829080600181540180825580915050600190039060005260206000200160009091909190915055826000018054905083600101600084815260200190815260200160002081905550600190506149d3565b600090505b92915050565b60006149fa8473ffffffffffffffffffffffffffffffffffffffff16614e6c565b15614b54578373ffffffffffffffffffffffffffffffffffffffff1663150b7a02614a23613643565b8786866040518563ffffffff1660e01b8152600401614a4594939291906173d7565b6020604051808303816000875af1925050508015614a8157506040513d601f19601f82011682018060405250810190614a7e9190617438565b60015b614b04573d8060008114614ab1576040519150601f19603f3d011682016040523d82523d6000602084013e614ab6565b606091505b50600081511415614afc576040517f08c379a0000000000000000000000000000000000000000000000000000000008152600401614af3906172fc565b60405180910390fd5b805181602001fd5b63150b7a0260e01b7bffffffffffffffffffffffffffffffffffffffffffffffffffffffff1916817bffffffffffffffffffffffffffffffffffffffffffffffffffffffff191614915050614b59565b600190505b949350505050565b505050565b6013805490506014600083815260200190815260200160002081905550601381908060018154018082558091505060019003906000526020600020016000909190919091505550565b60006001614bbc84611da1565b614bc69190616510565b9050600060126000848152602001908152602001600020549050818114614cab576000601160008673ffffffffffffffffffffffffffffffffffffffff1673ffffffffffffffffffffffffffffffffffffffff168152602001908152602001600020600084815260200190815260200160002054905080601160008773ffffffffffffffffffffffffffffffffffffffff1673ffffffffffffffffffffffffffffffffffffffff168152602001908152602001600020600084815260200190815260200160002081905550816012600083815260200190815260200160002081905550505b6012600084815260200190815260200160002060009055601160008573ffffffffffffffffffffffffffffffffffffffff1673ffffffffffffffffffffffffffffffffffffffff16815260200190815260200160002060008381526020019081526020016000206000905550505050565b60006001601380549050614d309190616510565b9050600060146000848152602001908152602001600020549050600060138381548110614d6057614d5f615f17565b5b906000526020600020015490508060138381548110614d8257614d81615f17565b5b906000526020600020018190555081601460008381526020019081526020016000208190555060146000858152602001908152602001600020600090556013805480614dd157614dd0617364565b5b6001900381819060005260206000200160009055905550505050565b6000614df883611da1565b905081601160008573ffffffffffffffffffffffffffffffffffffffff1673ffffffffffffffffffffffffffffffffffffffff168152602001908152602001600020600083815260200190815260200160002081905550806012600084815260200190815260200160002081905550505050565b600080823b905060008111915050919050565b6040518061026001604052806013905b6060815260200190600190039081614e8f5790505090565b60405180604001604052806002905b6060815260200190600190039081614eb65790505090565b6000604051905090565b600080fd5b600080fd5b60007fffffffff0000000000000000000000000000000000000000000000000000000082169050919050565b614f1781614ee2565b8114614f2257600080fd5b50565b600081359050614f3481614f0e565b92915050565b600060208284031215614f5057614f4f614ed8565b5b6000614f5e84828501614f25565b91505092915050565b60008115159050919050565b614f7c81614f67565b82525050565b6000602082019050614f976000830184614f73565b92915050565b600073ffffffffffffffffffffffffffffffffffffffff82169050919050565b6000614fc882614f9d565b9050919050565b614fd881614fbd565b82525050565b6000602082019050614ff36000830184614fcf565b92915050565b600081519050919050565b600082825260208201905092915050565b60005b83811015615033578082015181840152602081019050615018565b83811115615042576000848401525b50505050565b6000601f19601f8301169050919050565b600061506482614ff9565b61506e8185615004565b935061507e818560208601615015565b61508781615048565b840191505092915050565b600060208201905081810360008301526150ac8184615059565b905092915050565b6000819050919050565b6150c7816150b4565b81146150d257600080fd5b50565b6000813590506150e4816150be565b92915050565b600060208284031215615100576150ff614ed8565b5b600061510e848285016150d5565b91505092915050565b600061512282614f9d565b9050919050565b61513281615117565b82525050565b600060208201905061514d6000830184615129565b92915050565b61515c81615117565b811461516757600080fd5b50565b60008135905061517981615153565b92915050565b6000806040838503121561519657615195614ed8565b5b60006151a48582860161516a565b92505060206151b5858286016150d5565b9150509250929050565b600080604083850312156151d6576151d5614ed8565b5b60006151e4858286016150d5565b92505060206151f5858286016150d5565b9150509250929050565b615208816150b4565b82525050565b600060208201905061522360008301846151ff565b92915050565b600081519050919050565b600082825260208201905092915050565b6000819050602082019050919050565b61525e816150b4565b82525050565b60006152708383615255565b60208301905092915050565b6000602082019050919050565b600061529482615229565b61529e8185615234565b93506152a983615245565b8060005b838110156152da5781516152c18882615264565b97506152cc8361527c565b9250506001810190506152ad565b5085935050505092915050565b600060208201905081810360008301526153018184615289565b905092915050565b60008060006060848603121561532257615321614ed8565b5b60006153308682870161516a565b93505060206153418682870161516a565b9250506040615352868287016150d5565b9150509250925092565b61536581614fbd565b811461537057600080fd5b50565b6000813590506153828161535c565b92915050565b60006020828403121561539e5761539d614ed8565b5b60006153ac84828501615373565b91505092915050565b6000819050919050565b60006153da6153d56153d084614f9d565b6153b5565b614f9d565b9050919050565b60006153ec826153bf565b9050919050565b60006153fe826153e1565b9050919050565b61540e816153f3565b82525050565b60006020820190506154296000830184615405565b92915050565b600061543a826153e1565b9050919050565b61544a8161542f565b82525050565b60006020820190506154656000830184615441565b92915050565b60006020828403121561548157615480614ed8565b5b600061548f8482850161516a565b91505092915050565b6154a181614f67565b81146154ac57600080fd5b50565b6000813590506154be81615498565b92915050565b600080604083850312156154db576154da614ed8565b5b60006154e98582860161516a565b92505060206154fa858286016154af565b9150509250929050565b600080fd5b7f4e487b7100000000000000000000000000000000000000000000000000000000600052604160045260246000fd5b61554182615048565b810181811067ffffffffffffffff821117156155605761555f615509565b5b80604052505050565b6000615573614ece565b905061557f8282615538565b919050565b600067ffffffffffffffff82111561559f5761559e615509565b5b602082029050602081019050919050565b600080fd5b60006155c86155c384615584565b615569565b905080838252602082019050602084028301858111156155eb576155ea6155b0565b5b835b81811015615614578061560088826150d5565b8452602084019350506020810190506155ed565b5050509392505050565b600082601f83011261563357615632615504565b5b81356156438482602086016155b5565b91505092915050565b60006020828403121561566257615661614ed8565b5b600082013567ffffffffffffffff8111156156805761567f614edd565b5b61568c8482850161561e565b91505092915050565b600080fd5b600067ffffffffffffffff8211156156b5576156b4615509565b5b6156be82615048565b9050602081019050919050565b82818337600083830152505050565b60006156ed6156e88461569a565b615569565b90508281526020810184848401111561570957615708615695565b5b6157148482856156cb565b509392505050565b600082601f83011261573157615730615504565b5b81356157418482602086016156da565b91505092915050565b6000806000806080858703121561576457615763614ed8565b5b60006157728782880161516a565b94505060206157838782880161516a565b9350506040615794878288016150d5565b925050606085013567ffffffffffffffff8111156157b5576157b4614edd565b5b6157c18782880161571c565b91505092959194509250565b600080fd5b60008083601f8401126157e8576157e7615504565b5b8235905067ffffffffffffffff811115615805576158046157cd565b5b602083019150836020820283011115615821576158206155b0565b5b9250929050565b60008083601f84011261583e5761583d615504565b5b8235905067ffffffffffffffff81111561585b5761585a6157cd565b5b602083019150836001820283011115615877576158766155b0565b5b9250929050565b60008060008060008060008060a0898b03121561589e5761589d614ed8565b5b60006158ac8b828c0161516a565b98505060206158bd8b828c0161516a565b975050604089013567ffffffffffffffff8111156158de576158dd614edd565b5b6158ea8b828c016157d2565b9650965050606089013567ffffffffffffffff81111561590d5761590c614edd565b5b6159198b828c016157d2565b9450945050608089013567ffffffffffffffff81111561593c5761593b614edd565b5b6159488b828c01615828565b92509250509295985092959890939650565b61596381614ee2565b82525050565b600060208201905061597e600083018461595a565b92915050565b6000806040838503121561599b5761599a614ed8565b5b60006159a98582860161516a565b92505060206159ba8582860161516a565b9150509250929050565b60008060008060008060a087890312156159e1576159e0614ed8565b5b60006159ef89828a0161516a565b9650506020615a0089828a0161516a565b9550506040615a1189828a016150d5565b9450506060615a2289828a016150d5565b935050608087013567ffffffffffffffff811115615a4357615a42614edd565b5b615a4f89828a01615828565b92509250509295509295509295565b7f4e487b7100000000000000000000000000000000000000000000000000000000600052602260045260246000fd5b60006002820490506001821680615aa557607f821691505b60208210811415615ab957615ab8615a5e565b5b50919050565b7f4552433732313a20617070726f76656420717565727920666f72206e6f6e657860008201527f697374656e7420746f6b656e0000000000000000000000000000000000000000602082015250565b6000615b1b602c83615004565b9150615b2682615abf565b604082019050919050565b60006020820190508181036000830152615b4a81615b0e565b9050919050565b7f4552433732313a20617070726f76616c20746f2063757272656e74206f776e6560008201527f7200000000000000000000000000000000000000000000000000000000000000602082015250565b6000615bad602183615004565b9150615bb882615b51565b604082019050919050565b60006020820190508181036000830152615bdc81615ba0565b9050919050565b7f4552433732313a20617070726f76652063616c6c6572206973206e6f74206f7760008201527f6e6572206e6f7220617070726f76656420666f7220616c6c0000000000000000602082015250565b6000615c3f603883615004565b9150615c4a82615be3565b604082019050919050565b60006020820190508181036000830152615c6e81615c32565b9050919050565b7f526f626f743a206f6e6c7920454f410000000000000000000000000000000000600082015250565b6000615cab600f83615004565b9150615cb682615c75565b602082019050919050565b60006020820190508181036000830152615cda81615c9e565b9050919050565b7f526f626f743a205f616d6f756e74206d757374206265206c617267657220746860008201527f616e207a65726f2e000000000000000000000000000000000000000000000000602082015250565b6000615d3d602883615004565b9150615d4882615ce1565b604082019050919050565b60006020820190508181036000830152615d6c81615d30565b9050919050565b7f526f626f743a20507269636520646f6573204e4f54206d6174636820796f757260008201527f2065787065637465642e00000000000000000000000000000000000000000000602082015250565b6000615dcf602a83615004565b9150615dda82615d73565b604082019050919050565b60006020820190508181036000830152615dfe81615dc2565b9050919050565b7f526f626f743a204e6f7420656e6f756768204554482073656e74000000000000600082015250565b6000615e3b601a83615004565b9150615e4682615e05565b602082019050919050565b60006020820190508181036000830152615e6a81615e2e565b9050919050565b6000819050919050565b615e8c615e87826150b4565b615e71565b82525050565b60008160601b9050919050565b6000615eaa82615e92565b9050919050565b6000615ebc82615e9f565b9050919050565b615ed4615ecf82615117565b615eb1565b82525050565b6000615ee68286615e7b565b602082019150615ef68285615e7b565b602082019150615f068284615ec3565b601482019150819050949350505050565b7f4e487b7100000000000000000000000000000000000000000000000000000000600052603260045260246000fd5b7f4e487b7100000000000000000000000000000000000000000000000000000000600052601160045260246000fd5b6000615f80826150b4565b9150615f8b836150b4565b9250827fffffffffffffffffffffffffffffffffffffffffffffffffffffffffffffffff03821115615fc057615fbf615f46565b5b828201905092915050565b6000615fd6826150b4565b91507fffffffffffffffffffffffffffffffffffffffffffffffffffffffffffffffff82141561600957616008615f46565b5b600182019050919050565b600081905092915050565b616028816150b4565b82525050565b600061603a838361601f565b60208301905092915050565b600061605182615229565b61605b8185616014565b935061606683615245565b8060005b8381101561609757815161607e888261602e565b97506160898361527c565b92505060018101905061606a565b5085935050505092915050565b60006160b08284616046565b915081905092915050565b7f4552433732313a207472616e736665722063616c6c6572206973206e6f74206f60008201527f776e6572206e6f7220617070726f766564000000000000000000000000000000602082015250565b6000616117603183615004565b9150616122826160bb565b604082019050919050565b600060208201905081810360008301526161468161610a565b9050919050565b7f526f626f743a20726f626f74204e4f542062656c6f6e6720746f20796f750000600082015250565b6000616183601e83615004565b915061618e8261614d565b602082019050919050565b600060208201905081810360008301526161b281616176565b9050919050565b7f526f626f743a207468652070726f6772616d20686173204e4f54206265656e2060008201527f626f756e642074686520726f626f740000000000000000000000000000000000602082015250565b6000616215602f83615004565b9150616220826161b9565b604082019050919050565b6000602082019050818103600083015261624481616208565b9050919050565b600060408201905061626060008301856151ff565b61626d60208301846151ff565b9392505050565b60008151905061628381615498565b92915050565b60006020828403121561629f5761629e614ed8565b5b60006162ad84828501616274565b91505092915050565b6000819050919050565b60006162db6162d66162d1846162b6565b6153b5565b6150b4565b9050919050565b6162eb816162c0565b82525050565b600082825260208201905092915050565b50565b60006163126000836162f1565b915061631d82616302565b600082019050919050565b600060a08201905061633d6000830187615129565b61634a6020830186615129565b61635760408301856151ff565b61636460608301846162e2565b818103608083015261637581616305565b905095945050505050565b7f455243373231456e756d657261626c653a206f776e657220696e646578206f7560008201527f74206f6620626f756e6473000000000000000000000000000000000000000000602082015250565b60006163dc602b83615004565b91506163e782616380565b604082019050919050565b6000602082019050818103600083015261640b816163cf565b9050919050565b7f4f776e61626c653a2063616c6c6572206973206e6f7420746865206f776e6572600082015250565b6000616448602083615004565b915061645382616412565b602082019050919050565b600060208201905081810360008301526164778161643b565b9050919050565b7f455243373231456e756d657261626c653a20676c6f62616c20696e646578206f60008201527f7574206f6620626f756e64730000000000000000000000000000000000000000602082015250565b60006164da602c83615004565b91506164e58261647e565b604082019050919050565b60006020820190508181036000830152616509816164cd565b9050919050565b600061651b826150b4565b9150616526836150b4565b92508282101561653957616538615f46565b5b828203905092915050565b7f4552433732313a206f776e657220717565727920666f72206e6f6e657869737460008201527f656e7420746f6b656e0000000000000000000000000000000000000000000000602082015250565b60006165a0602983615004565b91506165ab82616544565b604082019050919050565b600060208201905081810360008301526165cf81616593565b9050919050565b7f4552433732313a2062616c616e636520717565727920666f7220746865207a6560008201527f726f206164647265737300000000000000000000000000000000000000000000602082015250565b6000616632602a83615004565b915061663d826165d6565b604082019050919050565b6000602082019050818103600083015261666181616625565b9050919050565b600060408201905061667d6000830185615129565b61668a60208301846151ff565b9392505050565b6000815190506166a0816150be565b92915050565b6000602082840312156166bc576166bb614ed8565b5b60006166ca84828501616691565b91505092915050565b7f526f626f743a20796f752068617665206e6f2070726f6772616d000000000000600082015250565b6000616709601a83615004565b9150616714826166d3565b602082019050919050565b60006020820190508181036000830152616738816166fc565b9050919050565b7f526f626f743a2074686520726f626f742068617320626f756e6420746865207060008201527f726f6772616d0000000000000000000000000000000000000000000000000000602082015250565b600061679b602683615004565b91506167a68261673f565b604082019050919050565b600060208201905081810360008301526167ca8161678e565b9050919050565b7f526f626f743a204e6f742074686520636f7272656374206f776e657200000000600082015250565b6000616807601c83615004565b9150616812826167d1565b602082019050919050565b60006020820190508181036000830152616836816167fa565b9050919050565b600081905092915050565b600061685382614ff9565b61685d818561683d565b935061686d818560208601615015565b80840191505092915050565b6000616885828c616848565b9150616891828b616848565b915061689d828a616848565b91506168a98289616848565b91506168b58288616848565b91506168c18287616848565b91506168cd8286616848565b91506168d98285616848565b91506168e58284616848565b91508190509a9950505050505050505050565b60006169048286616848565b91506169108285616848565b915061691c8284616848565b9150819050949350505050565b7f7b226e616d65223a2022526f626f742023000000000000000000000000000000600082015250565b600061695f60118361683d565b915061696a82616929565b601182019050919050565b7f222c20226465736372697074696f6e223a2022526f626f742069732072616e6460008201527f6f6d6c792067656e657261746564204e465420776974682065717569706d656e60208201527f742c20616e642063616e2061737369676e2050726f6772616d204e465473207460408201527f6f20726f626f742c207468757320726f626f742063616e20676574206365727460608201527f61696e206162696c69746965732e222c2022696d616765223a2022646174613a60808201527f696d6167652f7376672b786d6c3b6261736536342c000000000000000000000060a082015250565b6000616a6960b58361683d565b9150616a7482616975565b60b582019050919050565b7f227d000000000000000000000000000000000000000000000000000000000000600082015250565b6000616ab560028361683d565b9150616ac082616a7f565b600282019050919050565b6000616ad682616952565b9150616ae28285616848565b9150616aed82616a5c565b9150616af98284616848565b9150616b0482616aa8565b91508190509392505050565b7f646174613a6170706c69636174696f6e2f6a736f6e3b6261736536342c000000600082015250565b6000616b46601d8361683d565b9150616b5182616b10565b601d82019050919050565b6000616b6782616b39565b9150616b738284616848565b915081905092915050565b7f4f776e61626c653a206e6577206f776e657220697320746865207a65726f206160008201527f6464726573730000000000000000000000000000000000000000000000000000602082015250565b6000616bda602683615004565b9150616be582616b7e565b604082019050919050565b60006020820190508181036000830152616c0981616bcd565b9050919050565b6000616c1c8285616848565b9150616c288284616848565b91508190509392505050565b7f4e487b7100000000000000000000000000000000000000000000000000000000600052601260045260246000fd5b6000616c6e826150b4565b9150616c79836150b4565b925082616c8957616c88616c34565b5b828206905092915050565b7f2000000000000000000000000000000000000000000000000000000000000000600082015250565b6000616cca60018361683d565b9150616cd582616c94565b600182019050919050565b60008190508160005260206000209050919050565b60008154616d0281615a8d565b616d0c818661683d565b94506001821660008114616d275760018114616d3857616d6b565b60ff19831686528186019350616d6b565b616d4185616ce0565b60005b83811015616d6357815481890152600182019150602081019050616d44565b838801955050505b50505092915050565b6000616d808285616848565b9150616d8b82616cbd565b9150616d978284616cf5565b91508190509392505050565b7f2200000000000000000000000000000000000000000000000000000000000000600082015250565b6000616dd960018361683d565b9150616de482616da3565b600182019050919050565b7f2220000000000000000000000000000000000000000000000000000000000000600082015250565b6000616e2560028361683d565b9150616e3082616def565b600282019050919050565b6000616e4682616dcc565b9150616e528286616848565b9150616e5d82616cbd565b9150616e698285616848565b9150616e7482616e18565b9150616e808284616848565b9150819050949350505050565b7f202b310000000000000000000000000000000000000000000000000000000000600082015250565b6000616ec360038361683d565b9150616ece82616e8d565b600382019050919050565b6000616ee482616dcc565b9150616ef08286616848565b9150616efb82616cbd565b9150616f078285616848565b9150616f1282616e18565b9150616f1e8284616848565b9150616f2982616eb6565b9150819050949350505050565b7f4552433732313a206d696e7420746f20746865207a65726f2061646472657373600082015250565b6000616f6c602083615004565b9150616f7782616f36565b602082019050919050565b60006020820190508181036000830152616f9b81616f5f565b9050919050565b7f4552433732313a20746f6b656e20616c7265616479206d696e74656400000000600082015250565b6000616fd8601c83615004565b9150616fe382616fa2565b602082019050919050565b6000602082019050818103600083015261700781616fcb565b9050919050565b7f4552433732313a206f70657261746f7220717565727920666f72206e6f6e657860008201527f697374656e7420746f6b656e0000000000000000000000000000000000000000602082015250565b600061706a602c83615004565b91506170758261700e565b604082019050919050565b600060208201905081810360008301526170998161705d565b9050919050565b7f4552433732313a207472616e73666572206f6620746f6b656e2074686174206960008201527f73206e6f74206f776e0000000000000000000000000000000000000000000000602082015250565b60006170fc602983615004565b9150617107826170a0565b604082019050919050565b6000602082019050818103600083015261712b816170ef565b9050919050565b7f4552433732313a207472616e7366657220746f20746865207a65726f2061646460008201527f7265737300000000000000000000000000000000000000000000000000000000602082015250565b600061718e602483615004565b915061719982617132565b604082019050919050565b600060208201905081810360008301526171bd81617181565b9050919050565b60006171cf826150b4565b91506171da836150b4565b9250817fffffffffffffffffffffffffffffffffffffffffffffffffffffffffffffffff048311821515161561721357617212615f46565b5b828202905092915050565b7f4552433732313a20617070726f766520746f2063616c6c657200000000000000600082015250565b6000617254601983615004565b915061725f8261721e565b602082019050919050565b6000602082019050818103600083015261728381617247565b9050919050565b7f4552433732313a207472616e7366657220746f206e6f6e20455243373231526560008201527f63656976657220696d706c656d656e7465720000000000000000000000000000602082015250565b60006172e6603283615004565b91506172f18261728a565b604082019050919050565b60006020820190508181036000830152617315816172d9565b9050919050565b6000617327826150b4565b9150617332836150b4565b92508261734257617341616c34565b5b828204905092915050565b60006173598284616848565b915081905092915050565b7f4e487b7100000000000000000000000000000000000000000000000000000000600052603160045260246000fd5b600081519050919050565b60006173a982617393565b6173b381856162f1565b93506173c3818560208601615015565b6173cc81615048565b840191505092915050565b60006080820190506173ec6000830187615129565b6173f96020830186615129565b61740660408301856151ff565b8181036060830152617418818461739e565b905095945050505050565b60008151905061743281614f0e565b92915050565b60006020828403121561744e5761744d614ed8565b5b600061745c84828501617423565b9150509291505056fe3c2f746578743e3c7465787420783d2231302220793d2236302220636c6173733d2262617365223e3c2f746578743e3c7465787420783d2231302220793d223136302220636c6173733d2262617365223e3c2f746578743e3c7465787420783d2231302220793d223132302220636c6173733d2262617365223e3c2f746578743e3c7465787420783d2231302220793d2238302220636c6173733d2262617365223e3c2f746578743e3c7465787420783d2231302220793d223130302220636c6173733d2262617365223e3c73766720786d6c6e733d22687474703a2f2f7777772e77332e6f72672f323030302f73766722207072657365727665417370656374526174696f3d22784d696e594d696e206d656574222076696577426f783d223020302033353020333530223e3c7374796c653e2e62617365207b2066696c6c3a2077686974653b20666f6e742d66616d696c793a2073657269663b20666f6e742d73697a653a20313470783b207d3c2f7374796c653e3c726563742077696474683d223130302522206865696768743d2231303025222066696c6c3d22626c61636b22202f3e3c7465787420783d2231302220793d2232302220636c6173733d2262617365223e3c2f746578743e3c7465787420783d2231302220793d223134302220636c6173733d2262617365223e4142434445464748494a4b4c4d4e4f505152535455565758595a6162636465666768696a6b6c6d6e6f707172737475767778797a303132333435363738392b2f3c2f746578743e3c7465787420783d2231302220793d2234302220636c6173733d2262617365223e3c2f746578743e3c7465787420783d2231302220793d223138302220636c6173733d2262617365223ea2646970667358221220adc69c2fcbf519ad453c9fa063858e42f2147c6b7d5cd156a9f49e9e8723d85f64736f6c634300080a0033",
  "linkReferences": {},
  "deployedLinkReferences": {}
}