{
  "_format": "hh-sol-artifact-1",
  "contractName": "Robot",
  "sourceName": "contracts/Robot.sol",
  "abi": [
    {
      "inputs": [
        {
          "internalType": "address",
          "name": "_programContract",
          "type": "address"
        }
      ],
      "stateMutability": "nonpayable",
      "type": "constructor"
    },
    {
      "anonymous": false,
      "inputs": [
        {
          "indexed": true,
          "internalType": "address",
          "name": "owner",
          "type": "address"
        },
        {
          "indexed": true,
          "internalType": "address",
          "name": "approved",
          "type": "address"
        },
        {
          "indexed": true,
          "internalType": "uint256",
          "name": "tokenId",
          "type": "uint256"
        }
      ],
      "name": "Approval",
      "type": "event"
    },
    {
      "anonymous": false,
      "inputs": [
        {
          "indexed": true,
          "internalType": "address",
          "name": "owner",
          "type": "address"
        },
        {
          "indexed": true,
          "internalType": "address",
          "name": "operator",
          "type": "address"
        },
        {
          "indexed": false,
          "internalType": "bool",
          "name": "approved",
          "type": "bool"
        }
      ],
      "name": "ApprovalForAll",
      "type": "event"
    },
    {
      "anonymous": false,
      "inputs": [
        {
          "indexed": true,
          "internalType": "uint256[]",
          "name": "tokenIds",
          "type": "uint256[]"
        },
        {
          "indexed": false,
          "internalType": "uint256",
          "name": "amount",
          "type": "uint256"
        },
        {
          "indexed": true,
          "internalType": "uint256",
          "name": "priceReceived",
          "type": "uint256"
        },
        {
          "indexed": true,
          "internalType": "uint256",
          "name": "reserveAfterBurn",
          "type": "uint256"
        }
      ],
      "name": "Burned",
      "type": "event"
    },
    {
      "anonymous": false,
      "inputs": [
        {
          "indexed": true,
          "internalType": "uint256[]",
          "name": "tokenIds",
          "type": "uint256[]"
        },
        {
          "indexed": false,
          "internalType": "uint256",
          "name": "amount",
          "type": "uint256"
        },
        {
          "indexed": true,
          "internalType": "uint256",
          "name": "pricePaid",
          "type": "uint256"
        },
        {
          "indexed": true,
          "internalType": "uint256",
          "name": "reserveAfterMint",
          "type": "uint256"
        }
      ],
      "name": "Minted",
      "type": "event"
    },
    {
      "anonymous": false,
      "inputs": [
        {
          "indexed": true,
          "internalType": "address",
          "name": "previousOwner",
          "type": "address"
        },
        {
          "indexed": true,
          "internalType": "address",
          "name": "newOwner",
          "type": "address"
        }
      ],
      "name": "OwnershipTransferred",
      "type": "event"
    },
    {
      "anonymous": false,
      "inputs": [
        {
          "indexed": true,
          "internalType": "address",
          "name": "from",
          "type": "address"
        },
        {
          "indexed": true,
          "internalType": "address",
          "name": "to",
          "type": "address"
        },
        {
          "indexed": true,
          "internalType": "uint256",
          "name": "tokenId",
          "type": "uint256"
        }
      ],
      "name": "Transfer",
      "type": "event"
    },
    {
      "inputs": [
        {
          "internalType": "address",
          "name": "to",
          "type": "address"
        },
        {
          "internalType": "uint256",
          "name": "tokenId",
          "type": "uint256"
        }
      ],
      "name": "approve",
      "outputs": [],
      "stateMutability": "nonpayable",
      "type": "function"
    },
    {
      "inputs": [
        {
          "internalType": "address",
          "name": "owner",
          "type": "address"
        }
      ],
      "name": "balanceOf",
      "outputs": [
        {
          "internalType": "uint256",
          "name": "",
          "type": "uint256"
        }
      ],
      "stateMutability": "view",
      "type": "function"
    },
    {
      "inputs": [
        {
          "internalType": "uint256",
          "name": "_programId",
          "type": "uint256"
        },
        {
          "internalType": "uint256",
          "name": "_robotId",
          "type": "uint256"
        }
      ],
      "name": "bindProgram2Robot",
      "outputs": [],
      "stateMutability": "nonpayable",
      "type": "function"
    },
    {
      "inputs": [
        {
          "internalType": "uint256[]",
          "name": "_tokenIds",
          "type": "uint256[]"
        }
      ],
      "name": "burn",
      "outputs": [],
      "stateMutability": "nonpayable",
      "type": "function"
    },
    {
      "inputs": [
        {
          "internalType": "uint256",
          "name": "_robotId",
          "type": "uint256"
        },
        {
          "internalType": "uint256",
          "name": "_programId",
          "type": "uint256"
        }
      ],
      "name": "checkRobotContainProgram",
      "outputs": [
        {
          "internalType": "bool",
          "name": "",
          "type": "bool"
        }
      ],
      "stateMutability": "view",
      "type": "function"
    },
    {
      "inputs": [],
      "name": "creator",
      "outputs": [
        {
          "internalType": "address payable",
          "name": "",
          "type": "address"
        }
      ],
      "stateMutability": "view",
      "type": "function"
    },
    {
      "inputs": [
        {
          "internalType": "uint256",
          "name": "tokenId",
          "type": "uint256"
        }
      ],
      "name": "getApproved",
      "outputs": [
        {
          "internalType": "address",
          "name": "",
          "type": "address"
        }
      ],
      "stateMutability": "view",
      "type": "function"
    },
    {
      "inputs": [
        {
          "internalType": "uint256",
          "name": "tokenId",
          "type": "uint256"
        }
      ],
      "name": "getChest",
      "outputs": [
        {
          "internalType": "string",
          "name": "",
          "type": "string"
        }
      ],
      "stateMutability": "view",
      "type": "function"
    },
    {
      "inputs": [
        {
          "internalType": "uint256",
          "name": "_amount",
          "type": "uint256"
        }
      ],
      "name": "getCurrentPriceToBurn",
      "outputs": [
        {
          "internalType": "uint256",
          "name": "",
          "type": "uint256"
        }
      ],
      "stateMutability": "view",
      "type": "function"
    },
    {
      "inputs": [
        {
          "internalType": "uint256",
          "name": "_amount",
          "type": "uint256"
        }
      ],
      "name": "getCurrentPriceToMint",
      "outputs": [
        {
          "internalType": "uint256",
          "name": "",
          "type": "uint256"
        }
      ],
      "stateMutability": "view",
      "type": "function"
    },
    {
      "inputs": [],
      "name": "getCurrentSupply",
      "outputs": [
        {
          "internalType": "uint256",
          "name": "",
          "type": "uint256"
        }
      ],
      "stateMutability": "view",
      "type": "function"
    },
    {
      "inputs": [
        {
          "internalType": "uint256",
          "name": "tokenId",
          "type": "uint256"
        }
      ],
      "name": "getFoot",
      "outputs": [
        {
          "internalType": "string",
          "name": "",
          "type": "string"
        }
      ],
      "stateMutability": "view",
      "type": "function"
    },
    {
      "inputs": [
        {
          "internalType": "uint256",
          "name": "tokenId",
          "type": "uint256"
        }
      ],
      "name": "getHand",
      "outputs": [
        {
          "internalType": "string",
          "name": "",
          "type": "string"
        }
      ],
      "stateMutability": "view",
      "type": "function"
    },
    {
      "inputs": [
        {
          "internalType": "uint256",
          "name": "tokenId",
          "type": "uint256"
        }
      ],
      "name": "getHead",
      "outputs": [
        {
          "internalType": "string",
          "name": "",
          "type": "string"
        }
      ],
      "stateMutability": "view",
      "type": "function"
    },
    {
      "inputs": [
        {
          "internalType": "uint256",
          "name": "tokenId",
          "type": "uint256"
        }
      ],
      "name": "getNeck",
      "outputs": [
        {
          "internalType": "string",
          "name": "",
          "type": "string"
        }
      ],
      "stateMutability": "view",
      "type": "function"
    },
    {
      "inputs": [
        {
          "internalType": "uint256",
          "name": "_amount",
          "type": "uint256"
        }
      ],
      "name": "getReserveCut",
      "outputs": [
        {
          "internalType": "uint256",
          "name": "",
          "type": "uint256"
        }
      ],
      "stateMutability": "view",
      "type": "function"
    },
    {
      "inputs": [
        {
          "internalType": "uint256",
          "name": "tokenId",
          "type": "uint256"
        }
      ],
      "name": "getRing",
      "outputs": [
        {
          "internalType": "string",
          "name": "",
          "type": "string"
        }
      ],
      "stateMutability": "view",
      "type": "function"
    },
    {
      "inputs": [
        {
          "internalType": "uint256",
          "name": "tokenId",
          "type": "uint256"
        }
      ],
      "name": "getRole",
      "outputs": [
        {
          "internalType": "string",
          "name": "",
          "type": "string"
        }
      ],
      "stateMutability": "view",
      "type": "function"
    },
    {
      "inputs": [
        {
          "internalType": "uint256",
          "name": "tokenId",
          "type": "uint256"
        }
      ],
      "name": "getWaist",
      "outputs": [
        {
          "internalType": "string",
          "name": "",
          "type": "string"
        }
      ],
      "stateMutability": "view",
      "type": "function"
    },
    {
      "inputs": [
        {
          "internalType": "uint256",
          "name": "tokenId",
          "type": "uint256"
        }
      ],
      "name": "getWeapon",
      "outputs": [
        {
          "internalType": "string",
          "name": "",
          "type": "string"
        }
      ],
      "stateMutability": "view",
      "type": "function"
    },
    {
      "inputs": [],
      "name": "initBurnPrice",
      "outputs": [
        {
          "internalType": "uint256",
          "name": "",
          "type": "uint256"
        }
      ],
      "stateMutability": "view",
      "type": "function"
    },
    {
      "inputs": [],
      "name": "initMintPrice",
      "outputs": [
        {
          "internalType": "uint256",
          "name": "",
          "type": "uint256"
        }
      ],
      "stateMutability": "view",
      "type": "function"
    },
    {
      "inputs": [
        {
          "internalType": "address",
          "name": "owner",
          "type": "address"
        },
        {
          "internalType": "address",
          "name": "operator",
          "type": "address"
        }
      ],
      "name": "isApprovedForAll",
      "outputs": [
        {
          "internalType": "bool",
          "name": "",
          "type": "bool"
        }
      ],
      "stateMutability": "view",
      "type": "function"
    },
    {
      "inputs": [
        {
          "internalType": "uint256",
          "name": "_amount",
          "type": "uint256"
        },
        {
          "internalType": "uint256",
          "name": "_maxPriceFirstRobot",
          "type": "uint256"
        }
      ],
      "name": "mint",
      "outputs": [
        {
          "internalType": "uint256[]",
          "name": "_tokenIds",
          "type": "uint256[]"
        }
      ],
      "stateMutability": "payable",
      "type": "function"
    },
    {
      "inputs": [],
      "name": "name",
      "outputs": [
        {
          "internalType": "string",
          "name": "",
          "type": "string"
        }
      ],
      "stateMutability": "view",
      "type": "function"
    },
    {
      "inputs": [
        {
          "internalType": "address",
          "name": "operator",
          "type": "address"
        },
        {
          "internalType": "address",
          "name": "from",
          "type": "address"
        },
        {
          "internalType": "uint256[]",
          "name": "ids",
          "type": "uint256[]"
        },
        {
          "internalType": "uint256[]",
          "name": "values",
          "type": "uint256[]"
        },
        {
          "internalType": "bytes",
          "name": "data",
          "type": "bytes"
        }
      ],
      "name": "onERC1155BatchReceived",
      "outputs": [
        {
          "internalType": "bytes4",
          "name": "",
          "type": "bytes4"
        }
      ],
      "stateMutability": "pure",
      "type": "function"
    },
    {
      "inputs": [
        {
          "internalType": "address",
          "name": "operator",
          "type": "address"
        },
        {
          "internalType": "address",
          "name": "from",
          "type": "address"
        },
        {
          "internalType": "uint256",
          "name": "id",
          "type": "uint256"
        },
        {
          "internalType": "uint256",
          "name": "value",
          "type": "uint256"
        },
        {
          "internalType": "bytes",
          "name": "data",
          "type": "bytes"
        }
      ],
      "name": "onERC1155Received",
      "outputs": [
        {
          "internalType": "bytes4",
          "name": "",
          "type": "bytes4"
        }
      ],
      "stateMutability": "pure",
      "type": "function"
    },
    {
      "inputs": [],
      "name": "owner",
      "outputs": [
        {
          "internalType": "address",
          "name": "",
          "type": "address"
        }
      ],
      "stateMutability": "view",
      "type": "function"
    },
    {
      "inputs": [
        {
          "internalType": "uint256",
          "name": "tokenId",
          "type": "uint256"
        }
      ],
      "name": "ownerOf",
      "outputs": [
        {
          "internalType": "address",
          "name": "",
          "type": "address"
        }
      ],
      "stateMutability": "view",
      "type": "function"
    },
    {
      "inputs": [],
      "name": "programContract",
      "outputs": [
        {
          "internalType": "contract IERC1155",
          "name": "",
          "type": "address"
        }
      ],
      "stateMutability": "view",
      "type": "function"
    },
    {
      "inputs": [],
      "name": "renounceOwnership",
      "outputs": [],
      "stateMutability": "nonpayable",
      "type": "function"
    },
    {
      "inputs": [],
      "name": "reserve",
      "outputs": [
        {
          "internalType": "uint256",
          "name": "",
          "type": "uint256"
        }
      ],
      "stateMutability": "view",
      "type": "function"
    },
    {
      "inputs": [],
      "name": "robocup",
      "outputs": [
        {
          "internalType": "contract IRobocupCompetitionPlatform",
          "name": "",
          "type": "address"
        }
      ],
      "stateMutability": "view",
      "type": "function"
    },
    {
      "inputs": [
        {
          "internalType": "address",
          "name": "from",
          "type": "address"
        },
        {
          "internalType": "address",
          "name": "to",
          "type": "address"
        },
        {
          "internalType": "uint256",
          "name": "tokenId",
          "type": "uint256"
        }
      ],
      "name": "safeTransferFrom",
      "outputs": [],
      "stateMutability": "nonpayable",
      "type": "function"
    },
    {
      "inputs": [
        {
          "internalType": "address",
          "name": "from",
          "type": "address"
        },
        {
          "internalType": "address",
          "name": "to",
          "type": "address"
        },
        {
          "internalType": "uint256",
          "name": "tokenId",
          "type": "uint256"
        },
        {
          "internalType": "bytes",
          "name": "_data",
          "type": "bytes"
        }
      ],
      "name": "safeTransferFrom",
      "outputs": [],
      "stateMutability": "nonpayable",
      "type": "function"
    },
    {
      "inputs": [
        {
          "internalType": "address",
          "name": "operator",
          "type": "address"
        },
        {
          "internalType": "bool",
          "name": "approved",
          "type": "bool"
        }
      ],
      "name": "setApprovalForAll",
      "outputs": [],
      "stateMutability": "nonpayable",
      "type": "function"
    },
    {
      "inputs": [
        {
          "internalType": "address payable",
          "name": "_creator",
          "type": "address"
        }
      ],
      "name": "setCreator",
      "outputs": [],
      "stateMutability": "nonpayable",
      "type": "function"
    },
    {
      "inputs": [
        {
          "internalType": "address",
          "name": "_robocup",
          "type": "address"
        }
      ],
      "name": "setRobocup",
      "outputs": [],
      "stateMutability": "nonpayable",
      "type": "function"
    },
    {
      "inputs": [
        {
          "internalType": "bytes4",
          "name": "interfaceId",
          "type": "bytes4"
        }
      ],
      "name": "supportsInterface",
      "outputs": [
        {
          "internalType": "bool",
          "name": "",
          "type": "bool"
        }
      ],
      "stateMutability": "view",
      "type": "function"
    },
    {
      "inputs": [],
      "name": "symbol",
      "outputs": [
        {
          "internalType": "string",
          "name": "",
          "type": "string"
        }
      ],
      "stateMutability": "view",
      "type": "function"
    },
    {
      "inputs": [
        {
          "internalType": "uint256",
          "name": "index",
          "type": "uint256"
        }
      ],
      "name": "tokenByIndex",
      "outputs": [
        {
          "internalType": "uint256",
          "name": "",
          "type": "uint256"
        }
      ],
      "stateMutability": "view",
      "type": "function"
    },
    {
      "inputs": [
        {
          "internalType": "address",
          "name": "owner",
          "type": "address"
        },
        {
          "internalType": "uint256",
          "name": "index",
          "type": "uint256"
        }
      ],
      "name": "tokenOfOwnerByIndex",
      "outputs": [
        {
          "internalType": "uint256",
          "name": "",
          "type": "uint256"
        }
      ],
      "stateMutability": "view",
      "type": "function"
    },
    {
      "inputs": [
        {
          "internalType": "uint256",
          "name": "tokenId",
          "type": "uint256"
        }
      ],
      "name": "tokenURI",
      "outputs": [
        {
          "internalType": "string",
          "name": "",
          "type": "string"
        }
      ],
      "stateMutability": "view",
      "type": "function"
    },
    {
      "inputs": [],
      "name": "totalEverMinted",
      "outputs": [
        {
          "internalType": "uint256",
          "name": "",
          "type": "uint256"
        }
      ],
      "stateMutability": "view",
      "type": "function"
    },
    {
      "inputs": [],
      "name": "totalSupply",
      "outputs": [
        {
          "internalType": "uint256",
          "name": "",
          "type": "uint256"
        }
      ],
      "stateMutability": "view",
      "type": "function"
    },
    {
      "inputs": [
        {
          "internalType": "address",
          "name": "from",
          "type": "address"
        },
        {
          "internalType": "address",
          "name": "to",
          "type": "address"
        },
        {
          "internalType": "uint256",
          "name": "tokenId",
          "type": "uint256"
        }
      ],
      "name": "transferFrom",
      "outputs": [],
      "stateMutability": "nonpayable",
      "type": "function"
    },
    {
      "inputs": [
        {
          "internalType": "address",
          "name": "newOwner",
          "type": "address"
        }
      ],
      "name": "transferOwnership",
      "outputs": [],
      "stateMutability": "nonpayable",
      "type": "function"
    },
    {
      "inputs": [
        {
          "internalType": "uint256",
          "name": "_programId",
          "type": "uint256"
        },
        {
          "internalType": "uint256",
          "name": "_robotId",
          "type": "uint256"
        }
      ],
      "name": "unbindProgramFromRobot",
      "outputs": [],
      "stateMutability": "nonpayable",
      "type": "function"
    }
  ],
  "bytecode": "0x60096102c0818152682bb0b93430b6b6b2b960b91b6102e0526080908152600c6103009081526b28bab0b93a32b939ba30b33360a11b6103205260a05260046103408181526313585d5b60e21b6103605260c052610380818152634d61636560e01b6103a05260e0526103c08181526321b63ab160e11b6103e052610100526006610400908152654b6174616e6160d01b61042052610120526008610440818152672330b631b434b7b760c11b61046052610140526104808181526729b1b4b6b4ba30b960c11b6104a05261016052600a6104c081815269131bdb99c814dddbdc9960b21b6104e05261018052600b6105009081526a14da1bdc9d0814dddbdc9960aa1b610520526101a0526105408181526911da1bdcdd0815d85b9960b21b610560526101c0526105809081526911dc985d994815d85b9960b21b6105a0526101e0526105c084815268109bdb994815d85b9960ba1b6105e052610200526106008281526315d85b9960e21b6106205261022052610640908152674772696d6f69726560c01b6106605261024052610680928352684368726f6e69636c6560b81b6106a052610260929092526106c082815263546f6d6560e01b6106e0526102805261074060405261070091825263426f6f6b60e01b610720526102a091909152620001f190600090601262001de1565b506040805161022081018252600b6101e082019081526a446976696e6520526f626560a81b61020083015281528151808301835260098082526853696c6b20526f626560b81b6020838101919091528084019290925283518085018552600a808252694c696e656e20526f626560b01b8285015284860191909152845180860186526004815263526f626560e01b81850152606085015284518086018652600581526414da1a5c9d60da1b818501526080850152845180860186528181526944656d6f6e204875736b60b01b8185015260a085015284518086018652601081526f223930b3b7b739b5b4b71020b936b7b960811b8185015260c085015284518086018652601581527f53747564646564204c6561746865722041726d6f7200000000000000000000008185015260e08501528451808601865260128152712430b932102632b0ba3432b91020b936b7b960711b8185015261010085015284518086018652600d81526c2632b0ba3432b91020b936b7b960991b8185015261012085015284518086018652600f8082526e486f6c79204368657374706c61746560881b828601526101408601919091528551808701875260118152704f726e617465204368657374706c61746560781b818601526101608601528551808701875282815269141b185d194813585a5b60b21b81860152610180860152855180870187529182526910da185a5b8813585a5b60b21b828501526101a0850191909152845180860190955290845268149a5b99c813585a5b60ba1b918401919091526101c082019290925262000448916001919062001e45565b506040805161022081018252600c6101e082019081526b416e6369656e742048656c6d60a01b610200830152815281518083018352600b8082526a4f726e6174652048656c6d60a81b6020838101919091528084019290925283518085018552600a8082526947726561742048656c6d60b01b82850152848601919091528451808601865260098082526846756c6c2048656c6d60b81b8286015260608601919091528551808701875260048082526348656c6d60e01b828701526080870191909152865180880188528481526a2232b6b7b71021b937bbb760a91b8187015260a087015286518088018852600e81526d223930b3b7b713b99021b937bbb760911b8187015260c08701528651808801885260078152660576172204361760cc1b8187015260e0870152865180880188528481526a04c656174686572204361760ac1b8187015261010087015286518088018852600381526204361760ec1b8187015261012087015286518088018852600581526421b937bbb760d91b81870152610140870152865180880188529384526a111a5d9a5b9948121bdbd960aa1b84860152610160860193909352855180870187529081526814da5b1ac8121bdbd960ba1b818501526101808501528451808601865290815269131a5b995b88121bdbd960b21b818401526101a08401528351808501909452835263121bdbd960e21b908301526101c08101919091526200066790600290600f62001e45565b506040805161022081018252600b6101e082018181526a13dc9b985d194810995b1d60aa1b610200840152825282518084018452600881526715d85c8810995b1d60c21b60208281019190915280840191909152835180850185529182526a141b185d19590810995b1d60aa1b82820152828401919091528251808401845260098082526813595cda0810995b1d60ba1b82840152606084019190915283518085018552600a808252691219585d9e4810995b1d60b21b82850152608085019190915284518086018652600e81526d11195b5bdb9a1a59194810995b1d60921b8185015260a085015284518086018652600f8082526e111c9859dbdb9cdada5b8810995b1d608a1b8286015260c086019190915285518087018752601481527f53747564646564204c6561746865722042656c740000000000000000000000008186015260e086015285518087018752601181527012185c99081319585d1a195c8810995b1d607a1b8186015261010086015285518087018752600c81526b1319585d1a195c8810995b1d60a21b81860152610120860152855180870187528181526e084e4d2ced0e8e6d2d8d640a6c2e6d608b1b8186015261014086015285518087018752838152680a6d2d8d640a6c2e6d60bb1b8186015261016086015285518087018752928352680aededed840a6c2e6d60bb1b838501526101808501929092528451808601865290815269098d2dccadc40a6c2e6d60b31b818401526101a0840152835180850190945260048452630a6c2e6d60e31b918401919091526101c0820192909252620008c0916003919062001e45565b506040805161022081018252600c6101e082019081526b486f6c79204772656176657360a01b610200830152815281518083018352600e81526d4f726e617465204772656176657360901b602082810191909152808301919091528251808401845260078152664772656176657360c81b818301528284015282518084018452600b8082526a436861696e20426f6f747360a81b828401526060840191909152835180850185528181526a486561767920426f6f747360a81b81840152608084015283518085018552600f8082526e44656d6f6e6869646520426f6f747360881b8285015260a085019190915284518086018652601081526f447261676f6e736b696e20426f6f747360801b8185015260c085015284518086018652601581527f53747564646564204c65617468657220426f6f747300000000000000000000008185015260e085015284518086018652601281527148617264204c65617468657220426f6f747360701b8185015261010085015284518086018652600d8082526c4c65617468657220426f6f747360981b82860152610120860191909152855180870187528281526e446976696e6520536c69707065727360881b81860152610140860152855180870187529081526c53696c6b20536c69707065727360981b8185015261016085015284518086018652600a815269576f6f6c2053686f657360b01b81850152610180850152845180860186529182526a4c696e656e2053686f657360a81b828401526101a08401919091528351808501909452600584526453686f657360d81b918401919091526101c082019290925262000b28916004919062001e45565b506040805161022081018252600e6101e082018181526d486f6c79204761756e746c65747360901b610200840152825282518084018452601081526f4f726e617465204761756e746c65747360801b602082810191909152808401919091528351808501855260098152684761756e746c65747360b81b818301528385015283518085018552600c8082526b436861696e20476c6f76657360a01b828401526060850191909152845180860186528181526b486561767920476c6f76657360a01b81840152608085015284518086018652600d8082526c44656d6f6e27732048616e647360981b8285015260a0860191909152855180870187526011815270447261676f6e736b696e20476c6f76657360781b8185015260c086015285518087018752601681527f53747564646564204c65617468657220476c6f766573000000000000000000008185015260e086015285518087018752601381527f48617264204c65617468657220476c6f7665730000000000000000000000000081850152610100860152855180870187529384526d4c65617468657220476c6f76657360901b84840152610120850193909352845180860186529283526c446976696e6520476c6f76657360981b8383015261014084019290925283518085018552600b8082526a53696c6b20476c6f76657360a81b82840152610160850191909152845180860186529081526a576f6f6c20476c6f76657360a81b81830152610180840152835180850185529182526b4c696e656e20476c6f76657360a01b828201526101a083019190915282518084019093526006835265476c6f76657360d01b908301526101c081019190915262000da590600590600f62001e45565b506040805160a081018252600860608201908152674e65636b6c61636560c01b6080830152815281518083018352600680825265105b5d5b195d60d21b6020838101919091528084019290925283518085018552600781526614195b99185b9d60ca1b928101929092529282015262000e219190600362001e97565b506040805160e081018252600960a0820190815268476f6c642052696e6760b81b60c0830152815281518083018352600b8082526a53696c7665722052696e6760a81b60208381019190915280840192909252835180850185529081526a42726f6e7a652052696e6760a81b818301528284015282518084018452600d8082526c506c6174696e756d2052696e6760981b828401526060840191909152835180850190945283526c546974616e69756d2052696e6760981b90830152608081019190915262000ef590600790600562001ee9565b506040518061020001604052806040518060400160405280600881526020016737b3102837bbb2b960c11b8152508152602001604051806040016040528060098152602001686f66204769616e747360b81b8152508152602001604051806040016040528060098152602001686f6620546974616e7360b81b8152508152602001604051806040016040528060088152602001671bd98814dada5b1b60c21b81525081526020016040518060400160405280600d81526020016c37b3102832b93332b1ba34b7b760991b81525081526020016040518060400160405280600d81526020016c6f66204272696c6c69616e636560981b81525081526020016040518060400160405280601081526020016f1bd988115b9b1a59da1d195b9b595b9d60821b81525081526020016040518060400160405280600d81526020016c37b310283937ba32b1ba34b7b760991b81525081526020016040518060400160405280600881526020016737b31020b733b2b960c11b8152508152602001604051806040016040528060078152602001666f66205261676560c81b8152508152602001604051806040016040528060078152602001666f66204675727960c81b81525081526020016040518060400160405280600a8152602001691bd988159a5d1c9a5bdb60b21b81525081526020016040518060400160405280600a8152602001690decc40e8d0ca408cdef60b31b81525081526020016040518060400160405280600c81526020016b37b3102232ba32b1ba34b7b760a11b81525081526020016040518060400160405280600d81526020016c37b3102932b33632b1ba34b7b760991b81525081526020016040518060400160405280600c81526020016b6f6620746865205477696e7360a01b81525081525060089060106200119a92919062001f3b565b50604080516108e08101825260056108a082018181526441676f6e7960d81b6108c0840152825282518084018452600a8082526941706f63616c7970736560b01b60208381019190915280850192909252845180860186528181526920b936b0b3b2b23237b760b11b818401528486015284518086018652838152641099585cdd60da1b81840152606085015284518086018652600880825267084cad0cadadee8d60c31b82850152608086019190915285518087018752600680825265109b1a59da1d60d21b8286015260a08701919091528651808801885285815264109b1bdbd960da1b8186015260c0870152865180880188526007808252664272616d626c6560c81b8287015260e0880191909152875180890189526009808252684272696d73746f6e6560b81b828801526101008901919091528851808a018a5287815264109c9bdbd960da1b818801526101208901528851808a018a528281526621b0b93934b7b760c91b818801526101408901528851808a018a528181526843617461636c79736d60b81b818801526101608901528851808a018a52848152674368696d6572696360c01b818801526101808901528851808a018a5283815265436f7270736560d01b818801526101a08901528851808a018a528581526921b7b9393ab83a34b7b760b11b818801526101c08901528851808a018a52818152682230b6b730ba34b7b760b91b818801526101e08901528851808a018a5287815264088cac2e8d60db1b818801526102008901528851808a018a52878152642232b6b7b760d91b818801526102208901528851808a018a526004808252634469726560e01b828901526102408a01919091528951808b018b5284815265223930b3b7b760d11b818901526102608a01528951808b018b5288815264111c99585960da1b818901526102808a01528951808b018b5281815263446f6f6d60e01b818901526102a08a01528951808b018b52818152634475736b60e01b818901526102c08a01528951808b018b52888152644561676c6560d81b818901526102e08a01528951808b018b528581526722b6b83cb932b0b760c11b818901526103008a01528951808b018b52818152634661746560e01b818901526103208a01528951808b018b52600380825262466f6560e81b828a01526103408b01919091528a51808c018c528281526347616c6560e01b818a01526103608b01528a51808c018c528981526411da1bdd5b60da1b818a01526103808b01528a51808c018c5289815264476c6f6f6d60d81b818a01526103a08b01528a51808c018c528981526408ed8f2e0d60db1b818a01526103c08b01528a51808c018c5289815264476f6c656d60d81b818a01526103e08b01528a51808c018c52828152634772696d60e01b818a01526104008b01528a51808c018c52828152634861746560e01b818a01526104208b01528a51808c018c52898152644861766f6360d81b818a01526104408b01528a51808c018c52858152652437b737bab960d11b818a01526104608b01528a51808c018c52858152652437b93937b960d11b818a01526104808b01528a51808c018c52868152674879706e6f74696360c01b818a01526104a08b01528a51808c018c528581526525b930b5b2b760d11b818a01526104c08b01528a51808c018c5289815264098dec2e8d60db1b818a01526104e08b01528a51808c018c52838152684d61656c7374726f6d60b81b818a01526105008b01528a51808c018c5282815263135a5b9960e21b818a01526105208b01528a51808c018c52848152664d697261636c6560c81b818a01526105408b01528a51808c018c5285815265135bdc989a5960d21b818a01526105608b01528a51808c018c529586526727b13634bb34b7b760c11b868901526105808a01959095528951808b018b528281526813db9cdb185d59da1d60ba1b818901526105a08a01528951808b018b52818152632830b4b760e11b818901526105c08a01528951808b018b52600b81526a50616e64656d6f6e69756d60a81b818901526105e08a01528951808b018b52838152660a0d0decadcd2f60cb1b818901526106008a01528951808b018b5284815265506c6167756560d01b818901526106208a01528951808b018b52818152635261676560e01b818901526106408a01528951808b018b52838152665261707475726560c81b818901526106608a01528951808b018b528181526352756e6560e01b818901526106808a01528951808b018b528881526414dadd5b1b60da1b818901526106a08a01528951808b018b528581526214dbdb60ea1b818901526106c08a01528951808b018b529081526314dbdd5b60e21b818801526106e08901528851808a018a5283815265536f72726f7760d01b818801526107008901528851808a018a528381526514dc1a5c9a5d60d21b818801526107208901528851808a018a528781526453746f726d60d81b818801526107408901528851808a018a528281526615195b5c195cdd60ca1b818801526107608901528851808a018a5282815266151bdc9b595b9d60ca1b818801526107808901528851808a018a528181526856656e6765616e636560b81b818801526107a08901528851808a018a5282815266566963746f727960c81b818801526107c08901528851808a018a52878152642b34b832b960d91b818801526107e08901528851808a018a52928352650acdee4e8caf60d31b838701526108008801929092528751808901895292835262576f6560e81b8386015261082087019290925286518088018852948552640aee4c2e8d60db1b8585015261084086019490945285518087018752908152664c69676874277360c81b8184015261086085015284518086019095528452695368696d6d6572696e6760b01b90840152610880820192909252620019fe9190604562001f8d565b506040805161028081018252600461024082018181526342616e6560e01b61026084015282528251808401845281815263149bdbdd60e21b6020828101919091528084019190915283518085018552828152634269746560e01b81830152838501528351808501855282815263536f6e6760e01b81830152606084015283518085018552828152632937b0b960e11b81830152608084015283518085018552600580825264047726173760dc1b8284015260a085019190915284518086018652600a80825269125b9cdd1c9d5b595b9d60b21b8285015260c08601919091528551808701875284815263476c6f7760e01b8185015260e0860152855180870187526006808252652132b73232b960d11b828601526101008701919091528651808801885290815265536861646f7760d01b818501526101208601528551808701875260078152662bb434b9b832b960c91b81850152610140860152855180870187528281526414da1bdd5d60da1b81850152610160860152855180870187529182526411dc9bdddb60da1b8284015261018085019190915284518086018652838152632a32b0b960e11b818401526101a085015284518086018652838152635065616b60e01b818401526101c08501528451808601865283815263466f726d60e01b818401526101e085015284518086018652600381526229bab760e91b8184015261020085015284518086019095529184526326b7b7b760e11b9084015261022082019290925262001c349190601262001de1565b506611c37937e08000601655660e35fa931a000060175560006019819055601a55604080516080810182526004818301908152634d616c6560e01b606083015281528151808301909252600682526546656d616c6560d01b60208381019190915281019190915262001cab90601f90600262001fdf565b5034801562001cb957600080fd5b50604051620068c1380380620068c183398101604081905262001cdc9162002136565b6040805180820182526005815264149bd89bdd60da1b6020808301918252835180850190945260038452621093d560ea1b90840152815191929162001d2491600b9162002031565b50805162001d3a90600c90602084019062002031565b50505062001d5762001d5162001d8b60201b60201c565b62001d8f565b60188054336001600160a01b031991821617909155601b80549091166001600160a01b0392909216919091179055620021a5565b3390565b601580546001600160a01b038381166001600160a01b0319831681179093556040519116919082907f8be0079c531659141344cd1fd0a4f28419497f9722a3daafe3b4186f6b6457e090600090a35050565b82805482825590600052602060002090810192821562001e33579160200282015b8281111562001e33578251805162001e2291849160209091019062002031565b509160200191906001019062001e02565b5062001e41929150620020bc565b5090565b82805482825590600052602060002090810192821562001e33579160200282015b8281111562001e33578251805162001e8691849160209091019062002031565b509160200191906001019062001e66565b82805482825590600052602060002090810192821562001e33579160200282015b8281111562001e33578251805162001ed891849160209091019062002031565b509160200191906001019062001eb8565b82805482825590600052602060002090810192821562001e33579160200282015b8281111562001e33578251805162001f2a91849160209091019062002031565b509160200191906001019062001f0a565b82805482825590600052602060002090810192821562001e33579160200282015b8281111562001e33578251805162001f7c91849160209091019062002031565b509160200191906001019062001f5c565b82805482825590600052602060002090810192821562001e33579160200282015b8281111562001e33578251805162001fce91849160209091019062002031565b509160200191906001019062001fae565b82805482825590600052602060002090810192821562001e33579160200282015b8281111562001e3357825180516200202091849160209091019062002031565b509160200191906001019062002000565b8280546200203f9062002168565b90600052602060002090601f016020900481019282620020635760008555620020ae565b82601f106200207e57805160ff1916838001178555620020ae565b82800160010185558215620020ae579182015b82811115620020ae57825182559160200191906001019062002091565b5062001e41929150620020dd565b8082111562001e41576000620020d38282620020f4565b50600101620020bc565b5b8082111562001e415760008155600101620020de565b508054620021029062002168565b6000825580601f1062002113575050565b601f016020900490600052602060002090810190620021339190620020dd565b50565b6000602082840312156200214957600080fd5b81516001600160a01b03811681146200216157600080fd5b9392505050565b600181811c908216806200217d57607f821691505b602082108114156200219f57634e487b7160e01b600052602260045260246000fd5b50919050565b61470c80620021b56000396000f3fe6080604052600436106102935760003560e01c806370a082311161015a578063b88d4fde116100c1578063d47f269e1161007a578063d47f269e14610802578063e985e9c514610822578063ef68075a1461086b578063f18b01ad1461088b578063f23a6e61146108ab578063f2fde38b146108f157600080fd5b8063b88d4fde1461070b578063bad6aa7a1461072b578063bc197c811461074b578063c08a5dd5146107ac578063c87b56dd146107cc578063cd3293de146107ec57600080fd5b80639720c969116101135780639720c9691461064b5780639bdc1b691461066b5780639e41b73f1461068b578063a0b87c5f146106ab578063a22cb465146106cb578063b80f55c9146106eb57600080fd5b806370a08231146105ad578063715018a6146105cd578063808c5e38146105e25780638da5cb5b14610602578063924808b41461062057806395d89b411461063657600080fd5b80632e8ad69f116101fe5780634f6ccce7116101b75780634f6ccce7146104ed5780635312fdc21461050d5780635826b0331461052d5780635d9be39a1461054d5780636352211e1461056d57806367209aa81461058d57600080fd5b80632e8ad69f146104425780632f745c59146104585780633f5160181461047857806342842e0e14610498578063482b760f146104b85780634f3e1efc146104d857600080fd5b80630e99990d116102505780630e99990d146103895780631649229f146103a957806318160ddd146103cd5780631b2ef1ca146103e257806323b872dd146104025780632b7f4bad1461042257600080fd5b806301ffc9a71461029857806302d05d3f146102cd57806306fdde0314610305578063081812fc14610327578063095ea7b31461034757806309804a9514610369575b600080fd5b3480156102a457600080fd5b506102b86102b336600461374a565b610911565b60405190151581526020015b60405180910390f35b3480156102d957600080fd5b506018546102ed906001600160a01b031681565b6040516001600160a01b0390911681526020016102c4565b34801561031157600080fd5b5061031a61093c565b6040516102c491906137bf565b34801561033357600080fd5b506102ed6103423660046137d2565b6109ce565b34801561035357600080fd5b50610367610362366004613800565b610a68565b005b34801561037557600080fd5b506102b861038436600461382c565b610b7e565b34801561039557600080fd5b5061031a6103a43660046137d2565b610b9d565b3480156103b557600080fd5b506103bf60165481565b6040519081526020016102c4565b3480156103d957600080fd5b506013546103bf565b6103f56103f036600461382c565b610c97565b6040516102c4919061384e565b34801561040e57600080fd5b5061036761041d366004613892565b611034565b34801561042e57600080fd5b5061036761043d36600461382c565b611065565b34801561044e57600080fd5b506103bf60175481565b34801561046457600080fd5b506103bf610473366004613800565b6112c3565b34801561048457600080fd5b506103676104933660046138d3565b611359565b3480156104a457600080fd5b506103676104b3366004613892565b6113a5565b3480156104c457600080fd5b50601b546102ed906001600160a01b031681565b3480156104e457600080fd5b506103bf6113c0565b3480156104f957600080fd5b506103bf6105083660046137d2565b6113d0565b34801561051957600080fd5b5061031a6105283660046137d2565b611463565b34801561053957600080fd5b506103bf6105483660046137d2565b611554565b34801561055957600080fd5b50601e546102ed906001600160a01b031681565b34801561057957600080fd5b506102ed6105883660046137d2565b6115bf565b34801561059957600080fd5b5061031a6105a83660046137d2565b611636565b3480156105b957600080fd5b506103bf6105c83660046138d3565b611727565b3480156105d957600080fd5b506103676117ae565b3480156105ee57600080fd5b506103bf6105fd3660046137d2565b6117e4565b34801561060e57600080fd5b506015546001600160a01b03166102ed565b34801561062c57600080fd5b506103bf60195481565b34801561064257600080fd5b5061031a6117ef565b34801561065757600080fd5b5061031a6106663660046137d2565b6117fe565b34801561067757600080fd5b5061031a6106863660046137d2565b6118ef565b34801561069757600080fd5b5061031a6106a63660046137d2565b6119e1565b3480156106b757600080fd5b506103676106c636600461382c565b611ad4565b3480156106d757600080fd5b506103676106e63660046138fe565b611d0a565b3480156106f757600080fd5b5061036761070636600461397e565b611d19565b34801561071757600080fd5b50610367610726366004613a24565b611eba565b34801561073757600080fd5b506103676107463660046138d3565b611ef2565b34801561075757600080fd5b50610793610766366004613b76565b7fc5d2460186f7233c927e7db2dcc703c0e500b653ca82273b7bfad8045d85a47098975050505050505050565b6040516001600160e01b031990911681526020016102c4565b3480156107b857600080fd5b5061031a6107c73660046137d2565b611f3e565b3480156107d857600080fd5b5061031a6107e73660046137d2565b61202f565b3480156107f857600080fd5b506103bf601a5481565b34801561080e57600080fd5b5061031a61081d3660046137d2565b612333565b34801561082e57600080fd5b506102b861083d366004613c35565b6001600160a01b03918216600090815260106020908152604080832093909416825291909152205460ff1690565b34801561087757600080fd5b5061031a6108863660046137d2565b612424565b34801561089757600080fd5b506103bf6108a63660046137d2565b612516565b3480156108b757600080fd5b506107936108c6366004613c63565b7ff23a6e612e1ff4830e658fe43f4e3cb4a5f8170bd5d9e69fb5d7a7fa9e4fdf979695505050505050565b3480156108fd57600080fd5b5061036761090c3660046138d3565b612565565b60006001600160e01b0319821663780e9d6360e01b1480610936575061093682612600565b92915050565b6060600b805461094b90613cdf565b80601f016020809104026020016040519081016040528092919081815260200182805461097790613cdf565b80156109c45780601f10610999576101008083540402835291602001916109c4565b820191906000526020600020905b8154815290600101906020018083116109a757829003601f168201915b5050505050905090565b6000818152600d60205260408120546001600160a01b0316610a4c5760405162461bcd60e51b815260206004820152602c60248201527f4552433732313a20617070726f76656420717565727920666f72206e6f6e657860448201526b34b9ba32b73a103a37b5b2b760a11b60648201526084015b60405180910390fd5b506000908152600f60205260409020546001600160a01b031690565b6000610a73826115bf565b9050806001600160a01b0316836001600160a01b03161415610ae15760405162461bcd60e51b815260206004820152602160248201527f4552433732313a20617070726f76616c20746f2063757272656e74206f776e656044820152603960f91b6064820152608401610a43565b336001600160a01b0382161480610afd5750610afd813361083d565b610b6f5760405162461bcd60e51b815260206004820152603860248201527f4552433732313a20617070726f76652063616c6c6572206973206e6f74206f7760448201527f6e6572206e6f7220617070726f76656420666f7220616c6c00000000000000006064820152608401610a43565b610b798383612650565b505050565b6000828152601c60205260408120610b9690836126be565b9392505050565b606061093682604051806040016040528060048152602001631193d3d560e21b8152506004805480602002602001604051908101604052809291908181526020016000905b82821015610c8e578382906000526020600020018054610c0190613cdf565b80601f0160208091040260200160405190810160405280929190818152602001828054610c2d90613cdf565b8015610c7a5780601f10610c4f57610100808354040283529160200191610c7a565b820191906000526020600020905b815481529060010190602001808311610c5d57829003601f168201915b505050505081526020019060010190610be2565b505050506126d6565b6060333214610cda5760405162461bcd60e51b815260206004820152600f60248201526e526f626f743a206f6e6c7920454f4160881b6044820152606401610a43565b60008311610d3b5760405162461bcd60e51b815260206004820152602860248201527f526f626f743a205f616d6f756e74206d757374206265206c617267657220746860448201526730b7103d32b9379760c11b6064820152608401610a43565b6000610d476001612516565b905082811115610dac5760405162461bcd60e51b815260206004820152602a60248201527f526f626f743a20507269636520646f6573204e4f54206d6174636820796f75726044820152691032bc3832b1ba32b21760b11b6064820152608401610a43565b600084600114610dc457610dbf85612516565b610dc6565b815b905080341015610e185760405162461bcd60e51b815260206004820152601a60248201527f526f626f743a204e6f7420656e6f756768204554482073656e740000000000006044820152606401610a43565b8467ffffffffffffffff811115610e3157610e31613937565b604051908082528060200260200182016040528015610e5a578160200160208202803683370190505b50925060005b85811015610f345760006019544233604051602001610ea493929190928352602083019190915260601b6bffffffffffffffffffffffff1916604082015260540190565b6040516020818303038152906040528051906020012090508060001c63ffffffff16858381518110610ed857610ed8613d1a565b602002602001018181525050610f0733868481518110610efa57610efa613d1a565b60200260200101516129af565b600160196000828254610f1a9190613d46565b90915550829150610f2c905081613d5e565b915050610e60565b506000610f40866117e4565b601a54909150610f509082612afd565b601a556018546001600160a01b03166108fc610f6c8484612b09565b6040518115909202916000818181858888f19350505050158015610f94573d6000803e3d6000fd5b506000610fa13484612b09565b1115610fdf57336108fc610fb53485612b09565b6040518115909202916000818181858888f19350505050158015610fdd573d6000803e3d6000fd5b505b601a548285604051610ff19190613d79565b604051908190038120898252907ff5705be7282ecd6328040667ea73761f5120f58ecefc8ee9b4145bf14d9a52709060200160405180910390a450505092915050565b61103e3382612b15565b61105a5760405162461bcd60e51b8152600401610a4390613daf565b610b79838383612c0c565b61106e816115bf565b6001600160a01b0316336001600160a01b0316146110ce5760405162461bcd60e51b815260206004820152601e60248201527f526f626f743a20726f626f74204e4f542062656c6f6e6720746f20796f7500006044820152606401610a43565b6000818152601c602052604090206110e690836126be565b61114a5760405162461bcd60e51b815260206004820152602f60248201527f526f626f743a207468652070726f6772616d20686173204e4f54206265656e2060448201526e189bdd5b99081d1a19481c9bd89bdd608a1b6064820152608401610a43565b601e546040516309804a9560e01b815260048101839052602481018490526001600160a01b03909116906309804a9590604401602060405180830381865afa15801561119a573d6000803e3d6000fd5b505050506040513d601f19601f820116820180604052508101906111be9190613e00565b1561122957601e54604051630e62311560e31b815260048101839052602481018490526001600160a01b039091169063731188a890604401600060405180830381600087803b15801561121057600080fd5b505af1158015611224573d6000803e3d6000fd5b505050505b601b54604051637921219560e11b81526001600160a01b039091169063f242432a9061126090309033908790600190600401613e1d565b600060405180830381600087803b15801561127a57600080fd5b505af115801561128e573d6000803e3d6000fd5b5050506000828152601c602052604090206112aa915083612db7565b506000828152601d60205260409020610b799082612db7565b60006112ce83611727565b82106113305760405162461bcd60e51b815260206004820152602b60248201527f455243373231456e756d657261626c653a206f776e657220696e646578206f7560448201526a74206f6620626f756e647360a81b6064820152608401610a43565b506001600160a01b03919091166000908152601160209081526040808320938352929052205490565b6015546001600160a01b031633146113835760405162461bcd60e51b8152600401610a4390613e55565b601880546001600160a01b0319166001600160a01b0392909216919091179055565b610b7983838360405180602001604052806000815250611eba565b60006113cb60135490565b905090565b60006113db60135490565b821061143e5760405162461bcd60e51b815260206004820152602c60248201527f455243373231456e756d657261626c653a20676c6f62616c20696e646578206f60448201526b7574206f6620626f756e647360a01b6064820152608401610a43565b6013828154811061145157611451613d1a565b90600052602060002001549050919050565b60606109368260405180604001604052806004815260200163524f4c4560e01b815250601f805480602002602001604051908101604052809291908181526020016000905b82821015610c8e5783829060005260206000200180546114c790613cdf565b80601f01602080910402602001604051908101604052809291908181526020018280546114f390613cdf565b80156115405780601f1061151557610100808354040283529160200191611540565b820191906000526020600020905b81548152906001019060200180831161152357829003601f168201915b5050505050815260200190600101906114a8565b60008061155f6113c0565b90508061156f5750600092915050565b6000805b848110156115b7576000611595601754838661158f9190613e8a565b90612dc3565b90506115a18382612afd565b92505080806115af90613d5e565b915050611573565b509392505050565b6000818152600d60205260408120546001600160a01b0316806109365760405162461bcd60e51b815260206004820152602960248201527f4552433732313a206f776e657220717565727920666f72206e6f6e657869737460448201526832b73a103a37b5b2b760b91b6064820152608401610a43565b606061093682604051806040016040528060048152602001634e45434b60e01b8152506006805480602002602001604051908101604052809291908181526020016000905b82821015610c8e57838290600052602060002001805461169a90613cdf565b80601f01602080910402602001604051908101604052809291908181526020018280546116c690613cdf565b80156117135780601f106116e857610100808354040283529160200191611713565b820191906000526020600020905b8154815290600101906020018083116116f657829003601f168201915b50505050508152602001906001019061167b565b60006001600160a01b0382166117925760405162461bcd60e51b815260206004820152602a60248201527f4552433732313a2062616c616e636520717565727920666f7220746865207a65604482015269726f206164647265737360b01b6064820152608401610a43565b506001600160a01b03166000908152600e602052604090205490565b6015546001600160a01b031633146117d85760405162461bcd60e51b8152600401610a4390613e55565b6117e26000612dcf565b565b600061093682611554565b6060600c805461094b90613cdf565b606061093682604051806040016040528060048152602001631211505160e21b8152506002805480602002602001604051908101604052809291908181526020016000905b82821015610c8e57838290600052602060002001805461186290613cdf565b80601f016020809104026020016040519081016040528092919081815260200182805461188e90613cdf565b80156118db5780601f106118b0576101008083540402835291602001916118db565b820191906000526020600020905b8154815290600101906020018083116118be57829003601f168201915b505050505081526020019060010190611843565b6060610936826040518060400160405280600581526020016415d05254d560da1b8152506003805480602002602001604051908101604052809291908181526020016000905b82821015610c8e57838290600052602060002001805461195490613cdf565b80601f016020809104026020016040519081016040528092919081815260200182805461198090613cdf565b80156119cd5780601f106119a2576101008083540402835291602001916119cd565b820191906000526020600020905b8154815290600101906020018083116119b057829003601f168201915b505050505081526020019060010190611935565b606061093682604051806040016040528060068152602001652ba2a0a827a760d11b8152506000805480602002602001604051908101604052809291908181526020016000905b82821015610c8e578382906000526020600020018054611a4790613cdf565b80601f0160208091040260200160405190810160405280929190818152602001828054611a7390613cdf565b8015611ac05780601f10611a9557610100808354040283529160200191611ac0565b820191906000526020600020905b815481529060010190602001808311611aa357829003601f168201915b505050505081526020019060010190611a28565b601b54604051627eeac760e11b8152336004820152602481018490526000916001600160a01b03169062fdd58e90604401602060405180830381865afa158015611b22573d6000803e3d6000fd5b505050506040513d601f19601f82011682018060405250810190611b469190613ea1565b11611b935760405162461bcd60e51b815260206004820152601a60248201527f526f626f743a20796f752068617665206e6f2070726f6772616d0000000000006044820152606401610a43565b611b9c816115bf565b6001600160a01b0316336001600160a01b031614611bfc5760405162461bcd60e51b815260206004820152601e60248201527f526f626f743a20726f626f74204e4f542062656c6f6e6720746f20796f7500006044820152606401610a43565b6000818152601c60205260409020611c1490836126be565b15611c705760405162461bcd60e51b815260206004820152602660248201527f526f626f743a2074686520726f626f742068617320626f756e64207468652070604482015265726f6772616d60d01b6064820152608401610a43565b601b54604051637921219560e11b81526001600160a01b039091169063f242432a90611ca790339030908790600190600401613e1d565b600060405180830381600087803b158015611cc157600080fd5b505af1158015611cd5573d6000803e3d6000fd5b5050506000828152601c60205260409020611cf1915083612e21565b506000828152601d60205260409020610b799082612e21565b611d15338383612e2d565b5050565b333214611d5a5760405162461bcd60e51b815260206004820152600f60248201526e526f626f743a206f6e6c7920454f4160881b6044820152606401610a43565b6000611d668251611554565b905060005b8251811015611e2a57611d96838281518110611d8957611d89613d1a565b60200260200101516115bf565b6001600160a01b0316336001600160a01b031614611df65760405162461bcd60e51b815260206004820152601c60248201527f526f626f743a204e6f742074686520636f7272656374206f776e6572000000006044820152606401610a43565b611e18838281518110611e0b57611e0b613d1a565b6020026020010151612efc565b80611e2281613d5e565b915050611d6b565b50601a54611e389082612b09565b601a55604051339082156108fc029083906000818181858888f19350505050158015611e68573d6000803e3d6000fd5b50601a548183604051611e7b9190613d79565b60405190819003812085518252907fc4f0ab9a1e75e794af20b71e07383c194780132094987b97038b2a274a5352dd9060200160405180910390a45050565b611ec43383612b15565b611ee05760405162461bcd60e51b8152600401610a4390613daf565b611eec84848484612fa3565b50505050565b6015546001600160a01b03163314611f1c5760405162461bcd60e51b8152600401610a4390613e55565b601e80546001600160a01b0319166001600160a01b0392909216919091179055565b6060610936826040518060400160405280600481526020016352494e4760e01b8152506007805480602002602001604051908101604052809291908181526020016000905b82821015610c8e578382906000526020600020018054611fa290613cdf565b80601f0160208091040260200160405190810160405280929190818152602001828054611fce90613cdf565b801561201b5780601f10611ff05761010080835404028352916020019161201b565b820191906000526020600020905b815481529060010190602001808311611ffe57829003601f168201915b505050505081526020019060010190611f83565b60606120396136f3565b60405180610120016040528060fd815260200161452060fd9139815261205e836119e1565b816001602002018190525060405180606001604052806028815260200161468660289139604082015261209083612424565b6060808301919091526040805191820190526028808252614455602083013960808201526120bd836117fe565b60a0820152604080516060810190915260288082526144cf602083013960c08201526120e8836118ef565b60e0820152604080516060810190915260298082526144f7602083013961010082015261211483610b9d565b610120820152604080516060810190915260298082526144a6602083013961014082015261214183612333565b6101608201526040805160608101909152602980825261461d602083013961018082015261216e83611636565b6101a08201526040805160608101909152602980825261447d60208301396101c082015261219b83611f3e565b6101e0820152604080516060810190915260298082526146ae60208301396102008201526121c883611463565b610220820152604080518082018252600d81526c1e17ba32bc3a1f1e17b9bb339f60991b602080830191909152610240840191909152825181840151838501516060860151608087015160a088015160c089015160e08a01516101008b0151995160009a6122389a909101613eba565b60408051808303601f19018152908290526101208401516101408501516101608601516101808701516101a08801516101c08901516101e08a01516102008b015197995061228b988a9890602001613eba565b60408051808303601f19018152908290526102208401516102408501519193506122ba92849290602001613f7b565b604051602081830303815290604052905060006123076122d986612fd6565b6122e2846130d4565b6040516020016122f3929190613fbe565b6040516020818303038152906040526130d4565b90508060405160200161231a91906140f9565b60408051601f1981840301815291905295945050505050565b606061093682604051806040016040528060048152602001631210539160e21b8152506005805480602002602001604051908101604052809291908181526020016000905b82821015610c8e57838290600052602060002001805461239790613cdf565b80601f01602080910402602001604051908101604052809291908181526020018280546123c390613cdf565b80156124105780601f106123e557610100808354040283529160200191612410565b820191906000526020600020905b8154815290600101906020018083116123f357829003601f168201915b505050505081526020019060010190612378565b6060610936826040518060400160405280600581526020016410d21154d560da1b8152506001805480602002602001604051908101604052809291908181526020016000905b82821015610c8e57838290600052602060002001805461248990613cdf565b80601f01602080910402602001604051908101604052809291908181526020018280546124b590613cdf565b80156125025780601f106124d757610100808354040283529160200191612502565b820191906000526020600020905b8154815290600101906020018083116124e557829003601f168201915b50505050508152602001906001019061246a565b6000806125216113c0565b9050600060015b8481116115b7576000612543601654838661158f9190613d46565b905061254f8382612afd565b925050808061255d90613d5e565b915050612528565b6015546001600160a01b0316331461258f5760405162461bcd60e51b8152600401610a4390613e55565b6001600160a01b0381166125f45760405162461bcd60e51b815260206004820152602660248201527f4f776e61626c653a206e6577206f776e657220697320746865207a65726f206160448201526564647265737360d01b6064820152608401610a43565b6125fd81612dcf565b50565b60006001600160e01b031982166380ac58cd60e01b148061263157506001600160e01b03198216635b5e139f60e01b145b8061093657506301ffc9a760e01b6001600160e01b0319831614610936565b6000818152600f6020526040902080546001600160a01b0319166001600160a01b0384169081179091558190612685826115bf565b6001600160a01b03167f8c5be1e5ebec7d5bd14f71427d1e84f3dd0314c0f7b2291e5b200ac8c7c3b92560405160405180910390a45050565b60008181526001830160205260408120541515610b96565b6060600061270c846126e787612fd6565b6040516020016126f892919061413e565b60405160208183030381529060405261323a565b905060008384518361271e9190614183565b8151811061272e5761272e613d1a565b6020026020010151905060006015836127479190614183565b9050600e8111156127a057600880548391906127639086614183565b8154811061277357612773613d1a565b9060005260206000200160405160200161278e929190614197565b60405160208183030381529060405291505b601381106129a5576127b061371b565b600980546127be9086614183565b815481106127ce576127ce613d1a565b9060005260206000200180546127e390613cdf565b80601f016020809104026020016040519081016040528092919081815260200182805461280f90613cdf565b801561285c5780601f106128315761010080835404028352916020019161285c565b820191906000526020600020905b81548152906001019060200180831161283f57829003601f168201915b50505050508160006002811061287457612874613d1a565b6020020152600a80546128879086614183565b8154811061289757612897613d1a565b9060005260206000200180546128ac90613cdf565b80601f01602080910402602001604051908101604052809291908181526020018280546128d890613cdf565b80156129255780601f106128fa57610100808354040283529160200191612925565b820191906000526020600020905b81548152906001019060200180831161290857829003601f168201915b50505050508160016002811061293d5761293d613d1a565b602002015260138214156129795780516020808301516040516129639392879101614257565b60405160208183030381529060405292506129a3565b805160208083015160405161299193928791016142c5565b60405160208183030381529060405292505b505b5095945050505050565b6001600160a01b038216612a055760405162461bcd60e51b815260206004820181905260248201527f4552433732313a206d696e7420746f20746865207a65726f20616464726573736044820152606401610a43565b6000818152600d60205260409020546001600160a01b031615612a6a5760405162461bcd60e51b815260206004820152601c60248201527f4552433732313a20746f6b656e20616c7265616479206d696e746564000000006044820152606401610a43565b612a766000838361326b565b6001600160a01b0382166000908152600e60205260408120805460019290612a9f908490613d46565b90915550506000818152600d602052604080822080546001600160a01b0319166001600160a01b03861690811790915590518392907fddf252ad1be2c89b69c2b068fc378daa952ba7f163c4a11628f55a4df523b3ef908290a45050565b6000610b968284613d46565b6000610b968284613e8a565b6000818152600d60205260408120546001600160a01b0316612b8e5760405162461bcd60e51b815260206004820152602c60248201527f4552433732313a206f70657261746f7220717565727920666f72206e6f6e657860448201526b34b9ba32b73a103a37b5b2b760a11b6064820152608401610a43565b6000612b99836115bf565b9050806001600160a01b0316846001600160a01b03161480612bd45750836001600160a01b0316612bc9846109ce565b6001600160a01b0316145b80612c0457506001600160a01b0380821660009081526010602090815260408083209388168352929052205460ff165b949350505050565b826001600160a01b0316612c1f826115bf565b6001600160a01b031614612c875760405162461bcd60e51b815260206004820152602960248201527f4552433732313a207472616e73666572206f6620746f6b656e2074686174206960448201526839903737ba1037bbb760b91b6064820152608401610a43565b6001600160a01b038216612ce95760405162461bcd60e51b8152602060048201526024808201527f4552433732313a207472616e7366657220746f20746865207a65726f206164646044820152637265737360e01b6064820152608401610a43565b612cf483838361326b565b612cff600082612650565b6001600160a01b0383166000908152600e60205260408120805460019290612d28908490613e8a565b90915550506001600160a01b0382166000908152600e60205260408120805460019290612d56908490613d46565b90915550506000818152600d602052604080822080546001600160a01b0319166001600160a01b0386811691821790925591518493918716917fddf252ad1be2c89b69c2b068fc378daa952ba7f163c4a11628f55a4df523b3ef91a4505050565b6000610b968383613323565b6000610b968284614343565b601580546001600160a01b038381166001600160a01b0319831681179093556040519116919082907f8be0079c531659141344cd1fd0a4f28419497f9722a3daafe3b4186f6b6457e090600090a35050565b6000610b968383613416565b816001600160a01b0316836001600160a01b03161415612e8f5760405162461bcd60e51b815260206004820152601960248201527f4552433732313a20617070726f766520746f2063616c6c6572000000000000006044820152606401610a43565b6001600160a01b03838116600081815260106020908152604080832094871680845294825291829020805460ff191686151590811790915591519182527f17307eab39ab6107e8899845ad3d59bd9653f200f220920489ca2b5937696c31910160405180910390a3505050565b6000612f07826115bf565b9050612f158160008461326b565b612f20600083612650565b6001600160a01b0381166000908152600e60205260408120805460019290612f49908490613e8a565b90915550506000828152600d602052604080822080546001600160a01b0319169055518391906001600160a01b038416907fddf252ad1be2c89b69c2b068fc378daa952ba7f163c4a11628f55a4df523b3ef908390a45050565b612fae848484612c0c565b612fba84848484613465565b611eec5760405162461bcd60e51b8152600401610a4390614362565b606081612ffa5750506040805180820190915260018152600360fc1b602082015290565b8160005b8115613024578061300e81613d5e565b915061301d9050600a836143b4565b9150612ffe565b60008167ffffffffffffffff81111561303f5761303f613937565b6040519080825280601f01601f191660200182016040528015613069576020820181803683370190505b5090505b8415612c045761307e600183613e8a565b915061308b600a86614183565b613096906030613d46565b60f81b8183815181106130ab576130ab613d1a565b60200101906001600160f81b031916908160001a9053506130cd600a866143b4565b945061306d565b8051606090806130f4575050604080516020810190915260008152919050565b60006003613103836002613d46565b61310d91906143b4565b613118906004614343565b90506000613127826020613d46565b67ffffffffffffffff81111561313f5761313f613937565b6040519080825280601f01601f191660200182016040528015613169576020820181803683370190505b5090506000604051806060016040528060408152602001614646604091399050600181016020830160005b868110156131f5576003818a01810151603f601282901c8116860151600c83901c8216870151600684901c831688015192909316870151600891821b60ff94851601821b92841692909201901b91160160e01b835260049092019101613194565b50600386066001811461320f57600281146132205761322c565b613d3d60f01b60011983015261322c565b603d60f81b6000198301525b505050918152949350505050565b60008160405160200161324d91906143c8565b60408051601f19818403018152919052805160209091012092915050565b6001600160a01b0383166132c6576132c181601380546000838152601460205260408120829055600182018355919091527f66de8ffda797e3de9c05e8fc57b3bf0ec28a930d40b0d285d93c06501cf6a0900155565b6132e9565b816001600160a01b0316836001600160a01b0316146132e9576132e98382613563565b6001600160a01b03821661330057610b7981613600565b826001600160a01b0316826001600160a01b031614610b7957610b7982826136af565b6000818152600183016020526040812054801561340c576000613347600183613e8a565b855490915060009061335b90600190613e8a565b90508181146133c057600086600001828154811061337b5761337b613d1a565b906000526020600020015490508087600001848154811061339e5761339e613d1a565b6000918252602080832090910192909255918252600188019052604090208390555b85548690806133d1576133d16143e4565b600190038181906000526020600020016000905590558560010160008681526020019081526020016000206000905560019350505050610936565b6000915050610936565b600081815260018301602052604081205461345d57508154600181810184556000848152602080822090930184905584548482528286019093526040902091909155610936565b506000610936565b60006001600160a01b0384163b1561355857604051630a85bd0160e11b81526001600160a01b0385169063150b7a02906134a99033908990889088906004016143fa565b6020604051808303816000875af19250505080156134e4575060408051601f3d908101601f191682019092526134e191810190614437565b60015b61353e573d808015613512576040519150601f19603f3d011682016040523d82523d6000602084013e613517565b606091505b5080516135365760405162461bcd60e51b8152600401610a4390614362565b805181602001fd5b6001600160e01b031916630a85bd0160e11b149050612c04565b506001949350505050565b6000600161357084611727565b61357a9190613e8a565b6000838152601260205260409020549091508082146135cd576001600160a01b03841660009081526011602090815260408083208584528252808320548484528184208190558352601290915290208190555b5060009182526012602090815260408084208490556001600160a01b039094168352601181528383209183525290812055565b60135460009061361290600190613e8a565b6000838152601460205260408120546013805493945090928490811061363a5761363a613d1a565b90600052602060002001549050806013838154811061365b5761365b613d1a565b6000918252602080832090910192909255828152601490915260408082208490558582528120556013805480613693576136936143e4565b6001900381819060005260206000200160009055905550505050565b60006136ba83611727565b6001600160a01b039093166000908152601160209081526040808320868452825280832085905593825260129052919091209190915550565b6040518061026001604052806013905b60608152602001906001900390816137035790505090565b6040805180820190915260608152600160208201613703565b6001600160e01b0319811681146125fd57600080fd5b60006020828403121561375c57600080fd5b8135610b9681613734565b60005b8381101561378257818101518382015260200161376a565b83811115611eec5750506000910152565b600081518084526137ab816020860160208601613767565b601f01601f19169290920160200192915050565b602081526000610b966020830184613793565b6000602082840312156137e457600080fd5b5035919050565b6001600160a01b03811681146125fd57600080fd5b6000806040838503121561381357600080fd5b823561381e816137eb565b946020939093013593505050565b6000806040838503121561383f57600080fd5b50508035926020909101359150565b6020808252825182820181905260009190848201906040850190845b818110156138865783518352928401929184019160010161386a565b50909695505050505050565b6000806000606084860312156138a757600080fd5b83356138b2816137eb565b925060208401356138c2816137eb565b929592945050506040919091013590565b6000602082840312156138e557600080fd5b8135610b96816137eb565b80151581146125fd57600080fd5b6000806040838503121561391157600080fd5b823561391c816137eb565b9150602083013561392c816138f0565b809150509250929050565b634e487b7160e01b600052604160045260246000fd5b604051601f8201601f1916810167ffffffffffffffff8111828210171561397657613976613937565b604052919050565b6000602080838503121561399157600080fd5b823567ffffffffffffffff808211156139a957600080fd5b818501915085601f8301126139bd57600080fd5b8135818111156139cf576139cf613937565b8060051b91506139e084830161394d565b81815291830184019184810190888411156139fa57600080fd5b938501935b83851015613a18578435825293850193908501906139ff565b98975050505050505050565b60008060008060808587031215613a3a57600080fd5b8435613a45816137eb565b9350602085810135613a56816137eb565b935060408601359250606086013567ffffffffffffffff80821115613a7a57600080fd5b818801915088601f830112613a8e57600080fd5b813581811115613aa057613aa0613937565b613ab2601f8201601f1916850161394d565b91508082528984828501011115613ac857600080fd5b808484018584013760008482840101525080935050505092959194509250565b60008083601f840112613afa57600080fd5b50813567ffffffffffffffff811115613b1257600080fd5b6020830191508360208260051b8501011115613b2d57600080fd5b9250929050565b60008083601f840112613b4657600080fd5b50813567ffffffffffffffff811115613b5e57600080fd5b602083019150836020828501011115613b2d57600080fd5b60008060008060008060008060a0898b031215613b9257600080fd5b8835613b9d816137eb565b97506020890135613bad816137eb565b9650604089013567ffffffffffffffff80821115613bca57600080fd5b613bd68c838d01613ae8565b909850965060608b0135915080821115613bef57600080fd5b613bfb8c838d01613ae8565b909650945060808b0135915080821115613c1457600080fd5b50613c218b828c01613b34565b999c989b5096995094979396929594505050565b60008060408385031215613c4857600080fd5b8235613c53816137eb565b9150602083013561392c816137eb565b60008060008060008060a08789031215613c7c57600080fd5b8635613c87816137eb565b95506020870135613c97816137eb565b94506040870135935060608701359250608087013567ffffffffffffffff811115613cc157600080fd5b613ccd89828a01613b34565b979a9699509497509295939492505050565b600181811c90821680613cf357607f821691505b60208210811415613d1457634e487b7160e01b600052602260045260246000fd5b50919050565b634e487b7160e01b600052603260045260246000fd5b634e487b7160e01b600052601160045260246000fd5b60008219821115613d5957613d59613d30565b500190565b6000600019821415613d7257613d72613d30565b5060010190565b815160009082906020808601845b83811015613da357815185529382019390820190600101613d87565b50929695505050505050565b60208082526031908201527f4552433732313a207472616e736665722063616c6c6572206973206e6f74206f6040820152701ddb995c881b9bdc88185c1c1c9bdd9959607a1b606082015260800190565b600060208284031215613e1257600080fd5b8151610b96816138f0565b6001600160a01b0394851681529290931660208301526040820152606081019190915260a06080820181905260009082015260c00190565b6020808252818101527f4f776e61626c653a2063616c6c6572206973206e6f7420746865206f776e6572604082015260600190565b600082821015613e9c57613e9c613d30565b500390565b600060208284031215613eb357600080fd5b5051919050565b60008a51613ecc818460208f01613767565b8a51613ede8183860160208f01613767565b8a519184010190613ef3818360208e01613767565b8951613f058183850160208e01613767565b8951929091010190613f1b818360208c01613767565b8751613f2d8183850160208c01613767565b8751929091010190613f43818360208a01613767565b8551613f558183850160208a01613767565b8551929091010190613f6b818360208801613767565b019b9a5050505050505050505050565b60008451613f8d818460208901613767565b845190830190613fa1818360208901613767565b8451910190613fb4818360208801613767565b0195945050505050565b707b226e616d65223a2022526f626f74202360781b81528251600090613feb816011850160208801613767565b7f222c20226465736372697074696f6e223a2022526f626f742069732072616e646011918401918201527f6f6d6c792067656e657261746564204e465420776974682065717569706d656e60318201527f742c20616e642063616e2061737369676e2050726f6772616d204e465473207460518201527f6f20726f626f742c207468757320726f626f742063616e20676574206365727460718201527f61696e206162696c69746965732e222c2022696d616765223a2022646174613a6091820152741a5b5859d94bdcdd99cade1b5b0ed8985cd94d8d0b605a1b60b182015283516140de8160c6840160208801613767565b61227d60f01b60c6929091019182015260c801949350505050565b7f646174613a6170706c69636174696f6e2f6a736f6e3b6261736536342c00000081526000825161413181601d850160208701613767565b91909101601d0192915050565b60008351614150818460208801613767565b835190830190614164818360208801613767565b01949350505050565b634e487b7160e01b600052601260045260246000fd5b6000826141925761419261416d565b500690565b6000835160206141aa8285838901613767565b600160fd1b918401918252845460019060009080831c818416806141cf57607f821691505b8582108114156141ed57634e487b7160e01b84526022600452602484fd5b808015614201576001811461421657614247565b60ff1984168887015282880186019450614247565b60008b81526020902060005b8481101561423d5781548a8201890152908701908801614222565b5050858389010194505b50929a9950505050505050505050565b601160f91b81528351600090614274816001850160208901613767565b600160fd1b6001918401918201528451614295816002840160208901613767565b61011160f51b6002929091019182015283516142b8816004840160208801613767565b0160040195945050505050565b601160f91b815283516000906142e2816001850160208901613767565b600160fd1b6001918401918201528451614303816002840160208901613767565b61011160f51b600292909101918201528351614326816004840160208801613767565b62202b3160e81b6004929091019182015260070195945050505050565b600081600019048311821515161561435d5761435d613d30565b500290565b60208082526032908201527f4552433732313a207472616e7366657220746f206e6f6e20455243373231526560408201527131b2b4bb32b91034b6b83632b6b2b73a32b960711b606082015260800190565b6000826143c3576143c361416d565b500490565b600082516143da818460208701613767565b9190910192915050565b634e487b7160e01b600052603160045260246000fd5b6001600160a01b038581168252841660208201526040810183905260806060820181905260009061442d90830184613793565b9695505050505050565b60006020828403121561444957600080fd5b8151610b968161373456fe3c2f746578743e3c7465787420783d2231302220793d2236302220636c6173733d2262617365223e3c2f746578743e3c7465787420783d2231302220793d223136302220636c6173733d2262617365223e3c2f746578743e3c7465787420783d2231302220793d223132302220636c6173733d2262617365223e3c2f746578743e3c7465787420783d2231302220793d2238302220636c6173733d2262617365223e3c2f746578743e3c7465787420783d2231302220793d223130302220636c6173733d2262617365223e3c73766720786d6c6e733d22687474703a2f2f7777772e77332e6f72672f323030302f73766722207072657365727665417370656374526174696f3d22784d696e594d696e206d656574222076696577426f783d223020302033353020333530223e3c7374796c653e2e62617365207b2066696c6c3a2077686974653b20666f6e742d66616d696c793a2073657269663b20666f6e742d73697a653a20313470783b207d3c2f7374796c653e3c726563742077696474683d223130302522206865696768743d2231303025222066696c6c3d22626c61636b22202f3e3c7465787420783d2231302220793d2232302220636c6173733d2262617365223e3c2f746578743e3c7465787420783d2231302220793d223134302220636c6173733d2262617365223e4142434445464748494a4b4c4d4e4f505152535455565758595a6162636465666768696a6b6c6d6e6f707172737475767778797a303132333435363738392b2f3c2f746578743e3c7465787420783d2231302220793d2234302220636c6173733d2262617365223e3c2f746578743e3c7465787420783d2231302220793d223138302220636c6173733d2262617365223ea26469706673582212200e468713023b3683f438121e5bf05714c39931863143577fa6c4506b68ff03a964736f6c634300080a0033",
  "linkReferences": {},
  "deployedLinkReferences": {}
}